:020000040000FA
:1000000001C0D8C0112480914000882369F0282FB6
:1000100030E083FD03C02C7F232B31F4809340001C
:100020008CBB80E0AFD0ECC0A895009A089A1092E3
:10003000E205809182128370813029F58CE590E091
:10004000809308089093090881E080930B0883E06F
:10005000809307081092050880EC8093060888E0DA
:1000600091D0079A87E0815089F4A8950DE983E043
:10007000D82E7CD08134F1F479D0182F8CD012385E
:1000800089F480E013C083E790E0DACF179A2EEC72
:1000900036E5A8959091040897FDE8CF21503109E5
:1000A000C1F7E1CF89E0113809F083E058D080E151
:1000B00056D0DFCF823419F484E175D0F8CF85347F
:1000C00011F485E0FACF853531F450D0C82F4ED0E9
:1000D000D82F61D0ECCF863519F484E064D0D1CF2D
:1000E0008436B9F443D042D0182F40D0863479F406
:1000F000D05C3CD0888321961150D9F74CD004BFF6
:10010000D0920010809102108370E1F7D0CFDC5EB6
:10011000F0CF843791F42AD029D0182F27D0F82E89
:100120003AD086E4F81207C0D05C8881219617D0B7
:100130001150D9F7BCCFDC5EF8CF853751F42BD006
:10014000809100110CD08091011109D08091021191
:10015000ADCF813509F0BDCF81E014D0BACF9091F9
:10016000040895FFFCCF809302080895809104084D
:1001700087FFFCCF909101088091000892FD01C09B
:10018000A89508959091010190FDFCCF98ED94BF42
:10019000809300010895EADF803219F081E0F2DFF8
:1001A000FFCF84E1DCCFCF93C82FE0DFC150E9F768
:1001B000CF91F1CF683048F48DE984BF609300108F
:1001C000809102108370E1F70895FC014083089547
:1001FE00000950C0000076C0000074C0000072C03C
:10020E00000070C000006EC000006CC000000C94B6
:10021E00D01F68C0000066C0000064C0000062C04D
:10022E00000060C000005EC000005CC000005AC04C
:10023E00000058C0000056C0000054C0000052C05C
:10024E00000050C000004EC000004CC000004AC06C
:10025E00000048C000000C94A81F44C0000042C01B
:10026E00000040C000003EC000003CC000000C94E6
:10027E007A1F0C94541F36C0000034C0000032C0E8
:10028E00000030C000002EC000002CC000002AC0AC
:10029E000000612011241FBECFEFCDBFDFE3DEBF14
:1002AE0018E2A0E0B8E2EAEEF0E702C005900D9287
:1002BE00A031B107D9F72BE2A0E1B8E201C01D923F
:1002CE00A63BB207E1F711E0C1E5D1E004C02197EA
:1002DE00FE010E947837C035D107C9F70E948323EB
:1002EE000C94B73786CF1092042808958091742805
:1002FE00882319F010927428089581E08093742851
:10030E00089580913E29882309F45EC080910928C2
:10031E0090910A288230910571F420913D29222373
:10032E0051F020913129309132292F5F3F4F209388
:10033E003129309332292091312930913229253DAE
:10034E003105A4F024ED30E0209331293093322989
:10035E002091332930913429253D3105CCF084ED9F
:10036E0090E0809333299093342908958830910535
:10037E0079F720913D29222359F320913329309189
:10038E0034292F5F3F4F2093332930933429E0CF08
:10039E00880F991FFC01E55FF64D208131812F5F9B
:1003AE003F4F20833183DC01AE55BF444D915C91AC
:1003BE00421753070CF08EC084589F44DC018D9178
:1003CE009C9180839183089580910A298130B1F4A4
:1003DE008091002990910129019680930029909394
:1003EE0001292091FC283091FD28281739070CF09F
:1003FE0071C010920029109201290895823039F5AA
:10040E00809102299091032901968A309105E4F496
:10041E00809302299093032980912A2990912B2968
:10042E00019680932A2990932B292091FA283091B6
:10043E00FB28281739070CF04DC080E290E080931E
:10044E002A2990932B29089589E090E0E1CF8330FB
:10045E0091F4809104299091052901968436910595
:10046E002CF4809304299093052908951092042961
:10047E00109205290895843091F480910629909167
:10048E00072901968C3391052CF4809306299093BD
:10049E00072908951092062910920729089585308C
:1004AE00C9F48091F9288823A9F08091F82888232F
:1004BE0089F0809108299091092901968230910541
:1004CE002CF48093082990930929089510920829F5
:1004DE0010920929089580913E29882309F457C066
:1004EE008091092890910A288230910571F420910B
:1004FE003D29222351F0209131293091322921506A
:10050E0031092093312930933229209131293091AC
:10051E00322920323105A4F420E230E02093312933
:10052E0030933229209133293091342920323105EC
:10053E00CCF480E290E0809333299093342908958F
:10054E008830910579F720913D29222359F3209186
:10055E003329309134292150310920933329309396
:10056E003429E0CF880F991FFC01E55FF64D2081FD
:10057E003181215031092083318337FF8CC08E5A4F
:10058E009F44DC018D919C9180839183089580918D
:10059E000A298130A1F480910029909101290197B7
:1005AE00809300299093012997FF75C08091FC28B4
:1005BE009091FD288093002990930129089582300F
:1005CE0099F580913D29811109C080910229909160
:1005DE000329019780930229909303298091022980
:1005EE009091032997FF16C089E090E0809302292D
:1005FE009093032980912A2990912B2980970CF0B2
:10060E004AC08091FA289091FB2880932A299093D2
:10061E002B29089580912A2990912B290197809357
:10062E002A2990932B29E6CF833079F480910429DF
:10063E0090910529019797FD05C080930429909309
:10064E000529089583E690E0F8CF843079F48091FF
:10065E00062990910729019797FD05C080930629D9
:10066E009093072908958BE390E0F8CF853099F4A5
:10067E008091F928882379F08091F828882359F001
:10068E008091082990910929019797FD05C08093C3
:10069E00082990930929089581E090E0F8CFCF9230
:1006AE00DF92EF92FF926B0128EE33E040E050E0D4
:1006BE000E945C37ECEEF8E22083318368EE73E043
:1006CE00629FC001639F900D729F900D1124C81AF6
:1006DE00D90AC60164E670E00E94273762837383ED
:1006EE002CE92603C001279F900D1124C80ED91E98
:1006FE00C6016AE070E00E9427376483758326EF97
:10070E002603C001279F900D1124C80ED91EC68244
:10071E00D782FF90EF90DF90CF900895CF92DF9227
:10072E00EF92FF926B0128EE33E040E050E00E9422
:10073E005C37E4EEF8E22083318368EE73E0629F6B
:10074E00C001639F900D729F900D1124C81AD90A93
:10075E00C60164E670E00E942737628373832CE93A
:10076E002603C001279F900D1124C80ED91EC60165
:10077E006AE070E00E9427376483758326EF2603B4
:10078E00C001279F900D1124C80ED91EC682D78294
:10079E00FF90EF90DF90CF9008954F925F926F92FF
:1007AE007F928F929F92AF92BF92CF92DF92EF92F3
:1007BE00FF920F931F93CF93DF9300D000D0CDB74E
:1007CE00DEB74B015C0129013A016701780120E097
:1007DE0030E0A9010E94713587FDA6C020E030E00F
:1007EE00A901C301B2010E94713587FD9DC020E0B1
:1007FE0030E0A901C801B6010E94713587FD94C091
:10080E0081E02091022A3091032A2130310509F02E
:10081E0080E08093232A8092E8299092E929A09281
:10082E00EA29B092EB294092EC295092ED29609280
:10083E00EE297092EF29C092F029D092F129E09220
:10084E00F229F092F3296091162A7091172A80915D
:10085E00182A9091192A0E940E3620E030E04AE7BD
:10086E0054E40E94753569837A838B839C838092CE
:10087E00F4299092F529A092F629B092F7299B01BE
:10088E00AC01C301B2010E94C4362B013C0140925F
:10089E00F8295092F9296092FA297092FB29298140
:1008AE003A814B815C81C701B6010E9475356B019F
:1008BE007C01C092FC29D092FD29E092FE29F09293
:1008CE00FF298091002A9091012A019769F5A501CF
:1008DE00940160E070E0CB010E940C356093F42926
:1008EE007093F5298093F6299093F729A30192012D
:1008FE0060E070E0CB010E940C356093F829709394
:10090E00F9298093FA299093FB29A701960160E0BB
:10091E0070E0CB010E940C356093FC297093FD2989
:10092E008093FE299093FF292496CDBFDEBFDF91E1
:10093E00CF911F910F91FF90EF90DF90CF90BF90CE
:10094E00AF909F908F907F906F905F904F90089593
:10095E004F925F926F927F928F929F92AF92BF92C1
:10096E00CF92DF92EF92FF9220E030E040E251E42E
:10097E006091F4287091F5288091F6289091F728CF
:10098E000E9475352091D728211190586093D32855
:10099E007093D4288093D5289093D628F090D2289F
:1009AE00FF2009F455C02091D3283091D4284091CE
:1009BE00D5285091D6286091DC287091DD28809141
:1009CE00DE289091DF280E940D356093CE2870931B
:1009DE00CF288093D0289093D1288091C3289091CE
:1009EE00C428892B09F07EC0FF2009F450C0609105
:1009FE00CE287091CF288091D0289091D1286093E5
:100A0E00E0287093E1288093E2289093E32826E66D
:100A1E0036E646EE5FE30E94C43620E030E040E06A
:100A2E0052E40E940D356093BF287093C0288093C6
:100A3E00C1289093C228FF90EF90DF90CF90BF9087
:100A4E00AF909F908F907F906F905F904F90089592
:100A5E008091CD28882309F22091D3283091D42873
:100A6E004091D5285091D6286091C9287091CA28F6
:100A7E008091CB289091CC280E940D356093C5288B
:100A8E007093C6288093C7289093C828A6CF8091CC
:100A9E00CD28882381F2C090C528D090C628E0903A
:100AAE00C728F090C82820E030E040E052E4C701AB
:100ABE00B6010E940C3526E636E646EE5FE30E944E
:100ACE0075356093E0287093E1288093E228909327
:100ADE00E328C092BF28D092C028E092C128F0929D
:100AEE00C228A9CF6091BB287091BC288091BD28E7
:100AFE009091BE280E94103620E030E040E251E492
:100B0E000E9475354B015C016091B3287091B42839
:100B1E008091B5289091B6280E94103620E030E0E2
:100B2E0040E251E40E9475356B017C016091AF2863
:100B3E007091B0288091B1289091B2280E94103601
:100B4E0020E030E040E251E40E947535A7019601A5
:100B5E000E940C352B013C01A50194016091DC280B
:100B6E007091DD288091DE289091DF280E940C354F
:100B7E009B01AC01C301B2010E94C4362B013C01A2
:100B8E006091B7287091B8288091B9289091BA28B1
:100B9E000E94103620E030E040E251E40E947535AC
:100BAE00A50194010E940C359B01AC01C301B20159
:100BBE000E947535A70196010E940D356B017C01CF
:100BCE00C092E028D092E128E092E228F092E32849
:100BDE0026E636E646EE5FE30E94C43620E030E0BD
:100BEE0040E052E40E940D356093BF287093C028F8
:100BFE008093C1289093C22820E030E048EC52E464
:100C0E00C701B6010E94C03687FD15CF8DEC9CEC56
:100C1E00A7ECB2E48093E0289093E128A093E22819
:100C2E00B093E32808CF80913E29882309F43FC072
:100C3E008091982881113BC08091092890910A28B3
:100C4E0020913B28211116C001978093092890937B
:100C5E000A282091F828222349F097FF0AC084E041
:100C6E0090E08093092890930A2808951816190683
:100C7E00B4F708958830910519F486E090E0F1CF2D
:100C8E008B30910519F489E090E0EBCF813191051D
:100C9E0019F480E190E0E5CF80319105A1F3863023
:100CAE0091051CF481E190E0DCCF0197DACF29CBDE
:100CBE0080913E29882309F44DC080919828811196
:100CCE0049C08091092890910A2820913B28211132
:100CDE0019C001968093092890930A282091F8282C
:100CEE00222339F00597BCF11092092810920A2898
:100CFE000895059784F181E090E080930928909300
:100D0E000A2808958630910519F488E090E0F5CF11
:100D1E0020919F288930910539F48BE090E02111C4
:100D2E00ECCF80E190E0E9CF211106C0893091052A
:100D3E004CF080319105ACF38031910519F481E1CD
:100D4E0090E0DBCF813191051CF085E090E0D5CFAE
:100D5E000196D3CFC0CB089510929128109292286D
:100D6E0010928F280895F8CFAF92BF92CF92DF9254
:100D7E00EF92FF920F931F93CF93DF936C017B0142
:100D8E008B01040F151FEB015E01AE18BF08C017D3
:100D9E00D10759F06991D601ED91FC910190F08146
:100DAE00E02DC6010995892B79F7C501DF91CF9109
:100DBE001F910F91FF90EF90DF90CF90BF90AF906B
:100DCE000895FC01508D418D252F30E0842F90E049
:100DDE00821B930B541710F0CF9608950197089528
:100DEE00FC0196898789981761F0A789AE0FBF2FEE
:100DFE00B11D5D968C9197899F5F9F73978B90E045
:100E0E0008958FEF9FEF0895FC01968987899817B3
:100E1E0031F08789E80FF11D858D90E008958FEFF1
:100E2E009FEF0895FC0196892789892F90E0805CB9
:100E3E009F4F821B91098F73992708958FE399E233
:100E4E00F1DF21E0892B09F420E0822F0895CF9362
:100E5E00DF93EC01E881F9810680F781E02D099599
:100E6E00EC85FD8586818F738683EC85FD85858176
:100E7E008F7585838F898E8B1D8ADF91CF91089513
:100E8E00FC01613019F4648B81E00895148A6623A5
:100E9E00D9F380E00895DC0154961C925497549631
:100EAE008C9154978230A0F4282F30E0F901EE0F88
:100EBE00FF1FE20FF31FEA0FFB1F9785961303C068
:100ECE009685941749F08F5F54968C935497E7CF7D
:100EDE0054961C9280E0089581E00895CF93DF939D
:100EEE00FC01908D818DC485D585981306C08D81AA
:100EFE008F7D8D83DF91CF910895A18DAE0FBF2F82
:100F0E00B11DA35ABF4F2C91818D90E001968F7326
:100F1E009927818F80E48C83A485B58512962C93B6
:100F2E00908D818D9813E6CFA485B58515968C91FD
:100F3E0015978F7D15968C93838D8823D9F2848D8A
:100F4E0080931301138ED6CFDC011C96ED91FC918C
:100F5E000FB607FE03C0258125FD03C0248125FDA4
:100F6E00BDCF0895EF92FF920F931F93CF93DF9310
:100F7E00EC0181E08D8B988D898D98131CC0AC850A
:100F8E00BD8514968C91149785FF15C012966C939F
:100F9E00AC85BD8580E414968C93EC85FD858581AA
:100FAE008F7D858381E090E0DF91CF911F910F912E
:100FBE00FF90EF9008958091110180FF08C08091FD
:100FCE0013018C8F8A8D8093130181E08B8FF62E07
:100FDE00088D10E00F5F1F4F0F731127E02E898DC4
:100FEE008E1103C0CE01B0DFFACFE88DEC0FFD2FCE
:100FFE00F11DE35AFF4FF082088FEC85FD85858148
:10100E008062CFCFCF93DF93FC0125892223C1F0DD
:10101E00EC018091110180FF08C080911301848F33
:10102E00828D8093130181E0838FEC85FD85858110
:10103E0085FD03C0848186FD03C0CE0185DFF5CF1B
:10104E00DF91CF91089580E090E0892B49F080E008
:10105E0090E0892B29F00E94000081110E9400006F
:10106E0080E090E0892B49F080E090E0892B29F018
:10107E000E94000081110E94000080E090E0892B08
:10108E0021F0DCDE81110E94000080E090E0892BCF
:10109E0049F080E090E0892B29F00E940000811138
:1010AE000C940000089581E00895CF93DF9390E0B3
:1010BE00FC01E75DFF4420812F3F69F0FC01E05009
:1010CE00F045A08130E2A39FD0011124BC5F6130B6
:1010DE0029F411962C93DF91CF9108958952904562
:1010EE00EC01E881EF3F81F0CD014096E80FF92F3A
:1010FE00F11D9FB7F89412962C938081623039F4CB
:10110E00886080839FBFE7CFF0E0E0E0F2CF877F7B
:10111E00F8CF893208F4C9CF089590E0FC01E2556A
:10112E00F045E081EE2319F1E13021F000F1E630D7
:10113E00A8F0089589529045FC012081233008F0D3
:10114E002F5F3091010A81E090E001C0880F2A954F
:10115E00EAF7809583238093010A089580E1E89F42
:10116E00F0011124E05AF54F81818F7E818308951D
:10117E000F931F93CF93DF93C82FD0E0FE01E75D4F
:10118E00FF4400810F3F99F0162F893208F4C5DF16
:10119E00FE01E050F045E08180E2E89FF00111246D
:1011AE00FC5F8081802351F0111106C00683DF9110
:1011BE00CF911F910F9108950583F9CFC952D04554
:1011CE008881309771F08F3F61F07096E80FF11DB6
:1011DE009FB7F8948081111107C0877F80839FBFCE
:1011EE00E6CFF0E0E0E0F4CF8860F8CF893208F483
:1011FE00BFCF08950F931F93CF93DF93EC01162F5C
:10120E00072F82E390E08E839F8360E0812F81DF42
:10121E001883098388E592E08A839B8388EE93E0A6
:10122E008C839D83198E1A8E1C8681E090E08887B0
:10123E0099871A861B8661E0812FD8DF1F86188A50
:10124E00198A1A8A1B8A1C8A1D8A1E8A1F8A188E60
:10125E00DF91CF911F910F91089561E08BE0C6DF72
:10126E0061E08AE0C3DF61E089E0C0DF61E088E031
:10127E00BDCF61E087E0BADF61E086E0B7DF61E015
:10128E0085E0B4DF61E084E0B1CFAF92BF92CF9240
:10129E00DF92EF92FF920F931F93CF93DF93EC01A8
:1012AE006A017B01A22E8D89882339F0E881F981AC
:1012BE000688F789E02DCE0109950C8910E0BFB69E
:1012CE00F89460E070E281EA97E0A70196010E942F
:1012DE003A3769017A018FEFC81AD80AE80AF80A74
:1012EE00F694E794D794C794EC85FD8586818D7F1F
:1012FE008683EC85FD85868186831D8AA0912311C8
:10130E000A2E000CBB0BA70196010E948E3720E01F
:10131E0034E040E050E00E945C37EC85FD85C20E63
:10132E00D31EE41EF51EC086D186EC85FD85A782F0
:10133E00EC85FD858681806C8683EC85FD858581B7
:10134E00806885839091E2058B8980958923980129
:10135E00220F331F020F131FC00FD11F9889892B25
:10136E008093E20562E08E85D4DE61E08F853EDFFC
:10137E0061E08F85CEDEBFBEDF91CF911F910F91C1
:10138E00FF90EF90DF90CF90BF90AF90089561E007
:10139E008AE1EEDE61E08DE1EBDE61E08CE1E8DE1C
:1013AE0061E08BE1E5CE0F931F93CF93082F10E0F2
:1013BE00F801E75DFF44C081CF3F81F0893208F428
:1013CE00ACDEF801E050F045E08180E2E89FF001EC
:1013DE001124FC5F8085C82381E009F480E0CF9161
:1013EE001F910F9108958FB7F89420912B2830916B
:1013FE002C2840912D2850912E28E091AA0AF09188
:10140E00AB0A9091A60A90FF08C02F5F3F4F4F4F37
:10141E005F4FE091AA0AF091AB0A8FBFA8EEB3E03E
:10142E000E94843724E0F695E7952A95E1F76E0F32
:10143E007F1F811D911D08952FB7F89460912B2861
:10144E0070912C2880912D2890912E282FBF0895D1
:10145E00CF92DF92EF92FF920F931F9380913E29CE
:10146E00811198C08091E0289091E128A091E22806
:10147E00B091E3288093E4299093E529A093E6297F
:10148E00B093E729C090DC29D090DD29E090DE29C9
:10149E00F090DF2920E030E044E352E4C701B601CA
:1014AE000E94713587FF7FC080E090E0A0EFB1E42D
:1014BE0080930B2890930C28A0930D28B0930E28A0
:1014CE008AE097EDA3EABCE38093242A9093252A21
:1014DE00A093262AB093272A80E090E8A9E0B4E4EE
:1014EE008093282A9093292AA0932A2AB0932B2AF4
:1014FE007C018D012AE037ED43EA5CE360E070E0A9
:10150E0080EF91E44AD998DFC090D828D090D9289E
:10151E00E090DA28F090DB28AB01BC014C195D0994
:10152E006E097F09493E53406105710570F0D70180
:10153E00C60188519C4FAF4FBF4F8093D8289093D0
:10154E00D928A093DA28B093DB2876DFC090D8286C
:10155E00D090D928E090DA28F090DB286C197D091C
:10156E008E099F090E940E362091E0293091E129C3
:10157E004091E2295091E3290E94C03618160CF0D2
:10158E0057C060E088E11F910F91FF90EF90DF90C0
:10159E00CF90EECD8091DC289091DD28A091DE28B1
:1015AE00B091DF2867CF2091E4293091E529409151
:1015BE00E6295091E729C701B6010E940C3520E0BB
:1015CE0030E040EA50E40E94C036181624F580E060
:1015DE0090E0A6E1B3E480930B2890930C28A0939F
:1015EE000D28B0930E281092242A1092252A1092BC
:1015FE00262A1092272A1092282A1092292A10920F
:10160E002A2A10922B2AE12CF12C8701A80197018E
:10161E00BC01CD0177CFE12CF12C08EC13E420E0D6
:10162E0030E040E05FE360E070E086E193E46ACF93
:10163E002091DC293091DD294091DE295091DF295E
:10164E006091E4297091E5298091E6299091E7292E
:10165E000E94C03687FF95CF61E094CF0F931F9302
:10166E00CF93DF93FC012081222309F450C0EC01BB
:10167E00818592850197B9F5DFDE0B891C892D894D
:10168E003E89601B710B820B930B09811A812B8192
:10169E003C816017710782079307C8F1CDDE6B8B13
:1016AE007C8B8D8B9E8B8B859C85AD85BE854D8170
:1016BE005E816F817885481B590B6A0B7B0B41301D
:1016CE0051056105710509F418820196A11DB11D20
:1016DE008B879C87AD87BE87E989FA89DF91CF9189
:1016EE001F910F9109947FDE0B891C892D893E89EC
:1016FE00601B710B820B930B09811A812B813C812C
:10170E00601771078207930710F06DDEC8CFDF9167
:10171E00CF911F910F910895CF93DF93FC012189F3
:10172E003289232BA1F0EC0181859285019791F4EA
:10173E0083DE6B8B7C8B8D8B9E8B81E088831B86EF
:10174E001C861D861E8681E090E08F87988BDF9128
:10175E00CF91089548DEEDCFDC01BC01990F880BC7
:10176E00990B2091892B30918A2B232B21F428EE73
:10177E0033E00E947E376093812B7093822B80938F
:10178E00832B9093842B61E085E1F2DC80E89BE271
:10179E00C3CF80910A29811117C080913E298111F2
:1017AE0013C08EE591E080939128909392288091BA
:1017BE00F828882361F01092092810920A2881E0F7
:1017CE0080933E2980933C2888EC90E0C5CF81E041
:1017DE0090E08093092890930A28F1CF20913D291B
:1017EE008091092890910A28211103C08830910513
:1017FE0029F0AC014D7F4C305105B9F5019780931E
:10180E00092890930A2880913E2981112BC080913E
:10181E000A292223D9F18230C9F510920A29809122
:10182E000A298530F9F420E030E040E85FE360916A
:10183E009B2870919C2880919D2890919E280E94B3
:10184E00C03687FD0FC080919728882359F01092DB
:10185E009B2810929C2810929D2810929E2881E021
:10186E008093972882E390E077CF8B30910511F02B
:10187E000D9721F481E080939828C5CF8091982808
:10188E00882309F4C0CF10929828BDCF81508430A0
:10189E0030F680930A29C3CF80913E29811116C05C
:1018AE0080910A2981110BC010923C2881E090E0B2
:1018BE008093092890930A2888EC90E04DCF1092DF
:1018CE000A2910928C2810928D28F6CF80913B28F1
:1018DE00811110923B2810923E29EECFCF92DF92CB
:1018EE00EF92FF920F931F93CF93DF93EC018881BA
:1018FE008932F8F458DD082F10E09EDD298D3A8DDF
:10190E0021153105C1F42A853B852017310741F495
:10191E0021E030E0298F3A8F6B8F7C8F8D8F9E8FD9
:10192E00DF91CF911F910F91FF90EF90DF90CF90AD
:10193E00089580E0E0CF2130310509F051C02885AF
:10194E00398520173107E9F40B8D1C8D2D8D3E8DB9
:10195E00AB01BC01401B510B620B730B8E819F813F
:10196E00092E000CAA0BBB0B481759076A077B07F9
:10197E0018F4198E1A8ED4CF82E090E0898F9A8F48
:10198E00CFCF2A853B852017310751F60B8D1C8D45
:10199E002D8D3E8DAB01BC01401B510B620B730BA9
:1019AE008C819D81092E000CAA0BBB0B8417950709
:1019BE00A607B70708F0B4CF81E08C87E989FA89CA
:1019CE00309709F00995EB89FC89309709F0099554
:1019DE00EF89F88D309709F0099586E090E0CECF2B
:1019EE002230310519F5CB8CDC8CED8CFE8C6C190C
:1019FE007D098E099F09CA80DB800D2C000CEE0834
:101A0E00FF08C616D706E806F90638F4ED85FE85FA
:101A1E00309709F4AECF0995ACCF8A859B85801798
:101A2E00910709F07DCF83E090E0A8CF23303105F8
:101A3E0049F4888599858017910709F071CFEF8554
:101A4E00F889E6CF2630310509F06ACF8885998569
:101A5E008017910721F41C86ED89FE89D9CF81E08C
:101A6E008C87EF89F88D309709F45ACFDF91CF919B
:101A7E001F910F91FF90EF90DF90CF900994E0E8C7
:101A8E00FBE2108213861486158616861786108A38
:101A9E0060E085E16DCB8AE49BE23EDE61E085E1AC
:101AAE0067CB60E085E164DB80919928882349F05B
:101ABE008091A6289091A72801968093A6289093AE
:101ACE00A7288091A8289091A92801968093A828EC
:101ADE009093A928089560E08AE14ADB8FE29BE2A9
:101AEE001BCE61E08AE144DB8091A0288F5F80935A
:101AFE00A02808958F929F92AF92BF92CF92DF92BD
:101B0E00EF92FF92CF93DF93C0912528D091262894
:101B1E002196C0932528D093262881E0809306062F
:101B2E008093080680910B0680FFFCCF6091100613
:101B3E0070911106072E000C880B990B0E9410361F
:101B4E002091212830912228409123285091242839
:101B5E000E940D356B017C01C0922128D092222863
:101B6E00E0922328F0922428609100287091012899
:101B7E00C617D7070CF476C0072E000C880B990BEE
:101B8E000E9410369B01AC01C701B6010E9475354B
:101B9E0060932128709322288093232890932428E1
:101BAE0020E030E040EA50E40E94C43620E030EC01
:101BBE004FE754E40E94753520E030E040E251E4F6
:101BCE000E94753528EB3FE840E65FE30E940D3535
:101BDE006B017C0120E030E04BEE53E40E94C436F2
:101BEE004B015C01A701960160E070E080EA90E491
:101BFE000E940C359B01AC01C501B4010E947535E4
:101C0E0020E030E048EC52E40E94753520E030E0F0
:101C1E0040E85FE30E940C3528E430E54CE75BE3D7
:101C2E000E9475356093DC287093DD288093DE2842
:101C3E009093DF2826E636E646EE5FE30E94C43632
:101C4E0020E030E040E052E40E940D356093C92858
:101C5E007093CA288093CB289093CC281092252875
:101C6E001092262882E390E080930028909301281A
:101C7E00DF91CF91FF90EF90DF90CF90BF90AF901C
:101C8E009F908F9008953F924F925F926F927F92A6
:101C9E008F929F92AF92BF92CF92DF92EF92FF926E
:101CAE000F931F93CF93DF93CDB7DEB72E97CDBF94
:101CBE00DEBF8091222A882309F429C1BDDB6D8302
:101CCE007E838F83988780910A2A90910B2AA09108
:101CDE000C2AB0910D2A4D815E816F817885481B4B
:101CEE00590B6A0B7B0B8091162A9091172AA091A3
:101CFE00182AB091192A481759076A077B0708F462
:101D0E0006C1E091042AF091052A80819181A28179
:101D1E00B38189839A83AB83BC83E091082AF091C7
:101D2E00092A9C01AD0160817181828193810E949B
:101D3E000C354B015C012091122A3091132A4091EF
:101D4E00142A5091152A69817A818B819C810E9477
:101D5E000C356B017C012091F8293091F9294091C5
:101D6E00FA295091FB29C501B4010E94C436209175
:101D7E000E2A30910F2A4091102A5091112A0E945A
:101D8E000D352B013C0140920E2A50920F2A609283
:101D9E00102A7092112A3090232A31101AC02091E5
:101DAE00F4293091F5294091F6295091F729C70170
:101DBE00B6010E94C4369B01AC01C301B2010E9460
:101DCE000C3560930E2A70930F2A8093102A9093ED
:101DDE00112A40900E2A50900F2A6090102A70906F
:101DEE00112A10911E2A90911F2A9E87A091202AB7
:101DFE00AD870091212A212F392F4A2F502FC30151
:101E0E00B2010E94C03618160CF096C0812F9E8526
:101E1E00AD85B02F80930E2A90930F2AA093102A8F
:101E2E00B093112A332009F4A0C02091F4293091E7
:101E3E00F5294091F6295091F729C501B4010E9468
:101E4E00C4364B015C012091FC293091FD29409153
:101E5E00FE295091FF29C701B6010E94C4369B018D
:101E6E00AC0160910E2A70910F2A8091102A9091E8
:101E7E00112A0E940C35A50194010E940D356B01AB
:101E8E007C019B01AC01612F7E858D85902F0E9478
:101E9E00713587FD18C010911A2A90911B2A9E87C2
:101EAE00A0911C2AAD8700911D2A212F392F4A2F70
:101EBE00502FB601C7010E94713587FD04C01C2D3D
:101ECE00DE86ED860F2DE091062AF091072A812FEE
:101EDE009E85AD85B02F80839183A283B383898144
:101EEE009A81AB81BC818093122A9093132AA0937E
:101EFE00142AB093152A8D819E81AF81B885809367
:101F0E000A2A90930B2AA0930C2AB0930D2A2E9690
:101F1E00CDBFDEBFDF91CF911F910F91FF90EF905C
:101F2E00DF90CF90BF90AF909F908F907F906F90EB
:101F3E005F904F903F90089580911A2A90911B2A9E
:101F4E00A0911C2AB0911D2A89879A87AB87BC87DE
:101F5E009C01AD01C301B2010E94713587FF62CFB2
:101F6E0089859A85AB85BC8555CF812C912C5401E2
:101F7E006ACF8091412881110EC081E080938F2815
:101F8E00809120288F5F80932028893124F00E9431
:101F9E0072021092202808958091412881110EC05E
:101FAE0081E080938F28809120288F5F8093202856
:101FBE00893124F00E948801109220280895DC01B6
:101FCE00ED91FC910488F589E02D23E030E0099431
:101FDE00FC0180819181FC01FF2790FD06C080E00D
:101FEE0094E1E82BF92B8081089580E093E1F9CFFD
:101FFE00EF92FF920F931F93CF93DF9300D0CDB745
:10200E00DEB78C017B0189839A83CE010196E0DFD6
:10201E00F70180830F5F1F4F09831A83CE0101964C
:10202E00D7DFF7018183C7010F900F90DF91CF911A
:10203E001F910F91FF90EF900895AF92BF92CF92A4
:10204E00DF92EF92FF920F931F93CF93DF9300D007
:10205E00CDB7DEB78B016B0124E0C20ED11C7B0124
:10206E005C01A61AB70AC5018E0D9F1D89839A833E
:10207E00CE010196ADDFF70181937F01EC15FD05D1
:10208E0091F7C8010F900F90DF91CF911F910F9193
:10209E00FF90EF90DF90CF90BF90AF900895CF93C9
:1020AE00DF9300D0CDB7DEB789839A83CE01019638
:1020BE008FDF0F900F90DF91CF910895FC01FF27D6
:1020CE0090FD12C080E094E1E82BF92B60838FB76E
:1020DE00F8949DE923E094BF209300108FBF809168
:1020EE00021081FDFCCF089580E093E1EDCFE6CFA5
:1020FE001F93CF93DF93EC01162F6ADF811721F028
:10210E00612F88819981DADFCE01DF91CF911F9106
:10211E000895EF92FF920F931F93CF93DF9300D00A
:10212E00CDB7DEB784EFE82E88E2F82E06E410E095
:10213E0009831A83F70161917F01CE010196D8DFE1
:10214E000F5F1F4F0A34110599F784EF98E20F9035
:10215E000F90DF91CF911F910F91FF90EF90089507
:10216E00EF92FF920F931F93CF93DF9300D0CDB7D3
:10217E00DEB78C017B0189839A83FB016081CE01DE
:10218E000196B6DF0F5F1F4F09831A83F701618136
:10219E00CE010196ADDFC7010F900F90DF91CF9169
:1021AE001F910F91FF90EF9008952F923F924F92B3
:1021BE005F926F927F928F929F92AF92BF92CF92C9
:1021CE00DF92EF92FF920F931F93CF93DF93C09105
:1021DE000A29C23009F442C5CCF4CC2309F44EC30B
:1021EE00C13009F4BCC4DF91CF911F910F91FF90C4
:1021FE00EF90DF90CF90BF90AF909F908F907F9099
:10220E006F905F904F903F902F900895C43009F4D7
:10221E002CC60CF4A6C5C53031F7C0900029D0905D
:10222E0001296091022970910329072E000C880B59
:10223E00990B0E94103620E030E040E251E40E94FB
:10224E0075354B015C01B601DD0C880B990B0E94B4
:10225E0010369B01AC01C501B4010E940D354B0136
:10226E005C018092882890928928A0928A28B09248
:10227E008B28C0912A29D0912B29C0938628D093E0
:10228E008728E0900429F0900529E0928428F092A6
:10229E008528009106291091072900938228109312
:1022AE0083282CE32E9DC0012F9D900D1124800FAD
:1022BE00911F80938C2890938D2881E0809396288F
:1022CE006C2D83E790E013DF6091022985E790E0A3
:1022DE000EDF6AE279E288E790E042DF6E2D8DE74D
:1022EE0090E005DF602F82E890E001DF61E087E893
:1022FE0090E0FDDE10913D298091812881111BC057
:10230E00111155C620E030E040E251E46091E02822
:10231E007091E1288091E2289091E3280E940D357A
:10232E009B01AC01C501B4010E94C03687FF03C0FA
:10233E0081E08093812880918128882309F452C6F8
:10234E0010929B2810929C2810929D2810929E28E5
:10235E0081E08093972810928128111164C6809194
:10236E00882890918928A0918A28B0918B288093F3
:10237E00752890937628A0937728B0937828809329
:10238E00DC299093DD29A093DE29B093DF298EED11
:10239E009AE2C2D981E08093742801E010E08CE3C8
:1023AE00282E312CC5E1D0E080918C2890918D287B
:1023BE001816190614F00C94F41961E08DE10E94C0
:1023CE00BF0860E08BE10E94BF080E94AF048BE95A
:1023DE009BE244D980918E28882329F08091F82899
:1023EE0061E0811101C060E089E10E94BF08B090F8
:1023FE009728B11009C020D8609370287093712867
:10240E008093722890937328C0907028D090712872
:10241E00E0907228F09073288091792890917A2814
:10242E00A0917B28B0917C28C81AD90AEA0AFB0A27
:10243E0020E5C21624E3D20623E0E206F10408F4F6
:10244E0051C0B1104FC08090DC289090DD28A09034
:10245E00DE28B090DF2820917D2830917E28409193
:10246E007F2850918028C501B4010E940C352B01A4
:10247E003C01C701B60120E63AEE40E050E00E9472
:10248E003A37CA01B9010E940E369B01AC01C30155
:10249E00B2010E94753560939B2870939C2880939F
:1024AE009D2890939E280E94230A60936C28709317
:1024BE006D2880936E2890936F280E94230A609354
:1024CE0068287093692880936A2890936B2880926D
:1024DE00642890926528A0926628B092672881E0C1
:1024EE0080939728C0909B28D0909C28E0909D28A0
:1024FE00F0909E2820E030E040E85FE3C701B6018F
:10250E000E94C03687FDFAC580919728882309F46A
:10251E00A1C060E088E10E94BF081092C32A109209
:10252E00CE2A1092CF2A1092D02A1092D12A10922F
:10253E00D22A1092D32A0E94230A6B017C01C092E8
:10254E006028D0926128E0926228F092632810925F
:10255E009A288090DC289090DD28A090DE28B090FC
:10256E00DF2880925C2890925D28A0925E28B0921F
:10257E005F2880916C2890916D28A0916E28B09163
:10258E006F2826013701481A590A6A0A7B0AD301B5
:10259E00C20180369A4EA105B10509F05BC02091AB
:1025AE006428309165284091662850916728C501AE
:1025BE00B4010E940C3520910528309106284091D7
:1025CE0007285091082850580E94713518160CF49F
:1025DE0071C580915A2890915B28181619060CF433
:1025EE0049C5019680935A2890935B288AE097ED0F
:1025FE00A3E2BCE38093052890930628A0930728B6
:10260E00B09308280E94230A609356287093572887
:10261E00809358289093592880915A2890915B283E
:10262E00029741F410929B2810929C2810929D289C
:10263E0010929E28C0926C28D0926D28E0926E283F
:10264E00F0926F288092642890926528A092662856
:10265E00B09267288090E0289090E128A090E22820
:10266E00B090E328C0907528D0907628E090772817
:10267E00F09078288091552881115DC581E0809376
:10268E005428A5019401C701B6010E947135181690
:10269E000CF44CC08091532B9091542B892B09F440
:1026AE0069C580E991E0A0E0B0E080934B2B909358
:1026BE004C2BA0934D2BB0934E2B80916E2B909163
:1026CE006F2B892B09F45BC580E293E0A0E0B0E0AC
:1026DE008093662B9093672BA093682BB093692BF6
:1026EE008091A1289091A228892B51F481E08093AA
:1026FE00992885E69BE210D80093A1281093A22872
:10270E008091A6289091A728029781F41092652BAC
:10271E001092702B1092712B1092722B1092732BB1
:10272E001092742B1092752B1092992880918C28F0
:10273E0090918D28B1010E9427376B017C01609327
:10274E00842870938528809352289093532820E0F4
:10275E0030E040E85FE360914E2870914F28809101
:10276E005028909151280E940D3560934E287093F9
:10277E004F2880935028909351281092AA2820E039
:10278E0030E040E85FE360919B2870919C28809137
:10279E009D2890919E280E94C03687FDFFC41092FE
:1027AE00902881E08093A528109299280E94CE0946
:1027BE0060E08DE00E94BF08C093E428D093E52826
:1027CE0089E190E08093E6289093E7288AE190E0F3
:1027DE008093E8289093E9288093EA289093EB2839
:1027EE008EE090E08093EC289093ED288DE090E0C1
:1027FE008093EE289093EF2880E190E08093F0286C
:10280E009093F1288EE190E08093F2289093F32834
:10281E008091532B9091542B892B09F4B5C488EEDB
:10282E0093E0A0E0B0E080934B2B90934C2BA093C1
:10283E004D2BB0934E2B80916E2B90916F2B892B3D
:10284E0009F4A7C480ED97E0A0E0B0E08093662B7A
:10285E009093672BA093682BB093692B8091A1283E
:10286E009091A228892B09F09FCD85E69BE20E94CC
:10287E00930B0093A1281093A22896CD1092AE2808
:10288E001092AD281092AC281092AB281092AA2864
:10289E001092A8281092A9281092A6281092A72864
:1028AE001092A5281092A3281092A4281092A12865
:1028BE001092A2281092A02810929F281092F92808
:1028CE0010929B2810929C2810929D2810929E2860
:1028DE0010929A281092DC291092DD291092DE298E
:1028EE001092DF29109299281092982881E08093F7
:1028FE0097281092652B1092702B1092712B1092BC
:10290E00722B1092732B1092742B1092752B60E019
:10291E0089E10E94BF0810922F2B10923A2B109231
:10292E003B2B10923C2B10923D2B10923E2B109273
:10293E003F2B1092142B10921F2B1092202B1092C3
:10294E00212B1092222B1092232B1092242B60E01D
:10295E0088E10E94BF081092C32A1092CE2A1092CC
:10296E00CF2A1092D02A1092D12A1092D22A1092E7
:10297E00D32A0E94CE0980919628882309F493C009
:10298E0080919528882309F48EC080919328909188
:10299E00942803970CF083C0C0919128D09192286F
:1029AE00CB34D105E4F561E085E10E94BF0888E1F2
:1029BE0090E08093EC289093ED288093EE289093EE
:1029CE00EF288093F0289093F1288093F22890932B
:1029DE00F3288093E4289093E5288093E62890933B
:1029EE00E7288093E8289093E9288093EA2890932B
:1029FE00EB2860E08CE0DF91CF911F910F91FF905B
:102A0E00EF90DF90CF90BF90AF909F908F907F9080
:102A1E006F905F904F903F902F900C94BF0860E0A6
:102A2E0085E10E94BF088BE090E08093E4289093AC
:102A3E00E52821E130E02093E6283093E72887E16E
:102A4E0090E08093E8289093E9288CE090E08093C2
:102A5E00EA289093EB288093EC289093ED2880E160
:102A6E0090E08093EE289093EF282093F0283093F7
:102A7E00F1288093F2289093F328C739D1050CF4EE
:102A8E00B8CF8091932890919428019680939328A3
:102A9E00909394281092912810929228AACF85E0B4
:102AAE0080930A29A6CF80913D2981113DC0C09007
:102ABE00E028D090E128E090E228F090E3282DEC79
:102ACE003CEC47EC52E4C701B6010E94C036181622
:102ADE00DCF420E030E040E251E4C701B6010E9490
:102AEE00C4360E94DD350E949503109290288AE02C
:102AFE0090E08093EA289093EB2860E070E0CB01A1
:102B0E000E94560361E076CF20E030E048EC52E4BC
:102B1E00C701B6010E94C4360E94DD350E9495039E
:102B2E0081E080939028E3CF20E030E040E251E452
:102B3E006091BF287091C0288091C1289091C228C1
:102B4E000E94C4360E94DD350E94950385E190E017
:102B5E008093EA289093EB2810929028CECF109273
:102B6E00AA281092902860E08DE10E94BF0861E0D3
:102B7E008CE00E94BF0880919128909192284997ED
:102B8E000CF04DC080918F28811142C088E190E0F9
:102B9E008093E4289093E5288093E6289093E72885
:102BAE008091912890919228C39724F010929128A9
:102BBE00109292288AE090E08093EA289093EB2876
:102BCE00809104299091052924E6289FB001299F20
:102BDE00700D11248091062990910729680F791F95
:102BEE00072E000C880B990BDF91CF911F910F913F
:102BFE00FF90EF90DF90CF90BF90AF909F908F900F
:102C0E007F906F905F904F903F902F900C94560353
:102C1E0089E190E08093912890939228C1CFC09340
:102C2E009028809100299091012924E6289FB001D7
:102C3E00299F700D112420910229309103294AE019
:102C4E00429FC001439F900D1124680F791F072EDC
:102C5E00000C880B990B0E949503A2CF809104293A
:102C6E009091052914E6189FB001199F700D11243B
:102C7E008091062990910729680F791F072E000C65
:102C8E00880B990B0E945603C0919128D0919228DF
:102C9E0080913D2981113CC080910029909101299C
:102CAE00189FB001199F700D1124209102293091A7
:102CBE0003294AE0429FC001439F900D1124680FE3
:102CCE00791F072E000C880B990B0E9495038AE042
:102CDE0090E08093EA289093EB2881E080939028EF
:102CEE00699754F480918F28811194C088E190E007
:102CFE008093E8289093E9288091912890919228CA
:102D0E00C3970CF470CA10929128109292286BCA35
:102D1E0080912A2990912B292AE0289FB001299F82
:102D2E00700D1124072E000C880B990B0E94950331
:102D3E0085E190E08093EA289093EB2810929028FA
:102D4E006997D4F680918F28811164C088E190E054
:102D5E008093E4289093E5288093E6289093E728C3
:102D6E00C7CF80913D2981113CC08091002990915F
:102D7E00012924E6289FB001299F700D112420916E
:102D8E000229309103294AE0429FC001439F900DD2
:102D9E001124680F791F072E000C880B990B0E94C7
:102DAE0095038AE090E08093EA289093EB2881E0E7
:102DBE0080939028809191289091922849978CF534
:102DCE0080918F28811126C088E190E08093EC28B5
:102DDE009093ED288093EE289093EF281092AA28D6
:102DEE008BCF80912A2990912B292AE0289FB00120
:102DFE00299F700D1124072E000C880B990B0E9431
:102E0E00950385E190E08093EA289093EB28109249
:102E1E009028D0CF89E190E08093912890939228CA
:102E2E006BCF1092AA2880910A29082E000C990BBC
:102E3E00FC01EE0FFF1FE250F74D2081318144E679
:102E4E00429FB001439F700D1124880F991FFC0102
:102E5E00E050F74D80819181680F791F072E000C8D
:102E6E00880B990B0E94560347CF1092AA28809187
:102E7E003D2981117CC0809100299091012924E681
:102E8E00289FB001299F700D1124209102293091A5
:102E9E0003294AE0429FC001439F900D1124680F01
:102EAE00791F072E000C880B990B0E9495038AE060
:102EBE0090E08093EA289093EB2881E0809390280D
:102ECE00809104299091052924E6289FB001299F1D
:102EDE00700D11248091062990910729680F791F92
:102EEE00072E000C880B990B0E9456038091912897
:102EFE0090919228499774F480918F28811150C037
:102F0E0088E190E08093F0289093F1288093F22846
:102F1E009093F3288091912890919228C39724F052
:102F2E0010929128109292281092A3281092A42801
:102F3E0080918E2890E0809308299093092981E052
:102F4E008093F92820910429309105294CE3429F62
:102F5E00C001439F900D112420910629309107291D
:102F6E00820F931F80938C2890938D283CC980915B
:102F7E002A2990912B292AE0289FB001299F700DB4
:102F8E001124072E000C880B990B0E94950385E1E6
:102F9E0090E08093EA289093EB281092902890CF9F
:102FAE0089E190E08093912890939228B3CFBE014F
:102FBE00DD0F880B990B0E9410366B017C0120E00F
:102FCE0030E040E751E46091BF287091C0288091B5
:102FDE00C1289091C2280E940D359B01AC01C701FA
:102FEE00B601A2C91092972861E088E10E94BF083D
:102FFE008091DC289091DD28A091DE28B091DF2809
:10300E0080937D2890937E28A0937F28B09380286C
:10301E000E94230A6093792870937A2880937B28E4
:10302E0090937C289AC96091862870918728072EE4
:10303E00000C880B990B0E941036609375287093C4
:10304E007628809377289093782820E030E040E02F
:10305E0052E40E940C3526E636E646EE5FE30E9409
:10306E0075356093DC297093DD298093DE2990936A
:10307E00DF298DC9409156285091572860915828C4
:10308E007091592826013701441A550A660A770AA3
:10309E00B301A20140395F456140710530F40196DC
:1030AE0080935A2890935B28B7CA10925A28109290
:1030BE005B28B2CA8091682890916928A0916A28ED
:1030CE00B0916B2826013701481A590A6A0A7B0A01
:1030DE00D301C201813A9846A640B10508F49CCAB4
:1030EE0081E08093812860E085E10E94BF08109204
:1030FE000A2910928C2810928D288ECA20E030E07A
:10310E0040E85FE3C701B6010E94713587FFA2CA8E
:10311E0080919728882309F49DCA80919A2881115D
:10312E0007C083EC9AE20E94930B81E080939A2869
:10313E000E942F0A8FCA80913D2981110CC0A501D2
:10314E009401C701B6010E94713518160CF096CA8B
:10315E001092542896CAA70196016091BF287091CB
:10316E00C0288091C1289091C2280E94C03687FF46
:10317E0085CAEECF80E89AE1A6E0B0E096CA80E07C
:10318E0095E3ACE0B0E0A4CA80E492E4AFE0B0E036
:10319E004ACB80E894E8AEE1B0E058CB8091F928B4
:1031AE00882309F44DC08091F828882309F448C07B
:1031BE00109290281092AB280E94CE0960E08CE00D
:1031CE000E94BF088CE090E08093E4289093E5285D
:1031DE0080E190E08093E6289093E72889E190E0E3
:1031EE008093E8289093E92881E190E08093EA2883
:1031FE009093EB2880910829909109291092EC2840
:10320E001092ED28892B79F4C093EE28D093EF28F5
:10321E00C093F028D093F12888E190E08093F228B3
:10322E009093F328C1C884E190E08093EE289093A8
:10323E00EF2888E190E08093F0289093F128EECF6C
:10324E0080914C2890914D289C012F5F3F4F2093E9
:10325E004C2830934D2861E02839384038F0875992
:10326E0098408839984008F054C060E08CE00E9485
:10327E00BF088091A528882371F01092652B1092BB
:10328E00702B1092712B1092722B1092732B109236
:10329E00742B1092752B84E68C9DB0018D9D700D54
:1032AE0011246E0D7F1D072E000C880B990B0E94AA
:1032BE0056038EED9AE20E94350B80917428882376
:1032CE00E1F161E08CE10E94BF0860E08DE10E94B7
:1032DE00BF0860917528709176288091772890911B
:1032EE00782820913D29211119C020E030E048ECCA
:1032FE0052E40E94C4360E94DD350E9495038AE096
:10330E0090E08093EA289093EB2881E080939028B8
:10331E004BC810924C2810924D28ABCF20E030E0D5
:10332E0040E251E40E94C4360E94DD350E949503AE
:10333E00C093EA28D093EB2837C860E08CE10E9456
:10334E00BF0861E08DE10E94BF0880913D29811187
:10335E0037C0C090E028D090E128E090E228F090AD
:10336E00E3282DEC3CEC47EC52E4C701B6010E9479
:10337E00C0361816ACF420E030E040E251E4C7014C
:10338E00B6010E94C4360E94DD350E94950310924C
:10339E0090288AE090E08093EA289093EB2804C866
:1033AE0020E030E048EC52E4C701B6010E94C4367A
:1033BE000E94DD350E94950381E080939028E9CF2D
:1033CE0020E030E040E251E46091BF287091C028C7
:1033DE008091C1289091C228A5CF0E94CE0984E188
:1033EE009BE20E94930B1092962860E087E890E093
:1033FE000E947E10609148287091492880914A2839
:10340E0090914B282CE330E040E050E00E943A3798
:10341E006901209346283093472864E478E288E9CE
:10342E0090E00E94FF0F20914428309145282C0DEA
:10343E003D1D20934428309345282F30374268F0A5
:10344E008091422890914328019680934228909330
:10345E004328109244281092452864E478E288E9C3
:10346E0090E00E94B71062E478E28AE990E00E9450
:10347E00B7101092462810924728109248281092A2
:10348E00492810924A2810924B281092DE2A109248
:10349E00E92A1092EA2A1092EB2A1092EC2A109244
:1034AE00ED2A1092EE2A8091A0288330B8F484EF92
:1034BE0091E00E94B30B1092C32A1092CE2A109262
:1034CE00CF2A1092D02A1092D12A1092D22A10927C
:1034DE00D32A8BE99BE20E94350BE5CF10920A2985
:1034EE000C94FA10AF92BF92CF92DF92EF92FF92AE
:1034FE000F931F93CF93DF9300D0CDB7DEB78B0121
:10350E006B0124E0C20ED11C7B015C01A61AB70A26
:10351E00C5018E0D9F1D89839A83F70161917F01ED
:10352E00CE0101960E947F10EC14FD0489F7C801AC
:10353E000F900F90DF91CF911F910F91FF90EF9011
:10354E00DF90CF90BF90AF9008952F923F924F9201
:10355E005F926F927F928F929F92AF92BF92CF9215
:10356E00DF92EF92FF920F931F93CF93DF9300D0D2
:10357E001F92CDB7DEB710928F2880913E29811110
:10358E006CC0109291281092922880910A29843052
:10359E0031F420918C2830918D28232B51F090916D
:1035AE003D29992309F457C0811155C082E08093BB
:1035BE000A2980910A2985300CF473C38091F8286A
:1035CE00882309F185E080930A298091F9288823C0
:1035DE0009F463C31092F9288091F928811113C060
:1035EE0061E08091082990910929892B09F460E006
:1035FE0060938E2890E080E00E947E1080910A29D0
:10360E0085300CF44EC30091A3281091A4281016F7
:10361E0011060CF446C388EE93E00E94B30B0F5FC5
:10362E001F4F0093A3281093A4282396CDBFDEBF6F
:10363E00DF91CF911F910F91FF90EF90DF90CF9080
:10364E00BF90AF909F908F907F906F905F904F90B4
:10365E003F902F9008958F5FAACF00910928109167
:10366E000A2880919828811102C180918E2890E0BD
:10367E0080930B2990930C2920913D292B83822F27
:10368E0090E080930D2990930E298091952890E0DB
:10369E0080931329909314298091F82890E08093B9
:1036AE00152990931629211199C08091FC2890918B
:1036BE00FD2880930F29909310298091C328909113
:1036CE00C4288093172990931829C090DC28D09095
:1036DE00DD28E090DE28F090DF28C701B6010E94B9
:1036EE00DD354B0120E030E040E251E4C701B60188
:1036FE000E94C4360E94DD352B01CB016AE070E0DA
:10370E000E9427371C018B8181117EC020E030E0A2
:10371E0048EC52E4C701B6010E94713587FF67C0BD
:10372E008092192990921A2940921E2850921F2891
:10373E0020921B2930921C298091022890910328F7
:10374E0080931D2990931E298092212990922229DF
:10375E0020922329309224290C30110509F06DC0D6
:10376E00C0921628D0921728E0921828F0921928A5
:10377E0020E030E048EC52E4C701B6010E947135FA
:10378E0087FF68C0809225299092262920922729AA
:10379E00309228298091552890E08093112990939A
:1037AE0012290131110521F410922F281092302880
:1037BE002B81211109C00830110531F487E090E00A
:1037CE008093092890930A2881E0809398288AE1B3
:1037DE0090E08093912890939228EBCE8091FA28D6
:1037EE009091FB28809331299093322966CF83E6FE
:1037FE0090E08093192990931A2989E090E08093A4
:10380E001B2990931C2998CF4090C9285090CA2804
:10381E006090CB287090CC28C301B2010E94DD3598
:10382E00609333297093342940921A2850921B28A2
:10383E0060921C2870921D287FCF0E30110509F062
:10384E0097CFC0921228D0921328E0921428F092AB
:10385E0015288ECF83E690E0809325299093262914
:10386E0089E090E0809327299093282993CF0F30F9
:10387E00110510F5F801EA5BF34E0C947837551CE0
:10388E00831C901C341EAE1CBC1CC91C631CD41C97
:10389E00871D951D631CAE1D631CBF1D61E08091CD
:1038AE000B2990910C29892B09F460E060938E28E6
:1038BE0090E080E00E947E108091092890910A2865
:1038CE0020913D29211103C08730910561F09C01A3
:1038DE002D7F2930310539F08D30910521F0813160
:1038EE00910509F0CDC121E020939828019680938F
:1038FE00092890930A286BCF61E080910D29909151
:10390E000E29892B09F460E060933D2981E090E057
:10391E00D1CF80913D2981110BC060910F298091EB
:10392E0010296093FC288093FD2882E090E0C2CF9E
:10393E0080913129909132298093FA289093FB2817
:10394E006AEF78E283E090E00E94B710B5CF61E0B5
:10395E008091132990911429892B09F460E06093CA
:10396E0095288FE090E00E947E1061E080911529ED
:10397E0090911629892B09F460E06093F82886E966
:10398E0090E098CF60911729809118296093C328F1
:10399E008093C42885E090E08DCF80913D298111E0
:1039AE008AC060911B2970911C29072E000C880B70
:1039BE00990B0E94103620E030E040E251E40E9464
:1039CE0075356B017C016091192970911A29072EAA
:1039DE00000C880B990B0E9410369B01AC01C7019D
:1039EE00B6010E940D3520E030E040E251E40E9425
:1039FE00C4366B017C0160911E2870911F28072E22
:103A0E00000C880B990B0E9410369B01AC01C7016C
:103A1E00B6010E940C3520E030E040E251E40E94F5
:103A2E0075356093D3287093D4288093D5289093BE
:103A3E00D62881E08093D2281092CD288090D3286A
:103A4E009090D428A090D528B090D62820E030E0D1
:103A5E0040E251E4C501B4010E94C4366B017C0101
:103A6E0020E030E0A901C501B4010E94713587FF45
:103A7E0044C081E08093D728F7FAF094F7F8F094D9
:103A8E00C092F428D092F528E092F628F092F7280A
:103A9E000E9490106091D72887E090E00E947E10DF
:103AAE006091D22888E090E00E947E106091CD282F
:103ABE0089E090E0FFCE6091332970913429072E72
:103ACE00000C880B990B0E94103620911A28309109
:103ADE001B2840911C2850911D280E940C35609384
:103AEE00D3287093D4288093D5289093D6281092FB
:103AFE00D22881E08093CD28A1CF1092D728C0CFB5
:103B0E0080911D2990911E2980930228909303285D
:103B1E000A9680931F2990932029CECE80911F293B
:103B2E009091202980933528909336288091DC2817
:103B3E009091DD28A091DE28B091DF288093162881
:103B4E0090931728A0931828B0931928B5CE80917A
:103B5E00DC289091DD28A091DE28B091DF2880939B
:103B6E00122890931328A0931428B0931528A4CE4E
:103B7E0020E030E040E251E4609116287091172861
:103B8E0080911828909119280E94C4360E94DD3524
:103B9E006093BB287093BC288093BD289093BE2859
:103BAE0020E030E040E251E4609112287091132839
:103BBE0080911428909115280E94C4360E94DD35FC
:103BCE006093B7287093B8288093B9289093BA2839
:103BDE006BEB78E280E590E085DC67EB78E28AE5D6
:103BEE0090E080DC20E030E040E251E46091372844
:103BFE00709138288091392890913A280E94C436C5
:103C0E000E94DD356093B3287093B4288093B52855
:103C1E009093B62820E030E040E251E460913128E4
:103C2E007091322880913328909134280E94C436A6
:103C3E000E94DD356093AF287093B0288093B12831
:103C4E009093B22863EB78E284E690E04BDC6FEA67
:103C5E0078E28EE690E046DC2FCE61E0809111296D
:103C6E0090911229892B09F460E06093552881E424
:103C7E0090E089839A83CE0101960E947F101CCE1C
:103C8E009C012B7F109298282A30310509F42ECEF4
:103C9E008C30910509F09BCD29CE81E08093F928D7
:103CAE009BCC82E390E00E94B30BBFCCEF92FF92CD
:103CBE000F931F93CF93DF93E82EF62ED0E0C0E044
:103CCE00042F10E0B8010C2E02C0759567950A946A
:103CDE00E2F761708E2D0E94FD0861E08F2D0E942B
:103CEE00FD0860E08F2D0E94FD082196C830D10599
:103CFE0049F7DF91CF911F910F91FF90EF900895AB
:103D0E000F931F93CF93DF930E9434090E944009B3
:103D1E000E94400960E080E20E94FD08C0912728C1
:103D2E00D09128288091AE288E01000F111F882374
:103D3E0031F0E091E428F091E5282097C1F08091D0
:103D4E009028882339F0E091E628F091E728C130D9
:103D5E00D10569F08091AD28882309F480C0C23066
:103D6E00D10509F07CC0E091E828F091E928EA57E6
:103D7E00F045408141606EE18FE198DFF801EE5829
:103D8E00F04560E080810E94FD0861E080E20E94C3
:103D9E00FD082196C430D1050CF06BC0C0932728C6
:103DAE00D09328280E94340960E083E10E94FD0828
:103DBE00C0912928D0912A288091AB288E01000F1E
:103DCE00111F882331F0E091EC28F091ED28209717
:103DDE00C1F08091AA28882339F0E091EE28F09165
:103DEE00EF28C130D10569F08091AC28882309F401
:103DFE0045C0C230D10509F041C0E091F028F091E4
:103E0E00F128EA57F0454081416064E182E14EDFDE
:103E1E00F801E458F04560E080810E94FD0861E001
:103E2E0083E10E94FD082196C430D1058CF5C09324
:103E3E002928D0932A2889E89AE20E94750C8AE6EE
:103E4E009AE20E94750C8BE49AE20E94750C8CE249
:103E5E009AE2DF91CF911F910F910C94750CF8019E
:103E6E00EC51F74D0190F081E02DEA57F04540817D
:103E7E0082CF109227281092282894CFF801E4516F
:103E8E00F74D0190F081E02DEA57F0454081BDCF0E
:103E9E001092292810922A28CECF1F920F920FB679
:103EAE000F9211242F933F934F935F936F937F93B2
:103EBE008F939F93AF93BF93EF93FF938FE399E20B
:103ECE000E947507FF91EF91BF91AF919F918F91D6
:103EDE007F916F915F914F913F912F910F900FBEF8
:103EEE000F901F9018951F920F920FB60F921124DC
:103EFE002F938F939F93EF93FF93E0914B29F09124
:103F0E004C29818181FD1BC09081809155298F5F45
:103F1E008F7320915629821741F0E0915529F0E0D8
:103F2E00E15CF64D958F80935529FF91EF919F910E
:103F3E008F912F910F900FBE0F901F90189580812B
:103F4E00F4CF1F920F920FB60F9211248F939F935F
:103F5E00AF93BF9380912B2890912C28A0912D2860
:103F6E00B0912E280196A11DB11D80932B28909300
:103F7E002C28A0932D28B0932E2881E08093A60A9A
:103F8E00BF91AF919F918F910F900FBE0F901F9089
:103F9E0018951F920F920FB60F9211242F933F93E5
:103FAE004F935F936F937F938F939F93AF93BF9333
:103FBE00EF93FF9380E89BE20E94350B83EC9AE22D
:103FCE000E94350B89EF9AE20E94350B85E69BE243
:103FDE000E94350B8AE49BE20E94350B8FE29BE236
:103FEE000E94350B84E19BE20E94350B8091912853
:103FFE009091922801968093912890939228809187
:10400E005428882381F180911028909111280196CF
:10401E008093102890931128803B9E4021F580912B
:10402E00482890914928A0914A28B0914B28019692
:10403E00A11DB11D8093482890934928A0934A282A
:10404E00B0934B2880918C2890918D280197809366
:10405E008C2890938D281092102810921128892B5D
:10406E0011F41092542880919828882379F0809129
:10407E00092890910A28429749F480912F2890910F
:10408E003028019680932F289093302881E08093DA
:10409E000B0AFF91EF91BF91AF919F918F917F91FD
:1040AE006F915F914F913F912F910F900FBE0F9097
:1040BE001F9018954F925F926F927F928F929F9260
:1040CE00AF92BF92CF92DF92EF92FF921092412960
:1040DE001092422988EE93E0A0E0B0E0809343294D
:1040EE0090934429A0934529B093462980ED90EBF7
:1040FE0080933F299093402980E498E080934B2948
:10410E0090934C2983E280934D2982E280934E292D
:10411E0010924F2987E28093502986E2809351298D
:10412E0080E18093522910925329109254291092B3
:10413E00552910925629109257291092582980E22B
:10414E008093592910925A2910925B2982E090E0AF
:10415E008093A42B9093A52B80E89CE0A0E0B0E088
:10416E0080939C2B90939D2BA0939E2BB0939F2B73
:10417E001092A02B1092A12B1092A22B1092A32B77
:10418E0087E89EE18093AC2B9093AD2B10929B2BE6
:10419E001092AE2B1092AF2B1092B02B1092B12B1F
:1041AE001092A62B1092A72B1092A82B1092A92B2F
:1041BE001092892B10928A2B80EA96E8A1E0B0E04B
:1041CE008093812B9093822BA093832BB093842B7F
:1041DE0041E050E060E070E04093852B5093862BD9
:1041EE006093872B7093882B86E49DE08093912BB0
:1041FE009093922B1092802B1092932B1092942BC3
:10420E001092952B1092962B10928B2B10928C2B2A
:10421E0010928D2B10928E2B10926E2B10926F2B64
:10422E0080E894E8AEE1B0E08093662B9093672B24
:10423E00A093682BB093692B10926A2B10926B2B64
:10424E0010926C2B10926D2B22E53DE02093762B75
:10425E003093772B1092652B1092782B1092792B2E
:10426E0010927A2B10927B2B1092702B1092712B36
:10427E001092722B1092732B1092532B1092542B70
:10428E0020E4C22E22E4D22E2FE0E22EF12CC09298
:10429E004B2BD0924C2BE0924D2BF0924E2B409309
:1042AE004F2B5093502B6093512B7093522B28E52C
:1042BE003DE020935B2B30935C2B10924A2B109297
:1042CE005D2B10925E2B10925F2B1092602B109232
:1042DE00552B1092562B1092572B1092582B109242
:1042EE00382B1092392B40EE53E964E070E0409386
:1042FE00302B5093312B6093322B7093332B1092C3
:10430E00342B1092352B1092362B1092372B28E728
:10431E003DE02093402B3093412B10922F2B109287
:10432E00422B1092432B1092442B1092452B10923D
:10433E003A2B10923B2B10923C2B10923D2B10924D
:10434E001D2B10921E2B40EC57E269E070E040935B
:10435E00152B5093162B6093172B7093182B1092CE
:10436E00192B10921A2B10921B2B10921C2B22E73A
:10437E003DE02093252B3093262B1092142B109278
:10438E00272B1092282B1092292B10922A2B109249
:10439E001F2B1092202B1092212B1092222B109259
:1043AE00022B1092032B48E458EE61E070E040932C
:1043BE00FA2A5093FB2A6093FC2A7093FD2A1092DE
:1043CE00FE2A1092FF2A1092002B1092012B21E848
:1043DE003DE020930A2B30930B2B1092F92A10926A
:1043EE000C2B10920D2B10920E2B10920F2B109255
:1043FE00042B1092052B1092062B1092072B109265
:10440E00E72A1092E82A8093DF2A9093E02AA0935D
:10441E00E12AB093E22A1092E32A1092E42A109233
:10442E00E52A1092E62A8DE791E08093EF2A909389
:10443E00F02A1092DE2A1092F12A1092F22A10928D
:10444E00F32A1092F42A1092E92A1092EA2A109274
:10445E00EB2A1092EC2A1092CC2A1092CD2A80E8E8
:10446E009AE1A6E0B0E08093C42A9093C52AA09367
:10447E00C62AB093C72A1092C82A1092C92A10923F
:10448E00CA2A1092CB2A8AE49EE08093D42A909373
:10449E00D52A1092C32A1092D62A1092D72A109299
:1044AE00D82A1092D92A1092CE2A1092CF2A109280
:1044BE00D02A1092D12AC090282AD090292AE09092
:1044CE002A2AF0902B2A8090242A9090252AA090B8
:1044DE00262AB090272A40900B2850900C286090E6
:1044EE000D2870900E2880EE99E28093062A909304
:1044FE00072A84EE99E28093042A9093052A8CED84
:10450E0099E28093082A9093092A1092222A1092F7
:10451E001A2A10921B2A10921C2A10921D2A80E031
:10452E0090E0AFE7B3E480931E2A90931F2AA093E6
:10453E00202AB093212A84E690E0A0E0B0E0809398
:10454E00162A9093172AA093182AB093192A10921C
:10455E00002A1092012A20E030E0A901C301B20125
:10456E000E94713587FD5AC020E030E0A901C501D7
:10457E00B4010E94713587FD51C020E030E0A901E1
:10458E00C701B6010E94713587FD48C081E090E0F9
:10459E008093022A9093032A8093232A4092E8293B
:1045AE005092E9296092EA297092EB298092EC29C7
:1045BE009092ED29A092EE29B092EF29C092F029A7
:1045CE00D092F129E092F229F092F3294092F42947
:1045DE005092F5296092F6297092F7292DEC3CEC59
:1045EE004CEC5DE3C501B4010E94C4366093F8291A
:1045FE007093F9298093FA299093FB292DEC3CECCA
:10460E004CEC5DE3C701B6010E9475356093FC2941
:10461E007093FD298093FE299093FF290E94230A0F
:10462E00C090162AD090172AE090182AF090192AD6
:10463E006C197D098E099F0960930A2A70930B2AC3
:10464E0080930C2A90930D2A1092B12A1092B22ABE
:10465E0080E492E4AFE0B0E08093A92A9093AA2A76
:10466E00A093AB2AB093AC2A81E090E0A0E0B0E03A
:10467E008093AD2A9093AE2AA093AF2AB093B02A1E
:10468E008AE791E08093B92A9093BA2A1092A82AC9
:10469E001092BB2A1092BC2A1092BD2A1092BE2AEA
:1046AE001092B32A1092B42A1092B52A1092B62AFA
:1046BE0063E270E089E89AE20E94010965E270E027
:1046CE008AE69AE20E94010964E270E08BE49AE2C3
:1046DE000E94010962E270E08CE29AE2FF90EF9094
:1046EE00DF90CF90BF90AF909F908F907F906F9004
:1046FE005F904F900C940109CF93DF93CDB7DEB747
:10470E002697CDBFDEBF88ED90E084BF9093610009
:10471E008091020686608093020680910006816079
:10472E0080930006809102068F7C8065809302063E
:10473E001092E20582E08093E40581E08093030A03
:10474E008EEF8093270A8093260A80E880932D0AA5
:10475E0080932B0A8093290A80932C0A80932A0A2D
:10476E008093280A8BE08093000A87E08093E5050A
:10477E00E0E8FAE037E02EEF90E885E03183248719
:10478E00958780837096E03C4AE0F407B9F7109263
:10479E00A10A8FE79EE38093AC0A9093AD0A8091B5
:1047AE00A50A81608093A50A1092A00A8091A00AA2
:1047BE0081608093A00A789447E266E28FE399E2E3
:1047CE000E94520740E855E260E070E08FE399E204
:1047DE000E94E60FF89481E080930A0A1092010A73
:1047EE008091090A8E7F8093090A8AEF90E0809368
:1047FE00260A9093270A8FE08093000A789461E04E
:10480E008BE00E94900861E08AE00E94900861E0CF
:10481E0089E00E94900861E088E00E94900861E0C3
:10482E0084E00E94900861E085E00E94900861E0BB
:10483E0086E00E94900861E087E00E94900861E0A7
:10484E0084E10E94900861E083E10E94900861E09B
:10485E0082E10E94900861E08EE10E94900861E082
:10486E0080E20E94900861E08FE10E94900861E072
:10487E0088E00E94FD0861E089E00E94FD0861E089
:10488E008AE00E94FD0861E08BE00E94FD0861E075
:10489E0087E00E94FD0861E086E00E94FD0861E06D
:1048AE0085E00E94FD0861E084E00E94FD0861E061
:1048BE008CE00E945C0861E08DE00E945C0860E084
:1048CE008CE00E94BF0860E08DE00E94BF088BE97B
:1048DE009BE20E94930B10921A2A10921B2A10929E
:1048EE001C2A10921D2A812C912C9AE7A92E94E451
:1048FE00B92E80921E2A90921F2AA092202AB09240
:10490E00212A8091222A882309F457C00091062A71
:10491E001091072AD801CD90DD90ED90FC90A50165
:10492E009401C701B6010E94C036181634F5F8017D
:10493E0080829182A282B38280900E2A90900F2A5A
:10494E00A090102AB090112AC0901E2AD0901F2A33
:10495E00E090202AF090212AA7019601C501B4010A
:10496E000E94C0361816CCF4C0920E2AD0920F2A8E
:10497E00E092102AF092112A20C020E030E0A90126
:10498E00C701B6010E94713587FFD6CFD8011D929F
:10499E001D921D921C921397CFCFC0901A2AD090C1
:1049AE001B2AE0901C2AF0901D2AA7019601C50132
:1049BE00B4010E94713587FDD7CF0E94230A609300
:1049CE00D8287093D9288093DA289093DB28809189
:1049DE00222A811149C0E091062AF091072AC0804F
:1049EE00D180E280F380C0920E2AD0920F2AE092FC
:1049FE00102AF092112AE091042AF091052A808162
:104A0E009181A281B3818093122A9093132AA0934D
:104A1E00142AB093152A80901E2A90901F2AA090D7
:104A2E00202AB090212AA5019401C701B6010E9447
:104A3E00C03618164CF480920E2A90920F2AA0922D
:104A4E00102AB092112A10C080901A2A90901B2A18
:104A5E00A0901C2AB0901D2AA5019401C701B60191
:104A6E000E94713587FDE7CF81E08093222A61E0B5
:104A7E0085E10E945C0861E088E10E945C0861E0CB
:104A8E0089E10E945C0860E089E10E94BF0860E055
:104A9E0085E10E94BF0860E088E10E94BF0861E0E6
:104AAE008BE10E945C0861E08CE10E945C0861E091
:104ABE008DE10E945C0861E08AE10E945C080E9420
:104ACE00CE0989EF9AE20E94930B90E080E00E945B
:104ADE005610BB24B394811101C0B12CB0928E2814
:104AEE0081E090E00E94561001E0811101C000E0CB
:104AFE0000933D2982E090E00E945610C82ED12CE2
:104B0E00C092FC28D092FD286AEF78E283E090E014
:104B1E000E94FF0F85E090E00E945610E82EF12CC7
:104B2E00E092C328F092C42814EF612E18E2712E81
:104B3E0086E4882E912C89829A82CE0101960E945B
:104B4E00EF0FF30181933F01FFEF8F1A9F0A2AE4C3
:104B5E008216910481F787E090E00E94561091E052
:104B6E00811101C090E09093D72888E090E00E94D8
:104B7E00561091E0811101C090E09093D22889E007
:104B8E0090E00E94561091E0811101C090E0909348
:104B9E00CD286BEB78E280E590E00E94241067EB65
:104BAE0078E28AE590E00E94241063EB78E284E6D6
:104BBE0090E00E9424106FEA78E28EE690E00E9468
:104BCE00241081E490E089839A83CE0101960E949D
:104BDE00EF0F8093552864E478E288E990E00E9414
:104BEE00FF0F62E478E28AE990E00E94FF0F8FE007
:104BFE0090E00E94561011E0811101C010E0109358
:104C0E00952886E990E00E94561091E0811101C02E
:104C1E0090E09093F8282B2D30E020930B293093C1
:104C2E000C29202F30E020930D2930930E29C092AD
:104C3E000F29D09210292091FA283091FB28209329
:104C4E00312930933229E0921729F09218292091B8
:104C5E00552830E02093112930931229212F30E06E
:104C6E002093132930931429892F90E080931529CE
:104C7E00909316296AE279E288E790E00E94FF0F8E
:104C8E0083E790E00E94561090E080930029909365
:104C9E00012985E790E00E94561090E0809302294A
:104CAE00909303298DE790E00E94561090E0809338
:104CBE0004299093052982E890E00E94561090E016
:104CCE00809306299093072987E890E00E9456105A
:104CDE0091E0811101C090E09093962862E083E20A
:104CEE000E945C0862E085E20E945C0862E084E259
:104CFE000E945C0862E082E20E945C088CEA9AE103
:104D0E008093962A9093972A80ED9BE080939C2A1D
:104D1E0090939D2A8AE196E08093772A9093782A41
:104D2E0083ED9FE08093812A9093822A8AEB96E00E
:104D3E0080937F2A9093802A8FE596E08093582A5D
:104D4E009093592A80EC9FE08093622A9093632A75
:104D5E0083EB96E08093602A9093612A85EF9BE027
:104D6E008093392A90933A2A83E59CE080933F2AD8
:104D7E009093402A88EA9AE20E94930BEEE14E2E1F
:104D8E00512CF9E16F2E712CAAE0EA2EF12C08E1DC
:104D9E0010E0B8E12B2E312C8BE99BE20E94350BF3
:104DAE000E94AF0480910428882391F188EA9AE248
:104DBE000E94350B89E190E00E94B30B82E290E0F5
:104DCE008093E4289093E5280093E6281093E72833
:104DDE000093E8281093E9280093EA281093EB2813
:104DEE000093EC281093ED2883E090E08093EE285A
:104DFE009093EF281092F0281092F1281092F2283A
:104E0E001092F32881E08093AA280E942A08C4CF2A
:104E1E001092A82A1092B32A1092B42A1092B52A90
:104E2E001092B62A1092B72A1092B82A20E030E0DB
:104E3E0042EE52E46091DC287091DD288091DE28EC
:104E4E009091DF280E94C03687FD8CC01092AE284C
:104E5E001092AD28109290281092AC281092AB2888
:104E6E001092AA28109298281092DC291092DD290F
:104E7E001092DE291092DF2910923E2910920A29F3
:104E8E0060E08CE00E94BF0860E08DE00E94BF08E9
:104E9E008BE090E08093E4289093E52881E190E008
:104EAE008093E6289093E72827E130E02093E828C6
:104EBE003093E9284EE050E04093EA285093EB28D7
:104ECE004FE050E04093EC285093ED288093EE286D
:104EDE009093EF282093F0283093F1288093F228B6
:104EEE009093F3288091532B9091542B892B81F121
:104EFE0088EE93E0A0E0B0E080934B2B90934C2B88
:104F0E00A0934D2BB0934E2B80916E2B90916F2BC7
:104F1E00892B19F180ED97E0A0E0B0E08093662B2D
:104F2E009093672BA093682BB093692B8091A12847
:104F3E009091A228892B09F068CF85E69BE20E940A
:104F4E00930B81E090E08093A1289093A2285DCFEF
:104F5E0080E492E4AFE0B0E0CFCF80E894E8AEE139
:104F6E00B0E0DCCF85E20E94DA09D09041288111B1
:104F7E0042C084E20E94DA0981113DC0D1103BC0CB
:104F8E000E94230A60933D2870933E2880933F2809
:104F9E009093402881E08093412880913E29882378
:104FAE0011F40C94083560E08CE00E94BF08E0918B
:104FBE000928F0910A2880919828882309F41FC7A0
:104FCE00E331F10508F021CFE151F84D0C9478371B
:104FDE005628AF28ED285829C429122A612AA22A58
:104FEE00CF2A1C2B6B2BB02BF22B6B2C9D2C152D43
:104FFE001A2D472D7A2D85E20E94DA09882361F059
:10500E00DD2009F4CACF85E20E94DA09813009F069
:10501E003FC010924128C1CFC0903E2984E20E9429
:10502E00DA098111EDCFDD2009F4B7CF0E94230AF2
:10503E0080903D2890903E28A0903F28B090402828
:10504E00681979098A099B09683B7B40810591059E
:10505E0008F4A3CF84EF91E00E94B30B80910A294C
:10506E0081119BCFC1109FCF8EE591E08093912847
:10507E009093922881E080933E2980933C288093E0
:10508E003B2885E090E08093092890930A2885CFED
:10509E0084E20E94DA09813009F07FCFBACF1092F4
:1050AE00AA28109290281092AB280E94CE098CE06C
:1050BE0090E08093E4289093E52880E190E080933F
:1050CE00E6289093E7286092E8287092E92881E11B
:1050DE0090E08093EA289093EB288091912890910C
:1050EE009228893191054CF40093EC281093ED2809
:1050FE000093EE281093EF2803C720910B293091CF
:10510E000C291092EC281092ED28232BB1F425E1F6
:10511E0030E02093EE283093EF282093F028309340
:10512E00F1280093F2281093F328C3970CF46DCE58
:10513E00109291281092922868CE24E130E02093AC
:10514E00EE283093EF280093F0281093F128E9CF42
:10515E000E94CE091092AA28109290288CE190E01D
:10516E008093E4289093E52884E190E08093E628EC
:10517E009093E7286092E8287092E92880E190E009
:10518E008093EA289093EB28809191289091922811
:10519E00893191050CF4A8CF20910D2930910E295B
:1051AE00232B59F42DE130E02093EC283093ED2899
:1051BE00E092EE28F092EF28C6CF2DE130E020935A
:1051CE00EC283093ED2825E130E0B9CF0E94CE09CE
:1051DE001092AA288CE090E08093E4289093E52822
:1051EE008DE090E08093E6289093E72885E190E0AB
:1051FE008093E8289093E9288FE090E08093EA2846
:10520E009093EB2880913D292091912830919228FE
:10521E0029313105D4F490918F28911111C000934A
:10522E00EC281093ED280093EE281093EF280093AE
:10523E00F0281093F1288823F1F085E190E081C0E9
:10524E006092912870929228F6CF811119C08091A8
:10525E000F29909110292AE0289FB001299F700DE7
:10526E001124072E000C880B990B0E9456030093F5
:10527E00EC281093ED28E092F228F092F32865C006
:10528E0080913129909132292AE0289FB001299FDF
:10529E00700D1124072E000C880B990B0E945603DB
:1052AE00CCCF1092AB281092AA28109290280E9470
:1052BE00CE0980E190E08093E4289093E5286092F7
:1052CE00E6287092E72822E130E02093E828309318
:1052DE00E9282FE030E02093EA283093EB28209144
:1052EE0091283091922829313105ACF480918F2884
:1052FE0081115DC20093EC281093ED280093EE28E7
:10530E001093EF280093F0281093F1280093F228C1
:10531E001093F3281AC02091112930911229232BB2
:10532E00C9F48093EC289093ED2827E130E0209388
:10533E00EE283093EF288093F0289093F1288FE198
:10534E0090E08093F2289093F32880919128909189
:10535E009228EBCE8CE090E08093EC289093ED2891
:10536E0087E190E08093EE289093EF288DE090E017
:10537E008093F0289093F1287ECF0E94CE098BE087
:10538E0090E08093E4289093E52881E190E080936B
:10539E00E6289093E72887E190E08093E8289093A1
:1053AE00E9288CE090E08093EA289093EB282091F6
:1053BE00912830919228293131050CF497CF209104
:1053CE00132930911429232B89F420E230E0209305
:1053DE00EC283093ED286092EE287092EF2880939F
:1053EE00F0289093F1288EE090E0ABCF8FE090E024
:1053FE008093EC289093ED2884E190E08093EE2842
:10540E009093EF288EE090E08093F0289093F1280F
:10541E008AE190E096CF1092AA28109290280E94CE
:10542E00CE098BE090E08093E4289093E52881E10B
:10543E0090E08093E6289093E72880E290E08093B6
:10544E00E8289093E92880E190E08093EA289093F1
:10545E00EB28809191289091922849970CF446CF91
:10546E008091152990911629892B99F084E290E06C
:10547E008093EC289093ED288AE190E08093EE28BB
:10548E009093EF288CE090E08093F0289093F12891
:10549E003DCF84E290E08093EC289093ED288AE152
:1054AE0090E08093EE289093EF28E092F028F0920F
:1054BE00F1282CCF1092AA280E94CE09E092E4285F
:1054CE00F092E5282DE030E02093E6283093E7288F
:1054DE008AE190E08093E8289093E9284EE050E02E
:1054EE004093EA285093EB284091912850919228AE
:1054FE00493151050CF4F8CD609117297091182996
:10550E00E092EC28F092ED282093EE283093EF28CD
:10551E008093F0289093F12882E090E0672B11F4AD
:10552E0081E090E08093F2289093F3284333510565
:10553E000CF0FECD6ACC1092AB280E94CE09E09200
:10554E00E428F092E5288DE090E08093E628909391
:10555E00E7288AE190E08093E8289093E92881E09B
:10556E0090E08093EA289093EB2880919128909177
:10557E009228499704F580918F288111D2C100930A
:10558E00EC281093ED280093EE281093EF2873CE9D
:10559E00809191289091922820913D29211128C027
:1055AE0049974CF480918F288111BBC10093F0284C
:1055BE001093F12860CE8091192990911A2924E632
:1055CE00289FB001299F700D112420911B29309125
:1055DE001C294AE0429FC001439F900D1124680F81
:1055EE00791F072E000C880B990B0E94560343CE91
:1055FE004997B4F480918F2881110DC00093EC2847
:10560E001093ED280093EE281093EF280093F028C6
:10561E001093F12812CE60929128709292280DCE9E
:10562E0080913329909134292FCEDD24D394D092BA
:10563E00AB281092AA280E94CE09D0929F28E09201
:10564E00E428F092E5288DE090E08093E628909390
:10565E00E7288AE190E08093E8289093E92882E099
:10566E0090E08093EA289093EB2880919128909176
:10567E0092284997C4F480918F2881110FC000930E
:10568E00EE281093EF280093F0281093F1288AE16A
:10569E0090E08093EC289093ED28EDCD60929128C8
:1056AE0070929228F4CF80911D2990911E292AE0A4
:1056BE00289FB001299F700D1124072E000C880B16
:1056CE00990B0E945603E3CF0E94CE09E092E42884
:1056DE00F092E5288DE090E08093E6289093E728FD
:1056EE008AE190E08093E8289093E92882E090E0A8
:1056FE008093EA289093EB2880919128909192289C
:10570E004997B4F480918F2881110DC00093EE2833
:10571E001093EF280093F0281093F1284092EC2874
:10572E005092ED28A8CD6092912870929228F6CFD3
:10573E0080911F29909120292AE0289FB001299F4E
:10574E00700D1124072E000C880B990B0E94560326
:10575E00E5CF0E94CE0981E08093AA2860910228AD
:10576E0070910328072E000C880B990B0E9495034D
:10577E008AE190E08093E4289093E52887E190E019
:10578E008093E6289093E728809191289091922813
:10579E00499794F480918F28811109C00093EC28C9
:1057AE001093ED280093EE281093EF28CECD609243
:1057BE00912870929228C9CD809121299091222909
:1057CE0024E6289FB001299F700D112420912329D2
:1057DE0030912429FECE0E94CE096091022870914C
:1057EE000328072E000C880B990B0E9495038AE163
:1057FE0090E08093E4289093E52887E190E08093F1
:10580E00E6289093E728C0902129D0902229A090D5
:10581E002329B0902429809191289091922849971C
:10582E00F4F580918F28811135C00093F0281093E4
:10583E00F128E092F228F092F3288091912890912D
:10584E009228C39724F01092912810929228B501B5
:10585E00BB0C880B990B0E94103620E030E040E222
:10586E0051E40E9475354B015C01B601DD0C880BCD
:10587E00990B0E9410369B01AC01C501B4010E9428
:10588E000D3560933728709338288093392890937C
:10589E003A28BBCA6092912870929228CACF84E6A9
:1058AE008C9DB0018D9D700D11242AE02A9DC001A2
:1058BE002B9D900D1124680F791F072E000C880B5D
:1058CE00990B0E945603B5CF0E94CE0960913528E0
:1058DE0070913628072E000C880B990B0E949503A9
:1058EE004092E4285092E5286092E6287092E728CC
:1058FE0081E08093AA2880919128909192284997CF
:10590E000CF439CE809125299091262924E6289FE2
:10591E00B001299F700D112420912729309128293B
:10592E0058CE6092912870929228A5CC0E94CE09F2
:10593E006091352870913628072E000C880B990B34
:10594E000E9495034092E4285092E5286092E62842
:10595E007092E72881E08093AA28C0902529D090E4
:10596E002629A0902729B0902829809191289091DE
:10597E0092284997F4F580918F28811135C00093B4
:10598E00F0281093F128E092F228F092F3288091FB
:10599E00912890919228C39724F0109291281092FA
:1059AE009228B501BB0C880B990B0E94103620E093
:1059BE0030E040E251E40E9475354B015C01B601C6
:1059CE00DD0C880B990B0E9410369B01AC01C501B2
:1059DE00B4010E940D356093312870933228809364
:1059EE0033289093342811CA60929128709292288D
:1059FE00CACF84E68C9DB0018D9D700D11242AE0D6
:105A0E002A9DC0012B9D900D1124680F791F072E22
:105A1E00000C880B990B0E945603B5CF10923B28B1
:105A2E0010923E29F2C91092AB281092AA28109219
:105A3E0090280E94CE0980914428909145282AE012
:105A4E00289FB001299F700D112490E080E00E94E4
:105A5E0095034092EA285092EB286091422870916B
:105A6E00432890E080E00E9456038DE090E0809302
:105A7E00EC289093ED2810922F2810923028C5C94B
:105A8E001092AB281092AA28109290280E94CE094C
:105A9E008CE090E08093E4289093E5282CE130E0B0
:105AAE002093E6283093E72841E150E04093E82820
:105ABE005093E9282FE030E02093EA283093EB282A
:105ACE004093EC285093ED282093EE283093EF2846
:105ADE008093F0289093F12880E190E08093F22853
:105AEE009093F328C8CF1092AB281092AA28109248
:105AFE0090280E94CE0980912F28909130288F31C6
