:1002000050C0000076C0000074C0000072C0000042
:1002100070C000006EC000006CC000000C9482260C
:1002200068C0000066C0000064C0000062C000003A
:1002300060C000005EC000005CC000005AC000004A
:1002400058C0000056C0000054C0000052C000005A
:1002500050C000004EC000004CC000004AC000006A
:1002600048C000000C945A2644C0000042C0000060
:1002700040C000003EC000003CC000000C942C2692
:100280000C94062636C0000034C0000032C00000C6
:1002900030C000002EC000002CC000002AC00000AA
:1002A000172711241FBECFEFCDBFDFE3DEBF18E25B
:1002B000A0E0B8E2E9E1FAE702C005900D92A831AA
:1002C000B107D9F72BE2A8E1B8E201C01D92AA3F1D
:1002D000B207E1F711E0C1E5D1E004C02197FE01CA
:1002E0000E94063CC035D107C9F70E949C2A0C9495
:1002F000453C86CF109206280895809141288111AF
:1003000004C081E080934128089510924128089507
:1003100080917328882319F010927328089581E042
:1003200080937328089580915429882309F45EC02E
:100330008091092890910A288230910571F42091CA
:100340005329222351F02091492930914A292F5FC6
:100350003F4F2093492930934A29209149293091D0
:100360004A29253D3105A4F024ED30E020934929A8
:1003700030934A2920914B2930914C29253D310554
:10038000CCF084ED90E080934B2990934C29089514
:100390008830910579F720915329222359F3209130
:1003A0004B2930914C292F5F3F4F20934B2930939D
:1003B0004C29E0CF880F991FFC01EF5DF64D20819D
:1003C00031812F5F3F4F20833183DC01A254B6443B
:1003D0004D915C91421753070CF08EC0885696449D
:1003E000DC018D919C9180839183089580912029D7
:1003F0008130B1F48091162990911729019680934C
:100400001629909317292091122930911329281722
:1004100039070CF071C0109216291092172908950F
:10042000823039F5809118299091192901968A30E6
:100430009105E4F48093182990931929809140291B
:1004400090914129019680934029909341292091D0
:10045000102930911129281739070CF04DC080E27E
:1004600090E08093402990934129089589E090E09D
:10047000E1CF833091F480911A2990911B29019644
:10048000843691052CF480931A2990931B290895A2
:1004900010921A2910921B290895843091F48091AA
:1004A0001C2990911D2901968C3391052CF4809381
:1004B0001C2990931D29089510921C2910921D2922
:1004C00008958530C9F480910F298823A9F080917F
:1004D0000E29882389F080911E2990911F29019669
:1004E000823091052CF480931E2990931F29089542
:1004F00010921E2910921F29089580915429882353
:1005000009F457C08091092890910A2882309105FA
:1005100071F420915329222351F0209149293091DF
:100520004A29215031092093492930934A292091A1
:10053000492930914A2920323105A4F420E230E0E3
:100540002093492930934A2920914B2930914C29F5
:1005500020323105CCF480E290E080934B299093D7
:100560004C2908958830910579F720915329222349
:1005700059F320914B2930914C2921503109209376
:100580004B2930934C29E0CF880F991FFC01EF5D78
:10059000F64D20813181215031092083318337FF8D
:1005A0008CC082599644DC018D919C91808391830B
:1005B0000895809120298130A1F48091162990918D
:1005C00017290197809316299093172997FF75C0D3
:1005D00080911229909113298093162990931729BD
:1005E0000895823099F580915329811109C0809135
:1005F0001829909119290197809318299093192906
:10060000809118299091192997FF16C089E090E0F0
:10061000809318299093192980914029909141291C
:1006200080970CF04AC080911029909111298093F5
:100630004029909341290895809140299091412922
:1006400001978093402990934129E6CF833079F434
:1006500080911A2990911B29019797FD05C08093DD
:100660001A2990931B29089583E690E0F8CF8430EF
:1006700079F480911C2990911D29019797FD05C05F
:1006800080931C2990931D2908958BE390E0F8CF67
:10069000853099F480910F29882379F080910E2973
:1006A000882359F080911E2990911F29019797FD69
:1006B00005C080931E2990931F29089581E090E042
:1006C000F8CFCF92DF92EF92FF926B0128EE33E0EA
:1006D00040E050E00E94EA3BE2E0F9E2208331830F
:1006E00068EE73E0629FC001639F900D729F900D52
:1006F0001124C81AD90AC60164E670E00E94B53B0D
:10070000628373832CE92603C001279F900D112477
:10071000C80ED91EC6016AE070E00E94B53B648332
:10072000758326EF2603C001279F900D1124C80E64
:10073000D91EC682D782FF90EF90DF90CF900895A8
:10074000CF92DF92EF92FF926B0128EE33E040E010
:1007500050E00E94EA3BEAEFF8E22083318368EE42
:1007600073E0629FC001639F900D729F900D1124F2
:10077000C81AD90AC60164E670E00E94B53B6283DC
:1007800073832CE92603C001279F900D1124C80E06
:10079000D91EC6016AE070E00E94B53B6483758390
:1007A00026EF2603C001279F900D1124C80ED91EE5
:1007B000C682D782FF90EF90DF90CF9008954F923E
:1007C0005F926F927F928F929F92AF92BF92CF92E1
:1007D000DF92EF92FF926B017C0120E030E0A901F3
:1007E0000E94FB3987FD9AC081E02091182A309140
:1007F000192A2130310509F080E08093392AC0920E
:10080000FE29D092FF29E092002AF092012A8AE084
:1008100097EDA3E2BCE38093022A9093032AA0936E
:10082000042AB093052A80E090E8A4E5B4E480931C
:10083000062A9093072AA093082AB093092A609168
:100840002C2A70912D2A80912E2A90912F2A0E9475
:10085000983A20E030E04AE754E40E94FF394B0127
:100860005C01C0920A2AD0920B2AE0920C2AF092E4
:100870000D2A2AE037ED43E25CE30E944E3B2B0158
:100880003C0140920E2A50920F2A6092102A7092D8
:10089000112AA501940160E070E884E594E40E94C7
:1008A000FF394B015C018092122A9092132AA09288
:1008B000142AB092152A8091162A9091172A01972E
:1008C00069F5A701960160E070E0CB010E949639BE
:1008D00060930A2A70930B2A80930C2A90930D2A16
:1008E000A301920160E070E0CB010E949639609311
:1008F0000E2A70930F2A8093102A9093112AA50133
:10090000940160E070E0CB010E9496396093122A56
:100910007093132A8093142A9093152AFF90EF90D6
:10092000DF90CF90BF90AF909F908F907F906F900F
:100930005F904F9008954F925F926F927F928F9247
:100940009F92AF92BF92CF92DF92EF92FF9220E000
:1009500030E040E251E460910A2970910B298091C6
:100960000C2990910D290E94FF392091EC2821112A
:1009700090586093E8287093E9288093EA28909330
:10098000EB28F090E728FF2009F455C02091E828D3
:100990003091E9284091EA285091EB286091F228A3
:1009A0007091F3288091F4289091F5280E9497394E
:1009B0006093E3287093E4288093E5289093E628D9
:1009C0008091D8289091D928892B09F07EC0FF20EA
:1009D00009F450C06091E3287091E4288091E528E3
:1009E0009091E6286093F6287093F7288093F82872
:1009F0009093F92826E636E646EE5FE30E944E3BEA
:100A000020E030E040E052E40E9497396093D4281F
:100A10007093D5288093D6289093D728FF90EF9095
:100A2000DF90CF90BF90AF909F908F907F906F900E
:100A30005F904F9008958091E228882309F22091D9
:100A4000E8283091E9284091EA285091EB286091FC
:100A5000DE287091DF288091E0289091E1280E94A3
:100A600097396093DA287093DB288093DC28909381
:100A7000DD28A6CF8091E228882381F2C090DA2871
:100A8000D090DB28E090DC28F090DD2820E030E0FA
:100A900040E052E4C701B6010E94963926E636E6E8
:100AA00046EE5FE30E94FF396093F6287093F728C3
:100AB0008093F8289093F928C092D428D092D52812
:100AC000E092D628F092D728A9CF6091D0287091D3
:100AD000D1288091D2289091D3280E949A3A20E080
:100AE00030E040E251E40E94FF394B015C0160912B
:100AF000C8287091C9288091CA289091CB280E945B
:100B00009A3A20E030E040E251E40E94FF396B0164
:100B10007C016091C4287091C5288091C62890916D
:100B2000C7280E949A3A20E030E040E251E40E9457
:100B3000FF39A70196010E9496392B013C01A501BE
:100B400094016091F2287091F3288091F42890919B
:100B5000F5280E9496399B01AC01C301B2010E94A5
:100B60004E3B2B013C016091CC287091CD288091A7
:100B7000CE289091CF280E949A3A20E030E040E2BF
:100B800051E40E94FF39A50194010E9496399B010E
:100B9000AC01C301B2010E94FF39A70196010E9476
:100BA00097396B017C01C092F628D092F728E09229
:100BB000F828F092F92826E636E646EE5FE30E9432
:100BC0004E3B20E030E040E052E40E9497396093D1
:100BD000D4287093D5288093D6289093D72820E0E6
:100BE00030E048EC52E4C701B6010E944A3B87FD61
:100BF00015CF8DEC9CECA7ECB2E48093F628909393
:100C0000F728A093F828B093F92808CF8091892875
:100C1000811106C01092BE281092BF281092BD28E4
:100C20000895F4CFAF92BF92CF92DF92EF92FF92EE
:100C30000F931F93CF93DF936C017B018B01040F04
:100C4000151FEB015E01AE18BF08C017D10759F0A0
:100C50006991D601ED91FC910190F081E02DC601E2
:100C60000995892B79F7C501DF91CF911F910F91DC
:100C7000FF90EF90DF90CF90BF90AF900895FC0170
:100C8000508D418D252F30E0842F90E0821B930BF7
:100C9000541710F0CF96089501970895FC01968996
:100CA0008789981761F0A789AE0FBF2FB11D5D9698
:100CB0008C9197899F5F9F73978B90E008958FEF3A
:100CC0009FEF0895FC0196898789981731F08789ED
:100CD000E80FF11D858D90E008958FEF9FEF089547
:100CE000FC0196892789892F90E0805C9F4F821BA9
:100CF00091098F739927089585E599E2F1DF21E045
:100D0000892B09F420E0822F0895CF93DF93EC0123
:100D1000E881F9810680F781E02D0995EC85FD8554
:100D200086818F738683EC85FD8585818F758583AC
:100D30008F898E8B1D8ADF91CF910895FC016130E0
:100D400019F4648B81E00895148A6623D9F380E056
:100D50000895DC0154961C92549754968C915497A4
:100D60008230A0F4282F30E0F901EE0FFF1FE20FD0
:100D7000F31FEA0FFB1F9785961303C09685941700
:100D800049F08F5F54968C935497E7CF54961C92FA
:100D900080E0089581E00895CF93DF93FC01908D6A
:100DA000818DC485D585981306C08D818F7D8D83F7
:100DB000DF91CF910895A18DAE0FBF2FB11DA35A22
:100DC000BF4F2C91818D90E001968F739927818F71
:100DD00080E48C83A485B58512962C93908D818DAB
:100DE0009813E6CFA485B58515968C9115978F7DC0
:100DF00015968C93838D8823D9F2848D809313016B
:100E0000138ED6CFDC011C96ED91FC910FB607FE38
:100E100003C0258125FD03C0248125FDBDCF089594
:100E2000EF92FF920F931F93CF93DF93EC0181E03A
:100E30008D8B988D898D98131CC0AC85BD851496BB
:100E40008C91149785FF15C012966C93AC85BD8567
:100E500080E414968C93EC85FD8585818F7D858358
:100E600081E090E0DF91CF911F910F91FF90EF9083
:100E700008958091110180FF08C0809113018C8F2B
:100E80008A8D8093130181E08B8FF62E088D10E000
:100E90000F5F1F4F0F731127E02E898D8E1103C036
:100EA000CE01B0DFFACFE88DEC0FFD2FF11DE35A34
:100EB000FF4FF082088FEC85FD8585818062CFCF62
:100EC000CF93DF93FC0125892223C1F0EC018091AF
:100ED000110180FF08C080911301848F828D80935F
:100EE000130181E0838FEC85FD85858185FD03C03D
:100EF000848186FD03C0CE0185DFF5CFDF91CF91E0
:100F0000089580E090E0892B49F080E090E0892B03
:100F100029F00E94000081110E94000080E090E012
:100F2000892B49F080E090E0892B29F00E94000095
:100F300081110E94000080E090E0892B21F0DCDE2E
:100F400081110E94000080E090E0892B49F080E050
:100F500090E0892B29F00E94000081110C94000080
:100F6000089581E00895CF93DF9390E0FC01EB5B5F
:100F7000F64420812F3F69F0FC01E45EF644A08135
:100F800030E2A39FD0011124BC5F613029F4119697
:100F90002C93DF91CF9108958D509744EC01E88117
:100FA000EF3F81F0CD014096E80FF92FF11D9FB77B
:100FB000F89412962C938081623039F48860808393
:100FC0009FBFE7CFF0E0E0E0F2CF877FF8CF893234
:100FD00008F4C9CF089590E0FC01E653F744E0819E
:100FE000EE2319F1E13021F000F1E630A8F0089588
:100FF0008D509744FC012081233008F02F5F309101
:10100000010A81E090E001C0880F2A95EAF78095F7
:1010100083238093010A089580E1E89FF001112461
:10102000E05AF54F81818F7E818308950F931F933E
:10103000CF93DF93C82FD0E0FE01EB5BF644008135
:101040000F3F99F0162F893208F4C5DFFE01E45EE8
:10105000F644E08180E2E89FF0011124FC5F80818A
:10106000802351F0111106C00683DF91CF911F91AB
:101070000F9108950583F9CFCD50D74488813097DB
:1010800071F08F3F61F07096E80FF11D9FB7F894F3
:101090008081111107C0877F80839FBFE6CFF0E07A
:1010A000E0E0F4CF8860F8CF893208F4BFCF08952C
:1010B0000F931F93CF93DF93EC01162F072F82E33B
:1010C00090E08E839F8360E0812F81DF1883098306
:1010D00088E592E08A839B8388EE93E08C839D83EE
:1010E000198E1A8E1C8681E090E0888799871A866F
:1010F0001B8661E0812FD8DF1F86188A198A1A8A19
:101100001B8A1C8A1D8A1E8A1F8A188EDF91CF9126
:101110001F910F91089561E08BE0C6DF61E08AE0E6
:10112000C3DF61E089E0C0DF61E088E0BDCF61E05E
:1011300087E0BADF61E086E0B7DF61E085E0B4DF39
:1011400061E084E0B1CFAF92BF92CF92DF92EF9295
:10115000FF920F931F93CF93DF93EC016A017B0102
:10116000A22E8D89882339F0E881F9810688F789D4
:10117000E02DCE0109950C8910E0BFB6F89460E02F
:1011800070E281EA97E0A70196010E94C83B6901DD
:101190007A018FEFC81AD80AE80AF80AF694E79499
:1011A000D794C794EC85FD8586818D7F8683EC85F9
:1011B000FD85868186831D8AA09123110A2E000C4D
:1011C000BB0BA70196010E941C3C20E034E040E0EC
:1011D00050E00E94EA3BEC85FD85C20ED31EE41E62
:1011E000F51EC086D186EC85FD85A782EC85FD8540
:1011F0008681806C8683EC85FD858581806885830A
:101200009091E2058B89809589239801220F331FE5
:10121000020F131FC00FD11F9889892B8093E205FD
:1012200062E08E85D4DE61E08F853EDF61E08F85F0
:10123000CEDEBFBEDF91CF911F910F91FF90EF9057
:10124000DF90CF90BF90AF90089561E08AE1EEDE2D
:1012500061E08DE1EBDE61E08CE1E8DE61E08BE1F5
:10126000E5CE0F931F93CF93082F10E0F801EB5BAF
:10127000F644C081CF3F81F0893208F4ACDEF8013A
:10128000E45EF644E08180E2E89FF0011124FC5F17
:101290008085C82381E009F480E0CF911F910F91F0
:1012A00008958FB7F89420913D2830913E284091C1
:1012B0003F2850914028E091AA0AF091AB0A909102
:1012C000A60A90FF08C02F5F3F4F4F4F5F4FE0913E
:1012D000AA0AF091AB0A8FBFA8EEB3E00E94123CBD
:1012E00024E0F695E7952A95E1F76E0F7F1F811DA3
:1012F000911D08952FB7F89460913D2870913E2874
:1013000080913F28909140282FBF08950F931F93FD
:1013100080915429811180C08091F6289091F728FE
:10132000A091F828B091F9288093FA299093FB298D
:10133000A093FC29B093FD298091F12881118BC0E5
:1013400080E090E0A8ECB1E480930B2890930C2807
:10135000A0930D28B0930E288AE097EDA3E2BCE39A
:1013600080930F2890931028A0931128B0931228EF
:1013700080E090E8A4E5B4E48093132890931428C7
:10138000A0931528B093162860E070E088EC91E4F3
:1013900016DAB0DF0091ED281091EE282091EF28A9
:1013A0003091F028AB01BC01401B510B620B730B59
:1013B0004D3454406105710570F0D901C801845B5A
:1013C0009B4FAF4FBF4F8093ED289093EE28A09393
:1013D000EF28B093F0288EDF0091ED281091EE28D1
:1013E0002091EF283091F028601B710B820B930B3A
:1013F0000E94983A2091F6293091F7294091F829D6
:101400005091F9290E944A3B18167CF460E088E16B
:101410000DDE1F910F9108958091F2289091F3288D
:10142000A091F428B091F5287FCF2091F229309136
:10143000F3294091F4295091F5296091FA2970918E
:10144000FB298091FC299091FD290E944A3B87FF4E
:10145000DDCF61E0DCCF80E090E0A8E4B2E48093EF
:101460000B2890930C28A0930D28B0930E288AE0A7
:1014700097EDA3E2BCE380930F2890931028A093EC
:101480001128B093122880E090E8A4E5B4E480939A
:10149000132890931428A0931528B093162860E081
:1014A00070E088E492E48BD925DF0091ED2810915B
:1014B000EE282091EF283091F028AB01BC01401BB1
:1014C000510B620B730B4D3454406105710570F084
:1014D000D901C801845B9B4FAF4FBF4F8093ED286C
:1014E0009093EE28A093EF28B093F02803DF0091AB
:1014F000ED281091EE282091EF283091F028601B04
:10150000710B820B930B0E94983A2091F62930912F
:10151000F7294091F8295091F9290E944A3B181661
:101520002CF460E088E11F910F9180CD2091F22989
:101530003091F3294091F4295091F5296091FA29CD
:101540007091FB298091FC299091FD290E944A3BD2
:1015500087FFE7CF61E0E6CF0F931F93CF93DF9331
:10156000FC012081222309F450C0EC018185928581
:101570000197B9F5BFDE0B891C892D893E89601B57
:10158000710B820B930B09811A812B813C816017AF
:10159000710782079307C8F1ADDE6B8B7C8B8D8B57
:1015A0009E8B8B859C85AD85BE854D815E816F81CF
:1015B0007885481B590B6A0B7B0B4130510561053F
:1015C000710509F418820196A11DB11D8B879C87B6
:1015D000AD87BE87E989FA89DF91CF911F910F917D
:1015E00009945FDE0B891C892D893E89601B710B74
:1015F000820B930B09811A812B813C816017710743
:101600008207930710F04DDEC8CFDF91CF911F9175
:101610000F910895CF93DF93FC0121893289232B09
:10162000A1F0EC0181859285019791F463DE6B8BCB
:101630007C8B8D8B9E8B81E088831B861C861D8610
:101640001E8681E090E08F87988BDF91CF9108957F
:1016500028DEEDCFDC01BC01990F880B990B20919E
:10166000CD2B3091CE2B232B21F428EE33E00E949A
:101670000C3C6093C52B7093C62B8093C72B909323
:10168000C82B61E085E1D2DC84EC9BE2C3CFCF9232
:10169000DF92EF92FF920F931F93CF93DF93EC01B2
:1016A00088818932F8F4DDDD082F10E023DE298DF2
:1016B0003A8D21153105C1F42A853B852017310764
:1016C00041F421E030E0298F3A8F6B8F7C8F8D8F32
:1016D0009E8FDF91CF911F910F91FF90EF90DF9040
:1016E000CF90089580E0E0CF2130310509F051C05E
:1016F0002885398520173107E9F40B8D1C8D2D8D38
:101700003E8DAB01BC01401B510B620B730B8E81F4
:101710009F81092E000CAA0BBB0B481759076A07BB
:101720007B0718F4198E1A8ED4CF82E090E0898F4F
:101730009A8FCFCF2A853B852017310751F60B8D25
:101740001C8D2D8D3E8DAB01BC01401B510B620BDE
:10175000730B8C819D81092E000CAA0BBB0B841787
:101760009507A607B70708F0B4CF81E08C87E98911
:10177000FA89309709F00995EB89FC89309709F0CF
:101780000995EF89F88D309709F0099586E090E08A
:10179000CECF2230310519F5CB8CDC8CED8CFE8C54
:1017A0006C197D098E099F09CA80DB800D2C000C05
:1017B000EE08FF08C616D706E806F90638F4ED85E8
:1017C000FE85309709F4AECF0995ACCF8A859B850D
:1017D0008017910709F07DCF83E090E0A8CF2330F8
:1017E000310549F4888599858017910709F071CFF3
:1017F000EF85F889E6CF2630310509F06ACF888574
:1018000099858017910721F41C86ED89FE89D9CF2F
:1018100081E08C87EF89F88D309709F45ACFDF91FA
:10182000CF911F910F91FF90EF90DF90CF9009948F
:10183000E4ECFBE210821386148615861686178662
:10184000108A60E085E1F2CB8EE89BE2E3DE61E0A6
:1018500085E1ECCB60E085E1E9DB80918C28882391
:1018600049F0809198289091992801968093982822
:101870009093992880919A2890919B280196809323
:101880009A2890939B28089560E08AE1CFDB83E754
:101890009BE2C0CE61E08AE1C9DB809192288F5F34
:1018A0008093922808958F929F92AF92BF92CF9289
:1018B000DF92EF92FF92CF93DF93C0912D28D091CA
:1018C0002E282196C0932D28D0932E2810920606FC
:1018D00081E08093080680910B0680FFFCCF609129
:1018E000100670911106072E000C880B990B0E94B0
:1018F0009A3A2091292830912A2840912B285091FA
:101900002C280E94973969979CF46093292870933A
:101910002A2880932B2890932C28DF91CF91FF9039
:10192000EF90DF90CF90BF90AF909F908F900895F1
:1019300020E030E048EC51E40E94FF396093292810
:1019400070932A2880932B2890932C2820E030E055
:1019500040EA50E40E944E3B20E030EC4FE754E474
:101960000E94FF3920E030E040E251E40E94FF395C
:1019700025E535E545ED5DE30E9497396B017C0176
:1019800020E030EE42E955E40E944E3B4B015C0101
:10199000A701960160E070E080EA90E40E94963929
:1019A0009B01AC01C501B4010E94FF3920E030E089
:1019B00048EC52E40E94FF3920E030E040E85FE369
:1019C0000E94963928E430E54CE75BE30E94FF393A
:1019D00060932F2870933028809331289093322879
:1019E00010922D2810922E2898CF3F924F925F92FE
:1019F0006F927F928F929F92AF92BF92CF92DF921F
:101A0000EF92FF920F931F93CF93DF93CDB7DEB783
:101A10002E97CDBFDEBF8091382A882309F429C1D3
:101A200069DC6D837E838F8398878091202A9091D3
:101A3000212AA091222AB091232A4D815E816F81B3
:101A40007885481B590B6A0B7B0B80912C2A90914F
:101A50002D2AA0912E2AB0912F2A481759076A07DC
:101A60007B0708F406C1E0911A2AF0911B2A8081B5
:101A70009181A281B38189839A83AB83BC83E091F6
:101A80001E2AF0911F2A9C01AD0160817181828123
:101A900093810E9496394B015C012091282A309154
:101AA000292A40912A2A50912B2A69817A818B8197
:101AB0009C810E9496396B017C0120910E2A309105
:101AC0000F2A4091102A5091112AC501B4010E9499
:101AD0004E3B2091242A3091252A4091262A50916C
:101AE000272A0E9497392B013C014092242A5092C8
:101AF000252A6092262A7092272A3090392A31109E
:101B00001AC020910A2A30910B2A40910C2A509138
:101B10000D2AC701B6010E944E3B9B01AC01C301D7
:101B2000B2010E9496396093242A7093252A8093EB
:101B3000262A9093272A4090242A5090252A6090A4
:101B4000262A7090272A1091342A9091352A9E8750
:101B5000A091362AAD870091372A212F392F4A2F9D
:101B6000502FC301B2010E944A3B18160CF096C0D8
:101B7000812F9E85AD85B02F8093242A9093252AAE
:101B8000A093262AB093272A332009F4A0C02091DD
:101B90000A2A30910B2A40910C2A50910D2AC50136
:101BA000B4010E944E3B4B015C012091122A3091FE
:101BB000132A4091142A5091152AC701B6010E9498
:101BC0004E3B9B01AC016091242A7091252A8091A3
:101BD000262A9091272A0E949639A50194010E94F5
:101BE00097396B017C019B01AC01612F7E858D854E
:101BF000902F0E94FB3987FD18C01091302A9091D8
:101C0000312A9E87A091322AAD870091332A212F55
:101C1000392F4A2F502FB601C7010E94FB3987FD8B
:101C200004C01C2DDE86ED860F2DE0911C2AF0915C
:101C30001D2A812F9E85AD85B02F80839183A2833D
:101C4000B38389819A81AB81BC818093282A909348
:101C5000292AA0932A2AB0932B2A8D819E81AF81B5
:101C6000B8858093202A9093212AA093222AB093AA
:101C7000232A2E96CDBFDEBFDF91CF911F910F910A
:101C8000FF90EF90DF90CF90BF90AF909F908F909C
:101C90007F906F905F904F903F9008958091302A91
:101CA0009091312AA091322AB091332A89879A875C
:101CB000AB87BC879C01AD01C301B2010E94FB3917
:101CC00087FF62CF89859A85AB85BC8555CF812CEE
:101CD000912C54016ACF80918928811122C0809172
:101CE0005429811116C08091202981110BC01092B6
:101CF000A82881E090E08093092890930A2888EC36
:101D000090E0A8CC109220291092A6281092A72823
:101D1000F6CF8091B12881111092B12810925429E8
:101D2000EECF08958091892881115EC020915329BA
:101D30008091092890910A28211103C088309105CB
:101D400029F0AC014D7F4C305105B9F501978093D6
:101D5000092890930A288091542981112BC08091E1
:101D600020292223D9F18230C9F5109220298091AF
:101D700020298530F9F420E030E040E85FE360910D
:101D80008E2870918F2880919028909191280E94A0
:101D90004A3B87FD0FC080918B28882359F0109211
:101DA0008E2810928F28109290281092912881E00E
:101DB00080938B2882E390E04DCC8B30910511F01D
:101DC0000D9721F481E08093C328C5CF8091C3286B
:101DD000882309F4C0CF1092C328BDCF815084302E
:101DE00030F680932029C3CF0895809189288111EE
:101DF00012C08091462881110EC081E08093BD28D9
:101E0000809128288F5F80932828893124F00E94B0
:101E10007D021092282808958091892881115AC046
:101E200080915429882309F453C08091C3288111DB
:101E30004FC08091092890910A282091B128211142
:101E400019C001968093092890930A2820910E29A1
:101E5000222339F00597F4F11092092810920A28EC
:101E600008950597BCF181E090E080930928909354
:101E70000A2808958630910519F488E090E0F5CF9E
:101E80002091BC288930910539F48BE090E0211134
:101E9000ECCF80E190E0E9CF211106C089309105B7
:101EA0004CF080319105ACF38031910519F481E15A
:101EB00090E0DBCF8131910519F482E190E0D5CF3C
:101EC000823191051CF085E090E0CFCF0196CDCF17
:101ED0000C947D02089580918928811112C080910F
:101EE000462881110EC081E08093BD28809128286A
:101EF0008F5F80932828893124F00E9493011092EB
:101F00002828089580918928811126C0809154291C
:101F1000882309F445C08091C328811141C0809174
:101F2000092890910A282091B128211116C0019703
:101F30008093092890930A2820910E29222349F0A2
:101F400097FF0AC084E090E08093092890930A28C4
:101F5000089518161906B4F708958830910519F4F4
:101F600086E090E0F1CF8B30910519F489E090E0A4
:101F7000EBCF8131910519F480E190E0E5CF82311A
:101F8000910519F481E190E0DFCF8031910571F383
:101F9000863091051CF482E190E0D6CF0197D4CF32
:101FA0000C94930180918928811125C0809120296A
:101FB000811117C080915429811113C08EE591E0E1
:101FC0008093BE289093BF2880910E29882361F0CA
:101FD0001092092810920A2881E080935429809356
:101FE000A82888EC90E036CB81E090E08093092827
:101FF00090930A28F1CF0895DC01ED91FC910488BB
:10200000F589E02D23E030E00994FC018081918185
:10201000FC01FF2790FD06C080E094E1E82BF92B3E
:102020008081089580E093E1F9CFEF92FF920F93C2
:102030001F93CF93DF9300D0CDB7DEB78C017B0128
:1020400089839A83CE010196E0DFF70180830F5FD9
:102050001F4F09831A83CE010196D7DFF7018183D1
:10206000C7010F900F90DF91CF911F910F91FF90BB
:10207000EF900895AF92BF92CF92DF92EF92FF92CE
:102080000F931F93CF93DF9300D0CDB7DEB78B01B3
:102090006B0124E0C20ED11C7B015C01A61AB70AB9
:1020A000C5018E0D9F1D89839A83CE010196ADDFF8
:1020B000F70181937F01EC15FD0591F7C8010F90A1
:1020C0000F90DF91CF911F910F91FF90EF90DF90D4
:1020D000CF90BF90AF900895CF93DF9300D0CDB74E
:1020E000DEB789839A83CE0101968FDF0F900F9020
:1020F000DF91CF910895FC01FF2790FD12C080E091
:1021000094E1E82BF92B60838FB7F8949DE923E0E5
:1021100094BF209300108FBF8091021081FDFCCFEF
:10212000089580E093E1EDCFE6CF1F93CF93DF9347
:10213000EC01162F6ADF811721F0612F88819981C8
:10214000DADFCE01DF91CF911F910895EF92FF92D8
:102150000F931F93CF93DF9300D0CDB7DEB78AE004
:10216000E82E89E2F82E06E410E009831A83F701CD
:1021700061917F01CE010196D8DF0F5F1F4F0A34B6
:10218000110599F78AE099E20F900F90DF91CF91B6
:102190001F910F91FF90EF900895EF92FF920F9390
:1021A0001F93CF93DF9300D0CDB7DEB78C017B01B7
:1021B00089839A83FB016081CE010196B6DF0F5FB0
:1021C0001F4F09831A83F7016181CE010196ADDFAC
:1021D000C7010F900F90DF91CF911F910F91FF904A
:1021E000EF900895AF92BF92CF92DF92EF92FF925D
:1021F0000F931F93CF93DF9300D0CDB7DEB78B0142
:102200006B0124E0C20ED11C7B015C01A61AB70A47
:10221000C5018E0D9F1D89839A83F70161917F010E
:10222000CE01019682DFEC14FD0491F7C8010F90F6
:102230000F90DF91CF911F910F91FF90EF90DF9062
:10224000CF90BF90AF9008952F923F924F925F92A0
:102250006F927F928F929F92AF92BF92CF92DF92B6
:10226000EF92FF920F931F93CF93DF9300D01F92B3
:10227000CDB7DEB780918928811158C01092BD2852
:102280008091542981116AC01092BE281092BF28F3
:1022900080912029843031F42091A6283091A728FC
:1022A000232B51F090915329992309F455C08111A2
:1022B00053C082E0809320298091202985300CF43E
:1022C00080C380910E29882301F185E08093202925
:1022D00080910F29882309F470C310920F298091EF
:1022E0000F29811112C061E080911E2990911F2950
:1022F000892B09F460E06093AA2890E080E014DF65
:102300008091202985300CF45CC3009195281091B0
:102310009628101611060CF454C388EE93E09AD94F
:102320000F5F1F4F00939528109396282396CDBFDB
:10233000DEBFDF91CF911F910F91FF90EF90DF9063
:10234000CF90BF90AF909F908F907F906F905F9055
:102350004F903F902F9008958F5FACCF0091092848
:1023600010910A288091C328811109C18091AA285F
:1023700090E08093212990932229209153292B8347
:10238000822F90E080932329909324298091A42880
:1023900090E08093292990932A298091F12890E058
:1023A000809341299093422980910E2990E0809357
:1023B0002B2990932C29211199C080911229909159
:1023C000132980932529909326298091D8289091CC
:1023D000D92880932D2990932E29C090F228D0904F
:1023E000F328E090F428F090F528C701B6010E9488
:1023F000673A4B0120E030E040E251E4C701B6010A
:102400000E944E3B0E94673A2B01CB016AE070E0CC
:102410000E94B53B1C018B8181117EC020E030E021
:1024200048EC52E4C701B6010E94FB3987FF67C040
:1024300080922F2990923029409226285092272866
:1024400020923129309232298091072890910828D2
:102450008093332990933429809237299092382998
:102460002092392930923A290C30110509F06DC0BB
:10247000C0921E28D0921F28E0922028F092212896
:1024800020E030E048EC52E4C701B6010E94FB397D
:1024900087FF68C080923B2990923C2920923D2979
:1024A00030923E298091A92890E08093272990932B
:1024B00028290231110521F41092AB281092AC2882
:1024C0002B81211109C00830110531F487E090E01B
:1024D0008093092890930A2881E08093C3288AE199
:1024E00090E08093BE289093BF28E6CE809110297B
:1024F000909111298093492990934A2966CF83E6C8
:1025000090E080932F299093302989E090E0809388
:1025100031299093322998CF4090DE285090DF28BF
:102520006090E0287090E128C301B2010E94673AF0
:1025300060934B2970934C29409222285092232873
:1025400060922428709225287FCF0E30110509F063
:1025500097CFC0921A28D0921B28E0921C28F092A4
:102560001D288ECF83E690E080933B2990933C29F1
:1025700089E090E080933D2990933E2993CF0131EB
:10258000110518F5F801E953FD4E0C94063CD812DC
:1025900005131213BE142F133C135613E5126113C7
:1025A00011141F14E5123814E5124914E5124913E9
:1025B00061E08091212990912229892B09F460E022
:1025C0006093AA2890E080E0AFDD80910928909187
:1025D0000A2820915329211103C08730910561F009
:1025E0009C012D7F2930310539F08D30910521F086
:1025F0008231910509F0D4C121E02093C3280196CE
:102600008093092890930A286ACF61E0809123295A
:1026100090912429892B09F460E06093532981E08B
:1026200090E0D2CF8091532981110BC06091252970
:1026300080912629609312298093132982E090E0EB
:10264000C3CF8091492990914A2980931029909372
:10265000112960E179E283E090E09FDDB6CF61E08F
:102660008091292990912A29892B09F460E06093AF
:10267000A4288FE090E058DD61E080912B299091B3
:102680002C29892B09F460E060930E2986E990E0FB
:102690009BCF61E08091412990914229892B09F4D7
:1026A00060E06093F12884E890E08ECF60912D295E
:1026B00080912E296093D8288093D92885E090E0D6
:1026C00083CF80915329811187C060913129709106
:1026D0003229072E000C880B990B0E949A3A20E0B1
:1026E00030E040E251E40E94FF396B017C016091CF
:1026F0002F2970913029072E000C880B990B0E940E
:102700009A3A9B01AC01C701B6010E94973920E0BB
:1027100030E040E251E40E944E3B6B017C0160914D
:10272000262870912728072E000C880B990B0E94F1
:102730009A3A9B01AC01C701B6010E94963920E08C
:1027400030E040E251E40E94FF396093E828709342
:10275000E9288093EA289093EB2881E08093E7288A
:102760001092E2288090E8289090E928A090EA282A
:10277000B090EB2820E030E040E251E4C501B40124
:102780000E944E3B6B017C0120E030E0A901C501B5
:10279000B4010E94FB3987FF41C081E08093EC289F
:1027A000F7FAF094F7F8F094C0920A29D0920B2926
:1027B000E0920C29F0920D29C9DC6091EC2887E0A9
:1027C00090E0B2DC6091E72888E090E0ADDC6091B9
:1027D000E22889E090E0F8CE6091492970914A2979
:1027E000072E000C880B990B0E949A3A2091222800
:1027F0003091232840912428509125280E94963911
:102800006093E8287093E9288093EA289093EB2856
:102810001092E72881E08093E228A4CF1092EC2860
:10282000C3CF8091332990913429809307289093C6
:1028300008280A968093352990933629C6CE809130
:102840003529909136298093B6289093B7288091A6
:10285000F2289091F328A091F428B091F528809364
:102860001E2890931F28A0932028B0932128ADCE36
:102870008091F2289091F328A091F428B091F52846
:1028800080931A2890931B28A0931C28B0931D288E
:102890009CCE20E030E040E251E460911E2870912F
:1028A0001F2880912028909121280E944E3B0E9451
:1028B000673A6093D0287093D1288093D228909360
:1028C000D32820E030E040E251E460911A28709172
:1028D0001B2880911C2890911D280E944E3B0E942D
:1028E000673A6093CC287093CD288093CE2890933C
:1028F000CF2860ED78E280E590E074DC6CEC78E263
:102900008AE590E06FDC20E030E040E251E4609145
:10291000B8287091B9288091BA289091BB280E945C
:102920004E3B0E94673A6093C8287093C9288093F1
:10293000CA289093CB2820E030E040E251E4609137
:10294000B2287091B3288091B4289091B5280E9444
:102950004E3B0E94673A6093C4287093C5288093C9
:10296000C6289093C72868EC78E284E690E03ADCC9
:1029700064EC78E28EE690E035DC27CE61E0809171
:10298000272990912829892B09F460E06093A928D0
:1029900081E490E089839A83CE010196C6DB15CE4F
:1029A0009C012B7F1092C3282A30310509F427CED1
:1029B0008C30910509F093CD22CE81E080930F29D0
:1029C0008ECC82E390E00E942A0BB0CC4F925F92B3
:1029D0006F927F928F929F92AF92BF92CF92DF922F
:1029E000EF92FF920F931F93CF93DF9300D0CDB759
:1029F000DEB760E08CE00E941608E0910928F091B3
:102A00000A288091C328882309F473C7E431F105AB
:102A100008F06EC0E25FFA4E0C94063C2215981541
:102A2000D6154216B3160E175D17A017D117291821
:102A30007918C21801198119B719391A3E1A901A52
:102A4000BF1AF21A1092C2281092C1281092C02800
:102A50000E9425098CE090E080930229909303293D
:102A600080E190E0809304299093052989E190E02A
:102A7000809306299093072981E190E080930829AB
:102A8000909309298091BE289091BF2889319105A2
:102A90007CF488E190E08093FA289093FB2880935F
:102AA000FC289093FD288093FE289093FF2870C700
:102AB00020912129309122291092FA281092FB2886
:102AC000232B49F525E130E02093FC283093FD28A5
:102AD0002093FE283093FF2828E130E0209300293E
:102AE00030930129C39724F01092BE281092BF287A
:102AF0000F900F90DF91CF911F910F91FF90EF906A
:102B0000DF90CF90BF90AF909F908F907F906F900D
:102B10005F904F90089524E130E02093FC2830939B
:102B2000FD2828E130E02093FE283093FF28D6CFFF
:102B30000E9425091092C2281092C1288CE190E0D1
:102B4000809302299093032984E190E080930429E3
:102B50009093052989E190E08093062990930729B5
:102B600080E190E080930829909309298091BE2804
:102B70009091BF28893191050CF48BCF20912329A6
:102B800030912429232B49F42DE130E02093FA28B9
:102B90003093FB282AE030E0C0CF2DE130E02093D5
:102BA000FA283093FB2825E130E0B7CF0E942509B1
:102BB0001092C2288CE090E0809302299093032920
:102BC0008DE090E0809304299093052985E190E0C1
:102BD00080930629909307298FE090E0809308293D
:102BE00090930929209153298091BE289091BF2864
:102BF0004997F4F48091BD28811113C088E190E0D9
:102C00008093FA289093FB288093FC289093FD28CA
:102C10008093FE289093FF2821110CC28AE090E057
:102C20008AC089E190E08093BE289093BF28F4CFBA
:102C3000211117C080912529909126292AE0289FEB
:102C4000B001299F700D1124072E000C880B990BE1
:102C50000E94A00388E190E08093FA289093FB28DB
:102C6000DDCF8091492990914A292AE0289FB0011F
:102C7000299F700D1124072E000C880B990B0E94C0
:102C8000A003D8C11092C0281092C2281092C12867
:102C90000E94250980E190E0809302299093032906
:102CA00029E130E0209304293093052942E150E0E6
:102CB00040930629509307294FE050E0409308299C
:102CC000509309294091BE285091BF2849315105A0
:102CD000E4F48091BD2881110FC088E190E08093D9
:102CE000FA289093FB288093FC289093FD288093EA
:102CF000FE289093FF281FC02093BE283093BF2842
:102D00008091BE289091BF28EDCE20912729309147
:102D10002829232BA9F48093FA289093FB2827E1F4
:102D200030E02093FC283093FD288093FE28909378
:102D3000FF288FE190E08093002990930129E0CF54
:102D40008CE090E08093FA289093FB2887E190E054
:102D50008093FC289093FD288DE090E08093FE28DE
:102D60009093FF285BCF0E9425098BE090E0809331
:102D700002299093032981E190E0809304299093A4
:102D8000052987E190E080930629909307298CE03C
:102D900090E080930829909309292091BE283091D2
:102DA000BF282931310564F48091BD28882309F4B6
:102DB00094CF89E190E08093BE289093BF28A0CF64
:102DC0002091292930912A29232B99F420E230E0FF
:102DD0002093FA283093FB2829E130E02093FC2847
:102DE0003093FD288093FE289093FF288EE090E09A
:102DF000A2CF8FE090E08093FA289093FB2884E1A3
:102E000090E08093FC289093FD288EE090E08093E2
:102E1000FE289093FF288AE190E08DCF1092C2287F
:102E20001092C1280E9425098BE090E0809302292E
:102E30009093032981E190E08093042990930529E0
:102E400080E290E0809306299093072980E190E04A
:102E500080930829909309298091BE289091BF28DA
:102E600049970CF4A1CF80912B2990912C29892B83
:102E7000A9F084E290E08093FA289093FB288AE1FD
:102E800090E08093FC289093FD288CE090E0809364
:102E9000FE289093FF2888E190E04DCF84E290E0F7
:102EA0008093FA289093FB288AE190E08093FC2895
:102EB0009093FD288AE090E0EACF1092C2280E9409
:102EC00025094AE050E040930229509303292DE060
:102ED00030E020930429309305298AE190E0809323
:102EE0000629909307296EE070E06093082970939B
:102EF00009296091BE287091BF28693171050CF4D1
:102F0000C8CDE0912D29F0912E294093FA285093B5
:102F1000FB282093FC283093FD288093FE28909373
:102F2000FF2882E090E0EF2B11F481E090E08093A5
:102F3000002990930129633371050CF0D5CDD8CDCC
:102F40001092C0280E9425098AE090E0809302290F
:102F5000909303298DE090E08093042990930529B4
:102F60008AE190E0809306299093072981E090E020
:102F700080930829909309298091BE289091BF28B9
:102F800049973CF58091BD2881111CC088E190E0F3
:102F90008093FA289093FB288093FC289093FD2837
:102FA0003DCE8091BE289091BF28209153292111B8
:102FB0002DC0499774F48091BD28811103C088E128
:102FC00090E0CCCE89E190E08093BE289093BF281A
:102FD00025CE80912F299091302924E6289FB00199
:102FE000299F700D112420913129309132294AE016
:102FF000429FC001439F900D1124680F791F072E37
:10300000000C880B990B0E94A00308CE4997E4F4AA
:103010008091BD28811111C088E190E08093FA2849
:103020009093FB288093FC289093FD288093FE28A2
:103030009093FF2885E190E07ECE89E190E0809337
:10304000BE289093BF28F6CF80914B2990914C29B0
:103050000CCE11E01093C0281092C2280E942509BE
:103060001093BC288AE090E0809302299093032972
:103070008DE090E080930429909305298AE190E007
:10308000809306299093072982E090E08093082995
:10309000909309298091BE289091BF284997C4F444
:1030A0008091BD2881110DC088E190E08093FC28BB
:1030B0009093FD288093FE289093FF288AE190E06A
:1030C000CBCD89E190E08093BE289093BF28F6CFC6
:1030D00080913329909134292AE0289FB001299FBB
:1030E000700D1124072E000C880B990B0E94A00371
:1030F000E5CF0E9425098AE090E080930229909311
:1031000003298DE090E080930429909305298AE1BA
:1031100090E0809306299093072982E090E08093C5
:103120000829909309298091BE289091BF2849973A
:10313000C4F48091BD2881110DC088E190E0809396
:10314000FC289093FD288093FE289093FF288EE121
:1031500090E082CD89E190E08093BE289093BF28D3
:10316000F6CF80913529909136292AE0289FB00129
:10317000299F700D1124072E000C880B990B0E94BB
:10318000A003E5CF0E94250981E08093C2286091C9
:10319000072870910828072E000C880B990B0E94B5
:1031A00061038AE190E0809302299093032987E1EB
:1031B00090E080930429909305298091BE289091F6
:1031C000BF2849977CF48091BD288111F2CD88E118
:1031D00090E08093FA289093FB288093FC289093AA
:1031E000FD288ECD809137299091382924E6289F9B
:1031F000B001299F700D11242091392930913A296D
:10320000F6CE0E9425096091072870910828072EA4
:10321000000C880B990B0E9461038AE190E0809377
:1032200002299093032987E190E0809304299093E9
:1032300005290091372910913829E0903929F0901B
:103240003A298091BE289091BF2849970CF044C03C
:103250008091BD28811139C088E190E08093FE28DB
:103260009093FF288AE090E08093002990930129B1
:103270008091BE289091BF28C39724F01092BE2859
:103280001092BF28B701FF0C880B990B0E949A3A45
:1032900020E030E040E251E40E94FF396B017C0104
:1032A000B801110F880B990B0E949A3A9B01AC014F
:1032B000C701B6010E9497396093B8287093B92866
:1032C0008093BA289093BB2813CC89E190E0809337
:1032D000BE289093BF28C6CF84E6809FB001819F0F
:1032E000700D11242AE02E9DC0012F9D900D1124F8
:1032F000680F791F072E000C880B990B0E94A00302
:10330000B1CF0E9425096091B6287091B728072E89
:10331000000C880B990B0E9461038EE190E0809372
:1033200002299093032989E190E0809304299093E6
:10333000052921E02093C2282091BE283091BF2882
:10334000293131052CF42091BD2821113DCE1ECE0E
:1033500080913B2990913C2924E6289FB001299F28
:10336000700D112420913D2930913E2940CE0E94BC
:1033700025096091B6287091B728072E000C880B9C
:10338000990B0E9461038EE190E080930229909353
:10339000032989E190E0809304299093052921E095
:1033A0002093C22800913B2910913C29E0903D29AF
:1033B000F0903E292091BE283091BF282931310557
:1033C0000CF042C02091BD28211139C088E190E065
:1033D0008093FE289093FF288AE090E08093002954
:1033E000909301298091BE289091BF28C39724F023
:1033F0001092BE281092BF28B701FF0C880B990BC2
:103400000E949A3A20E030E040E251E40E94FF3905
:103410006B017C01B801110F880B990B0E949A3A3D
:103420009B01AC01C701B6010E9497396093B22895
:103430007093B3288093B4289093B52859CB809388
:10344000BE289093BF28C8CF84E6809FB001819F9B
:10345000700D11242AE02E9DC0012F9D900D112486
:10346000680F791F072E000C880B990B0E94A00390
:10347000B3CF1092B128109254293ACB1092C2289F
:103480001092C1280E9425098EE190E080930229C4
:10349000909303298FE090E080930429909305296D
:1034A0002DE030E0209306293093072980E190E059
:1034B00080930829909309294091BE285091BF28F4
:1034C000493151050CF470CC409141295091422969
:1034D000452BA9F48CE090E08093FA289093FB2888
:1034E0008AE190E08093FC289093FD2887E190E0AA
:1034F0008093FE289093FF2884E290E01CCC45E165
:1035000050E04093FA285093FB282093FC283093F6
:10351000FD282CE030E02093FE283093FF280BCCD0
:103520001092C0281092C2281092C1280E9425092A
:103530008091AF289091B0282AE0289FB001299F60
:10354000700D112490E080E00E9461038EE190E014
:1035500080930829909309296091AD287091AE2835
:1035600090E080E00E94A0038DE090E08093FA2834
:103570009093FB281092AB281092AC28B9CA1092F5
:10358000C0281092C2281092C1280E9425098CE000
:1035900090E080930229909303292CE130E020935E
:1035A00004293093052941E150E0409306295093C6
:1035B00007292FE030E02093082930930929409310
:1035C000FA285093FB282093FC283093FD28809301
:1035D000FE289093FF2880E190E08093002990934B
:1035E0000129C8CF1092C0281092C2281092C12879
:1035F0000E9425098091AB289091AC288F319105CC
:10360000B8F461E085E10E94160886E190E08093BD
:10361000022990930329809304299093052980938C
:10362000062990930729809308299093092933CA82
:103630009C01295231092238310578F560E085E195
:103640000E94160881E190E080930229909303295B
:103650008FE090E080930429909305292CE030E0DE
:10366000209306293093072920E130E02093082990
:103670003093092920E230E02093FA283093FB2888
:1036800027E130E02093FC283093FD2824E130E04E
:103690002093FE283093FF287BC18B3A91050CF4D0
:1036A00027CA1092AA281092532923E630E02093CB
:1036B00012293093132984ED90E080931029909380
:1036C00011291092D8281092D92810920A29109204
:1036D0000B2910920C2910920D291092EC2841E030
:1036E0004093E7281092E2284EE150E060E070E05D
:1036F0004093D0285093D1286093D2287093D32838
:1037000044E550E060E070E04093CC285093CD2831
:103710006093CE287093CF284CE150E060E070E0D9
:103720004093C8285093C9286093CA287093CB2827
:1037300042E550E060E070E04093C4285093C52813
:103740006093C6287093C7281092A9281092A428C5
:1037500010920E291092F1281092212910922229FC
:103760001092232910922429209325293093262969
:103770008093492990934A2910922D2910922E293D
:1037800010922729109228291092292910922A296B
:10379000109241291092422910922B2910922C2923
:1037A0001092A2281092A3281092A0281092A1286B
:1037B00085E290E08093162990931729109218299A
:1037C0001092192980E290E080934029909341293A
:1037D00010921A2910921B2910921C2910921D294F
:1037E00010929F2860E081E090E00E94941063E6D0
:1037F00082E090E00E94941060E179E283E090E042
:103800000E94CD1060E085E090E00E94941060E09E
:103810008FE090E00E9494100E94A61060E087E084
:1038200090E00E94941061E088E090E00E94941083
:1038300060E089E090E00E94941060ED78E280E51D
:1038400090E00E94F2106CEC78E28AE590E00E9431
:10385000F21068EC78E284E690E00E94F21064ECEA
:1038600078E28EE690E00E94F21081E490E0898395
:103870009A836091A928CE0101960E9495106091CB
:10388000162983E790E00E9494106091182985E73B
:1038900090E00E94941060E479E288E790E00E9452
:1038A000CD1060E08DE790E00E94941060E082E827
:1038B00090E00E94941060E087E890E00E949410ED
:1038C00060E086E990E00E94941060E084E890E077
:1038D0000E94941081E090E08093092890930A2838
:1038E0001092B1281092AB281092AC281092C328E5
:1038F000C2CDE331F10508F0FBC8EF57F34E0C944D
:10390000063C941CD61C0A1D5C1DA61DD31D021E60
:10391000381E8F1EF61E2B1F5C1F0B20CD208B2107
:1039200058228B22BF22DC221092C2281092C1287A
:103930001092C0280E9425098CE090E08093022913
:103940009093032980E190E08093042990930529C6
:1039500089E190E0809306299093072981E190E026
:1039600080930829909309298091AA281092FA2817
:103970001092FB28811111C085E190E08093FC2812
:103980009093FD288093FE289093FF2888E190E093
:103990008093002990930129ABC884E190E0809343
:1039A000FC289093FD2888E190E07DC80E942509BD
:1039B0001092C2281092C1288CE190E080930229D5
:1039C0009093032984E190E0809304299093052942
:1039D00089E190E0809306299093072980E190E0A7
:1039E000809308299093092980915329811109C056
:1039F0008DE190E08093FA289093FB288AE090E094
:103A0000CECF8DE190E08093FA289093FB2885E15A
:103A100090E0C5CF0E9425098CE090E080930229B8
:103A2000909303298DE090E08093042990930529D9
:103A300005E110E000930629109307298FE090E03C
:103A400080930829909309298091532981111DC0E1
:103A500080911229909113292AE0289FB001299F73
:103A6000700D1124072E000C880B990B0E94A003E7
:103A70008AE090E0809300299093012988E190E00A
:103A80008093FA289093FB2833C81092C228809123
:103A90001029909111292AE0289FB001299F700DCB
:103AA0001124072E000C880B990B0E94A003009391
:103AB0000029109301291CC81092C0281092C22816
:103AC0001092C1280E94250980E190E0809302298C
:103AD0009093032929E130E02093042930930529AC
:103AE00022E130E020930629309307292FE030E0CF
:103AF00020930829309309292091A928211111C068
:103B00008093FA289093FB2827E130E02093FC284B
:103B10003093FD288093FE289093FF288FE190E05A
:103B200037CF8CE090E08093FA289093FB2887E1D0
:103B300090E08093FC289093FD288DE090E08093A6
:103B4000FE289093FF288AE090E022CF0E9425096A
:103B50008DE090E0809302299093032982E290E027
:103B6000809304299093052980E190E080930629B1
:103B70009093072987E190E0809308299093092981
:103B80002BE030E02093FA283093FB2821E130E04D
:103B90002093FC283093FD288093FE289093FF28E3
:103BA0008CE090E0F5CE1092C2281092C1280E94BD
:103BB00025098BE090E0809302299093032921E16D
:103BC00030E0209304293093052920E230E020934F
:103BD00006293093072920E130E02093082930930B
:103BE00009292093FA283093FB2823E230E0209320
:103BF000FC283093FD288093FE289093FF288FE0C7
:103C000090E0C6CE1092C2281092C1280E942509C9
:103C10004AE050E040930229509303292DE030E020
:103C200020930429309305298AE190E080930629A6
:103C3000909307296EE070E060930829709309293A
:103C40006091D8287091D9284093FA285093FB2886
:103C50002093FC283093FD288093FE289093FF2822
:103C600082E090E0672B09F093CE81E090E090CE67
:103C70001092C0280E9425098AE090E080930229D2
:103C8000909303298DE090E0809304299093052977
:103C90008AE190E0809306299093072981E090E0E3
:103CA000809308299093092980915329811187C015
:103CB000C090F228D090F328E090F428F090F528F6
:103CC0002DEC3CEC47EC52E46091F6287091F7281B
:103CD0008091F8289091F9280E944A3B18167CF4AC
:103CE00020E030E040E251E4C701B6010E944E3BC3
:103CF0000E94673A0E94A0031092C22824CF20E0BD
:103D000030E048EC52E4C701B6010E944E3B0E94ED
:103D1000673A0E94A00381E08093C22814CF1092DA
:103D2000C0280E9425098AE090E0809302299093A0
:103D300003298DE090E080930429909305298AE17E
:103D400090E0809306299093072981E090E080938A
:103D500008299093092980915329811130C08090BE
:103D6000F2289090F328A090F428B090F52820E055
:103D700030E048EC52E4C501B4010E944E3B0E9481
:103D8000673A6B017C010E94A0032DEC3CEC47ECF0
:103D900052E46091F6287091F7288091F82890916C
:103DA000F9280E944A3B18163CF420E030E040E23B
:103DB00051E4C501B4019ACFC701B601AACF109250
:103DC000C22820E030E040E251E46091DE287091AA
:103DD000DF288091E0289091E1280E944E3B0E94CC
:103DE000673A0E94A00385E190E0D2CD81E0809304
:103DF000C0281092C2280E9425090AE010E0009312
:103E00000229109303298DE090E080930429909378
:103E100005293AE1E32EF12CE0920629F0920729D8
:103E200082E090E0809308299093092980910728E7
:103E3000909108282AE0289FB001299F700D112435
:103E4000072E000C880B990B0E94A003E092FA2821
:103E5000F092FB282CCE0E9425090AE010E0009386
:103E60000229109303298DE090E080930429909318
:103E700005298AE190E0809306299093072982E042
:103E800090E080930829909309298091B628909119
:103E9000B7282AE0289FB001299F700D1124072E12
:103EA000000C880B990B0E94A0038EE190E0809398
:103EB000FA289093FB28FBCD1092C02881E08093D4
:103EC000C1281092C2280E9425098CEE9AE20E9415
:103ED0000A0B6091332970913429072E000C880B4E
:103EE000990B0E949A3A6093F2297093F329809378
:103EF000F4299093F52961E081E20E941608BEE161
:103F0000EB2EF12C1FE0C12ED12C0DE0A02EB12CF8
:103F100080E1882E912C08E110E09AE1692E712C45
:103F200027E1422E512C2091F2293091F329409122
:103F3000F4295091F5296091FA297091FB2980911B
:103F4000FC299091FD290E94FB3987FFCCC180910B
:103F5000A828882309F4C7C10E949B0460913329D3
:103F600070913429072E000C880B990B0E949A3A05
:103F70006093F2297093F3298093F4299093F529A3
:103F80000E94860960E08BE10E9416088FED9BE29B
:103F90000E94AC0A8091BE289091BF28893191057A
:103FA0001CF50093FA281093FB280093FC2810932B
:103FB000FD280093FE281093FF28009300291093FA
:103FC00001296091072870910828072E000C880BA2
:103FD000990B0E946103609202297092032940921A
:103FE0000429509205299FCFE092FA28F092FB28ED
:103FF000C092FC28D092FD28A092FE28B092FF2803
:104000008092002990920129C397DCF21092BE2879
:104010001092BF28D6CF61E081E20E941608EAE143
:10402000EE2EF12CF7E1CF2ED12C08E110E0AAE022
:10403000AA2EB12C9090A5288091C32881119BC0F5
:104040008091A828882309F496C0992009F493C088
:104050000E949B046091332970913429072E000C33
:10406000880B990B0E949A3A6093F2297093F32976
:104070008093F4299093F5298FED9BE20E94AC0A7E
:104080000E94860960E08AE10E94160861E08BE1E7
:104090000E9416086091072870910828072E000CCE
:1040A000880B990B0E946103E0920229F092032988
:1040B000C0920429D092052981E08093C128809084
:1040C000BE289090BF2889E188169104BCF4009323
:1040D000FA281093FB280093FC281093FD280093E6
:1040E000FE281093FF28009300291093012960E017
:1040F00085E10E9416081092C2289CCF61E085E1FC
:104100000E9416084090F2285090F3286090F428FE
:104110007090F5282DEC3CEC47EC52E46091F628C9
:104120007091F7288091F8289091F9280E944A3BD5
:1041300020E030E040E251E4181624F020E030E0C6
:1041400048EC52E4C301B2010E944E3B0E94673A20
:104150000E94A00381E08093C228A0920029B0921F
:10416000012983E3881691040CF464CF1092BE28D1
:104170001092BF285FCF60E081E20E9416088BE0BA
:1041800090E09110C2C08DE090E080930928909358
:104190000A281092C3280C9478151092C028109207
:1041A000C22881E08093C128609135297091362919
:1041B000072E000C880B990B0E949A3A6093F22903
:1041C0007093F3298093F4299093F52961E081E2BB
:1041D0000E9416083EE1E32EF12C4FE0C42ED12CB4
:1041E0005DE0A52EB12C60E1862E912C08E110E057
:1041F00079E1672E712C2091F2293091F3294091B9
:10420000F4295091F5296091FA297091FB29809148
:10421000FC299091FD290E94FB3987FF64C08091A1
:10422000A828882309F45FC00E949B046091352967
:1042300070913629072E000C880B990B0E949A3A30
:104240006093F2297093F3298093F4299093F529D0
:104250000E9486098FED9BE20E94AC0A60E08BE130
:104260000E9416088091BE289091BF28893191053F
:104270001CF50093FA281093FB280093FC28109358
:10428000FD280093FE281093FF2800930029109327
:1042900001296091B6287091B728072E000C880B71
:1042A000990B0E946103E0920229F0920329609227
:1042B0000429709205299FCFE092FA28F092FB28FA
:1042C000C092FC28D092FD28A092FE28B092FF2830
:1042D0008092002990920129C397DCF21092BE28A7
:1042E0001092BF28D6CF60E081E20E9416088EE1CE
:1042F00090E08093A6289093A72881E08093A5283A
:104300008091092890910A2801968093092890931A
:104310000A280C94781561E081E20E9416088EE16B
:10432000E82EF12C99E1C92ED12C2AE0A22EB12C35
:1043300008E110E09090A5288091C3288111A4C0C5
:104340008091A828882309F49FC0992009F49CC073
:104350000E949B046091352970913629072E000C2C
:10436000880B990B0E949A3A6093F2297093F32973
:104370008093F4299093F5290E9486098FED9BE2A2
:104380000E94AC0A60E08AE10E94160861E08BE1BD
:104390000E9416086091B6287091B728072E000C6D
:1043A000880B990B0E946103E0920229F092032985
:1043B000C0920429D0920529992493949092C128FF
:1043C0008091BE289091BF28499704F50093FA2860
:1043D0001093FB280093FC281093FD280093FE28DF
:1043E0001093FF28009300291093012960E085E1D4
:1043F0000E9416088091BE289091BF28C3970CF4A4
:1044000099CF1092BE281092BF2894CF61E085E129
:104410000E9416084090F2285090F3286090F428EB
:104420007090F5282DEC3CEC47EC52E46091F628B6
:104430007091F7288091F8289091F9280E944A3BC2
:1044400018169CF420E030E040E251E4C301B201D0
:104450000E944E3B0E94673A0E94A0031092C2281D
:10446000A0920029B0920129C5CF20E030E048ECAD
:1044700052E4C301B2010E944E3B0E94673A0E947F
:10448000A0039092C228ECCF60E081E20E9416085F
:104490001092F2291092F3291092F4291092F52922
:1044A000992019F08DE090E030CF1092542971CE10
:1044B0001092C1281092C2288091BE289091BF28E6
:1044C000883C91052CF58AE090E080930229909336
:1044D00003298DE090E080930429909305292AE137
:1044E00030E020930629309307292EE030E0209316
:1044F0000829309309292CE030E02093FA283093E2
:10450000FB288093FC289093FD288CE190E073CBEE
:104510001092B128EBC91092C0281092C2281092B4
:10452000C1280E9425098091F12890E080934129BB
:10453000909342298EE190E0809302299093032981
:104540002FE030E020930429309305298DE090E09E
:10455000809306299093072980E190E080930829B1
:10456000909309294CE050E04093FA285093FB289F
:104570002093FC283093FD282AE130E089C810926E
:10458000C0281092C2281092C1280E9425098AE1F1
:1045900090E0809302299093032987E190E0809333
:1045A0000429909305298BE190E08093062990934C
:1045B000072988E190E037C81092C0281092C228DD
:1045C0001092C1280E94250985E190E0809302297C
:1045D000909303298DE090E080930429909305291E
:1045E0008AE090E0809306299093072980E190E08B
:1045F000809308299093092921E130E02093FA283B
:104600003093FB282FE030E02093FC283093FD28E6
:104610002CE030E03DC8EF92FF920F931F93CF93B1
:10462000DF93E82EF62ED0E0C0E0042F10E0B801B2
:104630000C2E02C0759567950A94E2F761708E2D75
:104640000E94540861E08F2D0E94540860E08F2D75
:104650000E9454082196C830D10549F7DF91CF91C7
:104660001F910F91FF90EF9008950F931F93CF9399
:10467000DF930E948B080E9497080E94970860E0D1
:1046800080E20E945408C0913928D0913A28809144
:104690009E288E01000F111F882331F0E09102291E
:1046A000F09103292097C1F08091C128882339F027
:1046B000E0910429F0910529C130D10569F080917C
:1046C0009D28882309F480C0C230D10509F07CC040
:1046D000E0910629F0910729EE55F74440814160A9
:1046E0006EE18FE198DFF801E257F74460E08081E6
:1046F0000E94540861E080E20E9454082196C43070
:10470000D1050CF06BC0C0933928D0933A280E9491
:104710008B0860E083E10E945408C0913B28D0914F
:104720003C288091C0288E01000F111F882331F092
:10473000E091FA28F091FB282097C1F08091C228DF
:10474000882339F0E091FC28F091FD28C130D10593
:1047500069F080919C28882309F445C0C230D105B6
:1047600009F041C0E091FE28F091FF28EE55F74492
:104770004081416064E182E14EDFF801E856F74490
:1047800060E080810E94540861E083E10E94540847
:104790002196C430D1058CF5C0933B28D0933C289A
:1047A00082EB9AE20E94470B83E99AE20E94470B50
:1047B00084E79AE20E94470B85E59AE2DF91CF9168
:1047C0001F910F910C94470BF801EE5FF64D01908D
:1047D000F081E02DEE55F744408182CF10923928C8
:1047E00010923A2894CFF801E650F74D0190F081ED
:1047F000E02DEE55F7444081BDCF10923B2810923A
:104800003C28CECFFC0101900020E9F73197AF01A1
:10481000481B590BBC0185E599E20C9412068F9256
:104820009F92AF92BF920F931F93CF93DF93CDB719
:10483000DEB7A197CDBFDEBF19A2423008F44AE02F
:104840008E010F5D1F4F842E912CB12CA12CA50140
:1048500094010E94C83BE62FB901CA01EA30D4F4A2
:10486000E05DD801EE938D01232B242B252B79F7C6
:1048700090E080E0109711F0CD01C4DFA196CDBF8C
:10488000DEBFDF91CF911F910F91BF90AF909F90AE
:104890008F900895E95CE5CF4F925F926F927F927F
:1048A0008F929F92AF92BF92CF92DF92EF92FF9240
:1048B0000F931F93CF936B017C01742EAC019B016E
:1048C0000E94B13B882391F086E09AEBCF911F9133
:1048D0000F91FF90EF90DF90CF90BF90AF909F909F
:1048E0008F907F906F905F904F908CCF46015701D3
:1048F000E894B7F82FEF3FEF4FE75FE7C501B4014A
:104900000E94B13B81110DC02FEF3FEF4FE75FE7F2
:10491000C501B4010E94FB3918161CF48AE09AEB19
:10492000D5CF2FEF3FEF4FE75FE4C701B6010E94FD
:104930004A3B18161CF48EE09AEBC8CF2FEF3FEFDE
:104940004FE75FECC701B6010E94FB3987FDF3CF4B
:1049500020E030E0A901C701B6010E94FB3910E058
:1049600000E087FF0AC06DE285E599E20E9410072A
:104970008C01F7FAF094F7F8F094C0E060E070E092
:1049800080E09FE37C1641F020E030E040E251E41B
:104990000E94FF39CF5FF6CFA70196010E94973999
:1049A0002B013C010E946C3A4B015C014AE037DF6D
:1049B0007C01E00EF11ECC23A9F1C501B4010E94D7
:1049C000983A9B01AC01C301B2010E9496394B0198
:1049D0005C0182E19AEB16DFE80EF91EC15010F17E
:1049E00020E030E040E251E4C501B4010E944E3BBA
:1049F0002B013C010E946C3A4B01B12CA12C4AE0E6
:104A0000C501B4010CDFE80EF91EC501B4010E9416
:104A1000983A9B01AC01C301B2010E9496394B0147
:104A20005C01DCCFC701CF911F910F91FF90EF90F8
:104A3000DF90CF90BF90AF909F908F907F906F90BE
:104A40005F904F9008958F929F92AF92BF92CF92B6
:104A5000DF92EF92FF92CF93DF93C0913728D091EE
:104A600038282196C0933728D093382881E0809346
:104A700006068093080680910B0680FFFCCF6091AC
:104A8000100670911106072E000C880B990B0E94DE
:104A90009A3A20913328309134284091352850910A
:104AA00036280E9497396B017C01C0923328D0923E
:104AB0003428E0923528F0923628609100287091D1
:104AC0000128C617D7070CF490C0072E000C880BDE
:104AD000990B0E949A3A9B01AC01C701B6010E9452
:104AE000FF3960933328709334288093352890934E
:104AF000362820E030E040EA50E40E944E3B20E0BF
:104B000030EC4FE754E40E94FF3920E030E040E20F
:104B100051E40E94FF3928EB3FE840E65FE30E9442
:104B200097396B017C0120E030E04BEE53E40E94AA
:104B30004E3B4B015C01A701960160E070E080EA0A
:104B400090E40E9496399B01AC01C501B4010E941A
:104B5000FF3920E030E048EC52E40E94FF3920E0C9
:104B600030E040E85FE30E94963928E430E54CE706
:104B70005BE30E94FF396093F2287093F3288093DF
:104B8000F4289093F52842E087DE84E19AEB3ADE40
:104B900060912F287091302880913128909132288F
:104BA00042E07ADE86E19AEB2DDE26E636E646EE38
:104BB0005FE36091F2287091F3288091F42890913E
:104BC000F5280E944E3B20E030E040E052E40E9495
:104BD00097396093DE287093DF288093E0289093C4
:104BE000E128109237281092382882E390E08093D1
:104BF000002890930128DF91CF91FF90EF90DF90F4
:104C0000CF90BF90AF909F908F9008951F920F927A
:104C10000FB60F9211242F933F934F935F936F938F
:104C20007F938F939F93AF93BF93EF93FF9385E50C
:104C300099E20E94CC06FF91EF91BF91AF919F91B5
:104C40008F917F916F915F914F913F912F910F9035
:104C50000FBE0F901F9018951F920F920FB60F92D4
:104C600011242F938F939F93EF93FF93E0916129EA
:104C7000F0916229818181FD1BC0908180916B2917
:104C80008F5F8F7320916C29821741F0E0916B291F
:104C9000F0E0EB5AF64D958F80936B29FF91EF91E1
:104CA0009F918F912F910F900FBE0F901F9018958D
:104CB0008081F4CF1F920F920FB60F9211248F9321
:104CC0009F93AF93BF9380913D2890913E28A091F0
:104CD0003F28B09140280196A11DB11D80933D2829
:104CE00090933E28A0933F28B093402881E0809382
:104CF000A60ABF91AF919F918F910F900FBE0F9019
:104D00001F9018951F920F920FB60F9211242F9398
:104D10003F934F935F936F937F938F939F93AF9343
:104D2000BF93EF93FF9384EC9BE20E94AC0A8CEE5E
:104D30009AE20E94AC0A8DE39BE20E94AC0A82E2F6
:104D40009BE20E94AC0A89EA9BE20E94AC0A8EE8D0
:104D50009BE20E94AC0A83E79BE20E94AC0A88E5D2
:104D60009BE20E94AC0A8091BE289091BF280196D8
:104D70008093BE289093BF288091A528882381F135
:104D80008091182890911928019680931828909363
:104D90001928803B9E4021F58091492890914A280E
:104DA000A0914B28B0914C280196A11DB11D809374
:104DB000492890934A28A0934B28B0934C2880917F
:104DC000A6289091A72801978093A6289093A728BA
:104DD0001092182810921928892B11F41092A528E6
:104DE0008091C328882379F08091092890910A281E
:104DF000439749F48091AB289091AC280196809319
:104E0000AB289093AC2881E080930B0AFF91EF913F
:104E1000BF91AF919F918F917F916F915F914F91D2
:104E20003F912F910F900FBE0F901F9018954F92AA
:104E30005F926F927F928F929F92AF92BF92CF922A
:104E4000DF92EF92FF92109257291092582988EE24
:104E500093E0A0E0B0E08093592990935A29A09361
:104E60005B29B0935C298CEE99EB80935529909344
:104E7000562980E498E0809361299093622983E227
:104E80008093632982E2809364291092652987E2E6
:104E90008093662986E28093672980E18093682960
:104EA0001092692910926A2910926B2910926C292C
:104EB00010926D2910926E2980E280936F291092D2
:104EC00070291092712982E090E08093E82B9093F2
:104ED000E92B80E89CE0A0E0B0E08093E02B909389
:104EE000E12BA093E22BB093E32B1092E42B1092D2
:104EF000E52B1092E62B1092E72B85E393E280934B
:104F0000F02B9093F12B1092DF2B1092F22B10923A
:104F1000F32B1092F42B1092F52B1092EA2B109297
:104F2000EB2B1092EC2B1092ED2B1092CD2B1092BC
:104F3000CE2B80EA96E8A1E0B0E08093C52B909359
:104F4000C62BA093C72BB093C82B41E050E060E084
:104F500070E04093C92B5093CA2B6093CB2B709376
:104F6000CC2B88E19CE08093D52B9093D62B10928C
:104F7000C42B1092D72B1092D82B1092D92B1092B1
:104F8000DA2B1092CF2B1092D02B1092D12B1092A3
:104F9000D22B1092B22B1092B32B80E894E8AEE1A2
:104FA000B0E08093AA2B9093AB2BA093AC2BB09343
:104FB000AD2B1092AE2B1092AF2B1092B02B109203
:104FC000B12B24E23CE02093BA2B3093BB2B109200
:104FD000A92B1092BC2B1092BD2B1092BE2B1092BD
:104FE000BF2B1092B42B1092B52B1092B62B1092AF
:104FF000B72B1092972B1092982B20E4C22E22E40C
:10500000D22E2FE0E22EF12CC0928F2BD092902B3B
:10501000E092912BF092922B4093932B5093942BF0
:105020006093952B7093962B2AE23CE020939F2B64
:105030003093A02B10928E2B1092A12B1092A22BAA
:105040001092A32B1092A42B1092992B10929A2BB2
:1050500010929B2B10929C2B10927C2B10927D2BEC
:1050600040EE53E964E070E04093742B5093752B4D
:105070006093762B7093772B1092782B1092792B6C
:1050800010927A2B10927B2B2AE43CE02093842B05
:105090003093852B1092732B1092862B1092872BB6
:1050A0001092882B1092892B10927E2B10927F2BBE
:1050B0001092802B1092812B1092612B1092622BF8
:1050C00040EC57E269E070E04093592B50935A2B23
:1050D00060935B2B70935C2B10925D2B10925E2B78
:1050E00010925F2B1092602B24E43CE02093692BFC
:1050F00030936A2B1092582B10926B2B10926C2BC2
:1051000010926D2B10926E2B1092632B1092642BC9
:105110001092652B1092662B1092462B1092472B03
:1051200048E458EE61E070E040933E2B50933F2BF3
:105130006093402B7093412B1092422B1092432B83
:105140001092442B1092452B23E235E220934E2BF4
:1051500030934F2B10923D2B1092502B1092512BCD
:105160001092522B1092532B1092482B1092492BD5
:1051700010924A2B10924B2B10922B2B10922C2B0F
:1051800048EB5FEF61E070E04093232B5093242BBA
:105190006093252B7093262B1092272B1092282B8F
:1051A0001092292B10922A2B23E53CE02093332BDD
:1051B0003093342B1092222B1092352B1092362BD9
:1051C0001092372B1092382B10922D2B10922E2BE1
:1051D00010922F2B1092302B1092102B1092112B1B
:1051E0008093082B9093092BA0930A2BB0930B2B41
:1051F00010920C2B10920D2B10920E2B10920F2B45
:1052000088E891E08093182B9093192B1092072B2C
:1052100010921A2B10921B2B10921C2B10921D2BEC
:105220001092122B1092132B1092142B1092152BFC
:105230001092F52A1092F62A80E89AE1A6E0B0E0F2
:105240008093ED2A9093EE2AA093EF2AB093F02A50
:105250001092F12A1092F22A1092F32A1092F42A54
:1052600085EF9CE08093FD2A9093FE2A1092EC2A11
:105270001092FF2A1092002B1092012B1092022BF9
:105280001092F72A1092F82A1092F92A1092FA2A0C
:10529000C0901328D0901428E0901528F09016287C
:1052A00080900F2890901028A0901128B09012287C
:1052B00040900B2850900C2860900D2870900E287C
:1052C00086EF99E280931C2A90931D2A8AEF99E237
:1052D00080931A2A90931B2A82EF99E280931E2AC8
:1052E00090931F2A1092382A1092302A1092312A55
:1052F0001092322A1092332A80E090E0AFE7B3E4B4
:105300008093342A9093352AA093362AB093372A73
:1053100084E690E0A0E0B0E080932C2A90932D2AC0
:10532000A0932E2AB0932F2A1092162A1092172A91
:1053300020E030E0A901C301B2010E94FB3987FDE2
:105340005AC020E030E0A901C501B4010E94FB3938
:1053500087FD51C020E030E0A901C701B6010E94DD
:10536000FB3987FD48C081E090E08093182A909334
:10537000192A8093392A4092FE295092FF2960927F
:10538000002A7092012A8092022A9092032AA09207
:10539000042AB092052AC092062AD092072AE092E7
:1053A000082AF092092A40920A2A50920B2A609207
:1053B0000C2A70920D2A2DEC3CEC4CEC5DE3C501FF
:1053C000B4010E944E3B60930E2A70930F2A809383
:1053D000102A9093112A2DEC3CEC4CEC5DE3C701B4
:1053E000B6010E94FF396093122A7093132A8093AA
:1053F000142A9093152A0E947A09C0902C2AD090E2
:105400002D2AE0902E2AF0902F2A6C197D098E0902
:105410009F096093202A7093212A8093222A9093D7
:10542000232A1092DA2A1092DB2A80E492E4AFE079
:10543000B0E08093D22A9093D32AA093D42AB09339
:10544000D52A81E090E0A0E0B0E08093D62A909346
:10545000D72AA093D82AB093D92A8AE791E08093DB
:10546000E22A9093E32A1092D12A1092E42A109211
:10547000E52A1092E62A1092E72A1092DC2A10926E
:10548000DD2A1092DE2A1092DF2A63E270E082EBBE
:105490009AE20E94580865E270E083E99AE20E946D
:1054A000580864E270E084E79AE20E94580862E2D9
:1054B00070E085E59AE20E94580881E090E08093D0
:1054C000432A9093442A88EE93E0A0E0B0E08093D2
:1054D0003B2A90933C2AA0933D2AB0933E2A1092F7
:1054E0003F2A1092402A1092412A1092422A8DE7B8
:1054F00091E080934B2A90934C2A10923A2A109272
:105500004D2A10924E2A10924F2A1092502A109231
:10551000452A1092462A1092472A1092482AFF9054
:10552000EF90DF90CF90BF90AF909F908F907F9043
:105530006F905F904F900895CF93DF9300D0CDB7D9
:10554000DEB788ED90E084BF909361008091020601
:105550008660809302068091000681608093000639
:10556000809102068F7C8065809302061092E2058E
:1055700082E08093E40581E08093030A8EEF8093BC
:10558000270A8093260A80E880932D0A80932B0AAD
:105590008093290A80932C0A80932A0A8093280AF0
:1055A0008BE08093000A87E08093E505E0E8FAE06D
:1055B00037E02EEF90E885E031832487958780835C
:1055C0007096E03C4AE0F407B9F71092A10A8FE721
:1055D0009EE38093AC0A9093AD0A8091A50A816006
:1055E0008093A50A1092A00A8091A00A81608093FE
:1055F000A00A789447E266E285E599E20E94A9064E
:1056000040E855E260E070E085E599E20E94FC0F19
:10561000F89481E080930A0A1092010A8091090AA5
:105620008E7F8093090A8AEF90E08093260A9093F8
:10563000270A8FE08093000A789461E08BE00E9453
:10564000E70761E08AE00E94E70761E089E00E94E5
:10565000E70761E088E00E94E70761E084E00E94DC
:10566000E70761E085E00E94E70761E086E00E94CD
:10567000E70761E087E00E94E70761E084E10E94BC
:10568000E70761E083E10E94E70761E082E10E94B1
:10569000E70761E08EE10E94E70761E080E20E9497
:1056A000E70761E08FE10E94E70761E088E00E9480
:1056B000540861E089E00E94540861E08AE00E9499
:1056C000540861E08BE00E94540861E087E00E948A
:1056D000540861E086E00E94540861E085E00E9481
:1056E000540861E084E00E94540861E08CE00E946C
:1056F000B30761E08DE00E94B30760E08CE00E9498
:10570000160860E08DE00E9416088FED9BE20E9473
:105710000A0B1092302A1092312A1092322A1092DB
:10572000332A812C60E8962E69E8A62E64E4B62E12
:105730008092342A9092352AA092362AB092372A43
:105740008091382A882309F457C000911C2A1091AF
:105750001D2AD801CD90DD90ED90FC90A50194011B
:10576000C701B6010E944A3B181634F5F801808241
:105770009182A282B3828090242A9090252AA090C0
:10578000262AB090272AC090342AD090352AE0905B
:10579000362AF090372AA7019601C501B4010E946C
:1057A0004A3B1816CCF4C092242AD092252AE092C3
:1057B000262AF092272A20C020E030E0A901C70164
:1057C000B6010E94FB3987FFD6CFD8011D921D92EA
:1057D0001D921C921397CFCFC090302AD090312ABF
:1057E000E090322AF090332AA7019601C501B40156
:1057F0000E94FB3987FDD7CF0E947A096093ED287C
:105800007093EE288093EF289093F0288091382AA7
:10581000811149C0E0911C2AF0911D2AC080D180DD
:10582000E280F380C092242AD092252AE092262A90
:10583000F092272AE0911A2AF0911B2A8081918107
:10584000A281B3818093282A9093292AA0932A2A9F
:10585000B0932B2A8090342A9090352AA090362A33
:10586000B090372AA5019401C701B6010E944A3BB6
:1058700018164CF48092242A9092252AA092262A67
:10588000B092272A10C08090302A9090312AA090A0
:10589000322AB090332AA5019401C701B6010E94B3
:1058A000FB3987FDE7CF81E08093382A61E085E10D
:1058B0000E94B30761E088E10E94B30761E089E1DB
:1058C0000E94B30761E081E20E94B30760E089E1D2
:1058D0000E94160860E085E10E94160860E088E1F9
:1058E0000E94160860E081E20E94160861E08BE1E8
:1058F0000E94B30761E08CE10E94B30761E08DE193
:105900000E94B30761E08AE10E94B3070E94250963
:105910008DE39BE20E940A0B82E29BE20E940A0B4B
:1059200090E080E00E946C10AA24A394811101C031
:10593000A12CA092AA2881E090E00E946C10BB24C8
:10594000B394811101C0B12CB092532982E090E050
:105950000E946C10C82ED12CC0921229D09213290B
:1059600060E179E283E090E00E94151085E090E02C
:105970000E946C10E82EF12CE092D828F092D928E1
:105980005AE0852E59E2952E06E410E009831A8329
:10599000CE0101960E940510F40181934F010F5F23
:1059A0001F4F0A34110591F787E090E00E946C10B8
:1059B00091E0811101C090E09093EC2888E090E0A4
:1059C0000E946C1091E0811101C090E09093E72853
:1059D00089E090E00E946C1091E0811101C090E09C
:1059E0009093E22860ED78E280E590E00E943A1022
:1059F0006CEC78E28AE590E00E943A1068EC78E27C
:105A000084E690E00E943A1064EC78E28EE690E042
:105A10000E943A1081E490E089839A83CE01019636
:105A20000E9405108093A9286FEA78E288E990E047
:105A30000E9415106DEA78E28AE990E00E94151044
:105A40008FE090E00E946C1001E0811101C000E045
:105A50000093A42886E990E00E946C1011E0811167
:105A600001C010E010930E2984E890E00E946C10B1
:105A700091E0811101C090E09093F1282A2D30E04F
:105A800020932129309322292B2D30E020932329A4
:105A900030932429C0922529D092262920911029BB
:105AA000309111292093492930934A29E0922D29D8
:105AB000F0922E292091A92830E0209327293093B5
:105AC0002829202F30E02093292930932A29892F53
:105AD00090E08093412990934229812F90E0809318
:105AE0002B2990932C2960E479E288E790E00E94CA
:105AF000151083E790E00E946C1090E080931629C7
:105B00009093172985E790E00E946C1090E08093B5
:105B10001829909319298DE790E00E946C1090E06D
:105B200080931A2990931B2982E890E00E946C10C0
:105B300090E080931C2990931D2987E890E00E94B3
:105B40006C1091E0811101C090E090939F288AE34E
:105B50009AE20E940A0B62E083E20E94B30762E0CD
:105B600085E20E94B30762E084E20E94B30762E02C
:105B700082E20E94B30784E291E18093BF2A90936E
:105B8000C02A82ED9FE08093C52A9093C62A82E8BE
:105B90009FE08093A02A9093A12A8BE69FE08093B8
:105BA000AA2A9093AB2A81E196E08093A82A909349
:105BB000A92A8CE09FE08093812A9093822A85EF26
:105BC0009EE080938B2A90938C2A86E096E08093C7
:105BD000892A90938A2A82E99EE08093622A909390
:105BE000632A8BE69EE08093682A9093692A81ED70
:105BF0009AE20E940A0B8AE39AE20E94AC0A8FEDB5
:105C00009BE20E94AC0A0E949B0480910628882394
:105C1000B1F181ED9AE20E94AC0A89E190E00E9424
:105C20002A0B82E290E0809302299093032988E175
:105C300090E08093042990930529809306299093FE
:105C4000072980930829909309298093FA28909333
:105C5000FB2884E090E08093FC289093FD2810922C
:105C6000FE281092FF2883E090E080930029909313
:105C7000012981E08093C2280E948107BCCF109245
:105C8000D12A1092DC2A1092DD2A1092DE2A10927C
:105C9000DF2A1092E02A1092E12A20E030E040EF63
:105CA00052E46091F2287091F3288091F428909149
:105CB000F5280E944A3B87FD5AC060E088E10E94B7
:105CC000160810929E2810929D281092C1281092BA
:105CD0009C281092C0281092C2281092C3281092BB
