:1002000050C0000076C0000074C0000072C0000042
:1002100070C000006EC000006CC000000C94ED24A3
:1002200068C0000066C0000064C0000062C000003A
:1002300060C000005EC000005CC000005AC000004A
:1002400058C0000056C0000054C0000052C000005A
:1002500050C000004EC000004CC000004AC000006A
:1002600048C000000C94C52444C0000042C00000F7
:1002700040C000003EC000003CC000000C94972429
:100280000C94712436C0000034C0000032C000005D
:1002900030C000002EC000002CC000002AC00000AA
:1002A000822511241FBECFEFCDBFDFE3DEBF18E2F2
:1002B000A0E0B8E2E4EDF6E702C005900D92A831A7
:1002C000B107D9F72BE2A8E1B8E201C01D92A63F21
:1002D000B207E1F711E0C1E5D1E004C02197FE01CA
:1002E0000E946D3AC035D107C9F70E9407290C94C6
:1002F000AC3A86CF10920628089580913D2881114E
:1003000004C081E080933D28089510923D2808950F
:1003100080916F28882319F010926F28089581E04A
:1003200080936F28089580915029882309F45EC036
:100330008091092890910A288230910571F42091CA
:100340004F29222351F020914529309146292F5FD2
:100350003F4F2093452930934629209145293091DC
:100360004629253D3105A4F024ED30E020934529B0
:10037000309346292091472930914829253D310560
:10038000CCF084ED90E0809347299093482908951C
:100390008830910579F720914F29222359F3209134
:1003A0004729309148292F5F3F4F209347293093A9
:1003B0004829E0CF880F991FFC01E35EF64D2081AC
:1003C00031812F5F3F4F20833183DC01A457B94433
:1003D0004D915C91421753070CF08EC08A59994495
:1003E000DC018D919C9180839183089580911C29DB
:1003F0008130B1F480911229909113290196809354
:1004000012299093132920910E2930910F29281732
:1004100039070CF071C01092122910921329089517
:10042000823039F5809114299091152901968A30EE
:100430009105E4F4809314299093152980913C2927
:1004400090913D29019680933C2990933D292091DC
:100450000C2930910D29281739070CF04DC080E286
:1004600090E080933C2990933D29089589E090E0A5
:10047000E1CF833091F4809116299091172901964C
:10048000843691052CF480931629909317290895AA
:1004900010921629109217290895843091F48091B2
:1004A00018299091192901968C3391052CF4809389
:1004B0001829909319290895109218291092192932
:1004C00008958530C9F480910B298823A9F0809183
:1004D0000A29882389F080911A2990911B29019675
:1004E000823091052CF480931A2990931B2908954A
:1004F00010921A2910921B2908958091502988235F
:1005000009F457C08091092890910A2882309105FA
:1005100071F420914F29222351F0209145293091E7
:1005200046292150310920934529309346292091AD
:1005300045293091462920323105A4F420E230E0EB
:100540002093452930934629209147293091482905
:1005500020323105CCF480E290E0809347299093DB
:10056000482908958830910579F720914F29222351
:1005700059F320914729309148292150310920937E
:10058000472930934829E0CF880F991FFC01E35E8B
:10059000F64D20813181215031092083318337FF8D
:1005A0008CC0845C9944DC018D919C918083918303
:1005B000089580911C298130A1F480911229909195
:1005C00013290197809312299093132997FF75C0DF
:1005D00080910E2990910F298093122990931329CD
:1005E0000895823099F580914F29811109C0809139
:1005F0001429909115290197809314299093152916
:10060000809114299091152997FF16C089E090E0F8
:10061000809314299093152980913C2990913D292C
:1006200080970CF04AC080910C2990910D298093FD
:100630003C2990933D29089580913C2990913D2932
:10064000019780933C2990933D29E6CF833079F43C
:100650008091162990911729019797FD05C08093E5
:10066000162990931729089583E690E0F8CF8430F7
:1006700079F48091182990911929019797FD05C067
:10068000809318299093192908958BE390E0F8CF6F
:10069000853099F480910B29882379F080910A297B
:1006A000882359F080911A2990911B29019797FD71
:1006B00005C080931A2990931B29089581E090E04A
:1006C000F8CFCF92DF92EF92FF926B0128EE33E0EA
:1006D00040E050E00E94513AEEEFF8E2208331838F
:1006E00068EE73E0629FC001639F900D729F900D52
:1006F0001124C81AD90AC60164E670E00E941C3AA7
:10070000628373832CE92603C001279F900D112477
:10071000C80ED91EC6016AE070E00E941C3A6483CC
:10072000758326EF2603C001279F900D1124C80E64
:10073000D91EC682D782FF90EF90DF90CF900895A8
:10074000CF92DF92EF92FF926B0128EE33E040E010
:1007500050E00E94513AE6EFF8E22083318368EEE0
:1007600073E0629FC001639F900D729F900D1124F2
:10077000C81AD90AC60164E670E00E941C3A628376
:1007800073832CE92603C001279F900D1124C80E06
:10079000D91EC6016AE070E00E941C3A648375832A
:1007A00026EF2603C001279F900D1124C80ED91EE5
:1007B000C682D782FF90EF90DF90CF9008954F923E
:1007C0005F926F927F928F929F92AF92BF92CF92E1
:1007D000DF92EF92FF926B017C0120E030E0A901F3
:1007E0000E94663887FD9AC081E02091142A3091DA
:1007F000152A2130310509F080E08093352AC09216
:10080000FA29D092FB29E092FC29F092FD298AE096
:1008100097EDA3E2BCE38093FE299093FF29A09378
:10082000002AB093012A80E090E8A4E5B4E4809324
:10083000022A9093032AA093042AB093052A609178
:10084000282A7091292A80912A2A90912B2A0E9485
:10085000033920E030E04AE754E40E946A384B0153
:100860005C01C092062AD092072AE092082AF092F0
:10087000092A2AE037ED43E25CE30E94B9392B01F3
:100880003C0140920A2A50920B2A60920C2A7092E4
:100890000D2AA501940160E070E884E594E40E94CB
:1008A0006A384B015C0180920E2A90920F2AA09226
:1008B000102AB092112A8091122A9091132A01973E
:1008C00069F5A701960160E070E0CB010E94013854
:1008D0006093062A7093072A8093082A9093092A26
:1008E000A301920160E070E0CB010E9401386093A7
:1008F0000A2A70930B2A80930C2A90930D2AA50143
:10090000940160E070E0CB010E94013860930E2AF0
:1009100070930F2A8093102A9093112AFF90EF90E2
:10092000DF90CF90BF90AF909F908F907F906F900F
:100930005F904F9008954F925F926F927F928F9247
:100940009F92AF92BF92CF92DF92EF92FF9220E000
:1009500030E040E251E460910629709107298091CE
:100960000829909109290E946A382091E8282111CC
:1009700090586093E4287093E5288093E62890933C
:10098000E728F090E328FF2009F455C02091E428DF
:100990003091E5284091E6285091E7286091EE28B3
:1009A0007091EF288091F0289091F1280E940238F0
:1009B0006093DF287093E0288093E1289093E228E9
:1009C0008091D4289091D528892B09F07EC0FF20F2
:1009D00009F450C06091DF287091E0288091E128EF
:1009E0009091E2286093F2287093F3288093F42882
:1009F0009093F52826E636E646EE5FE30E94B93985
:100A000020E030E040E052E40E9402386093D028B9
:100A10007093D1288093D2289093D328FF90EF90A1
:100A2000DF90CF90BF90AF909F908F907F906F900E
:100A30005F904F9008958091DE28882309F22091DD
:100A4000E4283091E5284091E6285091E72860910C
:100A5000DA287091DB288091DC289091DD280E94B3
:100A600002386093D6287093D7288093D828909323
:100A7000D928A6CF8091DE28882381F2C090D6287D
:100A8000D090D728E090D828F090D92820E030E006
:100A900040E052E4C701B6010E94013826E636E67E
:100AA00046EE5FE30E946A386093F2287093F32861
:100AB0008093F4289093F528C092D028D092D12822
:100AC000E092D228F092D328A9CF6091CC287091DF
:100AD000CD288091CE289091CF280E94053920E022
:100AE00030E040E251E40E946A384B015C016091C1
:100AF000C4287091C5288091C6289091C7280E946B
:100B0000053920E030E040E251E40E946A386B0190
:100B10007C016091C0287091C1288091C228909179
:100B2000C3280E94053920E030E040E251E40E94F1
:100B30006A38A70196010E9401382B013C01A501EA
:100B400094016091EE287091EF288091F0289091A7
:100B5000F1280E9401389B01AC01C301B2010E943F
:100B6000B9392B013C016091C8287091C928809146
:100B7000CA289091CB280E94053920E030E040E25D
:100B800051E40E946A38A50194010E9401389B013A
:100B9000AC01C301B2010E946A38A70196010E940C
:100BA00002386B017C01C092F228D092F328E092C7
:100BB000F428F092F52826E636E646EE5FE30E943A
:100BC000B93920E030E040E052E40E9402386093FE
:100BD000D0287093D1288093D2289093D32820E0F6
:100BE00030E048EC52E4C701B6010E94B53987FDF8
:100BF00015CF8DEC9CECA7ECB2E48093F228909397
:100C0000F328A093F428B093F52808CF8091852885
:100C1000811106C01092BA281092BB281092B928F0
:100C20000895F4CFAF92BF92CF92DF92EF92FF92EE
:100C30000F931F93CF93DF936C017B018B01040F04
:100C4000151FEB015E01AE18BF08C017D10759F0A0
:100C50006991D601ED91FC910190F081E02DC601E2
:100C60000995892B79F7C501DF91CF911F910F91DC
:100C7000FF90EF90DF90CF90BF90AF900895FC0170
:100C8000508D418D252F30E0842F90E0821B930BF7
:100C9000541710F0CF96089501970895FC01968996
:100CA0008789981761F0A789AE0FBF2FB11D5D9698
:100CB0008C9197899F5F9F73978B90E008958FEF3A
:100CC0009FEF0895FC0196898789981731F08789ED
:100CD000E80FF11D858D90E008958FEF9FEF089547
:100CE000FC0196892789892F90E0805C9F4F821BA9
:100CF00091098F739927089581E599E2F1DF21E049
:100D0000892B09F420E0822F0895CF93DF93EC0123
:100D1000E881F9810680F781E02D0995EC85FD8554
:100D200086818F738683EC85FD8585818F758583AC
:100D30008F898E8B1D8ADF91CF910895FC016130E0
:100D400019F4648B81E00895148A6623D9F380E056
:100D50000895DC0154961C92549754968C915497A4
:100D60008230A0F4282F30E0F901EE0FFF1FE20FD0
:100D7000F31FEA0FFB1F9785961303C09685941700
:100D800049F08F5F54968C935497E7CF54961C92FA
:100D900080E0089581E00895CF93DF93FC01908D6A
:100DA000818DC485D585981306C08D818F7D8D83F7
:100DB000DF91CF910895A18DAE0FBF2FB11DA35A22
:100DC000BF4F2C91818D90E001968F739927818F71
:100DD00080E48C83A485B58512962C93908D818DAB
:100DE0009813E6CFA485B58515968C9115978F7DC0
:100DF00015968C93838D8823D9F2848D809313016B
:100E0000138ED6CFDC011C96ED91FC910FB607FE38
:100E100003C0258125FD03C0248125FDBDCF089594
:100E2000EF92FF920F931F93CF93DF93EC0181E03A
:100E30008D8B988D898D98131CC0AC85BD851496BB
:100E40008C91149785FF15C012966C93AC85BD8567
:100E500080E414968C93EC85FD8585818F7D858358
:100E600081E090E0DF91CF911F910F91FF90EF9083
:100E700008958091110180FF08C0809113018C8F2B
:100E80008A8D8093130181E08B8FF62E088D10E000
:100E90000F5F1F4F0F731127E02E898D8E1103C036
:100EA000CE01B0DFFACFE88DEC0FFD2FF11DE35A34
:100EB000FF4FF082088FEC85FD8585818062CFCF62
:100EC000CF93DF93FC0125892223C1F0EC018091AF
:100ED000110180FF08C080911301848F828D80935F
:100EE000130181E0838FEC85FD85858185FD03C03D
:100EF000848186FD03C0CE0185DFF5CFDF91CF91E0
:100F0000089580E090E0892B49F080E090E0892B03
:100F100029F00E94000081110E94000080E090E012
:100F2000892B49F080E090E0892B29F00E94000095
:100F300081110E94000080E090E0892B21F0DCDE2E
:100F400081110E94000080E090E0892B49F080E050
:100F500090E0892B29F00E94000081110C94000080
:100F6000089581E00895CF93DF9390E0FC01ED5E5A
:100F7000F94420812F3F69F0FC01E651FA44A08139
:100F800030E2A39FD0011124BC5F613029F4119697
:100F90002C93DF91CF9108958F539A44EC01E8810F
:100FA000EF3F81F0CD014096E80FF92FF11D9FB77B
:100FB000F89412962C938081623039F48860808393
:100FC0009FBFE7CFF0E0E0E0F2CF877FF8CF893234
:100FD00008F4C9CF089590E0FC01E856FA44E08196
:100FE000EE2319F1E13021F000F1E630A8F0089588
:100FF0008F539A44FC012081233008F02F5F3091F9
:10100000010A81E090E001C0880F2A95EAF78095F7
:1010100083238093010A089580E1E89FF001112461
:10102000E05AF54F81818F7E818308950F931F933E
:10103000CF93DF93C82FD0E0FE01ED5EF94400812D
:101040000F3F99F0162F893208F4C5DFFE01E651F3
:10105000FA44E08180E2E89FF0011124FC5F808186
:10106000802351F0111106C00683DF91CF911F91AB
:101070000F9108950583F9CFCF53DA4488813097D3
:1010800071F08F3F61F07096E80FF11D9FB7F894F3
:101090008081111107C0877F80839FBFE6CFF0E07A
:1010A000E0E0F4CF8860F8CF893208F4BFCF08952C
:1010B0000F931F93CF93DF93EC01162F072F82E33B
:1010C00090E08E839F8360E0812F81DF1883098306
:1010D00088E592E08A839B8388EE93E08C839D83EE
:1010E000198E1A8E1C8681E090E0888799871A866F
:1010F0001B8661E0812FD8DF1F86188A198A1A8A19
:101100001B8A1C8A1D8A1E8A1F8A188EDF91CF9126
:101110001F910F91089561E08BE0C6DF61E08AE0E6
:10112000C3DF61E089E0C0DF61E088E0BDCF61E05E
:1011300087E0BADF61E086E0B7DF61E085E0B4DF39
:1011400061E084E0B1CFAF92BF92CF92DF92EF9295
:10115000FF920F931F93CF93DF93EC016A017B0102
:10116000A22E8D89882339F0E881F9810688F789D4
:10117000E02DCE0109950C8910E0BFB6F89460E02F
:1011800070E281EA97E0A70196010E942F3A690177
:101190007A018FEFC81AD80AE80AF80AF694E79499
:1011A000D794C794EC85FD8586818D7F8683EC85F9
:1011B000FD85868186831D8AA09123110A2E000C4D
:1011C000BB0BA70196010E94833A20E034E040E087
:1011D00050E00E94513AEC85FD85C20ED31EE41EFC
:1011E000F51EC086D186EC85FD85A782EC85FD8540
:1011F0008681806C8683EC85FD858581806885830A
:101200009091E2058B89809589239801220F331FE5
:10121000020F131FC00FD11F9889892B8093E205FD
:1012200062E08E85D4DE61E08F853EDF61E08F85F0
:10123000CEDEBFBEDF91CF911F910F91FF90EF9057
:10124000DF90CF90BF90AF90089561E08AE1EEDE2D
:1012500061E08DE1EBDE61E08CE1E8DE61E08BE1F5
:10126000E5CE0F931F93CF93082F10E0F801ED5EAA
:10127000F944C081CF3F81F0893208F4ACDEF80137
:10128000E651FA44E08180E2E89FF0011124FC5F1E
:101290008085C82381E009F480E0CF911F910F91F0
:1012A00008958FB7F8942091392830913A284091C9
:1012B0003B2850913C28E091AA0AF091AB0A90910A
:1012C000A60A90FF08C02F5F3F4F4F4F5F4FE0913E
:1012D000AA0AF091AB0A8FBFA8EEB3E00E94793A58
:1012E00024E0F695E7952A95E1F76E0F7F1F811DA3
:1012F000911D08952FB7F8946091392870913A287C
:1013000080913B2890913C282FBF08950F931F9305
:1013100080915029811180C08091F2289091F3280A
:10132000A091F428B091F5288093F6299093F7299D
:10133000A093F829B093F9298091ED2881118BC0F1
:1013400080E090E0A8ECB1E480930B2890930C2807
:10135000A0930D28B0930E288AE097EDA3E2BCE39A
:1013600080930F2890931028A0931128B0931228EF
:1013700080E090E8A4E5B4E48093132890931428C7
:10138000A0931528B093162860E070E088EC91E4F3
:1013900016DAB0DF0091E9281091EA282091EB28B5
:1013A0003091EC28AB01BC01401B510B620B730B5D
:1013B0004D3454406105710570F0D901C801845B5A
:1013C0009B4FAF4FBF4F8093E9289093EA28A0939B
:1013D000EB28B093EC288EDF0091E9281091EA28E1
:1013E0002091EB283091EC28601B710B820B930B42
:1013F0000E9403392091F2293091F3294091F42978
:101400005091F5290E94B53918167CF460E088E106
:101410000DDE1F910F9108958091EE289091EF2895
:10142000A091F028B091F1287FCF2091EE29309142
:10143000EF294091F0295091F1296091F62970919E
:10144000F7298091F8299091F9290E94B53987FFF1
:10145000DDCF61E0DCCF80E090E0A0E2B2E48093F9
:101460000B2890930C28A0930D28B0930E288AE0A7
:1014700097EDA3E2BCE380930F2890931028A093EC
:101480001128B093122880E090E8A4E5B4E480939A
:10149000132890931428A0931528B093162860E081
:1014A00070E080E292E48BD925DF0091E928109169
:1014B000EA282091EB283091EC28AB01BC01401BBD
:1014C000510B620B730B4D3454406105710570F084
:1014D000D901C801845B9B4FAF4FBF4F8093E92870
:1014E0009093EA28A093EB28B093EC2803DF0091B7
:1014F000E9281091EA282091EB283091EC28601B14
:10150000710B820B930B0E9403392091F2293091C9
:10151000F3294091F4295091F5290E94B539181604
:101520002CF460E088E11F910F9180CD2091EE298D
:101530003091EF294091F0295091F1296091F629DD
:101540007091F7298091F8299091F9290E94B53975
:1015500087FFE7CF61E0E6CF0F931F93CF93DF9331
:10156000FC012081222309F450C0EC018185928581
:101570000197B9F5BFDE0B891C892D893E89601B57
:10158000710B820B930B09811A812B813C816017AF
:10159000710782079307C8F1ADDE6B8B7C8B8D8B57
:1015A0009E8B8B859C85AD85BE854D815E816F81CF
:1015B0007885481B590B6A0B7B0B4130510561053F
:1015C000710509F418820196A11DB11D8B879C87B6
:1015D000AD87BE87E989FA89DF91CF911F910F917D
:1015E00009945FDE0B891C892D893E89601B710B74
:1015F000820B930B09811A812B813C816017710743
:101600008207930710F04DDEC8CFDF91CF911F9175
:101610000F910895CF93DF93FC0121893289232B09
:10162000A1F0EC0181859285019791F463DE6B8BCB
:101630007C8B8D8B9E8B81E088831B861C861D8610
:101640001E8681E090E08F87988BDF91CF9108957F
:1016500028DEEDCFDC01BC01990F880B990B20919E
:10166000C92B3091CA2B232B21F428EE33E00E94A2
:10167000733A6093C12B7093C22B8093C32B9093CA
:10168000C42B61E085E1D2DC80EC9BE2C3CFCF923A
:10169000DF92EF92FF920F931F93CF93DF93EC01B2
:1016A00088818932F8F4DDDD082F10E023DE298DF2
:1016B0003A8D21153105C1F42A853B852017310764
:1016C00041F421E030E0298F3A8F6B8F7C8F8D8F32
:1016D0009E8FDF91CF911F910F91FF90EF90DF9040
:1016E000CF90089580E0E0CF2130310509F051C05E
:1016F0002885398520173107E9F40B8D1C8D2D8D38
:101700003E8DAB01BC01401B510B620B730B8E81F4
:101710009F81092E000CAA0BBB0B481759076A07BB
:101720007B0718F4198E1A8ED4CF82E090E0898F4F
:101730009A8FCFCF2A853B852017310751F60B8D25
:101740001C8D2D8D3E8DAB01BC01401B510B620BDE
:10175000730B8C819D81092E000CAA0BBB0B841787
:101760009507A607B70708F0B4CF81E08C87E98911
:10177000FA89309709F00995EB89FC89309709F0CF
:101780000995EF89F88D309709F0099586E090E08A
:10179000CECF2230310519F5CB8CDC8CED8CFE8C54
:1017A0006C197D098E099F09CA80DB800D2C000C05
:1017B000EE08FF08C616D706E806F90638F4ED85E8
:1017C000FE85309709F4AECF0995ACCF8A859B850D
:1017D0008017910709F07DCF83E090E0A8CF2330F8
:1017E000310549F4888599858017910709F071CFF3
:1017F000EF85F889E6CF2630310509F06ACF888574
:1018000099858017910721F41C86ED89FE89D9CF2F
:1018100081E08C87EF89F88D309709F45ACFDF91FA
:10182000CF911F910F91FF90EF90DF90CF9009948F
:10183000E0ECFBE210821386148615861686178666
:10184000108A60E085E1F2CB8AE89BE2E3DE61E0AA
:1018500085E1ECCB60E085E1E9DB80918828882395
:1018600049F080919428909195280196809394282E
:10187000909395288091962890919728019680932F
:10188000962890939728089560E08AE1CFDB8FE651
:101890009BE2C0CE61E08AE1C9DB80918E288F5F38
:1018A00080938E2808958F929F92AF92BF92CF928D
:1018B000DF92EF92FF92CF93DF93C0913328D091C4
:1018C00034282196C0933328D093342881E0809324
:1018D00006068093080680910B0680FFFCCF60917E
:1018E000100670911106072E000C880B990B0E94B0
:1018F000053920912F28309130284091312850917E
:1019000032280E9402386B017C01C0922F28D092AD
:101910003028E0923128F0923228609100287091AE
:101920000128C617D7070CF476C0072E000C880BC9
:10193000990B0E9405399B01AC01C701B6010E94B9
:101940006A3860932F2870933028809331289093C1
:10195000322820E030E040EA50E40E94B93920E02B
:1019600030EC4FE754E40E946A3820E030E040E277
:1019700051E40E946A3828EB3FE840E65FE30E94AA
:1019800002386B017C0120E030E04BEE53E40E9412
:10199000B9394B015C01A701960160E070E080EA73
:1019A00090E40E9401389B01AC01C501B4010E9482
:1019B0006A3820E030E048EC52E40E946A3820E0C7
:1019C00030E040E85FE30E94013828E430E54CE76E
:1019D0005BE30E946A386093EE287093EF2880934F
:1019E000F0289093F12826E636E646EE5FE30E9463
:1019F000B93920E030E040E052E40E9402386093C0
:101A0000DA287093DB288093DC289093DD281092ED
:101A100033281092342882E390E08093002890933A
:101A20000128DF91CF91FF90EF90DF90CF90BF9092
:101A3000AF909F908F900895CF93DF93C0912D2802
:101A4000D0912E282196C0932D28D0932E28109225
:101A5000060681E08093080680910B0680FFFCCF8C
:101A60006091100670911106072E000C880B990BDF
:101A70000E9405392091292830912A2840912B284D
:101A800050912C280E94023869975CF460932928B1
:101A900070932A2880932B2890932C28DF91CF9144
:101AA000089520E030E048EC51E40E946A386093E9
:101AB000292870932A2880932B2890932C28109201
:101AC0002D2810922E28EACF3F924F925F926F926C
:101AD0007F928F929F92AF92BF92CF92DF92EF92BE
:101AE000FF920F931F93CF93DF93CDB7DEB72E975F
:101AF000CDBFDEBF8091342A882309F429C1FADBE7
:101B00006D837E838F83988780911C2A90911D2AF4
:101B1000A0911E2AB0911F2A4D815E816F81788528
:101B2000481B590B6A0B7B0B8091282A9091292A1C
:101B3000A0912A2AB0912B2A481759076A077B07D8
:101B400008F406C1E091162AF091172A808191814C
:101B5000A281B38189839A83AB83BC83E0911A2AE3
:101B6000F0911B2A9C01AD0160817181828193817A
:101B70000E9401384B015C012091242A3091252AD2
:101B80004091262A5091272A69817A818B819C81F4
:101B90000E9401386B017C0120910A2A30910B2AA6
:101BA00040910C2A50910D2AC501B4010E94B93907
:101BB0002091202A3091212A4091222A5091232AD3
:101BC0000E9402382B013C014092202A5092212A87
:101BD0006092222A7092232A3090352A31101AC03E
:101BE0002091062A3091072A4091082A5091092A0B
:101BF000C701B6010E94B9399B01AC01C301B20112
:101C00000E9401386093202A7093212A8093222A0F
:101C10009093232A4090202A5090212A6090222AD3
:101C20007090232A1091302A9091312A9E87A0919A
:101C3000322AAD870091332A212F392F4A2F502F76
:101C4000C301B2010E94B53918160CF096C0812F5D
:101C50009E85AD85B02F8093202A9093212AA09352
:101C6000222AB093232A332009F4A0C02091062A07
:101C70003091072A4091082A5091092AC501B401E0
:101C80000E94B9394B015C0120910E2A30910F2A34
:101C90004091102A5091112AC701B6010E94B9390A
:101CA0009B01AC016091202A7091212A8091222A07
:101CB0009091232A0E940138A50194010E940238C4
:101CC0006B017C019B01AC01612F7E858D85902F7E
:101CD0000E94663887FD18C010912C2A90912D2AF9
:101CE0009E87A0912E2AAD8700912F2A212F392F70
:101CF0004A2F502FB601C7010E94663887FD04C0E5
:101D00001C2DDE86ED860F2DE091182AF091192A00
:101D1000812F9E85AD85B02F80839183A283B3836D
:101D200089819A81AB81BC818093242A9093252A52
:101D3000A093262AB093272A8D819E81AF81B885F2
:101D400080931C2A90931D2AA0931E2AB0931F2AC9
:101D50002E96CDBFDEBFDF91CF911F910F91FF90E7
:101D6000EF90DF90CF90BF90AF909F908F907F903B
:101D70006F905F904F903F90089580912C2A9091A2
:101D80002D2AA0912E2AB0912F2A89879A87AB8776
:101D9000BC879C01AD01C301B2010E94663887FF78
:101DA00062CF89859A85AB85BC8555CF812C912CD6
:101DB00054016ACF80918528811122C080915029D9
:101DC000811116C080911C2981110BC01092A4288A
:101DD00081E090E08093092890930A2888EC90E0B5
:101DE00039CC10921C291092A2281092A328F6CF69
:101DF0008091AD2881111092AD2810925029EECF1C
:101E000008958091852881115EC020914F2980918D
:101E1000092890910A28211103C08830910529F0E2
:101E2000AC014D7F4C305105B9F5019780930928DD
:101E300090930A288091502981112BC080911C29F0
:101E40002223D9F18230C9F510921C2980911C29D6
:101E50008530F9F420E030E040E85FE360918A28C3
:101E600070918B2880918C2890918D280E94B53993
:101E700087FD0FC080918728882359F010928A2807
:101E800010928B2810928C2810928D2881E08093DC
:101E9000872882E390E0DECB8B30910511F00D971F
:101EA00021F481E08093BF28C5CF8091BF2888238B
:101EB00009F4C0CF1092BF28BDCF8150843030F6D6
:101EC00080931C29C3CF089580918528811112C069
:101ED0008091422881110EC081E08093B9288091C1
:101EE00028288F5F80932828893124F00E947D0262
:101EF0001092282808958091852881115AC08091D8
:101F00005029882309F453C08091BF2881114FC004
:101F10008091092890910A282091AD28211119C09B
:101F200001968093092890930A2820910A29222358
:101F300039F00597F4F11092092810920A280895B3
:101F40000597BCF181E090E08093092890930A28DE
:101F500008958630910519F488E090E0F5CF20913E
:101F6000B8288930910539F48BE090E02111ECCF4D
:101F700080E190E0E9CF211106C0893091054CF055
:101F800080319105ACF38031910519F481E190E045
:101F9000DBCF8131910519F482E190E0D5CF823118
:101FA00091051CF085E090E0CFCF0196CDCF0C9449
:101FB0007D02089580918528811112C08091422868
:101FC00081110EC081E08093B928809128288F5F0D
:101FD00080932828893124F00E94930110922828A8
:101FE000089580918528811126C0809150298823E9
:101FF00009F445C08091BF28811141C08091092812
:1020000090910A282091AD28211116C00197809344
:10201000092890930A2820910A29222349F097FF42
:102020000AC084E090E08093092890930A280895DC
:1020300018161906B4F708958830910519F486E04A
:1020400090E0F1CF8B30910519F489E090E0EBCF6F
:102050008131910519F480E190E0E5CF823191055D
:1020600019F481E190E0DFCF8031910571F3863082
:1020700091051CF482E190E0D6CF0197D4CF0C9467
:10208000930180918528811125C080911C2981119F
:1020900017C080915029811113C08EE591E0809383
:1020A000BA289093BB2880910A29882361F0109266
:1020B000092810920A2881E0809350298093A4284F
:1020C00088EC90E0C7CA81E090E080930928909363
:1020D0000A28F1CF0895DC01ED91FC910488F5897F
:1020E000E02D23E030E00994FC0180819181FC0126
:1020F000FF2790FD06C080E094E1E82BF92B80815A
:10210000089580E093E1F9CFEF92FF920F931F9330
:10211000CF93DF9300D0CDB7DEB78C017B018983ED
:102120009A83CE010196E0DFF70180830F5F1F4F96
:1021300009831A83CE010196D7DFF7018183C70196
:102140000F900F90DF91CF911F910F91FF90EF9023
:102150000895AF92BF92CF92DF92EF92FF920F93CA
:102160001F93CF93DF9300D0CDB7DEB78B016B0108
:1021700024E0C20ED11C7B015C01A61AB70AC5017E
:102180008E0D9F1D89839A83CE010196ADDFF701E5
:1021900081937F01EC15FD0591F7C8010F900F9019
:1021A000DF91CF911F910F91FF90EF90DF90CF9033
:1021B000BF90AF900895CF93DF9300D0CDB7DEB737
:1021C00089839A83CE0101968FDF0F900F90DF9164
:1021D000CF910895FC01FF2790FD12C080E094E1AB
:1021E000E82BF92B60838FB7F8949DE923E094BF27
:1021F000209300108FBF8091021081FDFCCF0895C5
:1022000080E093E1EDCFE6CF1F93CF93DF93EC0116
:10221000162F6ADF811721F0612F88819981DADF1B
:10222000CE01DF91CF911F910895EF92FF920F930E
:102230001F93CF93DF9300D0CDB7DEB786E0E82EB3
:1022400089E2F82E06E410E009831A83F701619110
:102250007F01CE010196D8DF0F5F1F4F0A341105B1
:1022600099F786E099E20F900F90DF91CF911F913F
:102270000F91FF90EF900895EF92FF920F931F93AD
:10228000CF93DF9300D0CDB7DEB78C017B0189837C
:102290009A83FB016081CE010196B6DF0F5F1F4F6D
:1022A00009831A83F7016181CE010196ADDFC70171
:1022B0000F900F90DF91CF911F910F91FF90EF90B2
:1022C0000895AF92BF92CF92DF92EF92FF920F9359
:1022D0001F93CF93DF9300D0CDB7DEB78B016B0197
:1022E00024E0C20ED11C7B015C01A61AB70AC5010D
:1022F0008E0D9F1D89839A83F70161917F01CE0125
:10230000019682DFEC14FD0491F7C8010F900F9045
:10231000DF91CF911F910F91FF90EF90DF90CF90C1
:10232000BF90AF9008952F923F924F925F926F921D
:102330007F928F929F92AF92BF92CF92DF92EF9255
:10234000FF920F931F93CF93DF9300D01F92CDB7CF
:10235000DEB780918528811158C01092B9288091EC
:10236000502981116AC01092BA281092BB2880911E
:102370001C29843031F42091A2283091A328232BEA
:1023800051F090914F29992309F455C0811153C000
:1023900082E080931C2980911C2985300CF480C335
:1023A00080910A29882301F185E080931C2980917E
:1023B0000B29882309F470C310920B2980910B29F3
:1023C000811112C061E080911A2990911B29892BFB
:1023D00009F460E06093A62890E080E014DF80912B
:1023E0001C2985300CF45CC300919128109192282F
:1023F000101611060CF454C388EE93E02BD90F5F2E
:102400001F4F00939128109392282396CDBFDEBFD3
:10241000DF91CF911F910F91FF90EF90DF90CF90C0
:10242000BF90AF909F908F907F906F905F904F90F4
:102430003F902F9008958F5FACCF009109281091A5
:102440000A288091BF28811109C18091A62890E0B7
:1024500080931D2990931E2920914F292B83822F31
:1024600090E080931F29909320298091A02890E0EC
:1024700080932529909326298091ED2890E08093E0
:102480003D2990933E2980910A2990E08093272945
:1024900090932829211199C080910E2990910F299C
:1024A00080932129909322298091D4289091D52836
:1024B0008093292990932A29C090EE28D090EF2864
:1024C000E090F028F090F128C701B6010E94D238C0
:1024D0004B0120E030E040E251E4C701B6010E9428
:1024E000B9390E94D2382B01CB016AE070E00E941A
:1024F0001C3A1C018B8181117EC020E030E048EC49
:1025000052E4C701B6010E94663887FF67C0809217
:102510002B2990922C2940922628509227282092ED
:102520002D2930922E298091072890910828809398
:102530002F29909330298092332990923429209228
:102540003529309236290C30110509F06DC0C09242
:102550001E28D0921F28E0922028F092212820E007
:1025600030E048EC52E4C701B6010E94663887FFAC
:1025700068C0809237299092382920923929309268
:102580003A298091A52890E08093232990932429CB
:102590000231110521F41092A7281092A8282B814E
:1025A000211109C00830110531F487E090E08093D3
:1025B000092890930A2881E08093BF288AE190E05F
:1025C0008093BA289093BB28E6CE80910C299091F5
:1025D0000D29809345299093462966CF83E690E0A4
:1025E00080932B2990932C2989E090E080932D29CA
:1025F00090932E2998CF4090DA285090DB28609055
:10260000DC287090DD28C301B2010E94D2386093AB
:10261000472970934829409222285092232860929B
:102620002428709225287FCF0E30110509F097CF0E
:10263000C0921A28D0921B28E0921C28F0921D28E4
:102640008ECF83E690E0809337299093382989E0F4
:1026500090E08093392990933A2993CF0131110565
:1026600018F5F801EA5CFC4E0C946D3A47137413AC
:1026700081132D159E13AB13C5135413D01380145F
:102680008E145413A7145413B8145413B81361E0E0
:1026900080911D2990911E29892B09F460E0609397
:1026A000A62890E080E0AFDD8091092890910A286B
:1026B00020914F29211103C08730910561F09C01C1
:1026C0002D7F2930310539F08D30910521F082318F
:1026D000910509F0D4C121E02093BF280196809391
:1026E000092890930A286ACF61E080911F29909170
:1026F0002029892B09F460E060934F2981E090E064
:10270000D2CF80914F2981110BC0609121298091F6
:10271000222960930E2980930F2982E090E0C3CF95
:10272000809145299091462980930C2990930D29F9
:102730006CE079E283E090E09FDDB6CF61E08091CC
:10274000252990912629892B09F460E06093A0281F
:102750008FE090E058DD61E0809127299091282951
:10276000892B09F460E060930A2986E990E09BCF09
:1027700061E080913D2990913E29892B09F460E028
:102780006093ED2884E890E08ECF609129298091B4
:102790002A296093D4288093D52885E090E083CFC0
:1027A00080914F29811187C060912D2970912E2928
:1027B000072E000C880B990B0E94053920E030E0B1
:1027C00040E251E40E946A386B017C0160912B2940
:1027D00070912C29072E000C880B990B0E9405394B
:1027E0009B01AC01C701B6010E94023820E030E035
:1027F00040E251E40E94B9396B017C0160912628C6
:1028000070912728072E000C880B990B0E94053920
:102810009B01AC01C701B6010E94013820E030E005
:1028200040E251E40E946A386093E4287093E528FE
:102830008093E6289093E72881E08093E328109224
:10284000DE288090E4289090E528A090E628B090BB
:10285000E72820E030E040E251E4C501B4010E94E5
:10286000B9396B017C0120E030E0A901C501B40158
:102870000E94663887FF41C081E08093E828F7FA1C
:10288000F094F7F8F094C0920629D0920729E092CC
:102890000829F0920929C9DC6091E82887E090E0D6
:1028A000B2DC6091E32888E090E0ADDC6091DE2846
:1028B00089E090E0F8CE6091452970914629072E75
:1028C000000C880B990B0E94053920912228309129
:1028D000232840912428509125280E940138609394
:1028E000E4287093E5288093E6289093E7281092D7
:1028F000E32881E08093DE28A4CF1092E828C3CF9C
:1029000080912F299091302980930728909308284F
:102910000A968093312990933229C6CE809131292D
:10292000909132298093B2289093B3288091EE2819
:102930009091EF28A091F028B091F12880931E2863
:1029400090931F28A0932028B0932128ADCE80918A
:10295000EE289091EF28A091F028B091F128809373
:102960001A2890931B28A0931C28B0931D289CCE56
:1029700020E030E040E251E460911E2870911F2871
:1029800080912028909121280E94B9390E94D23844
:102990006093CC287093CD288093CE289093CF2835
:1029A00020E030E040E251E460911A2870911B2849
:1029B00080911C2890911D280E94B9390E94D2381C
:1029C0006093C8287093C9288093CA289093CB2815
:1029D0006CEC78E280E590E074DC68EC78E28AE503
:1029E00090E06FDC20E030E040E251E46091B428F8
:1029F0007091B5288091B6289091B7280E94B93976
:102A00000E94D2386093C4287093C5288093C6284A
:102A10009093C72820E030E040E251E46091AE2876
:102A20007091AF288091B0289091B1280E94B93957
:102A30000E94D2386093C0287093C1288093C22826
:102A40009093C32864EC78E284E690E03ADC60EC92
:102A500078E28EE690E035DC27CE61E08091232994
:102A600090912429892B09F460E06093A52881E4E2
:102A700090E089839A83CE010196C6DB15CE9C0136
:102A80002B7F1092BF282A30310509F427CE8C30D5
:102A9000910509F093CD22CE81E080930B298ECC55
:102AA00082E390E00E942A0BB0CC4F925F926F922B
:102AB0007F928F929F92AF92BF92CF92DF92EF92CE
:102AC000FF920F931F93CF93DF9300D0CDB7DEB764
:102AD00060E08CE00E941608E0910928F0910A2835
:102AE0008091BF28882309F473C7E431F10508F009
:102AF0006EC0E358FA4E0C946D3A911507164516C0
:102B0000B11622177D17CC170F1840189818E8181F
:102B100031197019F019261AA81AAD1AFF1A2E1BAE
:102B2000611B1092BE281092BD281092BC280E94F2
:102B300025098CE090E08093FE289093FF2880E1A7
:102B400090E0809300299093012989E190E080939F
:102B500002299093032981E190E0809304299093C6
:102B600005298091BA289091BB28893191057CF480
:102B700088E190E08093F6289093F7288093F828D6
:102B80009093F9288093FA289093FB2870C720919E
:102B90001D2930911E291092F6281092F728232B18
:102BA00049F525E130E02093F8283093F928209367
:102BB000FA283093FB2828E130E02093FC2830935A
:102BC000FD28C39724F01092BA281092BB280F90CA
:102BD0000F90DF91CF911F910F91FF90EF90DF90B9
:102BE000CF90BF90AF909F908F907F906F905F90AD
:102BF0004F90089524E130E02093F8283093F9288D
:102C000028E130E02093FA283093FB28D6CF0E94A9
:102C100025091092BE281092BD288CE190E0809387
:102C2000FE289093FF2884E190E080930029909300
:102C3000012989E190E0809302299093032980E1A2
:102C400090E080930429909305298091BA2890916F
:102C5000BB28893191050CF48BCF20911F2930912D
:102C60002029232B49F42DE130E02093F6283093DE
:102C7000F7282AE030E0C0CF2DE130E02093F6289D
:102C80003093F72825E130E0B7CF0E942509109254
:102C9000BE288CE090E08093FE289093FF288DE082
:102CA00090E0809300299093012985E190E0809342
:102CB0000229909303298FE090E080930429909358
:102CC000052920914F298091BA289091BB284997D6
:102CD000F4F48091B928811113C088E190E08093C9
:102CE000F6289093F7288093F8289093F9288093FA
:102CF000FA289093FB2821110CC28AE090E08AC048
:102D000089E190E08093BA289093BB28F4CF2111F9
:102D100017C080912129909122292AE0289FB00193
:102D2000299F700D1124072E000C880B990B0E940F
:102D3000A00388E190E08093F6289093F728DDCFF8
:102D400080914529909146292AE0289FB001299F2A
:102D5000700D1124072E000C880B990B0E94A00304
:102D6000D8C11092BC281092BE281092BD280E9493
:102D7000250980E190E08093FE289093FF2829E1C7
:102D800030E0209300293093012942E150E0409344
:102D90000229509303294FE050E0409304295093B7
:102DA00005294091BA285091BB2849315105E4F4D6
:102DB0008091B92881110FC088E190E08093F628B6
:102DC0009093F7288093F8289093F9288093FA2815
:102DD0009093FB281FC02093BA283093BB28809182
:102DE000BA289091BB28EDCE209123293091242937
:102DF000232BA9F48093F6289093F72827E130E05D
:102E00002093F8283093F9288093FA289093FB2890
:102E10008FE190E08093FC289093FD28E0CF8CE038
:102E200090E08093F6289093F72887E190E08093D4
:102E3000F8289093F9288DE090E08093FA289093F9
:102E4000FB285BCF0E9425098BE090E08093FE2851
:102E50009093FF2881E190E08093002990930129CD
:102E600087E190E080930229909303298CE090E021
:102E700080930429909305292091BA283091BB288A
:102E80002931310564F48091B928882309F494CF5D
:102E900089E190E08093BA289093BB28A0CF20913D
:102EA000252930912629232B99F420E230E0209324
:102EB000F6283093F72829E130E02093F828309362
:102EC000F9288093FA289093FB288EE090E0A2CF17
:102ED0008FE090E08093F6289093F72884E190E0CB
:102EE0008093F8289093F9288EE090E08093FA2858
:102EF0009093FB288AE190E08DCF1092BE2810922B
:102F0000BD280E9425098BE090E08093FE289093D5
:102F1000FF2881E190E0809300299093012980E2CD
:102F200090E0809302299093032980E190E08093C0
:102F30000429909305298091BA289091BB2849973C
:102F40000CF4A1CF8091272990912829892BA9F0F1
:102F500084E290E08093F6289093F7288AE190E04D
:102F60008093F8289093F9288CE090E08093FA28D9
:102F70009093FB2888E190E04DCF84E290E080932D
:102F8000F6289093F7288AE190E08093F8289093B0
:102F9000F9288AE090E0EACF1092BE280E94250925
:102FA0004AE050E04093FE285093FF282DE030E0A7
:102FB00020930029309301298AE190E0809302292F
:102FC000909303296EE070E06093042970930529C3
:102FD0006091BA287091BB28693171050CF4C8CD95
:102FE000E0912929F0912A294093F6285093F72857
:102FF0002093F8283093F9288093FA289093FB289F
:1030000082E090E0EF2B11F481E090E08093FC28C7
:103010009093FD28633371050CF0D5CDD8CD109277
:10302000BC280E9425098AE090E08093FE289093B6
:10303000FF288DE090E080930029909301298AE198
:1030400090E0809302299093032981E090E080939F
:103050000429909305298091BA289091BB2849971B
:103060003CF58091B92881111CC088E190E08093E3
:10307000F6289093F7288093F8289093F9283DCE6E
:103080008091BA289091BB2820914F2921112DC001
:10309000499774F48091B928811103C088E190E0C8
:1030A000CCCE89E190E08093BA289093BB2825CEBE
:1030B00080912B2990912C2924E6289FB001299FEB
:1030C000700D112420912D2930912E294AE0429F24
:1030D000C001439F900D1124680F791F072E000C2B
:1030E000880B990B0E94A00308CE4997E4F48091C5
:1030F000B928811111C088E190E08093F62890935F
:10310000F7288093F8289093F9288093FA289093D1
:10311000FB2885E190E07ECE89E190E08093BA289B
:103120009093BB28F6CF80914729909148290CCEE7
:1031300011E01093BC281092BE280E94250910931C
:10314000B8288AE090E08093FE289093FF288DE0D5
:1031500090E080930029909301298AE190E0809388
:1031600002299093032982E090E0809304299093B0
:1031700005298091BA289091BB284997C4F4809181
:10318000B92881110DC088E190E08093F8289093D0
:10319000F9288093FA289093FB288AE190E0CBCD20
:1031A00089E190E08093BA289093BB28F6CF809174
:1031B0002F29909130292AE0289FB001299F700D76
:1031C0001124072E000C880B990B0E94A003E5CF59
:1031D0000E9425098AE090E08093FE289093FF28C2
:1031E0008DE090E080930029909301298AE190E09E
:1031F000809302299093032982E090E08093042930
:10320000909305298091BA289091BB284997C4F4DE
:103210008091B92881110DC088E190E08093F82851
:103220009093F9288093FA289093FB288EE190E000
:1032300082CD89E190E08093BA289093BB28F6CFA5
:1032400080913129909132292AE0289FB001299F4D
:10325000700D1124072E000C880B990B0E94A003FF
:10326000E5CF0E94250981E08093BE286091072860
:1032700070910828072E000C880B990B0E9461039F
:103280008AE190E08093FE289093FF2887E190E008
:1032900080930029909301298091BA289091BB28AE
:1032A00049977CF48091B9288111F2CD88E190E0B2
:1032B0008093F6289093F7288093F8289093F92824
:1032C0008ECD809133299091342924E6289FB00136
:1032D000299F700D11242091352930913629F6CE81
:1032E0000E9425096091072870910828072E000C7C
:1032F000880B990B0E9461038AE190E08093FE287D
:103300009093FF2887E190E0809300299093012912
:103310000091332910913429E0903529F090362915
:103320008091BA289091BB2849970CF044C08091B5
:10333000B928811139C088E190E08093FA289093F0
:10334000FB288AE090E08093FC289093FD288091F0
:10335000BA289091BB28C39724F01092BA281092F3
:10336000BB28B701FF0C880B990B0E94053920E0A0
:1033700030E040E251E40E946A386B017C01B80100
:10338000110F880B990B0E9405399B01AC01C701F5
:10339000B6010E9402386093B4287093B5288093D8
:1033A000B6289093B72813CC89E190E08093BA288F
:1033B0009093BB28C6CF84E6809FB001819F700D9B
:1033C00011242AE02E9DC0012F9D900D1124680F1D
:1033D000791F072E000C880B990B0E94A003B1CF18
:1033E0000E9425096091B2287091B328072E000C25
:1033F000880B990B0E9461038EE190E08093FE2878
:103400009093FF2889E190E080930029909301290F
:1034100021E02093BE282091BA283091BB28293181
:1034200031052CF42091B92821113DCE1ECE80917A
:1034300037299091382924E6289FB001299F700DE3
:1034400011242091392930913A2940CE0E94250932
:103450006091B2287091B328072E000C880B990B4D
:103460000E9461038EE190E08093FE289093FF28F4
:1034700089E190E0809300299093012921E0209335
:10348000BE280091372910913829E0903929F09011
:103490003A292091BA283091BB28293131050CF006
:1034A00042C02091B928211139C088E190E0809371
:1034B000FA289093FB288AE090E08093FC28909370
:1034C000FD288091BA289091BB28C39724F01092D0
:1034D000BA281092BB28B701FF0C880B990B0E94E9
:1034E000053920E030E040E251E40E946A386B0187
:1034F0007C01B801110F880B990B0E9405399B01C3
:10350000AC01C701B6010E9402386093AE287093E7
:10351000AF288093B0289093B12859CB8093BA28D4
:103520009093BB28C8CF84E6809FB001819F700D27
:1035300011242AE02E9DC0012F9D900D1124680FAB
:10354000791F072E000C880B990B0E94A003B3CFA4
:103550001092AD28109250293ACB1092BE281092AA
:10356000BD280E9425098EE190E08093FE2890936B
:10357000FF288FE090E080930029909301292DE0AF
:1035800030E0209302293093032980E190E080937A
:103590000429909305294091BA285091BB284931BC
:1035A00051050CF470CC40913D2950913E29452B9A
:1035B000A9F48CE090E08093F6289093F7288AE1B4
:1035C00090E08093F8289093F92887E190E0809329
:1035D000FA289093FB2884E290E01CCC45E150E06F
:1035E0004093F6285093F7282093F8283093F92831
:1035F0002CE030E02093FA283093FB280BCC10927B
:10360000BC281092BE281092BD280E9425098091E6
:10361000AB289091AC282AE0289FB001299F700D1B
:10362000112490E080E00E9461038EE190E080939D
:103630000429909305296091A9287091AA2890E007
:1036400080E00E94A0038DE090E08093F6289093A4
:10365000F7281092A7281092A828B9CA1092BC285F
:103660001092BE281092BD280E9425098CE090E09F
:103670008093FE289093FF282CE130E020930029CE
:103680003093012941E150E04093022950930329EE
:103690002FE030E020930429309305294093F62849
:1036A0005093F7282093F8283093F9288093FA282C
:1036B0009093FB2880E190E08093FC289093FD2874
:1036C000C8CF1092BC281092BE281092BD280E942C
:1036D00025098091A7289091A8288F319105B8F4E9
:1036E00061E085E10E94160886E190E08093FE2863
:1036F0009093FF28809300299093012980930229B9
:1037000090930329809304299093052933CA9C013F
:10371000295231092238310578F560E085E10E94AF
:10372000160881E190E08093FE289093FF288FE0B7
:1037300090E080930029909301292CE030E02093C1
:1037400002293093032920E130E0209304293093AB
:10375000052920E230E02093F6283093F72827E16E
:1037600030E02093F8283093F92824E130E02093CA
:10377000FA283093FB287BC18B3A91050CF427CAB9
:103780001092A62810924F2923E630E020930E29AC
:1037900030930F2984ED90E080930C2990930D29AC
:1037A0001092D4281092D528109206291092072939
:1037B00010920829109209291092E82841E04093BC
:1037C000E3281092DE284EE150E060E070E0409384
:1037D000CC285093CD286093CE287093CF2844E511
:1037E00050E060E070E04093C8285093C92860938F
:1037F000CA287093CB284CE150E060E070E0409321
:10380000C4285093C5286093C6287093C72842E502
:1038100050E060E070E04093C0285093C12860936E
:10382000C2287093C3281092A5281092A028109245
:103830000A291092ED2810921D2910921E2910922B
:103840001F29109220292093212930932229809327
:103850004529909346291092292910922A291092DD
:10386000232910922429109225291092262910929A
:103870003D2910923E291092272910922829109252
:103880009E2810929F2810929C2810929D2885E2D5
:1038900090E080931229909313291092142910928A
:1038A000152980E290E080933C2990933D29109265
:1038B000162910921729109218291092192910927E
:1038C0009B2860E081E090E00E94031163E682E0C3
:1038D00090E00E9403116CE079E283E090E00E94A6
:1038E0003C1160E085E090E00E94031160E08FE011
:1038F00090E00E9403110E94151160E087E090E0C3
:103900000E94031161E088E090E00E94031160E0F2
:1039100089E090E00E9403116CEC78E280E590E091
:103920000E94611168EC78E28AE590E00E946111E2
:1039300064EC78E284E690E00E94611160EC78E249
:103940008EE690E00E94611181E490E089839A8381
:103950006091A528CE0101960E9404116091122960
:1039600083E790E00E9403116091142985E790E0BD
:103970000E9403116CE379E288E790E00E943C1119
:1039800060E08DE790E00E94031160E082E890E043
:103990000E94031160E087E890E00E94031160E05C
:1039A00086E990E00E94031160E084E890E00E94C4
:1039B000031181E090E08093092890930A281092E7
:1039C000AD281092A7281092A8281092BF28C2CD27
:1039D000E331F10508F0FBC8E051F34E0C946D3A69
:1039E000031D451D791DCB1D151E421E711EA71EF0
:1039F000FE1E651F9A1FCB1F7A203C21FA21C72289
:103A0000FA222E234B231092BE281092BD2810922A
:103A1000BC280E9425098CE090E08093FE289093BA
:103A2000FF2880E190E0809300299093012989E1AB
:103A300090E0809302299093032981E190E08093A4
:103A40000429909305298091A6281092F6281092B7
:103A5000F728811111C085E190E08093F8289093B8
:103A6000F9288093FA289093FB2888E190E08093CE
:103A7000FC289093FD28ABC884E190E08093F8285F
:103A80009093F92888E190E07DC80E942509109262
:103A9000BE281092BD288CE190E08093FE28909380
:103AA000FF2884E190E0809300299093012989E127
:103AB00090E0809302299093032980E190E0809325
:103AC00004299093052980914F29811109C08DE126
:103AD00090E08093F6289093F7288AE090E0CECF8C
:103AE0008DE190E08093F6289093F72885E190E0AF
:103AF000C5CF0E9425098CE090E08093FE2890932A
:103B0000FF288DE090E0809300299093012905E142
:103B100010E000930229109303298FE090E0809336
:103B200004299093052980914F2981111DC080910E
:103B30000E2990910F292AE0289FB001299F700D2E
:103B40001124072E000C880B990B0E94A0038AE019
:103B500090E08093FC289093FD2888E190E080938A
:103B6000F6289093F72833C81092BE2880910C292C
:103B700090910D292AE0289FB001299F700D1124F2
:103B8000072E000C880B990B0E94A0030093FC28C1
:103B90001093FD281CC81092BC281092BE281092C9
:103BA000BD280E94250980E190E08093FE28909333
:103BB000FF2829E130E0209300293093012922E1F8
:103BC00030E020930229309303292FE030E0209346
:103BD0000429309305292091A528211111C0809333
:103BE000F6289093F72827E130E02093F8283093C7
:103BF000F9288093FA289093FB288FE190E037CF43
:103C00008CE090E08093F6289093F72887E190E08D
:103C10008093F8289093F9288DE090E08093FA281B
:103C20009093FB288AE090E022CF0E9425098DE046
:103C300090E08093FE289093FF2882E290E08093AA
:103C400000299093012980E190E0809302299093CC
:103C5000032987E190E080930429909305292BE0C4
:103C600030E02093F6283093F72821E130E02093CC
:103C7000F8283093F9288093FA289093FB288CE059
:103C800090E0F5CE1092BE281092BD280E94250922
:103C90008BE090E08093FE289093FF2821E130E0B4
:103CA000209300293093012920E230E0209302295B
:103CB0003093032920E130E0209304293093052933
:103CC0002093F6283093F72823E230E02093F82859
:103CD0003093F9288093FA289093FB288FE090E0A6
:103CE000C6CE1092BE281092BD280E9425094AE037
:103CF00050E04093FE285093FF282DE030E02093C1
:103D00000029309301298AE190E080930229909361
:103D100003296EE070E06093042970930529609197
:103D2000D4287091D5284093F6285093F7282093F3
:103D3000F8283093F9288093FA289093FB2882E0A2
:103D400090E0672B09F093CE81E090E090CE109246
:103D5000BC280E9425098AE090E08093FE28909379
:103D6000FF288DE090E080930029909301298AE15B
:103D700090E0809302299093032981E090E0809362
:103D800004299093052980914F29811187C0C09003
:103D9000EE28D090EF28E090F028F090F1282DEC5C
:103DA0003CEC47EC52E46091F2287091F32880914A
:103DB000F4289091F5280E94B53918167CF420E07B
:103DC00030E040E251E4C701B6010E94B9390E94D7
:103DD000D2380E94A0031092BE2824CF20E030E009
:103DE00048EC52E4C701B6010E94B9390E94D238AA
:103DF0000E94A00381E08093BE2814CF1092BC28BB
:103E00000E9425098AE090E08093FE289093FF2885
:103E10008DE090E080930029909301298AE190E061
:103E2000809302299093032981E090E080930429F4
:103E30009093052980914F29811130C08090EE2800
:103E40009090EF28A090F028B090F12820E030E08A
:103E500048EC52E4C501B4010E94B9390E94D2383D
:103E60006B017C010E94A0032DEC3CEC47EC52E47A
:103E70006091F2287091F3288091F4289091F528B0
:103E80000E94B53918163CF420E030E040E251E4DD
:103E9000C501B4019ACFC701B601AACF1092BE28BE
:103EA00020E030E040E251E46091DA287091DB28B4
:103EB0008091DC289091DD280E94B9390E94D23887
:103EC0000E94A00385E190E0D2CD81E08093BC28E0
:103ED0001092BE280E9425090AE010E00093FE28F7
:103EE0001093FF288DE090E08093002990930129A2
:103EF0003AE1E32EF12CE0920229F092032982E0CC
:103F000090E080930429909305298091072890914F
:103F100008282AE0289FB001299F700D1124072E40
:103F2000000C880B990B0E94A003E092F628F092F7
:103F3000F7282CCE0E9425090AE010E00093FE2805
:103F40001093FF288DE090E0809300299093012941
:103F50008AE190E0809302299093032982E090E027
:103F600080930429909305298091B2289091B328D9
:103F70002AE0289FB001299F700D1124072E000C04
:103F8000880B990B0E94A0038EE190E08093F628A5
:103F90009093F728FBCD1092BC2881E08093BD2838
:103FA0001092BE280E94250988EE9AE20E940A0B10
:103FB00060912F2970913029072E000C880B990BE6
:103FC0000E9405396093EE297093EF298093F029C0
:103FD0009093F12961E081E20E941608BEE1EB2E88
:103FE000F12C1FE0C12ED12C0DE0A02EB12C80E1D0
:103FF000882E912C08E110E09AE1692E712C27E1BE
:10400000422E512C2091EE293091EF294091F02938
:104010005091F1296091F6297091F7298091F82942
:104020009091F9290E94663887FFCCC18091A4281D
:10403000882309F4C7C10E949B0460912F297091C5
:104040003029072E000C880B990B0E9405396093CC
:10405000EE297093EF298093F0299093F1290E9423
:10406000860960E08BE10E9416088BED9BE20E94BE
:10407000AC0A8091BA289091BB28893191051CF532
:104080000093F6281093F7280093F8281093F92846
:104090000093FA281093FB280093FC281093FD2826
:1040A0006091072870910828072E000C880B990B47
:1040B0000E9461036092FE287092FF2840920029BE
:1040C000509201299FCFE092F628F092F728C092F3
:1040D000F828D092F928A092FA28B092FB28809272
:1040E000FC289092FD28C397DCF21092BA28109217
:1040F000BB28D6CF61E081E20E941608EAE1EE2EED
:10410000F12CF7E1CF2ED12C08E110E0AAE0AA2E85
:10411000B12C9090A1288091BF2881119BC08091E3
:10412000A428882309F496C0992009F493C00E941A
:104130009B0460912F2970913029072E000C880B69
:10414000990B0E9405396093EE297093EF298093B3
:10415000F0299093F1298BED9BE20E94AC0A0E941A
:10416000860960E08AE10E94160861E08BE10E9406
:1041700016086091072870910828072E000C880BFC
:10418000990B0E946103E092FE28F092FF28C092F2
:104190000029D092012981E08093BD288090BA281F
:1041A0009090BB2889E188169104BCF40093F6280E
:1041B0001093F7280093F8281093F9280093FA2811
:1041C0001093FB280093FC281093FD2860E085E104
:1041D0000E9416081092BE289CCF61E085E10E94E3
:1041E00016084090EE285090EF286090F0287090CC
:1041F000F1282DEC3CEC47EC52E46091F2287091F0
:10420000F3288091F4289091F5280E94B53920E098
:1042100030E040E251E4181624F020E030E048ECB1
:1042200052E4C301B2010E94B9390E94D2380E94FF
:10423000A00381E08093BE28A092FC28B092FD28C4
:1042400083E3881691040CF464CF1092BA2810927C
:10425000BB285FCF60E081E20E9416088BE090E00F
:104260009110C2C08DE090E08093092890930A28B5
:104270001092BF280C94E7151092BC281092BE280B
:1042800081E08093BD286091312970913229072EF9
:10429000000C880B990B0E9405396093EE297093EE
:1042A000EF298093F0299093F12961E081E20E9447
:1042B00016083EE1E32EF12C4FE0C42ED12C5DE038
:1042C000A52EB12C60E1862E912C08E110E079E159
:1042D000672E712C2091EE293091EF294091F02921
:1042E0005091F1296091F6297091F7298091F82970
:1042F0009091F9290E94663887FF64C08091A428B4
:10430000882309F45FC00E949B0460913129709159
:104310003229072E000C880B990B0E9405396093F7
:10432000EE297093EF298093F0299093F1290E9450
:1043300086098BED9BE20E94AC0A60E08BE10E9453
:1043400016088091BA289091BB28893191051CF5F7
:104350000093F6281093F7280093F8281093F92873
:104360000093FA281093FB280093FC281093FD2853
:104370006091B2287091B328072E000C880B990B1E
:104380000E946103E092FE28F092FF2860920029CB
:10439000709201299FCFE092F628F092F728C09200
:1043A000F828D092F928A092FA28B092FB2880929F
:1043B000FC289092FD28C397DCF21092BA28109244
:1043C000BB28D6CF60E081E20E9416088EE190E023
:1043D0008093A2289093A32881E08093A1288091C4
:1043E000092890910A2801968093092890930A2819
:1043F0000C94E71561E081E20E9416088EE1E82E38
:10440000F12C99E1C92ED12C2AE0A22EB12C08E181
:1044100010E09090A1288091BF288111A4C08091C4
:10442000A428882309F49FC0992009F49CC00E9405
:104430009B046091312970913229072E000C880B62
:10444000990B0E9405396093EE297093EF298093B0
:10445000F0299093F1290E9486098BED9BE20E943E
:10446000AC0A60E08AE10E94160861E08BE10E94DC
:1044700016086091B2287091B328072E000C880BA3
:10448000990B0E946103E092FE28F092FF28C092EF
:104490000029D0920129992493949092BD2880916B
:1044A000BA289091BB28499704F50093F6281093F9
:1044B000F7280093F8281093F9280093FA2810930E
:1044C000FB280093FC281093FD2860E085E10E9402
:1044D00016088091BA289091BB28C3970CF499CF05
:1044E0001092BA281092BB2894CF61E085E10E9417
:1044F00016084090EE285090EF286090F0287090B9
:10450000F1282DEC3CEC47EC52E46091F2287091DC
:10451000F3288091F4289091F5280E94B539181657
:104520009CF420E030E040E251E4C301B2010E947B
:10453000B9390E94D2380E94A0031092BE28A092DE
:10454000FC28B092FD28C5CF20E030E048EC52E4D2
:10455000C301B2010E94B9390E94D2380E94A0035F
:104560009092BE28ECCF60E081E20E941608109283
:10457000EE291092EF291092F0291092F12999203A
:1045800019F08DE090E030CF1092502971CE10924A
:10459000BD281092BE288091BA289091BB28883CF3
:1045A00091052CF58AE090E08093FE289093FF28F7
:1045B0008DE090E080930029909301292AE130E07A
:1045C00020930229309303292EE030E02093042920
:1045D000309305292CE030E02093F6283093F7281B
:1045E0008093F8289093F9288CE190E073CB109297
:1045F000AD28EBC91092BC281092BE281092BD289D
:104600000E9425098091ED2890E080933D299093A8
:104610003E298EE190E08093FE289093FF282FE0C2
:1046200030E020930029309301298DE090E08093C1
:1046300002299093032980E190E0809304299093CC
:1046400005294CE050E04093F6285093F72820933A
:10465000F8283093F9282AE130E089C81092BC2864
:104660001092BE281092BD280E9425098AE190E090
:104670008093FE289093FF2887E190E080930029A3
:10468000909301298BE190E0809302299093032974
:1046900088E190E037C81092BC281092BE28109292
:1046A000BD280E94250985E190E08093FE28909323
:1046B000FF288DE090E080930029909301298AE003
:1046C00090E0809302299093032980E190E0809309
:1046D00004299093052921E130E02093F6283093B6
:1046E000F7282FE030E02093F8283093F9282CE0C9
:1046F00030E03DC8EF92FF920F931F93CF93DF936B
:10470000E82EF62ED0E0C0E0042F10E0B8010C2E09
:1047100002C0759567950A94E2F761708E2D0E942C
:10472000540861E08F2D0E94540860E08F2D0E9494
:1047300054082196C830D10549F7DF91CF911F91D8
:104740000F91FF90EF9008950F931F93CF93DF93F6
:104750000E948B080E9497080E94970860E080E200
:104760000E945408C0913528D091362880919A280B
:104770008E01000F111F882331F0E091FE28F09187
:10478000FF282097C1F08091BD28882339F0E0915F
:104790000029F0910129C130D10569F08091992853
:1047A000882309F480C0C230D10509F07CC0E091B3
:1047B0000229F0910329E059FA44408141606EE1F9
:1047C0008FE198DFF801E45AFA4460E080810E94AA
:1047D000540861E080E20E9454082196C430D1055B
:1047E0000CF06BC0C0933528D09336280E948B08FC
:1047F00060E083E10E945408C0913728D0913828A6
:104800008091BC288E01000F111F882331F0E091A8
:10481000F628F091F7282097C1F08091BE288823D0
:1048200039F0E091F828F091F928C130D10569F00C
:1048300080919828882309F445C0C230D10509F039
:1048400041C0E091FA28F091FB28E059FA444081F8
:10485000416064E182E14EDFF801EA59FA4460E028
:1048600080810E94540861E083E10E9454082196EF
:10487000C430D1058CF5C0933728D09338288EEA00
:104880009AE20E94470B8FE89AE20E94470B80E76A
:104890009AE20E94470B81E59AE2DF91CF911F9146
:1048A0000F910C94470BF801E250F74D0190F08105
:1048B000E02DE059FA44408182CF109235281092C1
:1048C000362894CFF801EA50F74D0190F081E02DA1
:1048D000E059FA444081BDCF109237281092382811
:1048E000CECF1F920F920FB60F9211242F933F93AA
:1048F0004F935F936F937F938F939F93AF93BF93E8
:10490000EF93FF9381E599E20E94CC06FF91EF912E
:10491000BF91AF919F918F917F916F915F914F91D7
:104920003F912F910F900FBE0F901F9018951F92DF
:104930000F920FB60F9211242F938F939F93EF93A3
:10494000FF93E0915D29F0915E29818181FD1BC07B
:104950009081809167298F5F8F73209168298217DA
:1049600041F0E0916729F0E0EF5AF64D958F809382
:104970006729FF91EF919F918F912F910F900FBE1B
:104980000F901F9018958081F4CF1F920F920FB651
:104990000F9211248F939F93AF93BF9380913928E7
:1049A00090913A28A0913B28B0913C280196A11DF6
:1049B000B11D8093392890933A28A0933B28B09357
:1049C0003C2881E08093A60ABF91AF919F918F917F
:1049D0000F900FBE0F901F9018951F920F920FB659
:1049E0000F9211242F933F934F935F936F937F9375
:1049F0008F939F93AF93BF93EF93FF9380EC9BE2D2
:104A00000E94AC0A88EE9AE20E94AC0A89E39BE21B
:104A10000E94AC0A8EE19BE20E94AC0A85EA9BE20E
:104A20000E94AC0A8AE89BE20E94AC0A8FE69BE2F5
:104A30000E94AC0A84E59BE20E94AC0A8091BA28ED
:104A40009091BB2801968093BA289093BB288091BF
:104A5000A128882381F18091182890911928019626
:104A60008093182890931928803B9E4021F58091CF
:104A7000452890914628A0914728B0914828019652
:104A8000A11DB11D8093452890934628A0934728E7
:104A9000B09348288091A2289091A32801978093F1
:104AA000A2289093A3281092182810921928892BD5
:104AB00011F41092A1288091BF28882379F0809169
:104AC000092890910A28439749F48091A72890914A
:104AD000A82801968093A7289093A82881E0809326
:104AE0000B0AFF91EF91BF91AF919F918F917F91B1
:104AF0006F915F914F913F912F910F900FBE0F904B
:104B00001F9018954F925F926F927F928F929F9213
:104B1000AF92BF92CF92DF92EF92FF921092532901
:104B20001092542988EE93E0A0E0B0E080935529DC
:104B300090935629A0935729B09358298AEB96EB66
:104B4000809351299093522980E498E080935D29C5
:104B500090935E2983E280935F2982E280936029AB
:104B60001092612987E28093622986E2809363290B
:104B700080E1809364291092652910926629109231
:104B80006729109268291092692910926A2980E297
:104B900080936B2910926C2910926D2982E090E02D
:104BA0008093E42B9093E52B80E89CE0A0E0B0E0BC
:104BB0008093DC2B9093DD2BA093DE2BB093DF2B27
:104BC0001092E02B1092E12B1092E22B1092E32B2B
:104BD00084EA93E28093EC2B9093ED2B1092DB2BE5
:104BE0001092EE2B1092EF2B1092F02B1092F12BD3
:104BF0001092E62B1092E72B1092E82B1092E92BE3
:104C00001092C92B1092CA2B80EA96E8A1E0B0E07E
:104C10008093C12B9093C22BA093C32BB093C42B32
:104C200041E050E060E070E04093C52B5093C62B0C
:104C30006093C72B7093C82B88E19CE08093D12BA5
:104C40009093D22B1092C02B1092D32B1092D42B76
:104C50001092D52B1092D62B1092CB2B1092CC2BDE
:104C60001092CD2B1092CE2B1092AE2B1092AF2B18
:104C700080E894E8AEE1B0E08093A62B9093A72B58
:104C8000A093A82BB093A92B1092AA2B1092AB2B18
:104C90001092AC2B1092AD2B24E23CE02093B62B6B
:104CA0003093B72B1092A52B1092B82B1092B92BE2
:104CB0001092BA2B1092BB2B1092B02B1092B12BEA
:104CC0001092B22B1092B32B1092932B1092942B24
:104CD00020E4C22E22E4D22E2FE0E22EF12CC0924C
:104CE0008B2BD0928C2BE0928D2BF0928E2B4093BD
:104CF0008F2B5093902B6093912B7093922B2AE2E1
:104D00003CE020939B2B30939C2B10928A2B10928B
:104D10009D2B10929E2B10929F2B1092A02B1092E5
:104D2000952B1092962B1092972B1092982B1092F5
:104D3000782B1092792B40EE53E964E070E04093B9
:104D4000702B5093712B6093722B7093732B109276
:104D5000742B1092752B1092762B1092772B2AE4DD
:104D60003CE02093802B3093812B10926F2B10927C
:104D7000822B1092832B1092842B1092852B1092F1
:104D80007A2B10927B2B10927C2B10927D2B109201
:104D90005D2B10925E2B40EC57E269E070E040938F
:104DA000552B5093562B6093572B7093582B109282
:104DB000592B10925A2B10925B2B10925C2B24E4EF
:104DC0003CE02093652B3093662B1092542B10926D
:104DD000672B1092682B1092692B10926A2B1092FD
:104DE0005F2B1092602B1092612B1092622B10920D
:104DF000422B1092432B48E458EE61E070E0409360
:104E00003A2B50933B2B60933C2B70933D2B10928D
:104E10003E2B10923F2B1092402B1092412B23E5FA
:104E20003CE020934A2B30934B2B1092392B10925D
:104E30004C2B10924D2B10924E2B10924F2B109208
:104E4000442B1092452B1092462B1092472B109218
:104E5000272B1092282B48EB5FEF61E070E0409326
:104E60001F2B5093202B6093212B7093222B109299
:104E7000232B1092242B1092252B1092262B2CE101
:104E80003DE020932F2B3093302B10921E2B10924D
:104E9000312B1092322B1092332B1092342B109214
:104EA000292B10922A2B10922B2B10922C2B109224
:104EB0000C2B10920D2B8093042B9093052BA09319
:104EC000062BB093072B1092082B1092092B1092EF
:104ED0000A2B10920B2B88E891E08093142B90936F
:104EE000152B1092032B1092162B1092172B109249
:104EF000182B1092192B10920E2B10920F2B109230
:104F0000102B1092112B1092F12A1092F22A80E8A5
:104F10009AE1A6E0B0E08093E92A9093EA2AA09370
:104F2000EB2AB093EC2A1092ED2A1092EE2A1092FE
:104F3000EF2A1092F02A84E69DE08093F92A90935C
:104F4000FA2A1092E82A1092FB2A1092FC2A109258
:104F5000FD2A1092FE2A1092F32A1092F42A10923F
:104F6000F52A1092F62AC0901328D0901428E090C9
:104F70001528F090162880900F2890901028A09067
:104F80001128B090122840900B2850900C28609067
:104F90000D2870900E2882EF99E28093182A909342
:104FA000192A86EF99E28093162A9093172A8EEE9B
:104FB00099E280931A2A90931B2A1092342A109215
:104FC0002C2A10922D2A10922E2A10922F2A80E03D
:104FD00090E0AFE7B3E48093302A9093312AA09316
:104FE000322AB093332A84E690E0A0E0B0E08093C8
:104FF000282A9093292AA0932A2AB0932B2A109228
:10500000122A1092132A20E030E0A901C301B20154
:105010000E94663887FD5AC020E030E0A901C50132
:10502000B4010E94663887FD51C020E030E0A9013C
:10503000C701B6010E94663887FD48C081E090E054
:105040008093142A9093152A8093352A4092FA2946
:105050005092FB296092FC297092FD298092FE29D2
:105060009092FF29A092002AB092012AC092022AAF
:10507000D092032AE092042AF092052A4092062A4E
:105080005092072A6092082A7092092A2DEC3CEC73
:105090004CEC5DE3C501B4010E94B93960930A2A62
:1050A00070930B2A80930C2A90930D2A2DEC3CECE4
:1050B0004CEC5DE3C701B6010E946A3860930E2A8A
:1050C00070930F2A8093102A9093112A0E947A09D4
:1050D000C090282AD090292AE0902A2AF0902B2AE2
:1050E0006C197D098E099F0960931C2A70931D2AF3
:1050F00080931E2A90931F2A1092D62A1092D72AA4
:1051000080E492E4AFE0B0E08093CE2A9093CF2A7F
:10511000A093D02AB093D12A81E090E0A0E0B0E043
:105120008093D22A9093D32AA093D42AB093D52ADD
:105130008AE791E08093DE2A9093DF2A1092CD2AAD
:105140001092E02A1092E12A1092E22A1092E32AA9
:105150001092D82A1092D92A1092DA2A1092DB2AB9
:1051600063E270E08EEA9AE20E94580865E270E01D
:105170008FE89AE20E94580864E270E080E79AE2C1
:105180000E94580862E270E081E59AE20E945808A5
:1051900081E090E080933F2A9093402A88EE93E04C
:1051A000A0E0B0E08093372A9093382AA093392A60
:1051B000B0933A2A10923B2A10923C2A10923D2A30
:1051C00010923E2A8DE791E08093472A9093482AD7
:1051D0001092362A1092492A10924A2A10924B2A8B
:1051E00010924C2A1092412A1092422A1092432A7D
:1051F0001092442AFF90EF90DF90CF90BF90AF9035
:105200009F908F907F906F905F904F900895CF9375
:10521000DF9300D0CDB7DEB788ED90E084BF9093E8
:1052200061008091020686608093020680910006EC
:10523000816080930006809102068F7C8065809358
:1052400002061092E20582E08093E40581E08093FB
:10525000030A8EEF8093270A8093260A80E88093C2
:105260002D0A80932B0A8093290A80932C0A80931D
:105270002A0A8093280A8BE08093000A87E08093B3
:10528000E505E0E8FAE037E02EEF90E885E03183CD
:105290002487958780837096E03C4AE0F407B9F74D
:1052A0001092A10A8FE79EE38093AC0A9093AD0A17
:1052B0008091A50A81608093A50A1092A00A80912E
:1052C000A00A81608093A00A789447E266E281E5B3
:1052D00099E20E94A90640E855E260E070E081E5AD
:1052E00099E20E946B10F89481E080930A0A109270
:1052F000010A8091090A8E7F8093090A8AEF90E063
:105300008093260A9093270A8FE08093000A78946E
:1053100061E08BE00E94E70761E08AE00E94E70716
:1053200061E089E00E94E70761E088E00E94E7070A
:1053300061E084E00E94E70761E085E00E94E70702
:1053400061E086E00E94E70761E087E00E94E707EE
:1053500061E084E10E94E70761E083E10E94E707E2
:1053600061E082E10E94E70761E08EE10E94E707C9
:1053700061E080E20E94E70761E08FE10E94E707B9
:1053800061E088E00E94540861E089E00E945408CE
:1053900061E08AE00E94540861E08BE00E945408BA
:1053A00061E087E00E94540861E086E00E945408B2
:1053B00061E085E00E94540861E084E00E945408A6
:1053C00061E08CE00E94B30761E08DE00E94B307CA
:1053D00060E08CE00E94160860E08DE00E941608F4
:1053E0008BED9BE20E940A0B10922C2A10922D2A20
:1053F00010922E2A10922F2A812C60E8962E69E8AE
:10540000A62E64E4B62E8092302A9092312AA09281
:10541000322AB092332A8091342A882309F457C063
:105420000091182A1091192AD801CD90DD90ED90A5
:10543000FC90A5019401C701B6010E94B539181668
:1054400034F5F80180829182A282B3828090202A72
:105450009090212AA090222AB090232AC090302A2E
:10546000D090312AE090322AF090332AA701960199
:10547000C501B4010E94B5391816CCF4C092202A97
:10548000D092212AE092222AF092232A20C020E002
:1054900030E0A901C701B6010E94663887FFD6CF68
:1054A000D8011D921D921D921C921397CFCFC090D0
:1054B0002C2AD0902D2AE0902E2AF0902F2AA70196
:1054C0009601C501B4010E94663887FDD7CF0E94BE
:1054D0007A096093E9287093EA288093EB289093E7
:1054E000EC288091342A811149C0E091182AF0916A
:1054F000192AC080D180E280F380C092202AD09205
:10550000212AE092222AF092232AE091162AF09191
:10551000172A80819181A281B3818093242A90935C
:10552000252AA093262AB093272A8090302A90908B
:10553000312AA090322AB090332AA5019401C701E4
:10554000B6010E94B53918164CF48092202A909228
:10555000212AA092222AB092232A10C080902C2ABD
:1055600090902D2AA0902E2AB0902F2AA501940168
:10557000C701B6010E94663887FDE7CF81E08093BE
:10558000342A61E085E10E94B30761E088E10E946E
:10559000B30761E089E10E94B30761E081E20E9404
:1055A000B30760E089E10E94160860E085E10E948F
:1055B000160860E088E10E94160860E081E20E941F
:1055C000160861E08BE10E94B30761E08CE10E9464
:1055D000B30761E08DE10E94B30761E08AE10E94B8
:1055E000B3070E94250989E39BE20E940A0B8EE122
:1055F0009BE20E940A0B90E080E00E94DB10AA244C
:10560000A394811101C0A12CA092A62881E090E072
:105610000E94DB10BB24B394811101C0B12CB09265
:105620004F2982E090E00E94DB10C82ED12CC0925E
:105630000E29D0920F296CE079E283E090E00E947D
:10564000841085E090E00E94DB10E82EF12CE092BF
:10565000D428F092D52856E0852E59E2952E06E4FE
:1056600010E009831A83CE0101960E947410F401A0
:1056700081934F010F5F1F4F0A34110591F787E0A7
:1056800090E00E94DB1091E0811101C090E09093C6
:10569000E82888E090E00E94DB1091E0811101C0D1
:1056A00090E09093E32889E090E00E94DB1091E085
:1056B000811101C090E09093DE286CEC78E280E5E7
:1056C00090E00E94A91068EC78E28AE590E00E94E0
:1056D000A91064EC78E284E690E00E94A91060ECE6
:1056E00078E28EE690E00E94A91081E490E0898340
:1056F0009A83CE0101960E9474108093A5286BEACC
:1057000078E288E990E00E94841069EA78E28AE908
:1057100090E00E9484108FE090E00E94DB1001E096
:10572000811101C000E00093A02886E990E00E946A
:10573000DB1011E0811101C010E010930A2984E808
:1057400090E00E94DB1091E0811101C090E0909305
:10575000ED282A2D30E020931D2930931E292B2D72
:1057600030E020931F2930932029C0922129D09224
:10577000222920910C2930910D292093452930931D
:105780004629E0922929F0922A292091A52830E083
:105790002093232930932429202F30E0209325299A
:1057A00030932629892F90E080933D2990933E29BC
:1057B000812F90E080932729909328296CE379E248
:1057C00088E790E00E94841083E790E00E94DB105D
:1057D00090E0809312299093132985E790E00E942E
:1057E000DB1090E080931429909315298DE790E0C9
:1057F0000E94DB1090E0809316299093172982E88D
:1058000090E00E94DB1090E0809318299093192972
:1058100087E890E00E94DB1091E0811101C090E0E8
:1058200090939B2886E39AE20E940A0B62E083E24F
:105830000E94B30762E085E20E94B30762E084E25F
:105840000E94B30762E082E20E94B30783E991E11C
:105850008093BB2A9093BC2A81E490E18093C12A73
:105860009093C22A81EF9FE080939C2A90939D2A77
:105870008AED9FE08093A62A9093A72A81E196E083
:105880008093A42A9093A52A8BE79FE080937D2A9A
:1058900090937E2A84E69FE08093872A9093882ABB
:1058A00086E096E08093852A9093862A81E09FE0A7
:1058B00080935E2A90935F2A8AED9EE08093642A0B
:1058C0009093652A8DEC9AE20E940A0B86E39AE295
:1058D0000E94AC0A8BED9BE20E94AC0A0E949B04E2
:1058E000809106288823B1F18DEC9AE20E94AC0ADF
:1058F00089E190E00E942A0B82E290E08093FE28EA
:105900009093FF2888E190E08093002990930129EB
:105910008093022990930329809304299093052969
:105920008093F6289093F72884E090E08093F828FD
:105930009093F9281092FA281092FB2883E090E0C7
:105940008093FC289093FD2881E08093BE280E94DC
:105950008107BCCF1092CD2A1092D82A1092D92A52
:105960001092DA2A1092DB2A1092DC2A1092DD2A99
:1059700020E030E040EF52E46091EE287091EF2893
:105980008091F0289091F1280E94B53987FD5AC086
:1059900060E088E10E94160810929A2810929928D7
:1059A0001092BD28109298281092BC281092BE2800
:1059B0001092BF281092EE291092EF291092F02930
:1059C0001092F1291092502910921C2960E08CE06D
:1059D0000E94160860E08DE00E94160880913D2824
:1059E000882309F422C661E085E10E9416088BE055
:1059F00090E08093FE289093FF2881E190E08093CF
:105A000000299093012927E130E020930229309367
:105A100003294EE050E040930429509305294FE0BC
:105A200050E04093F6285093F7288093F8289093FD
:105A3000F9282093FA283093FB288093FC28909330
:105A4000FD2885CF85E20E943109109142288111FD
:105A50001CC084E20E943109811117C0111115C0C8
:105A60000E947A0960933E2870933F2880934028D3
:105A70009093412881E08093422880915029882387
:105A800009F453C00E94551562CF85E20E94310986
:105A9000882351F0112389F385E20E943109813076
:105AA000E9F510924228E9CF0091502984E20E9442
:105AB00031098111EFCF112301F30E947A09C090BF
:105AC0003E28D0903F28E0904028F09041286C1963
:105AD0007D098E099F09683B7B408105910568F22D
:105AE00084EF91E00E942A0B80911C298111C5CF7F
:105AF0000111C8CF8EE591E08093BA289093BB281E
:105B000081E0809350298093A4288093AD2885E07C
:105B100090E08093092890930A28AFCF84E20E94F6
:105B20003109813009F0A9CFBCCF10911C29123066
:105B300009F401C60CF04EC0112309F4F5C311306D
:105B400009F005CF1092BE281092BD2860E08DE1CB
:105B50000E94160861E08CE00E9416088091BA2825
:105B60009091BB2849970CF0C7C58091B928811145
:105B7000BCC588E190E08093FE289093FF28809335
:105B80000029909301298091BA289091BB28C3974E
:105B900024F01092BA281092BB288AE090E08093FB
:105BA000042990930529809116299091172924E6BC
:105BB000289FB001299F700D112480911829909180
:105BC0001929680F791F072E000C880B990B0E946A
:105BD000A003BDCE143009F4B8C60CF432C615309B
:105BE00009F0B5CEA0901229B09013296091142924
:105BF00070911529072E000C880B990B0E9405390E
:105C000020E030E040E251E40E946A386B017C0100
:105C1000B501BB0C880B990B0E9405399B01AC01A7
:105C2000C701B6010E9402382B013C0140927F2837
:105C300050928028609281287092822800913C299D
:105C400010913D2900937D2810937E28C09016293D
:105C5000D0901729C0929E28D0929F28E0901829B2
:105C6000F0901929E0929C28F0929D282CE32C9D1D
:105C7000C0012D9D900D11248E0D9F1D8093A22893
:105C80009093A32881E080939B286A2D83E790E07E
:105C90000E9403116091142985E790E00E9403118E
:105CA0006CE379E288E790E00E943C116C2D8DE76F
:105CB00090E00E9403116E2D82E890E00E94031193
:105CC00061E087E890E00E940311F0904F298091F5
:105CD0007C2881111BC0F110DBC620E030E040E2DF
