:020000040000FA
:1000000001C0D8C0112480914000882369F0282FB6
:1000100030E083FD03C02C7F232B31F4809340001C
:100020008CBB80E0AFD0ECC0A895009A089A1092E3
:10003000E205809182128370813029F58CE590E091
:10004000809308089093090881E080930B0883E06F
:10005000809307081092050880EC8093060888E0DA
:1000600091D0079A87E0815089F4A8950DE983E043
:10007000D82E7CD08134F1F479D0182F8CD012385E
:1000800089F480E013C083E790E0DACF179A2EEC72
:1000900036E5A8959091040897FDE8CF21503109E5
:1000A000C1F7E1CF89E0113809F083E058D080E151
:1000B00056D0DFCF823419F484E175D0F8CF85347F
:1000C00011F485E0FACF853531F450D0C82F4ED0E9
:1000D000D82F61D0ECCF863519F484E064D0D1CF2D
:1000E0008436B9F443D042D0182F40D0863479F406
:1000F000D05C3CD0888321961150D9F74CD004BFF6
:10010000D0920010809102108370E1F7D0CFDC5EB6
:10011000F0CF843791F42AD029D0182F27D0F82E89
:100120003AD086E4F81207C0D05C8881219617D0B7
:100130001150D9F7BCCFDC5EF8CF853751F42BD006
:10014000809100110CD08091011109D08091021191
:10015000ADCF813509F0BDCF81E014D0BACF9091F9
:10016000040895FFFCCF809302080895809104084D
:1001700087FFFCCF909101088091000892FD01C09B
:10018000A89508959091010190FDFCCF98ED94BF42
:10019000809300010895EADF803219F081E0F2DFF8
:1001A000FFCF84E1DCCFCF93C82FE0DFC150E9F768
:1001B000CF91F1CF683048F48DE984BF609300108F
:1001C000809102108370E1F70895FC014083089547
:1001FE00000950C0000076C0000074C0000072C03C
:10020E00000070C000006EC000006CC000000C94B6
:10021E00E82068C0000066C0000064C0000062C034
:10022E00000060C000005EC000005CC000005AC04C
:10023E00000058C0000056C0000054C0000052C05C
:10024E00000050C000004EC000004CC000004AC06C
:10025E00000048C000000C94C02044C0000042C002
:10026E00000040C000003EC000003CC000000C94E6
:10027E0092200C946C2036C0000034C0000032C0B6
:10028E00000030C000002EC000002CC000002AC0AC
:10029E0000007D2111241FBECFEFCDBFDFE3DEBFF7
:1002AE0018E2A0E0B8E2E6ECF3E702C005900D928A
:1002BE00A831B107D9F72BE2A8E1B8E201C01D922F
:1002CE00A93DB207E1F711E0C1E5D1E004C02197E5
:1002DE00FE010E94E638C035D107C9F70E94C82436
:1002EE000C94253986CF80918228882319F010929C
:1002FE008228089581E08093822808951092042820
:10030E00089580914E29882309F45EC080910928B2
:10031E0090910A288230910571F420914D29222363
:10032E0051F020914129309142292F5F3F4F209368
:10033E004129309342292091412930914229253D6E
:10034E003105A4F024ED30E0209341293093422969
:10035E002091432930914429253D3105CCF084ED7F
:10036E0090E0809343299093442908958830910515
:10037E0079F720914D29222359F320914329309169
:10038E0044292F5F3F4F2093432930934429E0CFD8
:10039E00880F991FFC01E55EF64D208131812F5F9C
:1003AE003F4F20833183DC01A258BC444D915C91B8
:1003BE00421753070CF08EC0885A9C44DC018D9175
:1003CE009C9180839183089580911A298130B1F494
:1003DE008091102990911129019680931029909364
:1003EE00112920910C2930910D29281739070CF06D
:1003FE0071C010921029109211290895823039F58A
:10040E00809112299091132901968A309105E4F476
:10041E00809312299093132980913A2990913B2928
:10042E00019680933A2990933B2920910A29309185
:10043E000B29281739070CF04DC080E290E080930D
:10044E003A2990933B29089589E090E0E1CF8330DB
:10045E0091F4809114299091152901968436910575
:10046E002CF4809314299093152908951092142931
:10047E00109215290895843091F480911629909147
:10048E00172901968C3391052CF48093162990939D
:10049E00172908951092162910921729089585305C
:1004AE00C9F4809109298823A9F08091082988230D
:1004BE0089F0809118299091192901968230910521
:1004CE002CF48093182990931929089510921829C5
:1004DE0010921929089580914E29882309F457C046
:1004EE008091092890910A288230910571F420910B
:1004FE004D29222351F0209141293091422921503A
:10050E00310920934129309342292091412930917C
:10051E00422920323105A4F420E230E02093412913
:10052E0030934229209143293091442920323105BC
:10053E00CCF480E290E0809343299093442908956F
:10054E008830910579F720914D29222359F3209176
:10055E004329309144292150310920934329309366
:10056E004429E0CF880F991FFC01E55EF64D2081EE
:10057E003181215031092083318337FF8CC0825D58
:10058E009C44DC018D919C91808391830895809190
:10059E001A298130A1F48091102990911129019787
:1005AE00809310299093112997FF75C080910C2983
:1005BE0090910D29809310299093112908958230DE
:1005CE0099F580914D29811109C080911229909140
:1005DE001329019780931229909313298091122940
:1005EE009091132997FF16C089E090E0809312290D
:1005FE009093132980913A2990913B2980970CF082
:10060E004AC080910A2990910B2980933A299093A0
:10061E003B29089580913A2990913B290197809327
:10062E003A2990933B29E6CF833079F480911429AF
:10063E0090911529019797FD05C0809314299093E9
:10064E001529089583E690E0F8CF843079F48091EF
:10065E00162990911729019797FD05C080931629A9
:10066E009093172908958BE390E0F8CF853099F495
:10067E0080910929882379F080910829882359F0DF
:10068E008091182990911929019797FD05C08093A3
:10069E00182990931929089581E090E0F8CFCF9210
:1006AE00DF92EF92FF926B0128EE33E040E050E0D4
:1006BE000E94CA38E0EFF8E22083318368EE73E0DF
:1006CE00629FC001639F900D729F900D1124C81AF6
:1006DE00D90AC60164E670E00E949538628373837E
:1006EE002CE92603C001279F900D1124C80ED91E98
:1006FE00C6016AE070E00E9495386483758326EF28
:10070E002603C001279F900D1124C80ED91EC68244
:10071E00D782FF90EF90DF90CF900895CF92DF9227
:10072E00EF92FF926B0128EE33E040E050E00E9422
:10073E00CA38E8EEF8E22083318368EE73E0629FF8
:10074E00C001639F900D729F900D1124C81AD90A93
:10075E00C60164E670E00E949538628373832CE9CB
:10076E002603C001279F900D1124C80ED91EC60165
:10077E006AE070E00E9495386483758326EF260345
:10078E00C001279F900D1124C80ED91EC682D78294
:10079E00FF90EF90DF90CF9008954F925F926F92FF
:1007AE007F928F929F92AF92BF92CF92DF92EF92F3
:1007BE00FF9220E030E040E251E460910429709114
:1007CE00052980910629909107290E94E3362091F0
:1007DE00E728211190586093E3287093E4288093C2
:1007EE00E5289093E628F090E228FF2009F455C002
:1007FE002091E3283091E4284091E5285091E62895
:10080E006091FC287091FD288091FE289091FF2820
:10081E000E947B366093DE287093DF288093E02859
:10082E009093E1288091D3289091D428892B09F0B8
:10083E007EC0FF2009F450C06091DE287091DF2841
:10084E008091E0289091E12860930029709301290E
:10085E00809302299093032926E636E646EE5FE35F
:10086E000E94323820E030E040E052E40E947B36B5
:10087E006093CF287093D0288093D1289093D2285C
:10088E00FF90EF90DF90CF90BF90AF909F908F90A2
:10089E007F906F905F904F9008958091DD28882310
:1008AE0009F22091E3283091E4284091E5285091F7
:1008BE00E6286091D9287091DA288091DB289091F2
:1008CE00DC280E947B366093D5287093D6288093BF
:1008DE00D7289093D828A6CF8091DD28882381F23F
:1008EE00C090D528D090D628E090D728F090D82860
:1008FE0020E030E040E052E4C701B6010E947A36B3
:10090E0026E636E646EE5FE30E94E3366093002964
:10091E00709301298093022990930329C092CF28C6
:10092E00D092D028E092D128F092D228A9CF60910F
:10093E00CB287091CC288091CD289091CE280E9402
:10094E007E3720E030E040E251E40E94E3364B0176
:10095E005C016091C3287091C4288091C528909144
:10096E00C6280E947E3720E030E040E251E40E942B
:10097E00E3366B017C016091BF287091C028809195
:10098E00C1289091C2280E947E3720E030E040E2DC
:10099E0051E40E94E336A70196010E947A362B019C
:1009AE003C01A50194016091FC287091FD28809175
:1009BE00FE289091FF280E947A369B01AC01C3015C
:1009CE00B2010E9432382B013C016091C728709110
:1009DE00C8288091C9289091CA280E947E3720E0AD
:1009EE0030E040E251E40E94E336A50194010E94FA
:1009FE007A369B01AC01C301B2010E94E336A70116
:100A0E0096010E947B366B017C01C0920029D09228
:100A1E000129E0920229F092032926E636E646EEF7
:100A2E005FE30E94323820E030E040E052E40E9462
:100A3E007B366093CF287093D0288093D1289093E3
:100A4E00D22820E030E048EC52E4C701B6010E9403
:100A5E002E3887FD15CF8DEC9CECA7ECB2E480937D
:100A6E00002990930129A0930229B093032908CF5E
:100A7E008091A528811106C010929F281092A0285F
:100A8E0010929D280895F4CFAF92BF92CF92DF922D
:100A9E00EF92FF920F931F93CF93DF936C017B0125
:100AAE008B01040F151FEB015E01AE18BF08C017B6
:100ABE00D10759F06991D601ED91FC910190F08129
:100ACE00E02DC6010995892B79F7C501DF91CF91EC
:100ADE001F910F91FF90EF90DF90CF90BF90AF904E
:100AEE000895FC01508D418D252F30E0842F90E02C
:100AFE00821B930B541710F0CF960895019708950B
:100B0E00FC0196898789981761F0A789AE0FBF2FD0
:100B1E00B11D5D968C9197899F5F9F73978B90E027
:100B2E0008958FEF9FEF0895FC0196898789981796
:100B3E0031F08789E80FF11D858D90E008958FEFD4
:100B4E009FEF0895FC0196892789892F90E0805C9C
:100B5E009F4F821B91098F73992708958FE499E215
:100B6E00F1DF21E0892B09F420E0822F0895CF9345
:100B7E00DF93EC01E881F9810680F781E02D09957C
:100B8E00EC85FD8586818F738683EC85FD85858159
:100B9E008F7585838F898E8B1D8ADF91CF910895F6
:100BAE00FC01613019F4648B81E00895148A662388
:100BBE00D9F380E00895DC0154961C925497549614
:100BCE008C9154978230A0F4282F30E0F901EE0F6B
:100BDE00FF1FE20FF31FEA0FFB1F9785961303C04B
:100BEE009685941749F08F5F54968C935497E7CF60
:100BFE0054961C9280E0089581E00895CF93DF9380
:100C0E00FC01908D818DC485D585981306C08D818C
:100C1E008F7D8D83DF91CF910895A18DAE0FBF2F64
:100C2E00B11DA35ABF4F2C91818D90E001968F7309
:100C3E009927818F80E48C83A485B58512962C9399
:100C4E00908D818D9813E6CFA485B58515968C91E0
:100C5E0015978F7D15968C93838D8823D9F2848D6D
:100C6E0080931301138ED6CFDC011C96ED91FC916F
:100C7E000FB607FE03C0258125FD03C0248125FD87
:100C8E00BDCF0895EF92FF920F931F93CF93DF93F3
:100C9E00EC0181E08D8B988D898D98131CC0AC85ED
:100CAE00BD8514968C91149785FF15C012966C9382
:100CBE00AC85BD8580E414968C93EC85FD8585818D
:100CCE008F7D858381E090E0DF91CF911F910F9111
:100CDE00FF90EF9008958091110180FF08C08091E0
:100CEE0013018C8F8A8D8093130181E08B8FF62EEA
:100CFE00088D10E00F5F1F4F0F731127E02E898DA7
:100D0E008E1103C0CE01B0DFFACFE88DEC0FFD2FB0
:100D1E00F11DE35AFF4FF082088FEC85FD8585812A
:100D2E008062CFCFCF93DF93FC0125892223C1F0C0
:100D3E00EC018091110180FF08C080911301848F16
:100D4E00828D8093130181E0838FEC85FD858581F3
:100D5E0085FD03C0848186FD03C0CE0185DFF5CFFE
:100D6E00DF91CF91089580E090E0892B49F080E0EB
:100D7E0090E0892B29F00E94000081110E94000052
:100D8E0080E090E0892B49F080E090E0892B29F0FB
:100D9E000E94000081110E94000080E090E0892BEB
:100DAE0021F0DCDE81110E94000080E090E0892BB2
:100DBE0049F080E090E0892B29F00E94000081111B
:100DCE000C940000089581E00895CF93DF9390E096
:100DDE00FC01EB5FFC4420812F3F69F0FC01E452E3
:100DEE00FD44A08130E2A39FD0011124BC5F61308D
:100DFE0029F411962C93DF91CF9108958D549D4433
:100E0E00EC01E881EF3F81F0CD014096E80FF92F1C
:100E1E00F11D9FB7F89412962C938081623039F4AD
:100E2E00886080839FBFE7CFF0E0E0E0F2CF877F5E
:100E3E00F8CF893208F4C9CF089590E0FC01E65747
:100E4E00FD44E081EE2319F1E13021F000F1E630AE
:100E5E00A8F008958D549D44FC012081233008F0A4
:100E6E002F5F3091010A81E090E001C0880F2A9532
:100E7E00EAF7809583238093010A089580E1E89F25
:100E8E00F0011124E05AF54F81818F7E8183089500
:100E9E000F931F93CF93DF93C82FD0E0FE01EB5F2C
:100EAE00FC4400810F3F99F0162F893208F4C5DFFC
:100EBE00FE01E452FD44E08180E2E89FF00111243E
:100ECE00FC5F8081802351F0111106C00683DF91F3
:100EDE00CF911F910F9108950583F9CFCD54DD4425
:100EEE008881309771F08F3F61F07096E80FF11D99
:100EFE009FB7F8948081111107C0877F80839FBFB1
:100F0E00E6CFF0E0E0E0F4CF8860F8CF893208F465
:100F1E00BFCF08950F931F93CF93DF93EC01162F3E
:100F2E00072F82E390E08E839F8360E0812F81DF25
:100F3E001883098388E592E08A839B8388EE93E089
:100F4E008C839D83198E1A8E1C8681E090E0888793
:100F5E0099871A861B8661E0812FD8DF1F86188A33
:100F6E00198A1A8A1B8A1C8A1D8A1E8A1F8A188E43
:100F7E00DF91CF911F910F91089561E08BE0C6DF55
:100F8E0061E08AE0C3DF61E089E0C0DF61E088E014
:100F9E00BDCF61E087E0BADF61E086E0B7DF61E0F8
:100FAE0085E0B4DF61E084E0B1CFAF92BF92CF9223
:100FBE00DF92EF92FF920F931F93CF93DF93EC018B
:100FCE006A017B01A22E8D89882339F0E881F9818F
:100FDE000688F789E02DCE0109950C8910E0BFB681
:100FEE00F89460E070E281EA97E0A70196010E9412
:100FFE00A83869017A018FEFC81AD80AE80AF80AE8
:10100E00F694E794D794C794EC85FD8586818D7F01
:10101E008683EC85FD85868186831D8AA0912311AA
:10102E000A2E000CBB0BA70196010E94FC3820E093
:10103E0034E040E050E00E94CA38EC85FD85C20ED7
:10104E00D31EE41EF51EC086D186EC85FD85A782D3
:10105E00EC85FD858681806C8683EC85FD8585819A
:10106E00806885839091E2058B898095892398010C
:10107E00220F331F020F131FC00FD11F9889892B08
:10108E008093E20562E08E85D4DE61E08F853EDFDF
:10109E0061E08F85CEDEBFBEDF91CF911F910F91A4
:1010AE00FF90EF90DF90CF90BF90AF90089561E0EA
:1010BE008AE1EEDE61E08DE1EBDE61E08CE1E8DEFF
:1010CE0061E08BE1E5CE0F931F93CF93082F10E0D5
:1010DE00F801EB5FFC44C081CF3F81F0893208F408
:1010EE00ACDEF801E452FD44E08180E2E89FF001BD
:1010FE001124FC5F8085C82381E009F480E0CF9144
:10110E001F910F9108958FB7F8942091392830913F
:10111E003A2840913B2850913C28E091AA0AF09140
:10112E00AB0A9091A60A90FF08C02F5F3F4F4F4F1A
:10113E005F4FE091AA0AF091AB0A8FBFA8EEB3E021
:10114E000E94F23824E0F695E7952A95E1F76E0FA6
:10115E007F1F811D911D08952FB7F8946091392836
:10116E0070913A2880913B2890913C282FBF08958A
:10117E004F925F926F927F928F929F92AF92BF9299
:10118E00CF92DF92EF92FF921F93CF93DF938091D6
:10119E004E29811126C18091002990910129A0919B
:1011AE000229B09103298093702A9093712AA093FB
:1011BE00722AB093732A11E080918E2A90918F2A11
:1011CE00019709F010E06091A22A7091A32A8091F4
:1011DE00A42A9091A52A0E947C3720E030E04AE7AD
:1011EE0054E40E94E3364B015C012AE037ED43E202
:1011FE005CE30E9432386B017C01C0918C2AD09145
:10120E008D2A20E030E04CE452E46091682A70911F
:10121E00692A80916A2A90916B2A0E94DF3687FF95
:10122E00E9C080E090E0A8ECB1E480930B289093A5
:10123E000C28A0930D28B0930E283AE0432E37EDDC
:10124E00532E33E2632E3CE3732E40920F285092BE
:10125E001028609211287092122840E050EC61EC38
:10126E0074E44093132850931428609315287093B8
:10127E0016281093AF2A8093742A9093752AA09300
:10128E00762AB093772A4092782A5092792A6092E1
:10129E007A2A70927B2A40937C2A50937D2A6093FF
:1012AE007E2A70937F2A8093802A9093812AA0931E
:1012BE00822AB093832AC092842AD092852AE09201
:1012CE00862AF092872AA501940160E070EC81ECE9
:1012DE0094E40E94E3364B015C018092882A90923E
:1012EE00892AA0928A2AB0928B2A219751F580E002
:1012FE0090E0A8ECB1EC8093802A9093812AA09381
:10130E00822AB093832AA701960160E070E0CB0198
:10131E000E947A366093842A7093852A8093862A57
:10132E009093872AA501940160E070E0CB010E94A2
:10133E007A366093882A7093892A80938A2A9093AA
:10134E008B2A0ADFC090F828D090F928E090FA286E
:10135E00F090FB28AB01BC014C195D096E097F09A9
:10136E00493E53406105710570F0D701C6018851A1
:10137E009C4FAF4FBF4F8093F8289093F928A093BE
:10138E00FA28B093FB28E8DEC090F828D090F92810
:10139E00E090FA28F090FB286C197D098E099F09C0
:1013AE000E947C3720916C2A30916D2A40916E2AD2
:1013BE0050916F2A0E942E3818160CF074C060E0FF
:1013CE0088E1DF91CF911F91FF90EF90DF90CF904A
:1013DE00BF90AF909F908F907F906F905F904F9047
:1013EE0057CD8091FC289091FD28A091FE28B091B8
:1013FE00FF28D9CE80E090E0A8ECB1E480930B28D2
:10140E0090930C28A0930D28B0930E282AE0422E1C
:10141E0027ED522E23E2622E2CE3722E40920F28DD
:10142E0050921028609211287092122840E050E8D5
:10143E006BEB74E440931328509314286093152893
:10144E00709316281093AF2A8093742A9093752A5E
:10145E00A093762AB093772A4092782A5092792ACE
:10146E0060927A2A70927B2A40937C2A50937D2A2E
:10147E0060937E2A70937F2A8093802A9093812A8C
:10148E00A093822AB093832AC092842AD092852A6E
:10149E00E092862AF092872AA501940160E070E816
:1014AE008BEB94E416CF2091682A3091692A4091F3
:1014BE006A2A50916B2A6091702A7091712A8091DC
:1014CE00722A9091732A0E942E3887FF78CF61E09E
:1014DE0077CF0F931F93CF93DF93FC0120812223AD
:1014EE0009F450C0EC01818592850197B9F534DE7F
:1014FE000B891C892D893E89601B710B820B930B06
:10150E0009811A812B813C8160177107820793072D
:10151E00C8F122DE6B8B7C8B8D8B9E8B8B859C8595
:10152E00AD85BE854D815E816F817885481B590BD7
:10153E006A0B7B0B413051056105710509F4188268
:10154E000196A11DB11D8B879C87AD87BE87E9894A
:10155E00FA89DF91CF911F910F910994D4DD0B89F8
:10156E001C892D893E89601B710B820B930B09819F
:10157E001A812B813C81601771078207930710F047
:10158E00C2DDC8CFDF91CF911F910F910895CF93F8
:10159E00DF93FC0121893289232BA1F0EC01818597
:1015AE009285019791F4D8DD6B8B7C8B8D8B9E8B06
:1015BE0081E088831B861C861D861E8681E090E056
:1015CE008F87988BDF91CF9108959DDDEDCFDC0154
:1015DE00BC01990F880B990B2091912B3091922B76
:1015EE00232B21F428EE33E00E94EC386093892BF4
:1015FE0070938A2B80938B2B90938C2B61E085E1DB
:10160E0047DC88E89BE2C3CFCF92DF92EF92FF9246
:10161E000F931F93CF93DF93EC0188818932F8F4F7
:10162E0052DD082F10E098DD298D3A8D21153105F8
:10163E00C1F42A853B852017310741F421E030E0C3
:10164E00298F3A8F6B8F7C8F8D8F9E8FDF91CF91ED
:10165E001F910F91FF90EF90DF90CF90089580E053
:10166E00E0CF2130310509F051C02885398520178A
:10167E003107E9F40B8D1C8D2D8D3E8DAB01BC0118
:10168E00401B510B620B730B8E819F81092E000C38
:10169E00AA0BBB0B481759076A077B0718F4198E5C
:1016AE001A8ED4CF82E090E0898F9A8FCFCF2A8581
:1016BE003B852017310751F60B8D1C8D2D8D3E8DE0
:1016CE00AB01BC01401B510B620B730B8C819D81D6
:1016DE00092E000CAA0BBB0B84179507A607B7079C
:1016EE0008F0B4CF81E08C87E989FA89309709F048
:1016FE000995EB89FC89309709F00995EF89F88DEA
:10170E00309709F0099586E090E0CECF2230310572
:10171E0019F5CB8CDC8CED8CFE8C6C197D098E0949
:10172E009F09CA80DB800D2C000CEE08FF08C61640
:10173E00D706E806F90638F4ED85FE85309709F4EC
:10174E00AECF0995ACCF8A859B858017910709F09E
:10175E007DCF83E090E0A8CF2330310549F4888512
:10176E0099858017910709F071CFEF85F889E6CF3B
:10177E002630310509F06ACF888599858017910743
:10178E0021F41C86ED89FE89D9CF81E08C87EF8903
:10179E00F88D309709F45ACFDF91CF911F910F91A9
:1017AE00FF90EF90DF90CF9009948091A528811142
:1017BE0022C080914E29811116C080911A29811163
:1017CE000BC010924A2881E090E0809309289093F4
:1017DE000A2888EC90E0FBCE10921A2910929A28D3
:1017EE0010929B28F6CF809149288111109249289A
:1017FE0010924E29EECF08958091A52881115EC0DA
:10180E0020914D298091092890910A28211103C019
:10181E008830910529F0AC014D7F4C305105B9F55A
:10182E0001978093092890930A2880914E2981115F
:10183E002BC080911A292223D9F18230C9F510923A
:10184E001A2980911A298530F9F420E030E040E819
:10185E005FE36091AB287091AC288091AD28909198
:10186E00AE280E942E3887FD0FC08091A7288823AE
:10187E0059F01092AB281092AC281092AD2810920D
:10188E00AE2881E08093A72882E390E0A0CE8B3033
:10189E00910511F00D9721F481E08093A828C5CF12
:1018AE008091A828882309F4C0CF1092A828BDCF14
:1018BE008150843030F680931A29C3CF08958091D9
:1018CE00A528811112C080914F2881110EC081E090
:1018DE0080939D28809134288F5F8093342889319E
:1018EE0024F00E9472021092342808958091A52847
:1018FE00811154C080914E29882309F44DC08091E6
:10190E00A828811149C08091092890910A28209118
:10191E004928211119C001968093092890930A280D
:10192E0020910829222339F00597C4F11092092835
:10193E0010920A28089505978CF181E090E080932B
:10194E00092890930A2808958630910519F488E0A5
:10195E0090E0F5CF2091AF288930910539F48BE0D6
:10196E0090E02111ECCF80E190E0E9CF211106C08B
:10197E00893091054CF080319105ACF380319105A1
:10198E0019F481E190E0DBCF813191051CF085E007
:10199E0090E0D5CF0196D3CF0C947202089580912A
:1019AE00A528811112C080914F2881110EC081E0AF
:1019BE0080939D28809134288F5F809334288931BD
:1019CE0024F00E9488011092342808958091A52851
:1019DE00811126C080914E29882309F43FC0809141
:1019EE00A82881113BC08091092890910A28209146
:1019FE004928211116C001978093092890930A282F
:101A0E0020910829222349F097FF0AC084E090E034
:101A1E008093092890930A28089518161906B4F78A
:101A2E0008958830910519F486E090E0F1CF8B305F
:101A3E00910519F489E090E0EBCF8131910519F40D
:101A4E0080E190E0E5CF80319105A1F386309105DC
:101A5E001CF481E190E0DCCF0197DACF0C94880181
:101A6E008091A528811125C080911A29811117C056
:101A7E0080914E29811113C08EE591E080939F28AD
:101A8E009093A02880910829882361F0109209284C
:101A9E0010920A2881E080934E2980934A2888EC80
:101AAE0090E095CD81E090E08093092890930A28EC
:101ABE00F1CF0895DC01ED91FC910488F589E02DBC
:101ACE0023E030E00994E8E8FBE2108213861486E6
:101ADE00158616861786108A60E085E1D9C982E5DB
:101AEE009BE255DD61E085E1D3C960E085E1D0D9A7
:101AFE008091A928882349F08091B6289091B72823
:101B0E0001968093B6289093B7288091B82890912B
:101B1E00B92801968093B8289093B928089560E06B
:101B2E008AE1B6D987E39BE232CD61E08AE1B0D992
:101B3E008091B0288F5F8093B02808958F929F92E6
:101B4E00AF92BF92CF92DF92EF92FF92CF93DF933D
:101B5E00C0912428D09125282196C0932428D09373
:101B6E00252881E0809306068093080680910B0657
:101B7E0080FFFCCF6091100670911106072E000CAD
:101B8E00880B990B0E947E372091202830912128B6
:101B9E0040912228509123280E947B366B017C01B4
:101BAE00C0922028D0922128E0922228F092232859
:101BBE006091002870910128C617D7070CF476C0E3
:101BCE00072E000C880B990B0E947E379B01AC01EF
:101BDE00C701B6010E94E336609320287093212836
:101BEE00809322289093232820E030E040EA50E4AE
:101BFE000E94323820E030EC4FE754E40E94E33686
:101C0E0020E030E040E251E40E94E33628EB3FE86A
:101C1E0040E65FE30E947B366B017C0120E030E002
:101C2E004BEE53E40E9432384B015C01A701960142
:101C3E0060E070E080EA90E40E947A369B01AC018D
:101C4E00C501B4010E94E33620E030E048EC52E4D6
:101C5E000E94E33620E030E040E85FE30E947A36EF
:101C6E0028E430E54CE75BE30E94E3366093FC2802
:101C7E007093FD288093FE289093FF2826E636E683
:101C8E0046EE5FE30E94323820E030E040E052E45E
:101C9E000E947B366093D9287093DA288093DB28D4
:101CAE009093DC28109224281092252882E390E04D
:101CBE008093002890930128DF91CF91FF90EF90B1
:101CCE00DF90CF90BF90AF909F908F900895CF935D
:101CDE00DF93C0911E28D0911F282196C0931E28F5
:101CEE00D0931F281092060681E0809308068091FB
:101CFE000B0680FFFCCF6091100670911106072E27
:101D0E00000C880B990B0E947E3720911A28309177
:101D1E001B2840911C2850911D280E947B366997E4
:101D2E005CF460931A2870931B2880931C28909360
:101D3E001D28DF91CF91089520E030E048EC51E46A
:101D4E000E94E33660931A2870931B2880931C28F8
:101D5E0090931D2810921E2810921F28EACF3F92B2
:101D6E004F925F926F927F928F929F92AF92BF929D
:101D7E00CF92DF92EF92FF920F931F93CF93DF9349
:101D8E00CDB7DEB72E97CDBFDEBF8091AE2A8823AA
:101D9E0009F429C1E1D96D837E838F839887809161
:101DAE00962A9091972AA091982AB091992A4D81BE
:101DBE005E816F817885481B590B6A0B7B0B809176
:101DCE00A22A9091A32AA091A42AB091A52A4817DD
:101DDE0059076A077B0708F406C1E091902AF09133
:101DEE00912A80819181A281B38189839A83AB8369
:101DFE00BC83E091942AF091952A9C01AD016081FB
:101E0E007181828193810E947A364B015C0120910F
:101E1E009E2A30919F2A4091A02A5091A12A698131
:101E2E007A818B819C810E947A366B017C01209194
:101E3E00842A3091852A4091862A5091872AC5019D
:101E4E00B4010E94323820919A2A30919B2A4091F7
:101E5E009C2A50919D2A0E947B362B013C01409278
:101E6E009A2A50929B2A60929C2A70929D2A3090B8
:101E7E00AF2A31101AC02091802A3091812A4091C8
:101E8E00822A5091832AC701B6010E9432389B01E3
:101E9E00AC01C301B2010E947A3660939A2A709304
:101EAE009B2A80939C2A90939D2A40909A2A509028
:101EBE009B2A60909C2A70909D2A1091AA2A90913C
:101ECE00AB2A9E87A091AC2AAD870091AD2A212F17
:101EDE00392F4A2F502FC301B2010E942E381816E7
:101EEE000CF096C0812F9E85AD85B02F80939A2AD7
:101EFE0090939B2AA0939C2AB0939D2A332009F499
:101F0E00A0C02091802A3091812A4091822A50913E
:101F1E00832AC501B4010E9432384B015C01209125
:101F2E00882A3091892A40918A2A50918B2AC7019A
:101F3E00B6010E9432389B01AC0160919A2A7091D1
:101F4E009B2A80919C2A90919D2A0E947A36A50107
:101F5E0094010E947B366B017C019B01AC01612FC9
:101F6E007E858D85902F0E94DF3687FD18C01091DB
:101F7E00A62A9091A72A9E87A091A82AAD870091A4
:101F8E00A92A212F392F4A2F502FB601C7010E949F
:101F9E00DF3687FD04C01C2DDE86ED860F2DE09109
:101FAE00922AF091932A812F9E85AD85B02F808342
:101FBE009183A283B38389819A81AB81BC81809303
:101FCE009E2A90939F2AA093A02AB093A12A8D8136
:101FDE009E81AF81B8858093962A9093972AA0937D
:101FEE00982AB093992A2E96CDBFDEBFDF91CF915E
:101FFE001F910F91FF90EF90DF90CF90BF90AF9019
:10200E009F908F907F906F905F904F903F9008952C
:10201E008091A62A9091A72AA091A82AB091A92AC8
:10202E0089879A87AB87BC879C01AD01C301B2013A
:10203E000E94DF3687FF62CF89859A85AB85BC8586
:10204E0055CF812C912C54016ACFFC018081918156
:10205E00FC01FF2790FD06C080E094E1E82BF92BF0
:10206E008081089580E093E1F9CFEF92FF920F9374
:10207E001F93CF93DF9300D0CDB7DEB78C017B01DA
:10208E0089839A83CE010196E0DFF70180830F5F8B
:10209E001F4F09831A83CE010196D7DFF701818383
:1020AE00C7010F900F90DF91CF911F910F91FF906D
:1020BE00EF900895AF92BF92CF92DF92EF92FF9280
:1020CE000F931F93CF93DF9300D0CDB7DEB78B0165
:1020DE006B0124E0C20ED11C7B015C01A61AB70A6B
:1020EE00C5018E0D9F1D89839A83CE010196ADDFAA
:1020FE00F70181937F01EC15FD0591F7C8010F9053
:10210E000F90DF91CF911F910F91FF90EF90DF9085
:10211E00CF90BF90AF900895CF93DF9300D0CDB7FF
:10212E00DEB789839A83CE0101968FDF0F900F90D1
:10213E00DF91CF910895FC01FF2790FD12C080E042
:10214E0094E1E82BF92B60838FB7F8949DE923E097
:10215E0094BF209300108FBF8091021081FDFCCFA1
:10216E00089580E093E1EDCFE6CF1F93CF93DF93F9
:10217E00EC01162F6ADF811721F0612F888199817A
:10218E00DADFCE01DF91CF911F910895EF92FF928A
:10219E000F931F93CF93DF9300D0CDB7DEB784E0BC
:1021AE00E82E89E2F82E06E410E009831A83F7017F
:1021BE0061917F01CE010196D8DF0F5F1F4F0A3468
:1021CE00110599F784E099E20F900F90DF91CF916E
:1021DE001F910F91FF90EF900895AF92BF92CF9203
:1021EE00DF92EF92FF920F931F93CF93DF9300D066
:1021FE00CDB7DEB78B016B0124E0C20ED11C7B0183
:10220E005C01A61AB70AC5018E0D9F1D89839A839C
:10221E00F70161917F01CE010196A7DFEC14FD0459
:10222E0091F7C8010F900F90DF91CF911F910F91F1
:10223E00FF90EF90DF90CF90BF90AF900895EF9208
:10224E00FF920F931F93CF93DF9300D0CDB7DEB7DE
:10225E008C017B0189839A83FB016081CE010196FB
:10226E0084DF0F5F1F4F09831A83F7016181CE014F
:10227E0001967BDFC7010F900F90DF91CF911F91D9
:10228E000F91FF90EF9008952F923F924F925F9291
:10229E006F927F928F929F92AF92BF92CF92DF9268
:1022AE00EF92FF920F931F93CF93DF9300D01F9265
:1022BE00CDB7DEB78091A528811158C010929D2808
:1022CE0080914E2981116AC010929F281092A028E9
:1022DE0080911A29843031F420919A2830919B28CC
:1022EE00232B51F090914D29992309F455C081115A
:1022FE0053C082E080931A2980911A2985300CF4FC
:10230E006AC380910829882301F185E080931A29F8
:10231E0080910929882309F45AC3109209298091C2
:10232E000929811112C061E0809118299091192913
:10233E00892B09F460E060939C2890E080E014DF24
:10234E0080911A2985300CF446C30091B328109160
:10235E00B428101611060CF43EC388EE93E037D95C
:10236E000F5F1F4F0093B3281093B4282396CDBF51
:10237E00DEBFDF91CF911F910F91FF90EF90DF9015
:10238E00CF90BF90AF909F908F907F906F905F9007
:10239E004F903F902F9008958F5FACCF00910928FA
:1023AE0010910A288091A828811102C180919C2841
:1023BE0090E080931B2990931C2920914D292B830B
:1023CE00822F90E080931D2990931E298091A3283F
:1023DE0090E080932329909324298091082990E0FE
:1023EE008093252990932629211199C080910C293B
:1023FE0090910D2980931F29909320298091D328A5
:10240E009091D4288093272990932829C090FC2856
:10241E00D090FD28E090FE28F090FF28C701B6016D
:10242E000E944B374B0120E030E040E251E4C701FF
:10243E00B6010E9432380E944B372B01CB016AE065
:10244E0070E00E9495381C018B8181117EC020E0C6
:10245E0030E048EC52E4C701B6010E94DF3687FF38
:10246E0067C08092292990922A2940923228509250
:10247E00332820922B2930922C298091022890917A
:10248E00032880932D2990932E29809231299092A2
:10249E00322920923329309234290C30110509F05B
:1024AE006DC0C0922A28D0922B28E0922C28F09250
:1024BE002D2820E030E048EC52E4C701B6010E941E
:1024CE00DF3687FF68C08092352990923629209298
:1024DE003729309238298091632890E08093212902
:1024EE00909322290131110521F410923D2810926A
:1024FE003E282B81211109C00830110531F487E0E7
:10250E0090E08093092890930A2881E08093A82870
:10251E008AE190E080939F289093A028EDCE809141
:10252E000A2990910B29809341299093422966CFD5
:10253E0083E690E08093292990932A2989E090E000
:10254E0080932B2990932C2998CF4090D928509086
:10255E00DA286090DB287090DC28C301B2010E945B
:10256E004B37609343297093442940922E28509202
:10257E002F2860923028709231287FCF0E301105AF
:10258E0009F097CFC0922628D0922728E0922828CB
:10259E00F09229288ECF83E690E080933529909390
:1025AE00362989E090E0809337299093382993CF8C
:1025BE000F30110508F5F801E951FD4E0C94E6387F
:1025CE00F61223133013CF144D135A13671303133C
:1025DE007213221430140313491403135A1461E0B6
:1025EE0080911B2990911C29892B09F460E060933E
:1025FE009C2890E080E0B8DD8091092890910A280F
:10260E0020914D29211103C08730910561F09C0165
:10261E002D7F2930310539F08D30910521F0813132
:10262E00910509F0C7C121E02093A8280196809357
:10263E00092890930A286CCF61E080911D29909112
:10264E001E29892B09F460E060934D2981E090E00A
:10265E00D2CF80914D2981110BC060911F2980919D
:10266E00202960930C2980930D2982E090E0C3CF3E
:10267E00809141299091422980930A2990930B29A8
:10268E006AE079E283E090E0DADDB6CF61E0809136
:10269E00232990912429892B09F460E06093A328C3
:1026AE008FE090E061DD61E08091252990912629EF
:1026BE00892B09F460E06093082986E990E09BCFAE
:1026CE0060912729809128296093D3288093D4285C
:1026DE0085E090E090CF80914D29811187C0609167
:1026EE002B2970912C29072E000C880B990B0E9418
:1026FE007E3720E030E040E251E40E94E3366B0189
:10270E007C016091292970912A29072E000C880BD3
:10271E00990B0E947E379B01AC01C701B6010E9446
:10272E007B3620E030E040E251E40E9432386B010B
:10273E007C016091322870913328072E000C880B93
:10274E00990B0E947E379B01AC01C701B6010E9416
:10275E007A3620E030E040E251E40E94E3366093A6
:10276E00E3287093E4288093E5289093E62881E08F
:10277E008093E2281092DD288090E3289090E42840
:10278E00A090E528B090E62820E030E040E251E449
:10279E00C501B4010E9432386B017C0120E030E0AB
:1027AE00A901C501B4010E94DF3687FF41C081E057
:1027BE008093E728F7FAF094F7F8F094C092042982
:1027CE00D0920529E0920629F0920729DFDC60916C
:1027DE00E72887E090E0C8DC6091E22888E090E08E
:1027EE00C3DC6091DD2889E090E005CF609143293C
:1027FE0070914429072E000C880B990B0E947E378E
:10280E0020912E2830912F28409130285091312838
:10281E000E947A366093E3287093E4288093E5282B
:10282E009093E6281092E22881E08093DD28A4CFD1
:10283E001092E728C3CF80912D2990912E29809355
:10284E000228909303280A9680932F29909330297B
:10285E00D3CE80912F299091302980934328909345
:10286E0044288091FC289091FD28A091FE28B091DB
:10287E00FF2880932A2890932B28A0932C28B0937E
:10288E002D28BACE8091FC289091FD28A091FE288B
:10289E00B091FF288093262890932728A09328286C
:1028AE00B0932928A9CE20E030E040E251E46091B7
:1028BE002A2870912B2880912C2890912D280E94E7
:1028CE0032380E944B376093CB287093CC2880937C
:1028DE00CD289093CE2820E030E040E251E4609184
:1028EE0026287091272880912828909129280E94C7
:1028FE0032380E944B376093C7287093C828809354
:10290E00C9289093CA286BEC78E280E590E065DCEC
:10291E0067EC78E28AE590E060DC20E030E040E2AF
:10292E0051E46091452870914628809147289091F6
:10293E0048280E9432380E944B376093C328709308
:10294E00C4288093C5289093C62820E030E040E24A
:10295E0051E460913F2870914028809141289091D8
:10296E0042280E9432380E944B376093BF287093E2
:10297E00C0288093C1289093C22863EC78E284E645
:10298E0090E02BDC6FEB78E28EE690E026DC34CE26
:10299E0061E08091212990912229892B09F460E030
:1029AE006093632881E490E089839A83CE01019637
:1029BE00DCDB22CE9C012B7F1092A8282A30310519
:1029CE0009F434CE8C30910509F0A2CD2FCE81E0E2
:1029DE0080930929A4CC82E390E00E94EE0AC6CC33
:1029EE002F923F924F925F926F927F928F929F9211
:1029FE00AF92BF92CF92DF92EF92FF920F931F93FF
:102A0E00CF93DF93C0911A29C23009F400C6CCF4DB
:102A1E00CC2309F480C3C13009F47AC5DF91CF917C
:102A2E001F910F91FF90EF90DF90CF90BF90AF90DE
:102A3E009F908F907F906F905F904F903F902F90D0
:102A4E000895C43009F4E6C60CF460C6C53031F7FB
:102A5E00C0901029D09011296091122970911329DC
:102A6E00072E000C880B990B0E947E3720E030E079
:102A7E0040E251E40E94E3364B015C01B601DD0CED
:102A8E00880B990B0E947E379B01AC01C501B401E6
:102A9E000E947B364B015C0180929628909297287B
:102AAE00A0929828B0929928C0913A29D0913B29AA
:102ABE00C0939428D0939528E0901429F09015296E
:102ACE00E0929228F09293280091162910911729DE
:102ADE0000939028109391282CE32E9DC0012F9DDA
:102AEE00900D1124800F911F80939A2890939B280C
:102AFE0081E08093A4286C2D83E790E035DB609114
:102B0E00122985E790E030DB6AE379E288E790E00E
:102B1E0096DB6E2D8DE790E027DB602F82E890E04C
:102B2E0023DB61E087E890E01FDB10914D29809157
:102B3E008F2881111BC011110FC720E030E040E239
:102B4E0051E46091002970910129809102299091A0
:102B5E0003290E947B369B01AC01C501B4010E9482
:102B6E002E3887FF03C081E080938F2880918F28B5
:102B7E00882309F40CC71092AB281092AC2810923F
:102B8E00AD281092AE2881E08093A72810928F284E
:102B9E0011111EC78091962890919728A091982880
:102BAE00B09199288093832890938428A0938528A8
:102BBE00B09386288093682A9093692AA0936A2AF4
:102BCE00B0936B2A8BEC9AE20E94CE0A81E080933E
:102BDE00822861E081E20E944F0701E010E08CE361
:102BEE00282E312CC5E1D0E080919A2890919B2817
:102BFE001816190614F00C94E71E20E030E040E29F
:102C0E0051E4609196287091972880919828909120
:102C1E0099280E947B3620910029309101294091FC
:102C2E000229509103290E94DF3687FFF8C61092C1
:102C3E009F281092A02881E08093A52860E081E271
:102C4E000E944F0710921A2910929A2810929B28D0
:102C5E0061E08DE10E944F0760E08BE10E944F071B
:102C6E000E94D4038EEB9BE20E94700A80919C28F6
:102C7E00882329F08091082961E0811101C060E06C
:102C8E0089E10E944F07B090A728B1100AC00E9498
:102C9E00B30860937E2870937F288093802890934A
:102CAE008128C0907E28D0907F28E0908028F090D8
:102CBE0081288091872890918828A0918928B091A9
:102CCE008A28C81AD90AEA0AFB0A20E2C2162FEB92
:102CDE00D20622E0E206F10408F451C0B1104FC052
:102CEE008090FC289090FD28A090FE28B090FF28A0
:102CFE0020918B2830918C2840918D2850918E28D0
:102D0E00C501B4010E947A362B013C01C701B60100
:102D1E0020E63AEE40E050E00E94A838CA01B90120
:102D2E000E947C379B01AC01C301B2010E94E336C5
:102D3E006093AB287093AC288093AD289093AE2807
:102D4E000E94B30860937A2870937B2880937C2826
:102D5E0090937D280E94B30860937628709377280D
:102D6E008093782890937928809272289092732875
:102D7E00A0927428B092752881E08093A728C09005
:102D8E00AB28D090AC28E090AD28F090AE2820E093
:102D9E0030E040E85FE3C701B6010E942E3887FDA0
:102DAE0085C68091A728882309F4A1C060E088E138
:102DBE000E944F071092B02A1092BB2A1092BC2A82
:102DCE001092BD2A1092BE2A1092BF2A1092C02ACB
:102DDE000E94B3086B017C01C0926E28D0926F28BE
:102DEE00E0927028F09271281092AA288090FC2808
:102DFE009090FD28A090FE28B090FF2880926A281F
:102E0E0090926B28A0926C28B0926D2880917A28AF
:102E1E0090917B28A0917C28B0917D2826013701C6
:102E2E00481A590A6A0A7B0AD301C20180369A4EA1
:102E3E00A105B10509F05BC020917228309173286D
:102E4E004091742850917528C501B4010E947A36BC
:102E5E002091052830910628409107285091082886
:102E6E0050580E94DF3618160CF4FCC58091682865
:102E7E0090916928181619060CF4D4C50196809302
:102E8E006828909369288AE097EDA3E2BCE38093CB
:102E9E00052890930628A0930728B09308280E942F
:102EAE00B308609364287093652880936628909386
:102EBE0067288091682890916928029741F41092B2
:102ECE00AB281092AC281092AD281092AE28C0926A
:102EDE007A28D0927B28E0927C28F0927D288092EE
:102EEE00722890927328A0927428B09275288090C0
:102EFE00002990900129A0900229B0900329C0903A
:102F0E008328D0908428E0908528F09086288091A0
:102F1E0063288111E8C581E080936228A70196019C
:102F2E00C501B4010E942E3887FD4DC080915B2BE8
:102F3E0090915C2B892B09F40CC680E991E0A0E0FE
:102F4E00B0E08093532B9093542BA093552BB093BA
:102F5E00562B8091762B9091772B892B09F4FEC5F9
:102F6E0080E293E0A0E0B0E080936E2B90936F2B05
:102F7E00A093702BB093712B8091B1289091B228B1
:102F8E00892B59F481E08093A9288DE69BE20E945B
:102F9E00CE0A0093B1281093B2288091B628909152
:102FAE00B728029781F410926D2B1092782B109205
:102FBE00792B10927A2B10927B2B10927C2B1092E5
:102FCE007D2B1092A92880919A2890919B28B1016F
:102FDE000E9495386B017C01609392287093932820
:102FEE00809360289093612820E030E040E85FE312
:102FFE0060915C2870915D2880915E2890915F2889
:10300E000E947B3660935C2870935D2880935E28C7
:10301E0090935F281092BA2820E030E040E85FE3FA
:10302E006091AB287091AC288091AD289091AE281C
:10303E000E942E3887FDA1C510929E2881E08093B4
:10304E00B5281092A9280E945E0860E08DE00E94CB
:10305E004F07C093E828D093E92889E190E0809348
:10306E00EA289093EB288AE190E08093EC289093E5
:10307E00ED288093EE289093EF288EE090E08093D9
:10308E00F0289093F1288DE090E08093F2289093B1
:10309E00F32880E190E08093F4289093F5288EE158
:1030AE0090E08093F6289093F72880915B2B909177
:1030BE005C2B892B09F457C588EE93E0A0E0B0E0B5
:1030CE008093532B9093542BA093552BB093562B48
:1030DE008091762B9091772B892B09F449C580ED41
:1030EE0097E0A0E0B0E080936E2B90936F2BA093AF
:1030FE00702BB093712B8091B1289091B228892BAF
:10310E0009F072CD8DE69BE20E94CE0A0093B128A3
:10311E001093B22869CD1092BE281092BD2810923D
:10312E00BC281092BB281092BA281092B828109280
:10313E00B9281092B6281092B7281092B52810927E
:10314E00B3281092B4281092B1281092B22810927F
:10315E00B0281092AF28109209291092AB28109225
:10316E00AC281092AD281092AE281092AA28109278
:10317E00682A1092692A10926A2A10926B2A10926B
:10318E00A9281092A82881E08093A72810926D2B71
:10319E001092782B1092792B10927A2B10927B2B07
:1031AE0010927C2B10927D2B1092A62860E089E164
:1031BE000E944F071092372B1092422B1092432BE6
:1031CE001092442B1092452B1092462B1092472BA7
:1031DE0010921C2B1092272B1092282B1092292B19
:1031EE0010922A2B10922B2B10922C2B60E088E140
:1031FE000E944F071092B02A1092BB2A1092BC2A3E
:10320E001092BD2A1092BE2A1092BF2A1092C02A86
:10321E000E945E088091A5288111F4C08091A42897
:10322E00882309F493C08091A328882309F48EC0C3
:10323E008091A1289091A22803970CF083C0C09191
:10324E009F28D091A028CB34D105E4F561E085E12B
:10325E000E944F0788E190E08093F0289093F12828
:10326E008093F2289093F3288093F4289093F52876
:10327E008093F6289093F7288093E8289093E92876
:10328E008093EA289093EB288093EC289093ED2876
:10329E008093EE289093EF2860E08CE0DF91CF9141
:1032AE001F910F91FF90EF90DF90CF90BF90AF9056
:1032BE009F908F907F906F905F904F903F902F9048
:1032CE000C944F0760E085E10E944F078BE090E081
:1032DE008093E8289093E92821E130E02093EA28B2
:1032EE003093EB2887E190E08093EC289093ED28C3
:1032FE008CE090E08093EE289093EF288093F02856
:10330E009093F12880E190E08093F2289093F32837
:10331E002093F4283093F5288093F6289093F7287D
:10332E00C739D1050CF4B8CF8091A1289091A2286D
:10333E0001968093A1289093A22810929F28109214
:10334E00A028AACF85E080931A29A6CF80914D2977
:10335E0081113DC0C0900029D0900129E090022932
:10336E00F09003292DEC3CEC47EC52E4C701B6017A
:10337E000E942E381816DCF420E030E040E251E4D2
:10338E00C701B6010E9432380E944B370E94950346
:10339E0010929E288AE090E08093EE289093EF287A
:1033AE0060E070E0CB010E94560361E076CF20E032
:1033BE0030E048EC52E4C701B6010E9432380E9458
:1033CE004B370E94950381E080939E28E3CF20E047
:1033DE0030E040E251E46091CF287091D028809186
:1033EE00D1289091D2280E9432380E944B370E94E9
:1033FE00950385E190E08093EE289093EF2810924C
:10340E009E28CECF60E081E20E944F0761E08DE101
:10341E000E944F0761E08CE10E944F0761E08BE153
:10342E000E944F0760E08AE10E944F0760E08DE046
:10343E000E944F0760E08CE00E944F07C0919F28CA
:10344E00D091A028C931D1053CF560E085E10E94FC
:10345E004F0788E190E08093E8289093E9288093C5
:10346E00EA289093EB288093EC289093ED28809394
:10347E00EE289093EF288093F0289093F128809374
:10348E00F2289093F3288093F4289093F528809354
:10349E00F6289093F728C2CA61E085E10E944F0793
:1034AE0010929E288CE090E08093E8289093E92873
:1034BE008093EA289093EB2881E190E08093EC28AA
:1034CE009093ED2888E190E08093EE289093EF287A
:1034DE0085E190E08093F0289093F1288DE090E0C4
:1034EE008093F2289093F32889E190E08093F4285A
:1034FE009093F5288AE190E08093F6289093F72830
:10350E00E3970CF48BCA10929F281092A02886CABB
:10351E001092BA2810929E2860E08DE10E944F070B
:10352E0061E08CE00E944F0780919F289091A02827
:10353E0049970CF04DC080919D28811142C088E1C1
:10354E0090E08093E8289093E9288093EA2890935E
:10355E00EB2880919F289091A028C39724F0109279
:10356E009F281092A0288AE090E08093EE289093F6
:10357E00EF28809114299091152924E6289FB001F7
:10358E00299F700D11248091162990911729680F8B
:10359E00791F072E000C880B990BDF91CF911F918D
:1035AE000F91FF90EF90DF90CF90BF90AF909F90D4
:1035BE008F907F906F905F904F903F902F900C94D4
:1035CE00560389E190E080939F289093A028C1CF65
:1035DE00C0939E28809110299091112924E6289F4E
:1035EE00B001299F700D11242091122930911329B9
:1035FE004AE0429FC001439F900D1124680F791F2E
:10360E00072E000C880B990B0E949503A2CF809178
:10361E0014299091152914E6189FB001199F700D69
:10362E0011248091162990911729680F791F072E62
:10363E00000C880B990B0E945603C0919F28D091C5
:10364E00A02880914D29811138C080911029909128
:10365E001129189FB001199F700D11242091122964
:10366E00309113294AE0429FC001439F900D1124CF
:10367E00680F791F072E000C880B990B0E9495037B
:10368E008AE090E08093EE289093EF2881E080937B
:10369E009E28699754F480919D28811190C088E1ED
:1036AE0090E08093EC289093ED2880919F28909144
:1036BE00A028C3970CF027CFB1C980913A299091D9
:1036CE003B292AE0289FB001299F700D1124072E57
:1036DE00000C880B990B0E94950385E190E0809376
:1036EE00EE289093EF2810929E286997F4F6809119
:1036FE009D28811164C088E190E08093E828909322
:10370E00E9288093EA289093EB28CBCF80914D291E
:10371E0081113CC0809110299091112924E6289F97
:10372E00B001299F700D1124209112293091132977
:10373E004AE0429FC001439F900D1124680F791FEC
:10374E00072E000C880B990B0E9495038AE090E0DF
:10375E008093EE289093EF2881E080939E288091AD
:10376E009F289091A02849978CF580919D288111D2
:10377E0026C088E190E08093F0289093F128809302
:10378E00F2289093F3281092BA288FCF80913A297D
:10379E0090913B292AE0289FB001299F700D11249A
:1037AE00072E000C880B990B0E94950385E190E083
:1037BE008093EE289093EF2810929E28D0CF89E127
:1037CE0090E080939F289093A0286FCF1092BA28F4
:1037DE0080911A29082E000C990BFC01EE0FFF1F89
:1037EE00E25FF64D2081318144E6429FB001439F56
:1037FE00700D1124880F991FFC01E05FF64D80813A
:10380E009181680F791F072E000C880B990B0E946F
:10381E0056034BCF1092BA2880914D2981117CC04E
:10382E00809110299091112924E6289FB001299F9B
:10383E00700D112420911229309113294AE0429FD4
:10384E00C001439F900D1124680F791F072E000CA5
:10385E00880B990B0E9495038AE090E08093EE28E6
:10386E009093EF2881E080939E2880911429909167
:10387E00152924E6289FB001299F700D11248091EF
:10388E00162990911729680F791F072E000C880BA7
:10389E00990B0E94560380919F289091A0284997DA
:1038AE0074F480919D28811150C088E190E080933E
:1038BE00F4289093F5288093F6289093F72880911A
:1038CE009F289091A028C39724F010929F281092C1
:1038DE00A0281092B3281092B42880919C2890E0D2
:1038EE00809318299093192981E0809309292091BA
:1038FE001429309115294CE3429FC001439F900D2E
:10390E0011242091162930911729820F931F80932D
:10391E009A2890939B2882C880913A2990913B29AE
:10392E002AE0289FB001299F700D1124072E000C4C
:10393E00880B990B0E94950385E190E08093EE2809
:10394E009093EF2810929E2890CF89E190E080937B
:10395E009F289093A028B3CFBE01DD0F880B990B43
:10396E000E947E376B017C0120E030E040E751E49D
:10397E006091CF287091D0288091D1289091D22833
:10398E000E947B369B01AC01C701B601E8C81092BC
:10399E00A72861E088E10E944F078091FC28909152
:1039AE00FD28A091FE28B091FF2880938B2890933C
:1039BE008C28A0938D28B0938E280E94B308609314
:1039CE008728709388288093892890938A28E0C846
:1039DE006091942870919528072E000C880B990BF6
:1039EE000E947E3760938328709384288093852865
:1039FE009093862820E030E040E052E40E947A3630
:103A0E0026E636E646EE5FE30E94E3366093682ACA
:103A1E007093692A80936A2A90936B2AD3C8109266
:103A2E00A52816C940916428509165286091662892
:103A3E007091672826013701441A550A660A770ADB
:103A4E00B301A20140395F456140710530F4019622
:103A5E0080936828909369282CCA10926828109237
:103A6E00692827CA8091762890917728A091782886
:103A7E00B091792826013701481A590A6A0A7B0A39
:103A8E00D301C201813A9846A640B10508F411CA85
:103A9E0081E080938F2860E085E10E944F071092AD
:103AAE001A2910929A2810929B2803CA20E030E01F
:103ABE0040E85FE3C701B6010E94DF3687FF17CAF1
:103ACE008091A728882309F412CA8091AA2881110F
:103ADE0007C080EB9AE20E94CE0A81E08093AA286A
:103AEE000E94BF0804CA80914D2981111DC0A701F3
:103AFE009601C501B4010E942E3887FD06C081E0F3
:103B0E00809362288093A62809CAA7019601C50151
:103B1E00B4010E94DF3687FF01CA8091A628811169
:103B2E00FDC910926228FAC94090CF285090D02833
:103B3E006090D1287090D228A7019601C301B201DE
:103B4E000E942E3887FFDBCFA7019601C301B20179
:103B5E00E0CF80E89AE1A6E0B0E0F3C980E095E31B
:103B6E00ACE0B0E001CA80E492E4AFE0B0E0A8CAF5
:103B7E0080E894E8AEE1B0E0B6CA809109298823C6
:103B8E0009F44EC080910829882309F449C0109287
:103B9E009E281092BB280E945E0860E08CE00E9476
:103BAE004F078CE090E08093E8289093E92880E11D
:103BBE0090E08093EA289093EB2889E190E080933F
:103BCE00EC289093ED2881E190E08093EE2890937D
:103BDE00EF2880911829909119291092F0281092AF
:103BEE00F128892B81F4C093F228D093F328C09347
:103BFE00F428D093F52888E190E08093F6289093EE
:103C0E00F7280C94FB1584E190E08093F2289093B2
:103C1E00F32888E190E08093F4289093F528EDCF77
:103C2E0080915A2890915B289C012F5F3F4F2093E3
:103C3E005A2830935B2861E02839384038F087598C
:103C4E0098408839984008F055C060E08CE00E949A
:103C5E004F078091B528882371F010926D2B10922A
:103C6E00782B1092792B10927A2B10927B2B10922C
:103C7E007C2B10927D2B84E68C9DB0018D9D700D5A
:103C8E0011246E0D7F1D072E000C880B990B0E94C0
:103C9E0056038BEC9AE20E94700A80918228882348
:103CAE00F1F161E08CE10E944F0760E08DE10E942E
:103CBE004F07609183287091842880918528909178
:103CCE00862820914D2921111AC020E030E048ECC1
:103CDE0052E40E9432380E944B370E9495038AE0CC
:103CEE0090E08093EE289093EF2881E080939E28B9
:103CFE000C94FB1510925A2810925B28AACF20E044
:103D0E0030E040E251E40E9432380E944B370E946C
:103D1E009503C093EE28D093EF280C94FB1560E02A
:103D2E008CE10E944F0761E08DE10E944F07809168
:103D3E004D29811138C0C0900029D0900129E09002
:103D4E000229F09003292DEC3CEC47EC52E4C7011C
:103D5E00B6010E942E381816B4F420E030E040E28E
:103D6E0051E4C701B6010E9432380E944B370E94BF
:103D7E00950310929E288AE090E08093EE2890930F
:103D8E00EF280C94FB1520E030E048EC52E4C7011C
:103D9E00B6010E9432380E944B370E94950381E093
:103DAE0080939E28E8CF20E030E040E251E460911D
:103DBE00CF287091D0288091D1289091D228A3CF6E
:103DCE0060E081E20E944F0760E080EA90E00E948E
:103DDE00BB100E945E088CE19BE20E94CE0A1092FC
:103DEE00A42860E087E890E00E94BB1060915628FE
:103DFE007091572880915828909159282CE330E0E3
:103E0E0040E050E00E94A838690120935428309376
:103E1E00552862E578E288E990E00E943C102091F6
:103E2E005228309153282C0D3D1D2093522830934B
:103E3E0053282F30374268F08091502890915128A6
:103E4E0001968093502890935128109252281092E8
:103E5E00532862E578E288E990E00E94261160E539
:103E6E0078E28AE990E00E9426111092542810926E
:103E7E0055281092562810925728109258281092B2
:103E8E0059281092CB2A1092D62A1092D72A109225
:103E9E00D82A1092D92A1092DA2A1092DB2A80910F
:103EAE00B0288330B8F484EF91E00E94EE0A1092AD
:103EBE00B02A1092BB2A1092BC2A1092BD2A1092E0
:103ECE00BE2A1092BF2A1092C02A8EEB9BE20E944D
:103EDE00700AE5CF10921A290C941515EF92FF92E5
:103EEE000F931F93CF93DF93E82EF62ED0E0C0E012
:103EFE00042F10E0B8010C2E02C0759567950A9438
:103F0E00E2F761708E2D0E948D0761E08F2D0E9469
:103F1E008D0760E08F2D0E948D072196C830D10548
:103F2E0049F7DF91CF911F910F91FF90EF90089578
:103F3E000F931F93CF93DF930E94C4070E94D00765
:103F4E000E94D00760E080E20E948D07C091352864
:103F5E00D09136288091BE288E01000F111F882324
:103F6E0031F0E091E828F091E9282097C1F0809196
:103F7E009E28882339F0E091EA28F091EB28C13091
:103F8E00D10569F08091BD28882309F480C0C23024
:103F9E00D10509F07CC0E091EC28F091ED28EE59A6
:103FAE00FD44408141606EE18FE198DFF801E25BF4
:103FBE00FD4460E080810E948D0761E080E20E94F6
:103FCE008D072196C430D1050CF06BC0C0933528F7
:103FDE00D09336280E94C40760E083E10E948D07CB
:103FEE00C0913728D09138288091BB288E01000FC0
:103FFE00111F882331F0E091F028F091F1282097DD
:10400E00C1F08091BA28882339F0E091F228F0911E
:10401E00F328C130D10569F08091BC28882309F4BA
:10402E0045C0C230D10509F041C0E091F428F091AD
:10403E00F528EE59FD444081416064E182E14EDF96
:10404E00F801E85AFD4460E080810E948D0761E02E
:10405E0083E10E948D072196C430D1058CF5C09363
:10406E003728D093382889E49AE20E940B0B8AE213
:10407E009AE20E940B0B8BE09AE20E940B0B8CEEE5
:10408E0099E2DF91CF911F910F910C940B0BF801D8
:10409E00E851F74D0190F081E02DEE59FD4440813D
:1040AE0082CF109235281092362894CFF801E05125
:1040BE00F74D0190F081E02DEE59FD444081BDCFCA
:1040CE001092372810923828CECF1F920F920FB62B
:1040DE000F9211242F933F934F935F936F937F9380
:1040EE008F939F93AF93BF93EF93FF938FE499E2D8
:1040FE000E940506FF91EF91BF91AF919F918F9115
:10410E007F916F915F914F913F912F910F900FBEC5
:10411E000F901F9018951F920F920FB60F921124A9
:10412E002F938F939F93EF93FF93E0915B29F091E1
:10413E005C29818181FD1BC09081809165298F5FF3
:10414E008F7320916629821741F0E0916529F0E086
:10415E00E15BF64D958F80936529FF91EF919F91CD
:10416E008F912F910F900FBE0F901F9018958081F9
:10417E00F4CF1F920F920FB60F9211248F939F932D
:10418E00AF93BF938091392890913A28A0913B2804
:10419E00B0913C280196A11DB11D809339289093B2
:1041AE003A28A0933B28B0933C2881E08093A60A3E
:1041BE00BF91AF919F918F910F900FBE0F901F9057
:1041CE0018951F920F920FB60F9211242F933F93B3
:1041DE004F935F936F937F938F939F93AF93BF9301
:1041EE00EF93FF9388E89BE20E94700A80EB9AE2BD
:1041FE000E94700A81E09BE20E94700A86EE9AE2AB
:10420E000E94700A8DE69BE20E94700A82E59BE294
:10421E000E94700A87E39BE20E94700A8CE19BE287
:10422E000E94700A80919F289091A02801968093F9
:10423E009F289093A02880916228882381F18091F5
:10424E001828909119280196809318289093192870
:10425E00803B9E4021F58091562890915728A09141
:10426E005828B09159280196A11DB11D809356284A
:10427E0090935728A0935828B093592880919A2844
:10428E0090919B28019780939A2890939B28109247
:10429E00182810921928892B11F4109262288091F7
:1042AE00A828882379F08091092890910A284297AE
:1042BE0049F480913D2890913E28019680933D28A7
:1042CE0090933E2881E080930B0AFF91EF91BF916E
:1042DE00AF919F918F917F916F915F914F913F9190
:1042EE002F910F900FBE0F901F9018954F925F92C7
:1042FE006F927F928F929F92AF92BF92CF92DF92E8
:10430E00EF92FF92109251291092522988EE93E06B
:10431E00A0E0B0E08093532990935429A09355299F
:10432E00B09356298CEA93EB80934F2990935029A2
:10433E0080E498E080935B2990935C2983E28093DC
:10434E005D2982E280935E2910925F2987E2809335
:10435E00602986E28093612980E180936229109220
:10436E006329109264291092652910926629109281
:10437E0067291092682980E28093692910926A2930
:10438E0010926B2982E090E08093C72B9093C82BFC
:10439E0080E89CE0A0E0B0E08093BF2B9093C02B10
:1043AE00A093C12BB093C22B1092C32B1092C42B8F
:1043BE001092C52B1092C62B8FE99FE18093CF2BC5
:1043CE009093D02B1092BE2B1092D12B1092D22BF9
:1043DE001092D32B1092D42B1092C92B1092CA2B61
:1043EE001092CB2B1092CC2B1092AC2B1092AD2B9B
:1043FE0080E4882E82E4982E8FE0A82EB12C809235
:10440E00A42B9092A52BA092A62BB092A72BC12CD9
:10441E00D12C7601C394C092A82BD092A92BE092F6
:10442E00AA2BF092AB2B85E891E08093B42B90935E
:10443E00B52B1092A32B1092B62B1092B72B109275
:10444E00B82B1092B92B1092AE2B1092AF2B10925C
:10445E00B02B1092B12B63E270E089E49AE20E94D5
:10446E00910765E270E08AE29AE20E94910764E2A7
:10447E0070E08BE09AE20E94910762E270E08CEEAF
:10448E0099E20E9491071092912B1092922B80EA42
:10449E0096E8A1E0B0E08093892B90938A2BA093AD
:1044AE008B2BB0938C2BC0928D2BD0928E2BE092B7
:1044BE008F2BF092902B8AE69DE08093992B909310
:1044CE009A2B1092882B10929B2B10929C2B109251
:1044DE009D2B10929E2B1092932B1092942B109238
:1044EE00952B1092962B1092762B1092772B80E8AC
:1044FE0094E8AEE1B0E080936E2B90936F2BA09377
:10450E00702BB093712B1092722B1092732B109202
:10451E00742B1092752B26E73DE020937E2B309363
:10452E007F2B10926D2B1092802B1092812B10925C
:10453E00822B1092832B1092782B1092792B109243
:10454E007A2B10927B2B10925B2B10925C2B80920D
:10455E00532B9092542BA092552BB092562BC09267
:10456E00572BD092582BE092592BF0925A2B2CE7C6
:10457E003DE02093632B3093642B1092522B1092BC
:10458E00652B1092662B1092672B1092682B10924F
:10459E005D2B10925E2B10925F2B1092602B10925F
:1045AE00402B1092412B40EE53E964E070E04093B3
:1045BE00382B5093392B60933A2B70933B2B1092E0
:1045CE003C2B10923D2B10923E2B10923F2B2CE940
:1045DE003DE02093482B3093492B1092372B1092AD
:1045EE004A2B10924B2B10924C2B10924D2B10925B
:1045FE00422B1092432B1092442B1092452B10926B
:10460E00252B1092262B40EC57E269E070E0409388
:10461E001D2B50931E2B60931F2B7093202B1092EB
:10462E00212B1092222B1092232B1092242B26E951
:10463E003DE020932D2B30932E2B10921C2B10929D
:10464E002F2B1092302B1092312B1092322B109266
:10465E00272B1092282B1092292B10922A2B109276
:10466E000A2B10920B2B48E458EE61E070E0409359
:10467E00022B5093032B6093042B7093052B1092F7
:10468E00062B1092072B1092082B1092092B25EA5D
:10469E003DE02093122B3093132B1092012B10928E
:1046AE00142B1092152B1092162B1092172B109272
:1046BE000C2B10920D2B10920E2B10920F2B109282
:1046CE00EF2A1092F02A48EB5FEF61E070E0409322
:1046DE00E72A5093E82A6093E92A7093EA2A109207
:1046EE00EB2A1092EC2A1092ED2A1092EE2A2EE668
:1046FE003EE02093F72A3093F82A1092E62A109281
:10470E00F92A1092FA2A1092FB2A1092FC2A109281
:10471E00F12A1092F22A1092F32A1092F42A109291
:10472E00D42A1092D52A8093CC2A9093CD2AA09386
:10473E00CE2AB093CF2A1092D02A1092D12A10925C
:10474E00D22A1092D32A8AE791E08093DC2A9093A2
:10475E00DD2A1092CB2A1092DE2A1092DF2A1092B6
:10476E00E02A1092E12A1092D62A1092D72A10929D
:10477E00D82A1092D92A1092B92A1092BA2A80E811
:10478E009AE1A6E0B0E08093B12A9093B22AA0936A
:10479E00B32AB093B42A1092B52A1092B62A109268
:1047AE00B72A1092B82A86EB9EE08093C12A909386
:1047BE00C22A1092B02A1092C32A1092C42A1092C2
:1047CE00C52A1092C62A1092BB2A1092BC2A1092A9
:1047DE00BD2A1092BE2AC0901328D0901428E090C3
:1047EE001528F090162880900F2890901028A090F1
:1047FE001128B090122840900B2850900C286090F1
:10480E000D2870900E288CE69AE28093922A90934F
:10481E00932A80E79AE28093902A9093912A88E6D1
:10482E009AE28093942A9093952A1092AE2A10922F
:10483E00A62A1092A72A1092A82A1092A92A80E0DE
:10484E0090E0AFE7B3E48093AA2A9093AB2AA093AB
:10485E00AC2AB093AD2A84E690E0A0E0B0E080935D
:10486E00A22A9093A32AA093A42AB093A52A1092C9
:10487E008C2A10928D2A20E030E0A901C301B201EA
:10488E000E94DF3687FD5AC020E030E0A901C50145
:10489E00B4010E94DF3687FD51C020E030E0A9014F
:1048AE00C701B6010E94DF3687FD48C081E090E067
:1048BE0080938E2A90938F2A8093AF2A4092742AE7
:1048CE005092752A6092762A7092772A8092782A70
:1048DE009092792AA0927A2AB0927B2AC0927C2A50
:1048EE00D0927D2AE0927E2AF0927F2A4092802AF0
:1048FE005092812A6092822A7092832A2DEC3CEC8F
:10490E004CEC5DE3C501B4010E9432386093842AF9
:10491E007093852A8093862A9093872A2DEC3CECFF
:10492E004CEC5DE3C701B6010E94E3366093882A22
:10493E007093892A80938A2A90938B2A0E94B308B7
:10494E00C090A22AD090A32AE090A42AF090A52A83
:10495E006C197D098E099F096093962A7093972A88
:10496E008093982A9093992AFF90EF90DF90CF90A2
:10497E00BF90AF909F908F907F906F905F904F9071
:10498E000895CF93DF93CDB7DEB72697CDBFDEBFA9
:10499E0088ED90E084BF909361008091020686605E
:1049AE0080930206809100068160809300068091BC
:1049BE0002068F7C8065809302061092E20582E0EB
:1049CE008093E40581E08093030A8EEF8093270A9B
:1049DE008093260A80E880932D0A80932B0A809379
:1049EE00290A80932C0A80932A0A8093280A8BE046
:1049FE008093000A87E08093E505E0E8FAE037E06F
:104A0E002EEF90E885E0318324879587808370961A
:104A1E00E03C4AE0F407B9F71092A10A8FE79EE353
:104A2E008093AC0A9093AD0A8091A50A8160809321
:104A3E00A50A1092A00A8091A00A81608093A00A14
:104A4E00789447E266E28FE499E20E94E20540E83C
:104A5E0055E260E070E08FE499E20E94610DF894F7
:104A6E0081E080930A0A1092010A8091090A8E7FD2
:104A7E008093090A8AEF90E08093260A9093270A82
:104A8E008FE08093000A789461E08BE00E9420070B
:104A9E0061E08AE00E94200761E089E00E94200721
:104AAE0061E088E00E94200761E084E00E94200718
:104ABE0061E085E00E94200761E086E00E94200709
:104ACE0061E087E00E94200761E084E10E942007F8
:104ADE0061E083E10E94200761E082E10E942007ED
:104AEE0061E08EE10E94200761E080E20E942007D3
:104AFE0061E08FE10E94200761E088E00E948D074F
:104B0E0061E089E00E948D0761E08AE00E948D07D6
:104B1E0061E08BE00E948D0761E087E00E948D07C7
:104B2E0061E086E00E948D0761E085E00E948D07BE
:104B3E0061E084E00E948D0761E08CE00E94EC064B
:104B4E0061E08DE00E94EC0660E08CE00E944F0771
:104B5E0060E08DE00E944F078EEB9BE20E94CE0A32
:104B6E001092A62A1092A72A1092A82A1092A92A69
:104B7E00812C912C9AE7A92E94E4B92E8092AA2A20
:104B8E009092AB2AA092AC2AB092AD2A8091AE2A16
:104B9E00882309F457C00091922A1091932AD801C4
:104BAE00CD90DD90ED90FC90A5019401C701B6016A
:104BBE000E942E38181634F5F80180829182A28256
:104BCE00B38280909A2A90909B2AA0909C2AB090B3
:104BDE009D2AC090AA2AD090AB2AE090AC2AF090E1
:104BEE00AD2AA7019601C501B4010E942E381816F0
:104BFE00CCF4C0929A2AD0929B2AE0929C2AF092F0
:104C0E009D2A20C020E030E0A901C701B6010E9414
:104C1E00DF3687FFD6CFD8011D921D921D921C92B2
:104C2E001397CFCFC090A62AD090A72AE090A82A9B
:104C3E00F090A92AA7019601C501B4010E94DF36A2
:104C4E0087FDD7CF0E94B3086093F8287093F92898
:104C5E008093FA289093FB288091AE2A811149C047
:104C6E00E091922AF091932AC080D180E280F38065
:104C7E00C0929A2AD0929B2AE0929C2AF0929D2A68
:104C8E00E091902AF091912A80819181A281B38145
:104C9E0080939E2A90939F2AA093A02AB093A12A34
:104CAE008090AA2A9090AB2AA090AC2AB090AD2A00
:104CBE00A5019401C701B6010E942E3818164CF4B6
:104CCE0080929A2A90929B2AA0929C2AB0929D2A18
:104CDE0010C08090A62A9090A72AA090A82AB090E3
:104CEE00A92AA5019401C701B6010E94DF3687FDEE
:104CFE00E7CF81E08093AE2A61E085E10E94EC0669
:104D0E0061E088E10E94EC0661E089E10E94EC0618
:104D1E0061E081E20E94EC0660E089E10E944F07AB
:104D2E0060E085E10E944F0760E088E10E944F0736
:104D3E0060E081E20E944F0761E08BE10E94EC0689
:104D4E0061E08CE10E94EC0661E08DE10E94EC06D0
:104D5E0061E08AE10E94EC060E945E0881E09BE21F
:104D6E000E94CE0A86EE9AE20E94CE0A90E080E081
:104D7E000E949310BB24B394811101C0B12CB09248
:104D8E009C2881E090E00E94931001E0811101C007
:104D9E0000E000934D2982E090E00E949310C82E0F
:104DAE00D12CC0920C29D0920D296AE079E283E0D1
:104DBE0090E00E943C1085E090E00E949310E82E57
:104DCE00F12CE092D328F092D42814E0612E19E24F
:104DDE00712E86E4882E912C89829A82CE010196BC
:104DEE000E942C10F30181933F01FFEF8F1A9F0A4F
:104DFE002AE48216910481F787E090E00E949310D6
:104E0E0091E0811101C090E09093E72888E090E056
:104E1E000E94931091E0811101C090E09093E228DE
:104E2E0089E090E00E94931091E0811101C090E022
:104E3E009093DD286BEC78E280E590E00E946110A3
:104E4E0067EC78E28AE590E00E94611063EC78E20C
:104E5E0084E690E00E9461106FEB78E28EE690E0BF
:104E6E000E94611081E490E089839A83CE010196BD
:104E7E000E942C108093632862E578E288E990E026
:104E8E000E943C1060E578E28AE990E00E943C10B6
:104E9E008FE090E00E94931011E0811101C010E0AC
:104EAE001093A32886E990E00E94931091E081115F
:104EBE0001C090E0909308292B2D30E020931B2900
:104ECE0030931C29202F30E020931D2930931E296A
:104EDE00C0921F29D092202920910A2930910B29A6
:104EEE002093412930934229E0922729F0922829D4
:104EFE002091632830E02093212930932229212FFD
:104F0E0030E02093232930932429892F90E0809339
:104F1E002529909326296AE379E288E790E00E949A
:104F2E003C1083E790E00E94931090E0809310294C
:104F3E009093112985E790E00E94931090E0809362
:104F4E001229909313298DE790E00E94931090E020
:104F5E00809314299093152982E890E00E94931073
:104F6E0090E0809316299093172987E890E00E948D
:104F7E00931091E0811101C090E09093A42862E01B
:104F8E0083E20E94EC0662E085E20E94EC0662E09B
:104F9E0084E20E94EC0662E082E20E94EC068BE460
:104FAE0091E18093562A9093572A87E39DE0809350
:104FBE005C2A90935D2A8DEE9CE08093372A909325
:104FCE00382A86ED9CE08093412A9093422A8AE407
:104FDE0095E080933F2A9093402A8DE79CE0809342
:104FEE00182A9093192A86E69CE08093222A9093A1
:104FFE00232A8FE395E08093202A9093212A83E041
:10500E009CE08093F9299093FA298CED9BE0809394
:10501E00FF299093002A83EA9BE20E94CE0AEAE0DF
:10502E00EE2EF12C08E110E0FEE14F2E512CA9E1FD
:10503E006A2E712CB8E12B2E312C8EEB9BE20E9446
:10504E00700A0E94D40380910428882399F183EA80
:10505E009BE20E94700A89E190E00E94EE0A82E2D1
:10506E0090E08093E8289093E9280093EA28109323
:10507E00EB280093EC281093ED280093EE28109364
:10508E00EF280093F0281093F12884E090E08093AD
:10509E00F2289093F3281092F4281092F52881E0CC
:1050AE0090E08093F6289093F7288093BA280E9478
:1050BE00BA06C3CF1092A32B1092AE2B1092AF2B29
:1050CE001092B02B1092B12B1092B22B1092B32BD8
:1050DE0020E030E040EF52E46091FC287091FD2812
:1050EE008091FE289091FF280E942E3887FD8CC05B
:1050FE001092BE281092BD2810929E281092BC28A5
:10510E001092BB281092BA281092A8281092682AE2
:10511E001092692A10926A2A10926B2A10924E29C6
:10512E0010921A2960E08CE00E944F0760E08DE03B
:10513E000E944F078BE090E08093E8289093E92837
:10514E0081E190E08093EA289093EB2827E130E00C
:10515E002093EC283093ED284EE050E04093EE285B
:10516E005093EF284FE050E04093F0285093F128F1
:10517E008093F2289093F3282093F4283093F52807
:10518E008093F6289093F72880915B2B90915C2B5F
:10519E00892B81F188EE93E0A0E0B0E08093532B51
:1051AE009093542BA093552BB093562B8091762B26
:1051BE009091772B892B19F180ED97E0A0E0B0E06C
:1051CE0080936E2B90936F2BA093702BB093712BBB
:1051DE008091B1289091B228892B09F068CF8DE685
:1051EE009BE20E94CE0A81E090E08093B1289093DA
:1051FE00B2285DCF80E492E4AFE0B0E0CFCF80E89C
:10520E0094E8AEE1B0E0DCCF85E20E946A08D0906F
:10521E004F28811142C084E20E946A0881113DC06C
:10522E00D1103BC00E94B30860934B2870934C285A
:10523E0080934D2890934E2881E080934F28809143
:10524E004E29882311F40C94763660E08CE00E948F
:10525E004F07E0910928F0910A288091A828882309
:10526E0009F41FC7E331F10508F021CFEF5BF64DCE
:10527E000C94E638A829012A3F2AAA2A162B642B59
:10528E00B32BF42B212C6E2CBD2C022D442DBD2DB9
:10529E00EF2D672E6C2E992ECC2E85E20E946A0879
:1052AE00882361F0DD2009F4CACF85E20E946A08E6
:1052BE00813009F03FC010924F28C1CFC0904E29C7
:1052CE0084E20E946A088111EDCFDD2009F4B7CF88
:1052DE000E94B30880904B2890904C28A0904D28A7
:1052EE00B0904E28681979098A099B09683B7B4062
:1052FE008105910508F4A3CF84EF91E00E94EE0A98
:10530E0080911A2981119BCFC1109FCF8EE591E01C
:10531E0080939F289093A02881E080934E298093BC
:10532E004A288093492885E090E08093092890933D
:10533E000A2885CF84E20E946A08813009F07FCF67
:10534E00BACF1092BA2810929E281092BB280E94B3
:10535E005E088CE090E08093E8289093E92880E145
:10536E0090E08093EA289093EB286092EC2870925C
:10537E00ED2881E190E08093EE289093EF288091C4
:10538E009F289091A028893191054CF40093F02824
:10539E001093F1280093F2281093F32803C720915D
:1053AE001B2930911C291092F0281092F128232BE2
:1053BE00B1F425E130E02093F2283093F3282093C6
:1053CE00F4283093F5280093F6281093F728C39706
:1053DE000CF46DCE10929F281092A02868CE24E176
:1053EE0030E02093F2283093F3280093F4281093A2
:1053FE00F528E9CF0E945E081092BA2810929E28D6
:10540E008CE190E08093E8289093E92884E190E085
:10541E008093EA289093EB286092EC287092ED2806
:10542E0080E190E08093EE289093EF2880919F2862
:10543E009091A028893191050CF4A8CF20911D29B7
:10544E0030911E29232B59F42DE130E02093F028C2
:10545E003093F128E092F228F092F328C6CF2DE196
:10546E0030E02093F0283093F12825E130E0B9CFD9
:10547E000E945E081092BA288CE090E08093E82893
:10548E009093E9288DE090E08093EA289093EB28A2
:10549E0085E190E08093EC289093ED288FE090E0EA
:1054AE008093EE289093EF2880914D2920919F288C
:1054BE003091A02829313105D4F490919D28911175
:1054CE0011C00093F0281093F1280093F228109346
:1054DE00F3280093F4281093F5288823F1F085E142
:1054EE0090E081C060929F287092A028F6CF811123
:1054FE0019C080911F29909120292AE0289FB00180
:10550E00299F700D1124072E000C880B990B0E94F9
:10551E0056030093F0281093F128E092F628F092AB
:10552E00F72865C080914129909142292AE0289F51
:10553E00B001299F700D1124072E000C880B990BBA
:10554E000E945603CCCF1092BB281092BA2810920C
:10555E009E280E945E0880E190E08093E828909358
:10556E00E9286092EA287092EB2822E130E020933D
:10557E00EC283093ED282FE030E02093EE28309386
:10558E00EF2820919F283091A02829313105ACF4C5
:10559E0080919D2881115DC20093F0281093F1280F
:1055AE000093F2281093F3280093F4281093F52813
:1055BE000093F6281093F7281AC0209121293091D4
:1055CE002229232BC9F48093F0289093F12827E108
:1055DE0030E02093F2283093F3288093F4289093B0
:1055EE00F5288FE190E08093F6289093F72880912C
:1055FE009F289091A028EBCE8CE090E08093F0282D
:10560E009093F12887E190E08093F2289093F3280D
:10561E008DE090E08093F4289093F5287ECF0E9441
:10562E005E088BE090E08093E8289093E92881E172
:10563E0090E08093EA289093EB2887E190E08093A6
:10564E00EC289093ED288CE090E08093EE289093D8
:10565E00EF2820919F283091A028293131050CF494
:10566E0097CF2091232930912429232B89F420E2EE
:10567E0030E02093F0283093F1286092F228709257
:10568E00F3288093F4289093F5288EE090E0ABCF2A
:10569E008FE090E08093F0289093F12884E190E0E1
:1056AE008093F2289093F3288EE090E08093F42874
:1056BE009093F5288AE190E096CF1092BA28109236
:1056CE009E280E945E088BE090E08093E8289093DD
:1056DE00E92881E190E08093EA289093EB2880E21C
:1056EE0090E08093EC289093ED2880E190E08093F9
:1056FE00EE289093EF2880919F289091A0284997AB
:10570E000CF446CF8091252990912629892B99F06A
:10571E0084E290E08093F0289093F1288AE190E063
:10572E008093F2289093F3288CE090E08093F428F5
:10573E009093F5283DCF84E290E08093F0289093EB
:10574E00F1288AE190E08093F2289093F328E0927A
:10575E00F428F092F5282CCF1092BA280E945E08F9
:10576E00E092E828F092E9282DE030E02093EA2834
:10577E003093EB288AE190E08093EC289093ED280B
:10578E004EE050E04093EE285093EF2840919F2832
:10579E005091A028493151050CF4F8CD609127297C
:1057AE0070912829E092F028F092F1282093F228A7
:1057BE003093F3288093F4289093F52882E090E0BC
:1057CE00672B11F481E090E08093F6289093F728F0
:1057DE00433351050CF0FECD6ACC1092BB280E94CB
:1057EE005E08E092E828F092E9288DE090E0809340
:1057FE00EA289093EB288AE190E08093EC2890932E
:10580E00ED2881E090E08093EE289093EF28809130
:10581E009F289091A028499704F580919D28811189
:10582E00D2C10093F0281093F1280093F228109320
:10583E00F32873CE80919F289091A02820914D2916
:10584E00211128C049974CF480919D288111BBC12C
:10585E000093F4281093F52860CE80912929909119
:10586E002A2924E6289FB001299F700D112420912A
:10587E002B2930912C294AE0429FC001439F900D65
:10588E001124680F791F072E000C880B990B0E94AC
:10589E00560343CE4997B4F480919D2881110DC0D3
:1058AE000093F0281093F1280093F2281093F32818
:1058BE000093F4281093F52812CE60929F287092D0
:1058CE00A0280DCE80914329909144292FCEDD241E
:1058DE00D394D092BB281092BA280E945E08D09220
:1058EE00AF28E092E828F092E9288DE090E08093CE
:1058FE00EA289093EB288AE190E08093EC2890932D
:10590E00ED2882E090E08093EE289093EF2880912E
:10591E009F289091A0284997C4F480919D288111C9
:10592E000FC00093F2281093F3280093F4281093DD
:10593E00F5288AE190E08093F0289093F128EDCD40
:10594E0060929F287092A028F4CF80912D2990917B
:10595E002E292AE0289FB001299F700D1124072EB1
:10596E00000C880B990B0E945603E3CF0E945E0831
:10597E00E092E828F092E9288DE090E08093EA2802
:10598E009093EB288AE190E08093EC289093ED2899
:10599E0082E090E08093EE289093EF2880919F28EC
:1059AE009091A0284997B4F480919D2881110DC043
:1059BE000093F2281093F3280093F4281093F528FF
:1059CE004092F0285092F128A8CD60929F287092B4
:1059DE00A028F6CF80912F29909130292AE0289F78
:1059EE00B001299F700D1124072E000C880B990B06
:1059FE000E945603E5CF0E945E0881E08093BA288C
:105A0E006091022870910328072E000C880B990BC9
:105A1E000E9495038AE190E08093E8289093E9280C
:105A2E0087E190E08093EA289093EB2880919F285D
:105A3E009091A028499794F480919D28811109C0D6
:105A4E000093F0281093F1280093F2281093F32876
:105A5E00CECD60929F287092A028C9CD8091312919
:105A6E009091322924E6289FB001299F700D1124B0
:105A7E002091332930913429FECE0E945E08609128
:105A8E00022870910328072E000C880B990B0E9498
:105A9E0095038AE190E08093E8289093E92887E1C6
:105AAE0090E08093EA289093EB28C0903129D09013
:105ABE003229A0903329B090342980919F2890915B
:105ACE00A0284997F4F580919D28811135C0009347
:105ADE00F4281093F528E092F628F092F72880919A
:105AEE009F289091A028C39724F010929F2810927F
:105AFE00A028B501BB0C880B990B0E947E3720E0C5
