:1002000050C0000076C0000074C0000072C0000042
:1002100070C000006EC000006CC000000C94431D54
:1002200068C0000066C0000064C0000062C000003A
:1002300060C000005EC000005CC000005AC000004A
:1002400058C0000056C0000054C0000052C000005A
:1002500050C000004EC000004CC000004AC000006A
:1002600048C000000C941B1D44C0000042C00000A8
:1002700040C000003EC000003CC000003AC000008A
:1002800038C0000036C0000034C0000032C000009A
:1002900030C000002EC000002CC000002AC00000AA
:1002A000D41D11241FBECFEFCDBFDFE3DEBF18E2A8
:1002B000A0E0B8E2E0E1FBE602C005900D92A031BB
:1002C000B107D9F72BE2A0E1B8E201C01D92A1313C
:1002D000B207E1F711E0C1E5D1E004C02197FE01CA
:1002E0000E94A034C035D107C9F70E94B8200C94F1
:1002F000D93486CF109204280895809174288823D9
:1003000019F010927428089581E08093742808955C
:1003100080913629882309F45EC080910928909144
:100320000A288230910571F420913529222351F059
:100330002091292930912A292F5F3F4F2093292985
:1003400030932A292091292930912A29253D3105E8
:10035000A4F024ED30E02093292930932A2920911C
:100360002B2930912C29253D3105CCF084ED90E0EE
:1003700080932B2990932C2908958830910579F743
:1003800020913529222359F320912B2930912C29B2
:100390002F5F3F4F20932B2930932C29E0CF880FDC
:1003A000991FFC01ED5FF64D208131812F5F3F4F9A
:1003B00020833183DC01AA51B5454D915C914217F0
:1003C00053070CF08EC080549545DC018D919C91B3
:1003D000808391830895809102298130B1F48091C6
:1003E000F8289091F92801968093F8289093F9289D
:1003F0002091F4283091F528281739070CF071C0A6
:100400001092F8281092F9280895823039F58091D9
:10041000FA289091FB2801968A309105E4F48093A4
:10042000FA289093FB288091222990912329019604
:1004300080932229909323292091F2283091F32848
:10044000281739070CF04DC080E290E080932229F4
:1004500090932329089589E090E0E1CF833091F4CF
:100460008091FC289091FD280196843691052CF40A
:100470008093FC289093FD2808951092FC281092F8
:10048000FD280895843091F48091FE289091FF28F2
:1004900001968C3391052CF48093FE289093FF28CD
:1004A00008951092FE281092FF2808958530C9F40F
:1004B0008091F1288823A9F08091F028882389F081
:1004C00080910029909101290196823091052CF4A8
:1004D0008093002990930129089510920029109289
:1004E0000129089580913629882309F457C0809105
:1004F000092890910A288230910571F420913529BC
:10050000222351F02091292930912A2921503109A3
:100510002093292930932A292091292930912A29A9
:1005200020323105A4F420E230E0209329293093D1
:100530002A2920912B2930912C2920323105CCF405
:1005400080E290E080932B2990932C2908958830A5
:10055000910579F720913529222359F320912B29F0
:1005600030912C292150310920932B2930932C29AB
:10057000E0CF880F991FFC01ED5FF64D208131819E
:10058000215031092083318337FF8CC08A5695452D
:10059000DC018D919C918083918308958091022943
:1005A0008130A1F48091F8289091F92801978093E7
:1005B000F8289093F92897FF75C08091F4289091BE
:1005C000F5288093F8289093F9280895823099F5BA
:1005D00080913529811109C08091FA289091FB28DA
:1005E00001978093FA289093FB288091FA289091A4
:1005F000FB2897FF16C089E090E08093FA2890933B
:10060000FB28809122299091232980970CF04AC0E1
:100610008091F2289091F3288093222990932329A6
:10062000089580912229909123290197809322296E
:1006300090932329E6CF833079F48091FC28909120
:10064000FD28019797FD05C08093FC289093FD2815
:10065000089583E690E0F8CF843079F48091FE2805
:100660009091FF28019797FD05C08093FE289093F5
:10067000FF2808958BE390E0F8CF853099F48091BE
:10068000F128882379F08091F028882359F080910F
:10069000002990910129019797FD05C080930029B9
:1006A00090930129089581E090E0F8CFCF92DF92F6
:1006B000EF92FF926B0128EE33E040E050E00E94A1
:1006C0008434E4EEF8E22083318368EE73E0629FC5
:1006D000C001639F900D729F900D1124C81AD90A12
:1006E000C60164E670E00E944F34628373832CE994
:1006F0002603C001279F900D1124C80ED91EC601E4
:100700006AE070E00E944F346483758326EF26030D
:10071000C001279F900D1124C80ED91EC682D78212
:10072000FF90EF90DF90CF900895CF92DF92EF92FD
:10073000FF926B0128EE33E040E050E00E948434E9
:10074000ECEDF8E22083318368EE73E0629FC00134
:10075000639F900D729F900D1124C81AD90AC6018B
:1007600064E670E00E944F34628373832CE92603B1
:10077000C001279F900D1124C80ED91EC6016AE042
:1007800070E00E944F346483758326EF2603C00116
:10079000279F900D1124C80ED91EC682D782FF90C4
:1007A000EF90DF90CF9008954F925F926F927F927B
:1007B0008F929F92AF92BF92CF92DF92EF92FF9271
:1007C0000F931F93CF93DF9300D000D0CDB7DEB748
:1007D0004B015C0129013A016701780120E030E01A
:1007E000A9010E94993287FDA6C020E030E0A9014E
:1007F000C301B2010E94993287FD9DC020E030E024
:10080000A901C801B6010E94993287FD94C081E018
:1008100020915D2930915E292130310509F080E079
:1008200080937E298092432990924429A092452961
:10083000B09246294092472950924829609249290E
:1008400070924A29C0924B29D0924C29E0924D29AE
:10085000F0924E29609171297091722980917329CB
:10086000909174290E94363320E030E04AE754E446
:100870000E949D3269837A838B839C8380924F2967
:1008800090925029A0925129B09252299B01AC011B
:10089000C301B2010E94EC332B013C014092532969
:1008A00050925429609255297092562929813A8193
:1008B0004B815C81C701B6010E949D326B017C01B6
:1008C000C0925729D0925829E0925929F0925A297A
:1008D00080915B2990915C29019769F5A5019401AC
:1008E00060E070E0CB010E94343260934F29709336
:1008F00050298093512990935229A301920160E0DD
:1009000070E0CB010E9434326093532970935429D4
:100910008093552990935629A701960160E070E0D5
:10092000CB010E94343260935729709358298093E9
:10093000592990935A292496CDBFDEBFDF91CF91DC
:100940001F910F91FF90EF90DF90CF90BF90AF90ED
:100950009F908F907F906F905F904F9008954F92EF
:100960005F926F927F928F929F92AF92BF92CF923F
:10097000DF92EF92FF9220E030E040E251E460919C
:10098000EC287091ED288091EE289091EF280E943C
:100990009D322091CF28211190586093CB287093DD
:1009A000CC288093CD289093CE28F090CA28FF20A1
:1009B00009F455C02091CB283091CC284091CD2806
:1009C0005091CE286091D4287091D5288091D62856
:1009D0009091D7280E9435326093C6287093C7281B
:1009E0008093C8289093C9288091BB289091BC28F7
:1009F000892B09F07EC0FF2009F450C06091C62801
:100A00007091C7288091C8289091C9286093D828F0
:100A10007093D9288093DA289093DB2826E636E66F
:100A200046EE5FE30E94EC3320E030E040E052E429
:100A30000E9435326093B7287093B8288093B92804
:100A40009093BA28FF90EF90DF90CF90BF90AF9037
:100A50009F908F907F906F905F904F9008958091BE
:100A6000C528882309F22091CB283091CC284091C9
:100A7000CD285091CE286091C1287091C2288091D4
:100A8000C3289091C4280E9435326093BD2870938A
:100A9000BE288093BF289093C028A6CF8091C528F8
:100AA000882381F2C090BD28D090BE28E090BF2856
:100AB000F090C02820E030E040E052E4C701B601E9
:100AC0000E94343226E636E646EE5FE30E949D320F
:100AD0006093D8287093D9288093DA289093DB28E4
:100AE000C092B728D092B828E092B928F092BA28DC
:100AF000A9CF6091B3287091B4288091B5289091C6
:100B0000B6280E94383320E030E040E251E40E94F1
:100B10009D324B015C016091AB287091AC288091B3
:100B2000AD289091AE280E94383320E030E040E2BA
:100B300051E40E949D326B017C016091A728709165
:100B4000A8288091A9289091AA280E94383320E0F3
:100B500030E040E251E40E949D32A70196010E94DC
:100B600034322B013C01A50194016091D42870918D
:100B7000D5288091D6289091D7280E9434329B01A5
:100B8000AC01C301B2010E94EC332B013C01609126
:100B9000AF287091B0288091B1289091B2280E941E
:100BA000383320E030E040E251E40E949D32A5015C
:100BB00094010E9434329B01AC01C301B2010E9436
:100BC0009D32A70196010E9435326B017C01C092D3
:100BD000D828D092D928E092DA28F092DB2826E6AD
:100BE00036E646EE5FE30E94EC3320E030E040E082
:100BF00052E40E9435326093B7287093B8288093EE
:100C0000B9289093BA2820E030E048EC52E4C701BC
:100C1000B6010E94E83387FD15CF8DEC9CECA7EC64
:100C2000B2E48093D8289093D928A093DA28B0937F
:100C3000DB2808CF80913629882309F43FC08091B2
:100C4000902881113BC08091092890910A28209119
:100C50003B28211116C001978093092890930A28F8
:100C60002091F028222349F097FF0AC084E090E009
:100C70008093092890930A28089518161906B4F746
:100C800008958830910519F486E090E0F1CF8B301B
:100C9000910519F489E090E0EBCF8131910519F4C9
:100CA00080E190E0E5CF80319105A1F38630910598
:100CB0001CF481E190E0DCCF0197DACF29CB809161
:100CC0003629882309F44DC080919028811149C0AC
:100CD0008091092890910A2820913B28211119C060
:100CE00001968093092890930A282091F0282223C6
:100CF00039F00597BCF11092092810920A2808953E
:100D0000059784F181E090E08093092890930A2868
:100D100008958630910519F488E090E0F5CF209190
:100D200097288930910539F48BE090E02111ECCFC0
:100D300080E190E0E9CF211106C0893091054CF0A7
:100D400080319105ACF38031910519F481E190E097
:100D5000DBCF813191051CF085E090E0D5CF019685
:100D6000D3CFC0CB0895109287280895CF93DF93F7
:100D700090E0FC01E359F54520812F3F69F0FC012B
:100D8000EC5BF545A08130E2A39FD0011124BC5F4C
:100D9000613029F411962C93DF91CF910895855EEF
:100DA0009545EC01E881EF3F81F0CD014096E80FD9
:100DB000F92FF11D9FB7F89412962C938081623021
:100DC00039F4886080839FBFE7CFF0E0E0E0F2CFA6
:100DD000877FF8CF893208F4C9CF089590E0FC01ED
:100DE000EE50F645E081EE2319F1E13021F000F1FB
:100DF000E630A8F00895855E9545FC0120812330FA
:100E000008F02F5F3091010A81E090E001C0880F67
:100E10002A95EAF7809583238093010A089580E15B
:100E2000E89FF0011124E05AF54F81818F7E818384
:100E300008950F931F93CF93DF93C82FD0E0FE0147
:100E4000E359F54500810F3F99F0162F893208F4D8
:100E5000C5DFFE01EC5BF545E08180E2E89FF00133
:100E60001124FC5F8081802351F0111106C006839C
:100E7000DF91CF911F910F9108950583F9CFC55E42
:100E8000D5458881309771F08F3F61F07096E80FFB
:100E9000F11D9FB7F8948081111107C0877F80836F
:100EA0009FBFE6CFF0E0E0E0F4CF8860F8CF893272
:100EB00008F4BFCF08950F931F93CF93DF93EC01F6
:100EC000162F072F82E390E08E839F8360E0812FAF
:100ED00081DF1883098388E592E08A839B8388EE0B
:100EE00093E08C839D83198E1A8E1C8681E090E09E
:100EF000888799871A861B8661E0812FD8DF1F8635
:100F0000188A198A1A8A1B8A1C8A1D8A1E8A1F8AB5
:100F1000188EDF91CF911F910F91089561E08AE1C2
:100F200088DF61E08DE185DF61E08CE182DF61E0F7
:100F30008BE17FCF0F931F93CF93082F10E0F80121
:100F4000E359F545C081CF3F81F0893208F446DF8F
:100F5000F801EC5BF545E08180E2E89FF0011124A7
:100F6000FC5F8085C82381E009F480E0CF911F9168
:100F70000F9108958FB7F89420912B2830912C2849
:100F800040912D2850912E28E091AA0AF091AB0AA9
:100F90009091A60A90FF08C02F5F3F4F4F4F5F4FC1
:100FA000E091AA0AF091AB0A8FBFA8EEB3E00E94CD
:100FB000AC3424E0F695E7952A95E1F76E0F7F1F94
:100FC000811D911D08952FB7F89460912B28709181
:100FD0002C2880912D2890912E282FBF0895CF92F4
:100FE000DF92EF92FF920F931F9380913629811128
:100FF00098C08091D8289091D928A091DA28B091F2
:10100000DB2880933F2990934029A0934129B093F6
:101010004229C0903729D0903829E0903929F090A2
:101020003A2920E030E044E352E4C701B6010E94CF
:10103000993287FF7FC080E090E0A0EFB1E4809319
:101040000B2890930C28A0930D28B0930E288AE0CB
:1010500097EDA3EABCE380937F2990938029A09326
:101060008129B093822980E090E8A9E0B4E48093DC
:10107000832990938429A0938529B09386297C01A4
:101080008D012AE037ED43EA5CE360E070E080EF39
:1010900091E48ADB98DFC090D028D090D128E090EE
:1010A000D228F090D328AB01BC014C195D096E0920
:1010B0007F09493E53406105710570F0D701C601B3
:1010C00088519C4FAF4FBF4F8093D0289093D12829
:1010D000A093D228B093D32876DFC090D028D090A8
:1010E000D128E090D228F090D3286C197D098E0980
:1010F0009F090E94363320913B2930913C29409131
:101100003D2950913E290E94E83318160CF057C033
:1011100060E088E11F910F91FF90EF90DF90CF90FA
:1011200088CE8091D4289091D528A091D628B091CE
:10113000D72867CF20913F293091402940914129FC
:1011400050914229C701B6010E94343220E030E0BC
:1011500040EA50E40E94E833181624F580E090E05D
:10116000A6E1B3E480930B2890930C28A0930D285C
:10117000B0930E2810927F29109280291092812915
:101180001092822910928329109284291092852925
:1011900010928629E12CF12C8701A8019701BC014E
:1011A000CD0177CFE12CF12C08EC13E420E030E006
:1011B00040E05FE360E070E086E193E46ACF209175
:1011C0003729309138294091392950913A29609135
:1011D0003F297091402980914129909142290E9494
:1011E000E83387FF95CF61E094CF0F931F93CF93A0
:1011F000DF93FC012081222309F450C0EC0181859A
:1012000092850197B9F5DFDE0B891C892D893E890E
:10121000601B710B820B930B09811A812B813C811E
:101220006017710782079307C8F1CDDE6B8B7C8B4B
:101230008D8B9E8B8B859C85AD85BE854D815E811A
:101240006F817885481B590B6A0B7B0B4130510528
:101250006105710509F418820196A11DB11D8B87E6
:101260009C87AD87BE87E989FA89DF91CF911F916D
:101270000F9109947FDE0B891C892D893E89601BA3
:10128000710B820B930B09811A812B813C816017B2
:1012900071078207930710F06DDEC8CFDF91CF9101
:1012A0001F910F910895CF93DF93FC01218932891B
:1012B000232BA1F0EC0181859285019791F483DEC7
:1012C0006B8B7C8B8D8B9E8B81E088831B861C8631
:1012D0001D861E8681E090E08F87988BDF91CF91ED
:1012E000089548DEEDCFDC01BC01990F880B990B06
:1012F0002091E42A3091E52A232B21F428EE33E0D3
:101300000E94A6346093DC2A7093DD2A8093DE2A43
:101310009093DF2A61E080E18CDD8BED9AE2C3CF10
:1013200080910229811117C080913629811113C043
:101330008EE591E08093892890938A288091F02807
:10134000882361F01092092810920A2881E0809386
:10135000362980933C2888EC90E0C5CF81E090E06E
:101360008093092890930A28F1CF20913529809104
:10137000092890910A28211103C08830910529F08D
:10138000AC014D7F4C305105B9F501978093092888
:1013900090930A288091362981112BC080910229CF
:1013A0002223D9F18230C9F51092022980910229B5
:1013B0008530F9F420E030E040E85FE36091932865
:1013C0007091942880919528909196280E94E833F6
:1013D00087FD0FC080918F28882359F010929328A1
:1013E00010929428109295281092962881E080936C
:1013F0008F2882E390E077CF8B30910511F00D9725
:1014000021F481E080939028C5CF80919028882393
:1014100009F4C0CF10929028BDCF8150843030F6AF
:1014200080930229C3CF80913629811116C0809103
:10143000022981110BC010923C2881E090E080933A
:10144000092890930A2888EC90E04DCF1092022949
:101450001092842810928528F6CF80913B28811124
:1014600010923B2810923629EECFCF92DF92EF9266
:10147000FF920F931F93CF93DF93EC018881893202
:10148000F8F458DD082F10E09EDD298D3A8D2115E6
:101490003105C1F42A853B852017310741F421E04D
:1014A00030E0298F3A8F6B8F7C8F8D8F9E8FDF91ED
:1014B000CF911F910F91FF90EF90DF90CF90089503
:1014C00080E0E0CF2130310509F051C02885398511
:1014D00020173107E9F40B8D1C8D2D8D3E8DAB014E
:1014E000BC01401B510B620B730B8E819F81092E37
:1014F000000CAA0BBB0B481759076A077B0718F4A7
:10150000198E1A8ED4CF82E090E0898F9A8FCFCF38
:101510002A853B852017310751F60B8D1C8D2D8DAB
:101520003E8DAB01BC01401B510B620B730B8C81D8
:101530009D81092E000CAA0BBB0B84179507A607EB
:10154000B70708F0B4CF81E08C87E989FA89309732
:1015500009F00995EB89FC89309709F00995EF8925
:10156000F88D309709F0099586E090E0CECF2230D3
:10157000310519F5CB8CDC8CED8CFE8C6C197D095A
:101580008E099F09CA80DB800D2C000CEE08FF0835
:10159000C616D706E806F90638F4ED85FE853097BD
:1015A00009F4AECF0995ACCF8A859B85801791074A
:1015B00009F07DCF83E090E0A8CF2330310549F4D6
:1015C000888599858017910709F071CFEF85F88993
:1015D000E6CF2630310509F06ACF888599858017D6
:1015E000910721F41C86ED89FE89D9CF81E08C8793
:1015F000EF89F88D309709F45ACFDF91CF911F9181
:101600000F91FF90EF90DF90CF900994EBEDFAE20D
:10161000108213861486158616861786108A60E057
:1016200080E107CC85EA9AE23EDE61E080E101CC10
:1016300060E080E1FEDB80919128882349F0809171
:101640009E2890919F28019680939E2890939F2892
:101650008091A0289091A12801968093A028909332
:10166000A128089560E08AE1E4DB8AE89AE21BCED3
:1016700061E08AE1DEDB809198288F5F8093982873
:1016800008958F929F92AF92BF92CF92DF92EF9286
:10169000FF92CF93DF93C0912528D09126282196E1
:1016A000C0932528D093262881E080930606809356
:1016B000080680910B0680FFFCCF609110067091A8
:1016C0001106072E000C880B990B0E9438332091CD
:1016D00021283091222840912328509124280E94CB
:1016E00035326B017C01C0922128D0922228E092F1
:1016F0002328F09224286091002870910128C617B1
:10170000D7070CF476C0072E000C880B990B0E94AB
:1017100038339B01AC01C701B6010E949D32609332
:10172000212870932228809323289093242820E056
:1017300030E040EA50E40E94EC3320E030EC4FE728
:1017400054E40E949D3220E030E040E251E40E94E7
:101750009D3228EB3FE840E65FE30E9435326B01A3
:101760007C0120E030E04BEE53E40E94EC334B016F
:101770005C01A701960160E070E080EA90E40E94BD
:1017800034329B01AC01C501B4010E949D3220E0BE
:1017900030E048EC52E40E949D3220E030E040E826
:1017A0005FE30E94343228E430E54CE75BE30E94BB
:1017B0009D326093D4287093D5288093D628909337
:1017C000D72826E636E646EE5FE30E94EC3320E0BB
:1017D00030E040E052E40E9435326093C1287093BB
:1017E000C2288093C3289093C42810922528109271
:1017F000262882E390E08093002890930128DF91CF
:10180000CF91FF90EF90DF90CF90BF90AF909F90DF
:101810008F9008953F924F925F926F927F928F9236
:101820009F92AF92BF92CF92DF92EF92FF920F936F
:101830001F93CF93DF93CDB7DEB72E97CDBFDEBF1B
:1018400080917D29882309F429C1BDDB6D837E83C6
:101850008F8398878091652990916629A091672947
:10186000B09168294D815E816F817885481B590B45
:101870006A0B7B0B8091712990917229A091732939
:10188000B0917429481759076A077B0708F406C105
:10189000E0915F29F091602980819181A281B381DB
:1018A00089839A83AB83BC83E0916329F091642997
:1018B0009C01AD0160817181828193810E943432EB
:1018C0004B015C0120916D2930916E2940916F2967
:1018D0005091702969817A818B819C810E94343278
:1018E0006B017C0120915329309154294091552955
:1018F00050915629C501B4010E94EC332091692909
:1019000030916A2940916B2950916C290E9435329F
:101910002B013C014092692950926A2960926B29FF
:1019200070926C2930907E2931101AC020914F2975
:10193000309150294091512950915229C701B60147
:101940000E94EC339B01AC01C301B2010E9434320E
:101950006093692970936A2980936B2990936C290D
:101960004090692950906A2960906B2970906C2989
:101970001091792990917A299E87A0917B29AD8732
:1019800000917C29212F392F4A2F502FC301B201FA
:101990000E94E83318160CF096C0812F9E85AD8505
:1019A000B02F8093692990936A29A0936B29B093F3
:1019B0006C29332009F4A0C020914F29309150297F
:1019C0004091512950915229C501B4010E94EC3334
:1019D0004B015C0120915729309158294091592998
:1019E00050915A29C701B6010E94EC339B01AC010A
:1019F0006091692970916A2980916B2990916C2975
:101A00000E943432A50194010E9435326B017C01A1
:101A10009B01AC01612F7E858D85902F0E949932AC
:101A200087FD18C010917529909176299E87A09105
:101A30007729AD8700917829212F392F4A2F502FF0
:101A4000B601C7010E94993287FD04C01C2DDE86B5
:101A5000ED860F2DE0916129F0916229812F9E85FD
:101A6000AD85B02F80839183A283B38389819A81CE
:101A7000AB81BC8180936D2990936E29A0936F29CF
:101A8000B09370298D819E81AF81B885809365293F
:101A900090936629A0936729B09368292E96CDBFAD
:101AA000DEBFDF91CF911F910F91FF90EF90DF90FC
:101AB000CF90BF90AF909F908F907F906F905F90EE
:101AC0004F903F9008958091752990917629A0912B
:101AD0007729B091782989879A87AB87BC879C0141
:101AE000AD01C301B2010E94993287FF62CF89859F
:101AF0009A85AB85BC8555CF812C912C54016ACF3A
:101B00008091412881110EC081E0809387288091C7
:101B100020288F5F80932028893124F00E94720250
:101B200010922028089510928728089580914128C6
:101B300081110EC081E080938728809120288F5FDB
:101B400080932028893124F00E9488011092202857
:101B50000895FC0180819181FC01FF2790FD06C062
:101B600080E094E1E82BF92B8081089580E093E1F7
:101B7000F9CFEF92FF920F931F93CF93DF9300D093
:101B8000CDB7DEB78C017B0189839A83CE010196A4
:101B9000E0DFF70180830F5F1F4F09831A83CE01B7
:101BA0000196D7DFF7018183C7010F900F90DF9176
:101BB000CF911F910F91FF90EF900895AF92BF9238
:101BC000CF92DF92EF92FF920F931F93CF93DF9309
:101BD00000D0CDB7DEB78B016B0124E0C20ED11C63
:101BE0007B015C01A61AB70AC5018E0D9F1D898372
:101BF0009A83CE010196ADDFF70181937F01EC1549
:101C0000FD0591F7C8010F900F90DF91CF911F91C3
:101C10000F91FF90EF90DF90CF90BF90AF9008951D
:101C2000CF93DF9300D0CDB7DEB789839A83CE01FF
:101C300001968FDF0F900F90DF91CF910895FC01F7
:101C4000FF2790FD12C080E094E1E82BF92B608320
:101C50008FB7F8949DE923E094BF209300108FBFC5
:101C60008091021081FDFCCF089580E093E1EDCFDB
:101C7000E6CF1F93CF93DF93EC01162F6ADF811716
:101C800021F0612F88819981DADFCE01DF91CF9138
:101C90001F910895EF92FF920F931F93CF93DF93BD
:101CA00000D0CDB7DEB78CEEE82E88E2F82E06E441
:101CB00010E009831A83F70161917F01CE0101963B
:101CC000D8DF0F5F1F4F0A34110599F78CEE98E2A9
:101CD0000F900F90DF91CF911F910F91FF90EF9098
:101CE0000895EF92FF920F931F93CF93DF9300D04D
:101CF000CDB7DEB78C017B0189839A83FB016081BC
:101D0000CE010196B6DF0F5F1F4F09831A83F701DB
:101D10006181CE010196ADDFC7010F900F90DF9179
:101D2000CF911F910F91FF90EF9008952F923F92C6
:101D30004F925F926F927F928F929F92AF92BF92DB
:101D4000CF92DF92EF92FF920F931F93CF93DF9387
:101D500000D000D0CDB7DEB72091022929832230F0
:101D600009F423C5E4F4222309F423C3213009F440
:101D700099C42496CDBFDEBFDF91CF911F910F9103
:101D8000FF90EF90DF90CF90BF90AF909F908F909B
:101D90007F906F905F904F903F902F900895398182
:101DA000343009F411C60CF48BC5353011F780902E
:101DB000F8289090F9286091FA287091FB28072E56
:101DC000000C880B990B0E94383320E030E040E291
:101DD00051E40E949D326B017C01B401990C880B87
:101DE000990B0E9438339B01AC01C701B6010E94D8
:101DF00035326B017C01C0928028D0928128E0921C
:101E00008228F09283288091222990912329898326
:101E10009A8380937E2890937F28A090FC28B0908E
:101E2000FD28A0927C28B0927D280091FE28109178
:101E3000FF2800937A2810937B282CE32A9DC00169
:101E40002B9D900D1124800F911F809384289093D7
:101E50008528BB24B394B0928E28682D83E790E048
:101E600007DF6091FA2885E790E002DF62E279E21D
:101E700088E790E036DF6A2D8DE790E0F9DE602F8D
:101E800082E890E0F5DE61E087E890E0F1DE109115
:101E900035298091792881117EC6111137C620E03D
:101EA00030E040E251E46091D8287091D9288091C7
:101EB000DA289091DB280E9435329B01AC01C701E2
:101EC000B6010E94E83387FF05C081E0809379283E
:101ED00011113CC6C0927528D0927628E0927728DE
:101EE000F0927828C0923729D0923829E092392987
:101EF000F0923A2989E39AE2D6D981E08093742856
:101F00008AE0882E87ED982E83E2A82E8CE3B82EE7
:101F100001E010E09CE3292E312C809184289091DF
:101F200085281816190614F00C949B1761E08DE1B2
:101F30000E94190760E08BE10E9419070E94AF041C
:101F400086EF9AE252D980918628882329F08091E1
:101F5000F02861E0811101C060E089E10E94190769
:101F6000F0908F28F11009C02ED8609370287093DC
:101F700071288093722890937328609170287091D3
:101F800071288091722890917328603534E373072B
:101F900033E08307910508F441C0F1103FC0C090C1
:101FA000D428D090D528E090D628F090D72820E6E5
:101FB0003AEE40E050E00E946234CA01B9010E944A
:101FC00036339B01AC01C701B6010E949D3260937C
:101FD00093287093942880939528909396280E9434
:101FE000E30760936C2870936D2880936E2890931C
:101FF0006F280E94E3076093682870936928809394
:102000006A2890936B28C0926428D0926528E09249
:102010006628F092672881E080938F28C0909328EB
:10202000D0909428E0909528F090962820E030E019
:1020300040E85FE3C701B6010E94E83387FDFBC5B6
:1020400080918F28882309F49EC060E088E10E9477
:10205000190710921E2A1092292A10922A2A1092E9
:102060002B2A10922C2A10922D2A10922E2A0E948E
:10207000E3076B017C01C0926028D0926128E09256
:102080006228F0926328109292284090D4285090B1
:10209000D5286090D6287090D72840925C2850921E
:1020A0005D2860925E2870925F2880916C289091E4
:1020B0006D28A0916E28B0916F28A7019601281B6A
:1020C000390B4A0B5B0BDA01C90180369A4EA10528
:1020D000B10509F058C020916428309165284091DD
:1020E000662850916728C301B2010E9434322091C2
:1020F000052830910628409107285091082850580B
:102100000E94993218160CF472C560915A28709189
:102110005B28161617060CF44BC5CB01019680936D
:102120005A2890935B288092052890920628A092C6
:102130000728B09208280E94E307609356287093FE
:102140005728809358289093592880915A28909125
:102150005B28029741F410929328109294281092D1
:10216000952810929628C0926C28D0926D28E09203
:102170006E28F0926F2840926428509265286092F1
:102180006628709267284090D8285090D92860908F
:10219000DA287090DB28C0907528D0907628E090DF
:1021A0007728F090782880915528811161C581E0C9
:1021B00080935428A3019201C701B6010E9499326D
:1021C00018160CF44CC08091AE2A9091AF2A892B3E
:1021D00009F46DC580E991E0A0E0B0E08093A62A03
:1021E0009093A72AA093A82AB093A92A8091C92ADC
:1021F0009091CA2A892B09F45FC580E293E0A0E0A0
:10220000B0E08093C12A9093C22AA093C32AB093CE
:10221000C42A8091992890919A28892B51F481E0C1
:102220008093912880EC9AE23ED8009399281093ED
:102230009A2880919E2890919F28029781F410926D
:10224000C02A1092CB2A1092CC2A1092CD2A10923A
:10225000CE2A1092CF2A1092D02A109291288091E3
:10226000842890918528B1010E944F346B017C0134
:1022700060937C2870937D288093522890935328F4
:1022800020E030E040E85FE360914E2870914F28F5
:1022900080915028909151280E94353260934E28A9
:1022A00070934F2880935028909351281092A22821
:1022B00020E030E040E85FE360919328709194283B
:1022C00080919528909196280E94E83387FD03C558
:1022D0001092882881E080939D28109291280E9476
:1022E0008E0760E08DE00E94190745E150E04093C1
:1022F000DC285093DD2889E190E08093DE289093DC
:10230000DF288AE190E08093E0289093E128809391
:10231000E2289093E3288EE090E08093E428909365
:10232000E5288DE090E08093E6289093E72880E10F
:1023300090E08093E8289093E9288EE190E08093E4
:10234000EA289093EB288091AE2A9091AF2A892BAE
:1023500009F4B7C488EE93E0A0E0B0E08093A62A29
:102360009093A72AA093A82AB093A92A8091C92A5A
:102370009091CA2A892B09F4A9C480ED97E0A0E0C6
:10238000B0E08093C12A9093C22AA093C32AB0934D
:10239000C42A8091992890919A28892B09F0BDCD63
:1023A00080EC9AE20E9453090093992810939A288E
:1023B000B4CD1092A6281092A5281092A4281092AD
:1023C000A3281092A2281092A0281092A12810925F
:1023D0009E2810929F2810929D2810929B28109260
:1023E0009C281092992810929A281092982810925E
:1023F00097281092F1281092932810929428109206
:1024000095281092962810929228109237291092AF
:1024100038291092392910923A2910929128109255
:10242000902881E080938F281092C02A1092CB2AA6
:102430001092CC2A1092CD2A1092CE2A1092CF2A36
:102440001092D02A60E089E10E94190710928A2A2E
:102450001092952A1092962A1092972A1092982AF2
:102460001092992A10929A2A10926F2A10927A2A20
:1024700010927B2A10927C2A10927D2A10927E2A3A
:1024800010927F2A60E088E10E94190710921E2AAC
:102490001092292A10922A2A10922B2A10922C2A62
:1024A00010922D2A10922E2A0E948E0780918E283B
:1024B000882309F49BC080918D28882309F496C055
:1024C00080918B2890918C2803970CF08BC04091C1
:1024D000892850918A2849835A834B3451050CF03E
:1024E0003FC061E080E10E94190788E190E080939D
:1024F000E4289093E5288093E6289093E72880933A
:10250000E8289093E9288093EA289093EB28809319
:10251000DC289093DD288093DE289093DF28809339
:10252000E0289093E1288093E2289093E32860E0EC
:102530008CE02496CDBFDEBFDF91CF911F910F912C
:10254000FF90EF90DF90CF90BF90AF909F908F90D3
:102550007F906F905F904F903F902F900C94190751
:1025600060E080E10E9419078BE090E08093DC2816
:102570009093DD2821E130E02093DE283093DF289E
:1025800087E190E08093E0289093E1288CE090E050
:102590008093E2289093E3288093E4289093E528A1
:1025A00080E190E08093E6289093E7282093E82844
:1025B0003093E9288093EA289093EB2889819A81C7
:1025C000873991050CF4B3CF80918B2890918C289A
:1025D000019680938B2890938C28109289281092D2
:1025E0008A28A5CF85E080930229A1CF8091352943
:1025F00081113DC0C090D828D090D928E090DA2829
:10260000F090DB282DEC3CEC47EC52E4C701B6011E
:102610000E94E8331816DCF420E030E040E251E498
:10262000C701B6010E94EC330E9405330E94950356
:10263000109288288AE090E08093E2289093E32823
:1026400060E070E0CB010E94560361E071CF20E0B2
:1026500030E048EC52E4C701B6010E94EC330E941E
:1026600005330E94950381E080938828E3CF20E022
:1026700030E040E251E46091B7287091B828809131
:10268000B9289091BA280E94EC330E9405330E9429
:10269000950385E190E08093E2289093E3281092DF
:1026A0008828CECF1092A2281092882860E08DE171
:1026B0000E94190761E08CE00E9419078091892827
:1026C00090918A2849970CF050C0809187288111F9
:1026D00045C088E190E08093DC289093DD288093CA
:1026E000DE289093DF288091892890918A28C397CB
:1026F00024F01092892810928A288AE090E0809332
:10270000E2289093E3288091FC289091FD2824E60C
:10271000289FB001299F700D11248091FE2890916F
:10272000FF28680F791F072E000C880B990B249641
:10273000CDBFDEBFDF91CF911F910F91FF90EF9042
:10274000DF90CF90BF90AF909F908F907F906F90D1
:102750005F904F903F902F900C94560389E190E04A
:102760008093892890938A28BECF99819093882856
:102770008091F8289091F92824E6289FB001299F9C
:10278000700D11242091FA283091FB284AE0429FD5
:10279000C001439F900D1124680F791F072E000C74
:1027A000880B990B0E9495039ECF8091FC289091F5
:1027B000FD2814E6189FB001199F700D1124809117
:1027C000FE289091FF28680F791F072E000C880BB8
:1027D000990B0E945603A0918928B0918A28A98359
:1027E000BA838091352981113FC08091F82890915A
:1027F000F928189FB001199F700D11242091FA2813
:102800003091FB284AE0429FC001439F900D112464
:10281000680F791F072E000C880B990B0E949503F7
:102820008AE090E08093E2289093E32881E080930F
:10283000882829813A812931310554F480918728EB
:10284000811197C088E190E08093E0289093E1287F
:102850008091892890918A28C3970CF48ACA109293
:10286000892810928A2885CA80912229909123294B
:102870002AE0289FB001299F700D1124072E000C1B
:10288000880B990B0E94950385E190E08093E228E4
:102890009093E3281092882849815A814931510543
:1028A000BCF680918728811164C088E190E0809314
:1028B000DC289093DD288093DE289093DF28C4CF16
:1028C0008091352981113CC08091F8289091F92898
:1028D00024E6289FB001299F700D11242091FA2829
:1028E0003091FB284AE0429FC001439F900D112484
:1028F000680F791F072E000C880B990B0E94950317
:102900008AE090E08093E2289093E32881E080932E
:1029100088288091892890918A2849978CF5809100
:102920008728811126C088E190E08093E428909365
:10293000E5288093E6289093E7281092A22888CF74
:1029400080912229909123292AE0289FB001299F74
:10295000700D1124072E000C880B990B0E94950313
:1029600085E190E08093E2289093E32810928828F4
:10297000D0CF89E190E08093892890938A2868CF0E
:102980001092A22880910229082E000C990BFC01BC
:10299000EE0FFF1FEA50F74D2081318144E6429F40
:1029A000B001439F700D1124880F991FFC01E8505E
:1029B000F74D80819181680F791F072E000C880BDD
:1029C000990B0E94560344CF1092A228809135297A
:1029D00081117CC08091F8289091F92824E6289FE5
:1029E000B001299F700D11242091FA283091FB2805
:1029F0004AE0429FC001439F900D1124680F791F48
:102A0000072E000C880B990B0E9495038AE090E03A
:102A10008093E2289093E32881E080938828809136
:102A2000FC289091FD2824E6289FB001299F700D75
:102A300011248091FE289091FF28680F791F072E9E
:102A4000000C880B990B0E94560380918928909165
:102A50008A28499774F480918728811150C088E1B1
:102A600090E08093E8289093E9288093EA28909357
:102A7000EB288091892890918A28C39724F010929E
:102A8000892810928A2810929B2810929C28809165
:102A9000862890E0809300299093012981E080931B
:102AA000F1282091FC283091FD284CE3429FC00181
:102AB000439F900D11242091FE283091FF28820F12
:102AC000931F809384289093852853C9809122294D
:102AD000909123292AE0289FB001299F700D11248D
:102AE000072E000C880B990B0E94950385E190E05E
:102AF0008093E2289093E3281092882890CF89E170
:102B000090E08093892890938A28B3CFA981BA81D5
:102B1000BD01BB0F880B990B0E9438334B015C0140
:102B200020E030E040E751E46091B7287091B82888
:102B30008091B9289091BA280E9435329B01AC014E
:102B4000C501B4010E94E83387FDBFC929813A81DC
:102B5000B901330F880B990B0E94383360937528A5
:102B600070937628809377289093782820E030E03F
:102B700040E052E40E94343226E636E646EE5FE359
:102B80000E949D32609337297093382980933929A8
:102B900090933A29AFC910929328109294281092DA
:102BA000952810929628B0928F281092792890C973
:102BB0008091562890915728A0915828B091592873
:102BC000A7019601281B390B4A0B5B0B20393F45A7
:102BD0004140510538F4CB01019680935A289093D7
:102BE0005B28B3CA10925A2810925B28AECA809113
:102BF000682890916928A0916A28B0916B28A70154
:102C00009601281B390B4A0B5B0BDA01C901813A8B
:102C10009846A640B10508F498CA81E080937928C7
:102C200060E080E10E941907109202291092842826
:102C3000109285288ACA20E030E040E85FE3C701AF
:102C4000B6010E94993287FF9ECA80918F288823FF
:102C500009F499CA80919228811107C08EE19AE205
:102C60000E94530981E0809392280E94EF078BCA4B
:102C70008091352981110CC0A3019201C701B601D1
:102C80000E94993218160CF092CA1092542892CAD7
:102C9000A70196016091B7287091B8288091B92852
:102CA0009091BA280E94E83387FF81CAEECF80E86E
:102CB0009AE1A6E0B0E092CA80E095E3ACE0B0E033
:102CC000A0CA80E492E4AFE0B0E048CB80E894E8AA
:102CD000AEE1B0E056CB8091F128882309F44FC0D3
:102CE0008091F028882309F44AC010928828109215
:102CF000A3280E948E0760E08CE00E9419078CE0F8
:102D000090E08093DC289093DD2880E190E0809330
:102D1000DE289093DF2889E190E08093E02890936B
:102D2000E12881E190E08093E2289093E32880916C
:102D30000029909101291092E4281092E528892B0E
:102D400089F485E190E08093E6289093E7288093CA
:102D5000E8289093E92888E190E08093EA2890930E
:102D6000EB28DBC884E190E08093E6289093E72885
:102D700088E190E08093E8289093E928EECF809155
:102D80004C2890914D289C012F5F3F4F20934C2859
:102D900030934D2861E02839384038F08759984001
:102DA0008839984008F054C060E08CE00E94190710
:102DB00080919D28882371F01092C02A1092CB2A0E
:102DC0001092CC2A1092CD2A1092CE2A1092CF2A9D
:102DD0001092D02A84E68C9DB0018D9D700D112437
:102DE0006E0D7F1D072E000C880B990B0E94560359
:102DF00089E39AE20E94F508809174288823F1F112
:102E000061E08CE10E94190760E08DE10E941907E2
:102E10006091752870917628809177289091782814
:102E200020913529211119C020E030E048EC52E40E
:102E30000E94EC330E9405330E9495038AE090E0E3
:102E40008093E2289093E32881E08093882865C8E6
:102E500010924C2810924D28ABCF20E030E040E299
:102E600051E40E94EC330E9405330E94950325E152
:102E700030E02093E2283093E3284FC860E08CE1F3
:102E80000E94190761E08DE10E94190780913529A0
:102E9000811137C0C090D828D090D928E090DA2886
:102EA000F090DB282DEC3CEC47EC52E4C701B60176
:102EB0000E94E8331816ACF420E030E040E251E420
:102EC000C701B6010E94EC330E9405330E949503AE
:102ED000109288288AE090E08093E2289093E3287B
:102EE0001CC820E030E048EC52E4C701B6010E9463
:102EF000EC330E9405330E94950381E0809388287B
:102F0000E9CF20E030E040E251E46091B7287091D1
:102F1000B8288091B9289091BA280E94EC330E9479
:102F200005330E94950345E150E04093E228509319
:102F3000E3280C948D0F0E948E078FE69AE20E9480
:102F4000530910928E2860E087E890E00E94380EC6
:102F5000609148287091492880914A2890914B2887
:102F60002CE330E040E050E00E946234690120939D
:102F700046283093472864E478E288E990E00E948C
:102F8000B90D20914428309145282C0D3D1D2093EA
:102F90004428309345282F30374268F080914228EA
:102FA0009091432801968093422890934328109251
:102FB00044281092452864E478E288E990E00E9471
:102FC000710E62E478E28AE990E00E94710E10923C
:102FD00046281092472810924828109249281092AB
:102FE0004A2810924B281092392A1092442A1092A3
:102FF000452A1092462A1092472A1092482A109287
:10300000492A809198288330B8F484EF91E00E9497
:10301000730910921E2A1092292A10922A2A1092BD
:103020002B2A10922C2A10922D2A10922E2A86EFEB
:103030009AE20E94F508E5CF109202290C94B90E8D
:10304000AF92BF92CF92DF92EF92FF920F931F93B6
:10305000CF93DF9300D0CDB7DEB78B016B0124E0B7
:10306000C20ED11C7B015C01A61AB70AC5018E0DE8
:103070009F1D89839A83F70161917F01CE0101969B
:103080000E94390EEC14FD0489F7C8010F900F90CF
:10309000DF91CF911F910F91FF90EF90DF90CF9034
:1030A000BF90AF9008952F923F924F925F926F9290
:1030B0007F928F929F92AF92BF92CF92DF92EF92C8
:1030C000FF920F931F93CF93DF9300D01F92CDB742
:1030D000DEB7109287288091362981116CC010923A
:1030E000892810928A2880910229843031F4209115
:1030F000842830918528232B51F0909135299923EC
:1031000009F457C0811155C082E080930229809153
:10311000022985300CF473C38091F028882309F1CB
:1031200085E0809302298091F128882309F463C304
:103130001092F1288091F128811113C061E08091F3
:10314000002990910129892B09F460E06093862879
:1031500090E080E00E94380E8091022985300CF4C6
:103160004EC300919B2810919C28101611060CF458
:1031700046C388EE93E00E9473090F5F1F4F0093D0
:103180009B2810939C282396CDBFDEBFDF91CF9163
:103190001F910F91FF90EF90DF90CF90BF90AF9075
:1031A0009F908F907F906F905F904F903F902F9067
:1031B00008958F5FAACF0091092810910A28809165
:1031C0009028811102C18091862890E08093032984
:1031D00090930429209135292B83822F90E08093AE
:1031E00005299093062980918D2890E080930B29E2
:1031F00090930C298091F02890E080930D29909372
:103200000E29211199C08091F4289091F52880937E
:103210000729909308298091BB289091BC2880931E
:103220000F2990931029C090D428D090D528E090F1
:10323000D628F090D728C701B6010E9405334B016C
:1032400020E030E040E251E4C701B6010E94EC33D7
:103250000E9405332B01CB016AE070E00E944F34DD
:103260001C018B8181117EC020E030E048EC52E4EB
:10327000C701B6010E94993287FF67C08092112969
:103280009092122940921E2850921F2820921329B2
:103290003092142980910228909103288093152957
:1032A000909316298092192990921A2920921B290D
:1032B00030921C290C30110509F06DC0C0921628FF
:1032C000D0921728E0921828F092192820E030E0D8
:1032D00048EC52E4C701B6010E94993287FF68C0EA
:1032E00080921D2990921E2920921F293092202918
:1032F0008091552890E08093092990930A29013103
:10330000110521F410922F28109230282B812111C1
:1033100009C00830110531F487E090E08093092856
:1033200090930A2881E0809390288AE190E080932E
:10333000892890938A28EBCE8091F2289091F328E7
:103340008093292990932A2966CF83E690E0809381
:1033500011299093122989E090E08093132990938A
:10336000142998CF4090C1285090C2286090C3285B
:103370007090C428C301B2010E94053360932B29C9
:1033800070932C2940921A2850921B2860921C2876
:1033900070921D287FCF0E30110509F097CFC09293
:1033A0001228D0921328E0921428F09215288ECF7C
:1033B00083E690E080931D2990931E2989E090E098
:1033C00080931F299093202993CF0F30110510F57A
:1033D000F801E351F64E0C94A034FC192A1A371A5E
:1033E000DB1B551A631A701A0A1A7B1A2E1B3C1B18
:1033F0000A1A551B0A1A661B61E0809103299091F5
:103400000429892B09F460E06093862890E080E02D
:103410000E94380E8091092890910A282091352920
:10342000211103C08730910561F09C012D7F293067
:10343000310539F08D30910521F08131910509F088
:10344000CDC121E020939028019680930928909384
:103450000A286BCF61E08091052990910629892B7C
:1034600009F460E06093352981E090E0D1CF80914C
:10347000352981110BC0609107298091082960933B
:10348000F4288093F52882E090E0C2CF809129292A
:1034900090912A298093F2289093F32862EF78E2A2
:1034A00083E090E00E94710EB5CF61E080910B291E
:1034B00090910C29892B09F460E060938D288FE0AE
:1034C00090E00E94380E61E080910D2990910E29C4
:1034D000892B09F460E06093F02886E990E098CFAA
:1034E00060910F29809110296093BB288093BC289C
:1034F00085E090E08DCF8091352981118AC060915F
:10350000132970911429072E000C880B990B0E9427
:10351000383320E030E040E251E40E949D326B01FC
:103520007C016091112970911229072E000C880BE3
:10353000990B0E9438339B01AC01C701B6010E9470
:10354000353220E030E040E251E40E94EC336B0180
:103550007C0160911E2870911F28072E000C880B9B
:10356000990B0E9438339B01AC01C701B6010E9440
:10357000343220E030E040E251E40E949D3260931A
:10358000CB287093CC288093CD289093CE2881E0CF
:103590008093CA281092C5288090CB289090CC2880
:1035A000A090CD28B090CE2820E030E040E251E459
:1035B000C501B4010E94EC336B017C0120E030E0D6
:1035C000A901C501B4010E94993287FF44C081E07E
:1035D0008093CF28F7FAF094F7F8F094C092EC2893
:1035E000D092ED28E092EE28F092EF280E944A0E49
:1035F0006091CF2887E090E00E94380E6091CA2841
:1036000088E090E00E94380E6091C52889E090E043
:10361000FFCE60912B2970912C29072E000C880B6E
:10362000990B0E94383320911A2830911B28409121
:103630001C2850911D280E9434326093CB2870932F
:10364000CC288093CD289093CE281092CA2881E070
:103650008093C528A1CF1092CF28C0CF8091152983
:103660009091162980930228909303280A968093BC
:10367000172990931829CECE809117299091182957
:1036800080933528909336288091D4289091D5281E
:10369000A091D628B091D728809316289093172808
:1036A000A0931828B0931928B5CE8091D428909172
:1036B000D528A091D628B091D7288093122890932E
:1036C0001328A0931428B0931528A4CE20E030E04E
:1036D00040E251E4609116287091172880911828D3
:1036E000909119280E94EC330E9405336093B3280F
:1036F0007093B4288093B5289093B62820E030E0EA
:1037000040E251E4609112287091132880911428AE
:10371000909115280E94EC330E9405336093AF28E6
:103720007093B0288093B1289093B22863EB78E22D
:1037300080E590E085DC6FEA78E28AE590E080DC65
:1037400020E030E040E251E4609137287091382861
:103750008091392890913A280E94EC330E940533D9
:103760006093AB287093AC288093AD289093AE28DB
:1037700020E030E040E251E460913128709132283D
:1037800080913328909134280E94EC330E940533B5
:103790006093A7287093A8288093A9289093AA28BB
:1037A0006BEA78E284E690E04BDC67EA78E28EE64A
:1037B00090E046DC2FCE61E08091092990910A29A2
:1037C000892B09F460E06093552881E490E08983B7
:1037D0009A83CE0101960E94390E1CCE9C012B7F4C
:1037E000109290282A30310509F42ECE8C309105A4
:1037F00009F09BCD29CE81E08093F1289BCC82E318
:1038000090E00E947309BFCCEF92FF920F931F9339
:10381000CF93DF93E82EF62ED0E0C0E0042F10E027
:10382000B8010C2E02C0759567950A94E2F7617095
:103830008E2D0E94570761E08F2D0E94570760E090
:103840008F2D0E9457072196C830D10549F7DF9187
:10385000CF911F910F91FF90EF9008950F931F93B9
:10386000CF93DF9384EE99E20E94350A85EC99E2CA
:103870000E94350A86EA99E20E94350A87E899E2B1
:103880000E94350A61E084E00E94570761E085E00C
:103890000E94570761E086E00E94570761E087E0D9
:1038A0000E94570760E083E10E9457072091A328F8
:1038B0008091272890912828222331F0E091E42854
:1038C000F091E5280097C1F02091A228222339F039
:1038D000E091E628F091E7288130910569F0209188
:1038E000A428222309F483C08230910509F07FC007
:1038F000E091E828F091E928E653F64540814160DF
:1039000064E182E181DFC0912728D0912828FE015F
:10391000EE0FFF1FEA54F64560E080810E945707D2
:1039200061E083E10E9457072196C530D1050CF074
:103930006AC0C0932728D093282861E088E00E94BD
:10394000570761E089E00E94570761E08AE00E9422
:10395000570761E08BE00E94570760E080E20E9419
:103960005707C0912928D0912A288091A6288E0136
:10397000000F111F882331F0E091DC28F091DD2841
:103980002097B1F080918828882339F0E091DE28D3
:10399000F091DF28C130D10559F08091A528882306
:1039A000B9F1C230D105A1F5E091E028F091E1280C
:1039B000E653F645408141606EE18FE125DFF80175
:1039C000E054F64560E080810E94570761E080E2A4
:1039D0000E9457072196C530D10524F5C0932928A8
:1039E000D0932A28DF91CF911F910F910895880FCE
:1039F000991FFC01EC51F74D0190F081E02DE65349
:103A0000F64540817DCF109227281092282895CF27
:103A1000F801E452F74D0190F081E02DE653F645B0
:103A20004081CACF1092292810922A281092272864
:103A300010922828D7CF1F920F920FB60F92112401
:103A40008F939F93AF93BF9380912B2890912C28B5
:103A5000A0912D28B0912E280196A11DB11D809313
:103A60002B2890932C28A0932D28B0932E2881E00A
:103A70008093A60ABF91AF919F918F910F900FBE37
:103A80000F901F9018951F920F920FB60F9211244E
:103A90002F933F934F935F936F937F938F939F9356
:103AA000AF93BF93EF93FF938BED9AE20E94F508DB
:103AB0008EE19AE20E94F50884E59AE20E94F508F8
:103AC00080EC9AE20E94F50885EA9AE20E94F508E5
:103AD0008AE89AE20E94F5088FE69AE20E94F508C9
:103AE0008091892890918A280196809389289093C3
:103AF0008A2880915428882381F180911028909100
:103B0000112801968093102890931128803B9E40A5
:103B100021F58091482890914928A0914A28B09198
:103B20004B280196A11DB11D8093482890934928E8
:103B3000A0934A28B0934B2880918428909185289F
:103B400001978093842890938528109210281092D2
:103B50001128892B11F410925428809190288823E1
:103B600079F08091092890910A28429749F4809130
:103B70002F2890913028019680932F2890933028F9
:103B800081E080930B0AFF91EF91BF91AF919F91DC
:103B90008F917F916F915F914F913F912F910F90F6
:103BA0000FBE0F901F9018954F925F926F927F9269
:103BB0008F929F92AF92BF92CF92DF92EF92FF923D
:103BC00082E090E08093FF2A9093002B80E89CE0B5
:103BD000A0E0B0E08093F72A9093F82AA093F92A06
:103BE000B093FA2A1092FB2A1092FC2A1092FD2A16
:103BF0001092FE2A8EE29CE18093072B9093082B73
:103C00001092F62A1092092B10920A2B10920B2B6D
:103C100010920C2B1092012B1092022B1092032B5E
:103C20001092042B1092E42A1092E52A40EA56E8FA
:103C300061E070E04093DC2A5093DD2A6093DE2A35
:103C40007093DF2AC12CD12C7601C394C092E02A54
:103C5000D092E12AE092E22AF092E32A86E09BE009
:103C60008093EC2A9093ED2A1092DB2A1092EE2A90
:103C70001092EF2A1092F02A1092F12A1092E62A5E
:103C80001092E72A1092E82A1092E92A1092C92A83
:103C90001092CA2A80E894E8AEE1B0E08093C12A8D
:103CA0009093C22AA093C32AB093C42A1092C52A23
:103CB0001092C62A1092C72A1092C82A22E13BE02D
:103CC0002093D12A3093D22A1092C02A1092D32A5C
:103CD0001092D42A1092D52A1092D62A1092CB2A6A
:103CE0001092CC2A1092CD2A1092CE2A1092AE2A8F
:103CF0001092AF2A20E4822E22E4922E2FE0A22EF0
:103D0000B12C8092A62A9092A72AA092A82AB092BB
:103D1000A92AC092AA2AD092AB2AE092AC2AF092A9
:103D2000AD2A28E13BE02093B62A3093B72A1092BF
:103D3000A52A1092B82A1092B92A1092BA2A109283
:103D4000BB2A1092B02A1092B12A1092B22A109275
:103D5000B32A1092932A1092942A30EEC32E33E99C
:103D6000D32E34E0E32EF12CC0928B2AD0928C2AF1
:103D7000E0928D2AF0928E2A10928F2A1092902A29
:103D80001092912A1092922A28E33BE020939B2ADA
:103D900030939C2A10928A2A10929D2A10929E2A71
:103DA00010929F2A1092A02A1092952A1092962A79
:103DB0001092972A1092982A1092782A1092792AB3
:103DC000E0ECCE2EE7E2DE2EE9E0EE2EF12CC09202
:103DD000702AD092712AE092722AF092732A10927D
:103DE000742A1092752A1092762A1092772A22E36A
:103DF0003BE02093802A3093812A10926F2A109200
:103E0000822A1092832A1092842A1092852A109274
:103E10007A2A10927B2A10927C2A10927D2A109284
:103E20005D2A10925E2A4093552A5093562A609339
:103E3000572A7093582A1092592A10925A2A10928F
:103E40005B2A10925C2A21E43BE02093652A3093A0
:103E5000662A1092542A1092672A1092682A1092A9
:103E6000692A10926A2A10925F2A1092602A109290
:103E7000612A1092622A1092422A1092432A809359
:103E80003A2A90933B2AA0933C2AB0933D2A109261
:103E90003E2A10923F2A1092402A1092412A8DE722
:103EA00091E080934A2A90934B2A1092392A1092DB
:103EB0004C2A10924D2A10924E2A10924F2A10929C
:103EC000442A1092452A1092462A1092472A1092AC
:103ED000272A1092282A80E89AE1A6E0B0E0809391
:103EE0001F2A9093202AA093212AB093222A10926D
:103EF000232A1092242A1092252A1092262A8AE038
:103F00009CE080932F2A9093302A10921E2A1092C0
:103F1000312A1092322A1092332A1092342A1092A7
:103F2000292A10922A2A10922B2A10922C2AC09009
:103F30008329D0908429E0908529F090862980906B
:103F40007F2990908029A0908129B090822940906B
:103F50000B2850900C2860900D2870900E288BE351
:103F600099E280936129909362298FE399E280938B
:103F70005F299093602987E399E280936329909366
:103F8000642910927D291092752910927629109239
:103F900077291092782980E090E0AFE7B3E480932E
:103FA000792990937A29A0937B29B0937C2984E680
:103FB00090E0A0E0B0E08093712990937229A093E3
:103FC0007329B093742910925B2910925C2920E028
:103FD00030E0A901C301B2010E94993287FD5AC0A5
:103FE00020E030E0A901C501B4010E94993287FDAB
:103FF00051C020E030E0A901C701B6010E9499320A
:1040000087FD48C081E090E080935D2990935E2910
:1040100080937E29409243295092442960924529F9
:10402000709246298092472990924829A092492966
:10403000B0924A29C0924B29D0924C29E0924D2946
:10404000F0924E2940924F29509250296092512966
:10405000709252292DEC3CEC4CEC5DE3C501B401AF
:104060000E94EC336093532970935429809355290F
:10407000909356292DEC3CEC4CEC5DE3C701B60166
:104080000E949D3260935729709358298093592933
:1040900090935A290E94E307C0907129D090722909
:1040A000E0907329F09074296C197D098E099F099D
:1040B0006093652970936629809367299093682996
:1040C00010920C2A10920D2A80E492E4AFE0B0E046
:1040D0008093042A9093052AA093062AB093072A76
:1040E00081E090E0A0E0B0E08093082A9093092A54
:1040F000A0930A2AB0930B2A8AE791E08093142AAE
:104100009093152A1092032A1092162A1092172AB9
:104110001092182A1092192A10920E2A10920F2A21
:104120001092102A1092112A63E270E084EE99E254
:104130000E945B0765E270E085EC99E20E945B07F4
:1041400064E270E086EA99E20E945B0762E270E056
:1041500087E899E2FF90EF90DF90CF90BF90AF900B
:104160009F908F907F906F905F904F900C945B0723
:10417000CF93DF93CDB7DEB72697CDBFDEBF88EDF7
:1041800090E084BF909361008091020686608093E6
:1041900002068091000681608093000680910206ED
:1041A0008F7C8065809302061092E20582E0809306
:1041B000E40581E08093030A8EEF8093270A8093C1
:1041C000260A80E880932D0A80932B0A8093290A7F
:1041D00080932C0A80932A0A8093280A8BE080938C
:1041E000000A87E08093E505E0E8FAE037E02EEF8B
:1041F00090E885E031832487958780837096E03C42
:104200004AE0F407B9F71092A10A8FE79EE3809382
:10421000AC0A9093AD0A8091A50A81608093A50AAB
:104220001092A00A8091A00A81608093A00A7894DD
:10423000F89481E080930A0A1092010A8091090A99
:104240008E7F8093090A8AEF90E08093260A9093EC
:10425000270A8FE08093000A789461E084E00E944E
:10426000EA0661E085E00E94EA0661E086E00E94DD
:10427000EA0661E087E00E94EA0661E088E00E94C9
:10428000EA0661E089E00E94EA0661E08AE00E94B5
:10429000EA0661E08BE00E94EA0661E084E10E94A8
:1042A000EA0661E083E10E94EA0661E082E10E94A1
:1042B000EA0661E08EE10E94EA0661E080E20E9487
:1042C000EA0661E08FE10E94EA0661E084E00E9474
:1042D000570761E085E00E94570761E086E00E9491
:1042E000570761E087E00E94570761E088E00E947D
:1042F000570761E089E00E94570761E08AE00E9469
:10430000570761E08BE00E94570761E08CE00E9454
:10431000B60661E08DE00E94B60660E08CE00E9487
:10432000190760E08DE00E94190786EF9AE20E946B
:1043300053091092752910927629109277291092BC
:104340007829812C912C9AE7A92E94E4B92E809299
:10435000792990927A29A0927B29B0927C29809128
:104360007D29882309F457C00091612910916229A1
:10437000D801CD90DD90ED90FC90A5019401C7018E
:10438000B6010E94E833181634F5F8018082918254
:10439000A282B3828090692990906A29A0906B29AB
:1043A000B0906C29C0907929D0907A29E0907B292F
:1043B000F0907C29A7019601C501B4010E94E83361
:1043C0001816CCF4C0926929D0926A29E0926B2920
:1043D000F0926C2920C020E030E0A901C701B601AD
:1043E0000E94993287FFD6CFD8011D921D921D924F
:1043F0001C921397CFCFC0907529D0907629E0906A
:104400007729F0907829A7019601C501B4010E948F
:10441000993287FDD7CF0E94E3076093D02870932D
:10442000D1288093D2289093D32880917D2981111F
:1044300049C0E0916129F0916229C080D180E28079
:10444000F380C0926929D0926A29E0926B29F09298
:104450006C29E0915F29F091602980819181A2818E
:10446000B38180936D2990936E29A0936F29B093A7
:1044700070298090792990907A29A0907B29B0901A
:104480007C29A5019401C701B6010E94E8331816E2
:104490004CF48092692990926A29A0926B29B0927B
:1044A0006C2910C08090752990907629A09077296A
:1044B000B0907829A5019401C701B6010E949932F4
:1044C00087FDE7CF81E080937D2961E080E10E9454
:1044D000B60661E088E10E94B60661E089E10E94CB
:1044E000B60660E089E10E94190760E080E10E9461
:1044F000190760E088E10E94190761E08BE10E94E2
:10450000B60661E08CE10E94B60661E08DE10E9492
:10451000B60661E08AE10E94B6060E948E0784E535
:104520009AE20E94530990E080E00E94100EBB24A2
:10453000B394811101C0B12CB092862881E090E043
:104540000E94100E01E0811101C000E000933529A6
:1045500082E090E00E94100EC82ED12CC092F42868
:10456000D092F52862EF78E283E090E00E94B90DE6
:1045700085E090E00E94100EE82EF12CE092BB281E
:10458000F092BC281CEE612E18E2712E86E4882E73
:10459000912C89829A82CE0101960E94A90DF30185
:1045A00081933F01FFEF8F1A9F0A2AE4821691043C
:1045B00081F787E090E00E94100E91E0811101C028
:1045C00090E09093CF2888E090E00E94100E91E058
:1045D000811101C090E09093CA2889E090E00E9488
:1045E000100E91E0811101C090E09093C52863EB1B
:1045F00078E280E590E00E94DE0D6FEA78E28AE5DD
:1046000090E00E94DE0D6BEA78E284E690E00E9482
:10461000DE0D67EA78E28EE690E00E94DE0D81E42E
:1046200090E089839A83CE0101960E94A90D809320
:10463000552864E478E288E990E00E94B90D62E4CC
:1046400078E28AE990E00E94B90D8FE090E00E9444
:10465000100E11E0811101C010E010938D2886E941
:1046600090E00E94100E91E0811101C090E09093C3
:10467000F0282B2D30E02093032930930429202F9C
:1046800030E02093052930930629C0920729D09263
:1046900008292091F2283091F3282093292930937A
:1046A0002A29E0920F29F09210292091552830E014
:1046B0002093092930930A29212F30E020930B29D8
:1046C00030930C29892F90E080930D2990930E2927
:1046D00062E279E288E790E00E94B90D83E790E01A
:1046E0000E94100E90E08093F8289093F92885E7B7
:1046F00090E00E94100E90E08093FA289093FB289F
:104700008DE790E00E94100E90E08093FC2890933B
:10471000FD2882E890E00E94100E90E08093FE2831
:104720009093FF2887E890E00E94100E91E081119D
:1047300001C090E090938E2862E083E20E94B6066A
:1047400062E085E20E94B60662E084E20E94B6065C
:1047500062E082E20E94B60683E598E18093F12947
:104760009093F22980E999E08093F7299093F829B2
:104770008AE196E08093D2299093D32986E99DE03F
:104780008093DC299093DD298FE596E08093B3290F
:104790009093B42980E89DE08093BD299093BE2931
:1047A00083EB96E08093BB299093BC2985EB99E03D
:1047B000809394299093952983E19AE080939A2994
:1047C00090939B2983E09AE20E945309FEE14F2EC9
:1047D000512CA9E16A2E712CBAE0EB2EF12C08E1E4
:1047E00010E0E8E12E2E312C86EF9AE20E94F508C7
:1047F0000E94AF04809104288823C1F183E09AE2EB
:104800000E94F50889E190E00E94730982E290E03D
:104810008093DC289093DD280093DE281093DF2816
:104820000093E0281093E1280093E2281093E328F6
:104830000093E4281093E52882E090E08093E62836
:104840009093E7281092E8281092E92883E090E0FE
:104850008093EA289093EB2881E08093A22880E05F
:1048600090E0892B09F20E940000B9CF1092032A30
:1048700010920E2A10920F2A1092102A1092112ACA
:104880001092122A1092132A20E030E042EE52E4F5
:104890006091D4287091D5288091D6289091D728FE
:1048A0000E94E83387FD8CC01092A6281092A5289C
:1048B000109288281092A4281092A3281092A2285F
:1048C0001092902810923729109238291092392985
:1048D00010923A29109236291092022960E08CE059
:1048E0000E94190760E08DE00E9419078BE090E0BC
:1048F0008093DC289093DD2881E190E08093DE288E
:104900009093DF2827E130E02093E0283093E128DE
:104910004EE050E04093E2285093E3284FE050E00F
:104920004093E4285093E5288093E6289093E72865
:104930002093E8283093E9288093EA289093EB2885
:104940008091AE2A9091AF2A892B81F188EE93E075
:10495000A0E0B0E08093A62A9093A72AA093A82A6B
:10496000B093A92A8091C92A9091CA2A892B19F15A
:1049700080ED97E0A0E0B0E08093C12A9093C22A36
:10498000A093C32AB093C42A8091992890919A2821
:10499000892B09F064CF80EC9AE20E94530981E0F0
:1049A00090E08093992890939A2859CF80E492E4DC
:1049B000AFE0B0E0CFCF80E894E8AEE1B0E0DCCF8C
:1049C00085E20E949A07D0904128811142C084E27A
:1049D0000E949A0781113DC0D1103BC00E94E3079D
:1049E00060933D2870933E2880933F289093402801
:1049F00081E08093412880913629882311F40C941A
:104A0000303260E08CE00E941907E0910928F091B3
:104A10000A2880919028882309F41FC7E331F10503
:104A200008F01DCFEA5EFA4D0C94A0347D25D62502
:104A300014267F26EB2639278827C927F6274328FF
:104A40009228D72819299229C4293C2A412A6E2A5A
:104A5000A12A85E20E949A07882361F0DD2009F4EB
:104A6000CACF85E20E949A07813009F03FC01092B8
:104A70004128C1CFC090362984E20E949A07811153
:104A8000EDCFDD2009F4B7CF0E94E30780903D28E9
:104A900090903E28A0903F28B0904028681979094E
:104AA0008A099B09683B7B408105910508F4A3CFE7
:104AB00084EF91E00E9473098091022981119BCFBC
:104AC000C1109FCF8EE591E08093892890938A282A
:104AD00081E08093362980933C2880933B2885E0B1
:104AE00090E08093092890930A2885CF84E20E9461
:104AF0009A07813009F07FCFBACF1092A228109286
:104B000088281092A3280E948E078CE090E0809362
:104B1000DC289093DD2880E190E08093DE2890935C
:104B2000DF286092E0287092E12881E190E0809394
:104B3000E2289093E3288091892890918A288931EE
:104B400091054CF40093E4281093E5280093E6289F
:104B50001093E72804C7209103293091042910926B
:104B6000E4281092E528232BB1F425E130E02093CE
:104B7000E6283093E7282093E8283093E92800932B
:104B8000EA281093EB28C3970CF469CE1092892879
:104B900010928A2864CE24E130E02093E6283093F6
:104BA000E7280093E8281093E928E9CF0E948E07B0
:104BB0001092A228109288288CE190E08093DC2843
:104BC0009093DD2884E190E08093DE289093DF28A5
:104BD0006092E0287092E12880E190E08093E228E2
:104BE0009093E3288091892890918A2889319105B2
:104BF0000CF4A8CF2091052930910629232B59F4D4
:104C00002DE130E02093E4283093E528E092E62877
:104C1000F092E728C6CF2DE130E02093E4283093CE
:104C2000E52825E130E0B9CF0E948E071092A22836
:104C30008CE090E08093DC289093DD288DE090E07C
:104C40008093DE289093DF2885E190E08093E02830
:104C50009093E1288FE090E08093E2289093E328FE
:104C6000809135292091892830918A282931310570
:104C7000D4F490918728911111C00093E4281093E7
:104C8000E5280093E6281093E7280093E82810937E
:104C9000E9288823F1F085E190E081C060928928BD
:104CA00070928A28F6CF811119C0809107299091BE
:104CB00008292AE0289FB001299F700D1124072E92
:104CC000000C880B990B0E9456030093E428109364
:104CD000E528E092EA28F092EB2865C08091292926
:104CE00090912A292AE0289FB001299F700D112454
:104CF000072E000C880B990B0E945603CCCF109204
:104D0000A3281092A228109288280E948E0780E182
:104D100090E08093DC289093DD286092DE287092EA
:104D2000DF2822E130E02093E0283093E1282FE0D3
:104D300030E02093E2283093E328209189283091B5
:104D40008A2829313105ACF48091872881115DC210
:104D50000093E4281093E5280093E6281093E728B1
:104D60000093E8281093E9280093EA281093EB2891
:104D70001AC02091092930910A29232BC9F4809364
:104D8000E4289093E52827E130E02093E62830934B
:104D9000E7288093E8289093E9288FE190E08093BA
:104DA000EA289093EB288091892890918A28EBCE6D
:104DB0008CE090E08093E4289093E52887E190E0F0
:104DC0008093E6289093E7288DE090E08093E82890
:104DD0009093E9287ECF0E948E078BE090E080932D
:104DE000DC289093DD2881E190E08093DE28909389
:104DF000DF2887E190E08093E0289093E1288CE021
:104E000090E08093E2289093E328209189283091C4
:104E10008A28293131050CF497CF20910B29309144
:104E20000C29232B89F420E230E02093E4283093EE
:104E3000E5286092E6287092E7288093E82890930E
:104E4000E9288EE090E0ABCF8FE090E08093E428FB
:104E50009093E52884E190E08093E6289093E728FA
:104E60008EE090E08093E8289093E9288AE190E032
:104E700096CF1092A228109288280E948E078BE06D
:104E800090E08093DC289093DD2881E190E080938E
:104E9000DE289093DF2880E290E08093E0289093D2
:104EA000E12880E190E08093E2289093E3288091CC
:104EB000892890918A2849970CF446CF80910D2932
:104EC00090910E29892B99F084E290E08093E42858
:104ED0009093E5288AE190E08093E6289093E72874
:104EE0008CE090E08093E8289093E9283DCF84E21D
:104EF00090E08093E4289093E5288AE190E0809305
:104F0000E6289093E728E092E828F092E9282CCF51
:104F10001092A2280E948E07E092DC28F092DD28F1
:104F20002DE030E02093DE283093DF288AE190E006
:104F30008093E0289093E1284EE050E04093E228EF
:104F40005093E3284091892850918A28493151058E
:104F50000CF4F8CD60910F2970911029E092E428AB
:104F6000F092E5282093E6283093E7288093E828FC
:104F70009093E92882E090E0672B11F481E090E0C3
:104F80008093EA289093EB28433351050CF0FECD33
:104F900066CC1092A3280E948E07E092DC28F09243
:104FA000DD288DE090E08093DE289093DF288AE171
:104FB00090E08093E0289093E12881E090E0809356
:104FC000E2289093E3288091892890918A28499734
:104FD00004F5809187288111D2C10093E4281093B1
:104FE000E5280093E6281093E72873CE809189285E
:104FF00090918A2820913529211128C049974CF495
:10500000809187288111BBC10093E8281093E9287B
:1050100060CE809111299091122924E6289FB00139
:10502000299F700D112420911329309114294AE0F1
:10503000429FC001439F900D1124680F791F072ED6
:10504000000C880B990B0E94560343CE4997B4F489
:105050008091872881110DC00093E4281093E528E2
:105060000093E6281093E7280093E8281093E92896
:1050700012CE6092892870928A280DCE80912B29B9
:1050800090912C292FCEDD24D394D092A328109276
:10509000A2280E948E07D0929728E092DC28F092F6
:1050A000DD288DE090E08093DE289093DF288AE170
:1050B00090E08093E0289093E12882E090E0809354
:1050C000E2289093E3288091892890918A28499733
:1050D000C4F48091872881110FC00093E6281093B3
:1050E000E7280093E8281093E9288AE190E080936C
:1050F000E4289093E528EDCD6092892870928A2863
:10510000F4CF80911529909116292AE0289FB001AB
:10511000299F700D1124072E000C880B990B0E94FB
:105120005603E3CF0E948E07E092DC28F092DD2840
:105130008DE090E08093DE289093DF288AE190E074
:105140008093E0289093E12882E090E08093E22829
:105150009093E3288091892890918A284997B4F404
:105160008091872881110DC00093E6281093E728CD
:105170000093E8281093E9284092E4285092E5280B
:10518000A8CD6092892870928A28F6CF809117293D
:10519000909118292AE0289FB001299F700D1124B1
:1051A000072E000C880B990B0E945603E5CF0E9436
:1051B0008E0781E08093A2286091022870910328D5
:1051C000072E000C880B990B0E9495038AE190E052
:1051D0008093DC289093DD2887E190E08093DE289F
:1051E0009093DF288091892890918A28499794F498
:1051F00080918728811109C00093E4281093E52845
:105200000093E6281093E728CECD6092892870920B
:105210008A28C9CD8091192990911A2924E6289FBE
:10522000B001299F700D112420911B2930911C2958
:10523000FECE0E948E076091022870910328072EEF
:10524000000C880B990B0E9495038AE190E08093F3
:10525000DC289093DD2887E190E08093DE2890930E
:10526000DF28C0901929D0901A29A0901B29B0904E
:105270001C298091892890918A284997F4F580917A
:105280008728811135C00093E8281093E928E0921F
:10529000EA28F092EB288091892890918A28C39778
:1052A00024F01092892810928A28B501BB0C880B33
:1052B000990B0E94383320E030E040E251E40E9434
:1052C0009D324B015C01B601DD0C880B990B0E94ED
:1052D00038339B01AC01C501B4010E9435326093A3
:1052E0003728709338288093392890933A28B7CA82
:1052F0006092892870928A28CACF84E68C9DB0017A
:105300008D9D700D11242AE02A9DC0012B9D900DCA
:105310001124680F791F072E000C880B990B0E942F
:105320005603B5CF0E948E076091352870913628BC
:10533000072E000C880B990B0E9495034092DC28E5
:105340005092DD286092DE287092DF2881E0809301
:10535000A2288091892890918A2849970CF439CE07
:1053600080911D2990911E2924E6289FB001299F34
:10537000700D112420911F293091202958CE609260
:10538000892870928A28A5CC0E948E0760913528C2
:1053900070913628072E000C880B990B0E949503FC
:1053A0004092DC285092DD286092DE287092DF283F
:1053B00081E08093A228C0901D29D0901E29A09042
:1053C0001F29B09020298091892890918A28499797
:1053D000F4F580918728811135C00093E828109357
:1053E000E928E092EA28F092EB28809189289091B0
:1053F0008A28C39724F01092892810928A28B50130
:10540000BB0C880B990B0E94383320E030E040E25F
:1054100051E40E949D324B015C01B601DD0C880B0A
:10542000990B0E9438339B01AC01C501B4010E9465
:1054300035326093312870933228809333289093CB
:1054400034280DCA6092892870928A28CACF84E6CF
:105450008C9DB0018D9D700D11242AE02A9DC00104
:105460002B9D900D1124680F791F072E000C880BBF
:10547000990B0E945603B5CF10923B281092362903
:10548000EEC91092A3281092A228109288280E9498
:105490008E0780914428909145282AE0289FB001EA
:1054A000299F700D112490E080E00E9495034092A6
:1054B000E2285092E328609142287091432890E0BE
:1054C00080E00E9456038DE090E08093E428909362
:1054D000E52810922F2810923028C1C91092A328D5
:1054E0001092A228109288280E948E078CE090E0EB
:1054F0008093DC289093DD282CE130E02093DE2897
:105500003093DF2841E150E04093E0285093E128B8
:105510002FE030E02093E2283093E3284093E42802
:105520005093E5282093E6283093E7288093E828D5
:105530009093E92880E190E08093EA289093EB280B
:10554000C8CF1092A3281092A228109288280E94F7
:105550008E0780912F28909130288F31910538F552
:1055600061E080E10E94190786E190E08093DC28E9
:105570009093DD288093DE289093DF288093E028A5
:105580009093E1288093E2289093E3288093E42885
:105590009093E5288093E6289093E7288093E82865
:1055A0009093E9288093EA289093EB2858C99C01AE
:1055B000295231092238310578F560E080E10E94F6
:1055C000190781E190E08093DC289093DD288FE03B
:1055D00090E08093DE289093DF282CE030E0209349
:1055E000E0283093E12820E130E02093E228309356
:1055F000E32820E230E02093E4283093E52827E1F7
:1056000030E02093E6283093E72824E130E020932F
:10561000E8283093E928C6CF8B3A91050CF41FC9CE
:10562000109286281092352923E630E02093F42842
:105630003093F52884ED90E08093F2289093F3283E
:105640001092BB281092BC281092CF281092EC2800
:105650001092ED281092EE281092EF2841E040932E
:10566000CA281092C5284EE150E060E070E04093F7
:10567000B3285093B4286093B5287093B62844E5B6
:1056800050E060E070E04093AF285093B028609302
:10569000B1287093B2284CE150E060E070E0409394
:1056A000AB285093AC286093AD287093AE2842E5A8
:1056B00050E060E070E04093A7285093A8286093E2
:1056C000A9287093AA281092552810928D2810921C
:1056D000F0281092032910920429109205291092A3
:1056E000062920930729309308298093292990932C
:1056F0002A2910920F29109210291092092910922C
:105700000A2910920B2910920C2910920D2910923F
:105710000E2910927C2810927D2810927A281092DF
:105720007B2885E290E08093F8289093F9281092E6
:10573000FA281092FB2880E290E08093222990932F
:1057400023291092FC281092FD281092FE28109216
:10575000FF2810928E2860E081E090E00E94380ED1
:1057600063E682E090E00E94380E62EF78E283E028
:1057700090E00E94710E60E085E090E00E94380E9B
:1057800060E08FE090E00E94380E0E944A0E60E0D8
:1057900087E090E00E94380E61E088E090E00E948F
:1057A000380E60E089E090E00E94380E63EB78E20A
:1057B00080E590E00E9420186FEA78E28AE590E0A8
:1057C0000E9420186BEA78E284E690E00E9420189C
:1057D00067EA78E28EE690E00E94201881E490E08B
:1057E00089839A8360915528CE0101960E94390ED3
:1057F0006091F82883E790E00E94380E6091FA28C3
:1058000085E790E00E94380E62E279E288E790E056
:105810000E94710E60E08DE790E00E94380E60E01B
:1058200082E890E00E94380E60E087E890E00E94F5
:10583000380E60E086E990E00E94380E81E090E04A
:105840008093092890930A2810923B2810922F28C1
:10585000109230281092902811CEE231F10510F00C
:105860000C942F24EA5CF34D0C94A034482C852C26
:10587000BD2C0E2D592D862DB52DE92D392E9D2EA1
:10588000D02EFD2ED82F5430F830B231E331033210
:105890001092A228109288281092A3280E948E07A6
:1058A0008CE090E08093DC289093DD2880E190E00C
:1058B0008093DE289093DF286092E0287092E128A0
:1058C00081E190E08093E2289093E32880918628FC
:1058D0001092E4281092E528811110C085E190E033
:1058E0008093E6289093E7288093E8289093E9280E
:1058F0000093EA281093EB280C942F2484E190E085
:105900008093E6289093E7282AC00E948E07109281
:10591000A228109288288CE190E08093DC28909354
:10592000DD2884E190E08093DE289093DF28609268
:10593000E0287092E12880E190E08093E228909343
:10594000E3288091352981110FC08DE190E080938B
:10595000E4289093E528E092E628F092E728009367
:10596000E8281093E928C4CF8DE190E08093E428E3
:105970009093E52885E190E0C3CF0E948E078CE0EC
:1059800090E08093DC289093DD288DE090E0809378
:10599000DE289093DF2875E1C72ED12CC092E02835
:1059A000D092E1288FE090E08093E2289093E32862
:1059B0008091352981111AC08091F4289091F528A1
:1059C0002AE0289FB001299F700D1124072E000C9A
:1059D000880B990B0E945603E092EA28F092EB287C
:1059E0000093E4281093E5280C942F241092A22809
:1059F0008091F2289091F3282AE0289FB001299FF6
:105A0000700D1124072E000C880B990B0E94560371
:105A1000C092EA28D092EB280C942F241092A3284D
:105A20001092A228109288280E948E0780E190E0B0
:105A30008093DC289093DD286092DE287092DF2826
:105A400022E130E02093E0283093E1282FE030E09D
:105A50002093E2283093E32820915528211111C08A
:105A60008093E4289093E52827E130E02093E6280E
:105A70003093E7288093E8289093E9288FE190E01D
:105A800091CD8CE090E08093E4289093E52887E125
:105A900090E08093E6289093E7288DE090E0809353
:105AA000E8289093E928E092EA28F092EB280C94F9
:105AB0002F240E948E078DE090E08093DC28909345
:105AC000DD2882E290E08093DE289093DF2880E159
:105AD00090E08093E0289093E12887E190E0809324
:105AE000E2289093E3282BE030E02093E4283093E1
:105AF000E52821E130E02093E6283093E7288093E1
:105B0000E8289093E9288CE090E04CCD1092A228F0
:105B1000109288280E948E078BE090E08093DC280A
:105B20009093DD2821E130E02093DE283093DF28B8
:105B300020E230E02093E0283093E12820E130E0BB
:105B40002093E2283093E3282093E4283093E5283B
:105B500023E230E02093E6283093E7288093E8287A
:105B60009093E9288FE090E01DCD1092A22810922A
:105B700088280E948E07E092DC28F092DD282DE034
:105B800030E02093DE283093DF288AE190E0809394
:105B9000E0289093E1284EE050E04093E2285093B3
:105BA000E3284091BB285091BC28E092E428F09271
:105BB000E5282093E6283093E7288093E8289093FF
:105BC000E92882E090E0452B09F0ECCC81E090E000
:105BD000E9CC1092A3280E948E07E092DC28F09274
:105BE000DD288DE090E08093DE289093DF288AE125
:105BF00090E08093E0289093E12881E090E080930A
:105C0000E2289093E32880913529811181C080900A
:105C1000D4289090D528A090D628B090D7282DECE5
:105C20003CEC47EC52E46091D8287091D9288091DF
:105C3000DA289091DB28CCD518166CF420E030E0FF
:105C400040E251E4C501B401C7D5DFD40E94560338
:105C50001092A22828CF20E030E048EC52E4C501A1
:105C6000B401BAD5D2D40E94560381E08093A22811
:105C70001ACF1092A3280E948E07E092DC28F0929F
:105C8000DD288DE090E08093DE289093DF288AE184
:105C900090E08093E0289093E12881E090E0809369
:105CA000E2289093E32880913529811131C06091D9
:105CB000D4287091D5288091D6289091D7286B83CD
:105CC0007C838D839E8320E030E048EC52E484D5D1
:105CD0009CD44B015C010E9456032DEC3CEC47EC3C
