:1002000050C0000076C0000074C0000072C0000042
:1002100070C000006EC000006CC000000C947E2115
:1002200068C0000066C0000064C0000062C000003A
:1002300060C000005EC000005CC000005AC000004A
:1002400058C0000056C0000054C0000052C000005A
:1002500050C000004EC000004CC000004AC000006A
:1002600048C000000C94562144C0000042C0000069
:1002700040C000003EC000003CC000000C9428219B
:100280000C94022136C0000034C0000032C00000CF
:1002900030C000002EC000002CC000002AC00000AA
:1002A000132211241FBECFEFCDBFDFE3DEBF18E264
:1002B000A0E0B8E2EAE5F6E702C005900D92A831A9
:1002C000B107D9F72BE2A8E1B8E201C01D92A63F21
:1002D000B207E1F711E0C1E5D1E004C02197FE01CA
:1002E0000E94303AC035D107C9F70E9491250C947D
:1002F0006F3A86CF10920428089580913D2881118D
:1003000004C081E080933D28089510923D2808950F
:1003100080918328882319F010928328089581E022
:1003200080938328089580915029882309F45EC022
:100330008091092890910A288230910571F42091CA
:100340004F29222351F020914529309146292F5FD2
:100350003F4F2093452930934629209145293091DC
:100360004629253D3105A4F024ED30E020934529B0
:10037000309346292091472930914829253D310560
:10038000CCF084ED90E0809347299093482908951C
:100390008830910579F720914F29222359F3209134
:1003A0004729309148292F5F3F4F209347293093A9
:1003B0004829E0CF880F991FFC01E35EF64D2081AC
:1003C00031812F5F3F4F20833183DC01AE5EB94422
:1003D0004D915C91421753070CF08EC084519A44A2
:1003E000DC018D919C9180839183089580911C29DB
:1003F0008130B1F480911229909113290196809354
:1004000012299093132920910E2930910F29281732
:1004100039070CF071C01092122910921329089517
:10042000823039F5809114299091152901968A30EE
:100430009105E4F4809314299093152980913C2927
:1004400090913D29019680933C2990933D292091DC
:100450000C2930910D29281739070CF04DC080E286
:1004600090E080933C2990933D29089589E090E0A5
:10047000E1CF833091F4809116299091172901964C
:10048000843691052CF480931629909317290895AA
:1004900010921629109217290895843091F48091B2
:1004A00018299091192901968C3391052CF4809389
:1004B0001829909319290895109218291092192932
:1004C00008958530C9F480910B298823A9F0809183
:1004D0000A29882389F080911A2990911B29019675
:1004E000823091052CF480931A2990931B2908954A
:1004F00010921A2910921B2908958091502988235F
:1005000009F457C08091092890910A2882309105FA
:1005100071F420914F29222351F0209145293091E7
:1005200046292150310920934529309346292091AD
:1005300045293091462920323105A4F420E230E0EB
:100540002093452930934629209147293091482905
:1005500020323105CCF480E290E0809347299093DB
:10056000482908958830910579F720914F29222351
:1005700059F320914729309148292150310920937E
:10058000472930934829E0CF880F991FFC01E35E8B
:10059000F64D20813181215031092083318337FF8D
:1005A0008CC08E539A44DC018D919C918083918301
:1005B000089580911C298130A1F480911229909195
:1005C00013290197809312299093132997FF75C0DF
:1005D00080910E2990910F298093122990931329CD
:1005E0000895823099F580914F29811109C0809139
:1005F0001429909115290197809314299093152916
:10060000809114299091152997FF16C089E090E0F8
:10061000809314299093152980913C2990913D292C
:1006200080970CF04AC080910C2990910D298093FD
:100630003C2990933D29089580913C2990913D2932
:10064000019780933C2990933D29E6CF833079F43C
:100650008091162990911729019797FD05C08093E5
:10066000162990931729089583E690E0F8CF8430F7
:1006700079F48091182990911929019797FD05C067
:10068000809318299093192908958BE390E0F8CF6F
:10069000853099F480910B29882379F080910A297B
:1006A000882359F080911A2990911B29019797FD71
:1006B00005C080931A2990931B29089581E090E04A
:1006C000F8CF8F929F92AF92BF92CF92DF92EF922C
:1006D000FF9281E02091142A3091152A21303105B2
:1006E00009F080E08093352A812C912C80EEA82E91
:1006F00081E4B82E8092FA299092FB29A092FC29DD
:10070000B092FD298AE097EDA3E2BCE38093FE2935
:100710009093FF29A093002AB093012A80E090E0F3
:10072000AFE2B4E48093022A9093032AA093042AB0
:10073000B093052A6091282A7091292A80912A2A4B
:1007400090912B2A0E94C63820E030E04AE754E41A
:100750000E942D386B017C018092062A9092072A14
:10076000A092082AB092092A2AE037ED43E25CE31E
:100770000E947C394B015C0180920A2A90920B2ADC
:10078000A0920C2AB0920D2AA701960160E070E0B9
:100790008FE294E40E942D386B017C01C0920E2AF6
:1007A000D0920F2AE092102AF092112A8091122AF8
:1007B0009091132A019751F580E090E0A0EEB1EC02
:1007C0008093062A9093072AA093082AB093092AB7
:1007D000A501940160E070E0CB010E94C4376093F2
:1007E0000A2A70930B2A80930C2A90930D2AA70152
:1007F000960160E070E0CB010E94C43760930E2A3E
:1008000070930F2A8093102A9093112AFF90EF90F3
:10081000DF90CF90BF90AF909F908F900895CF9230
:10082000DF92EF92FF926B0128EE33E040E050E060
:100830000E94143AE1EFF8E22083318368EE73E01E
:10084000629FC001639F900D729F900D1124C81A82
:10085000D90AC60164E670E00E94DF3962837383BF
:100860002CE92603C001279F900D1124C80ED91E24
:10087000C6016AE070E00E94DF396483758326EF69
:100880002603C001279F900D1124C80ED91EC682D1
:10089000D782FF90EF90DF90CF900895CF92DF92B4
:1008A000EF92FF926B0128EE33E040E050E00E94AF
:1008B000143AE9EEF8E22083318368EE73E0629F38
:1008C000C001639F900D729F900D1124C81AD90A20
:1008D000C60164E670E00E94DF39628373832CE90D
:1008E0002603C001279F900D1124C80ED91EC601F2
:1008F0006AE070E00E94DF396483758326EF260387
:10090000C001279F900D1124C80ED91EC682D78220
:10091000FF90EF90DF90CF9008954F925F926F928B
:100920007F928F929F92AF92BF92CF92DF92EF927F
:10093000FF9220E030E040E251E46091062970919E
:10094000072980910829909109290E942D3820912A
:10095000E828211190586093E4287093E52880934B
:10096000E6289093E728F090E328FF2009F455C08B
:100970002091E4283091E5284091E6285091E7281D
:100980006091FE287091FF288091002990910129A3
:100990000E94C5376093DF287093E0288093E12898
:1009A0009093E2288091D4289091D528892B09F042
:1009B0007EC0FF2009F450C06091DF287091E028CC
:1009C0008091E1289091E228609302297093032995
:1009D000809304299093052926E636E646EE5FE3E8
:1009E0000E947C3920E030E040E052E40E94C537AC
:1009F0006093D0287093D1288093D2289093D328E5
:100A0000FF90EF90DF90CF90BF90AF909F908F902E
:100A10007F906F905F904F9008958091DE2888239B
:100A200009F22091E4283091E5284091E628509180
:100A3000E7286091DA287091DB288091DC2890917A
:100A4000DD280E94C5376093D6287093D7288093FD
:100A5000D8289093D928A6CF8091DE28882381F2C8
:100A6000C090D628D090D728E090D828F090D928E8
:100A700020E030E040E052E4C701B6010E94C437F4
:100A800026E636E646EE5FE30E942D3860930229A3
:100A9000709303298093042990930529C092D0284C
:100AA000D092D128E092D228F092D328A9CF609199
:100AB000CC287091CD288091CE289091CF280E948B
:100AC000C83820E030E040E251E40E942D384B016C
:100AD0005C016091C4287091C5288091C6289091CE
:100AE000C7280E94C83820E030E040E251E40E946C
:100AF0002D386B017C016091C0287091C1288091D4
:100B0000C2289091C3280E94C83820E030E040E21B
:100B100051E40E942D38A70196010E94C4372B0191
:100B20003C01A50194016091FE287091FF288091FD
:100B30000029909101290E94C4379B01AC01C30197
:100B4000B2010E947C392B013C016091C828709150
:100B5000C9288091CA289091CB280E94C83820E0EB
:100B600030E040E251E40E942D38A50194010E943A
:100B7000C4379B01AC01C301B2010E942D38A7010B
:100B800096010E94C5376B017C01C0920229D09268
:100B90000329E0920429F092052926E636E646EE7E
:100BA0005FE30E947C3920E030E040E052E40E94A4
:100BB000C5376093D0287093D1288093D228909322
:100BC000D32820E030E048EC52E4C701B6010E948F
:100BD000783987FD15CF8DEC9CECA7ECB2E48093BF
:100BE000022990930329A0930429B093052908CFE3
:100BF0008091A628811106C01092A0281092A128E9
:100C000010929E280895F4CFAF92BF92CF92DF92B8
:100C1000EF92FF920F931F93CF93DF936C017B01B1
:100C20008B01040F151FEB015E01AE18BF08C01742
:100C3000D10759F06991D601ED91FC910190F081B5
:100C4000E02DC6010995892B79F7C501DF91CF9178
:100C50001F910F91FF90EF90DF90CF90BF90AF90DA
:100C60000895FC01508D418D252F30E0842F90E0B8
:100C7000821B930B541710F0CF9608950197089597
:100C8000FC0196898789981761F0A789AE0FBF2F5D
:100C9000B11D5D968C9197899F5F9F73978B90E0B4
:100CA00008958FEF9FEF0895FC0196898789981723
:100CB00031F08789E80FF11D858D90E008958FEF61
:100CC0009FEF0895FC0196892789892F90E0805C29
:100CD0009F4F821B91098F739927089581E599E2AF
:100CE000F1DF21E0892B09F420E0822F0895CF93D2
:100CF000DF93EC01E881F9810680F781E02D099509
:100D0000EC85FD8586818F738683EC85FD858581E5
:100D10008F7585838F898E8B1D8ADF91CF91089582
:100D2000FC01613019F4648B81E00895148A662314
:100D3000D9F380E00895DC0154961C9254975496A0
:100D40008C9154978230A0F4282F30E0F901EE0FF7
:100D5000FF1FE20FF31FEA0FFB1F9785961303C0D7
:100D60009685941749F08F5F54968C935497E7CFEC
:100D700054961C9280E0089581E00895CF93DF930C
:100D8000FC01908D818DC485D585981306C08D8119
:100D90008F7D8D83DF91CF910895A18DAE0FBF2FF1
:100DA000B11DA35ABF4F2C91818D90E001968F7396
:100DB0009927818F80E48C83A485B58512962C9326
:100DC000908D818D9813E6CFA485B58515968C916D
:100DD00015978F7D15968C93838D8823D9F2848DFA
:100DE00080931301138ED6CFDC011C96ED91FC91FC
:100DF0000FB607FE03C0258125FD03C0248125FD14
:100E0000BDCF0895EF92FF920F931F93CF93DF937F
:100E1000EC0181E08D8B988D898D98131CC0AC8579
:100E2000BD8514968C91149785FF15C012966C930E
:100E3000AC85BD8580E414968C93EC85FD85858119
:100E40008F7D858381E090E0DF91CF911F910F919D
:100E5000FF90EF9008958091110180FF08C080916C
:100E600013018C8F8A8D8093130181E08B8FF62E76
:100E7000088D10E00F5F1F4F0F731127E02E898D33
:100E80008E1103C0CE01B0DFFACFE88DEC0FFD2F3D
:100E9000F11DE35AFF4FF082088FEC85FD858581B7
:100EA0008062CFCFCF93DF93FC0125892223C1F04D
:100EB000EC018091110180FF08C080911301848FA3
:100EC000828D8093130181E0838FEC85FD85858180
:100ED00085FD03C0848186FD03C0CE0185DFF5CF8B
:100EE000DF91CF91089580E090E0892B49F080E078
:100EF00090E0892B29F00E94000081110E940000DF
:100F000080E090E0892B49F080E090E0892B29F087
:100F10000E94000081110E94000080E090E0892B77
:100F200021F0DCDE81110E94000080E090E0892B3E
:100F300049F080E090E0892B29F00E9400008111A7
:100F40000C940000089581E00895CF93DF9390E022
:100F5000FC01E756FA4420812F3F69F0FC01E0597B
:100F6000FA44A08130E2A39FD0011124BC5F61301C
:100F700029F411962C93DF91CF910895895B9A44BF
:100F8000EC01E881EF3F81F0CD014096E80FF92FA9
:100F9000F11D9FB7F89412962C938081623039F43A
:100FA000886080839FBFE7CFF0E0E0E0F2CF877FEB
:100FB000F8CF893208F4C9CF089590E0FC01E25ED1
:100FC000FA44E081EE2319F1E13021F000F1E6303E
:100FD000A8F00895895B9A44FC012081233008F031
:100FE0002F5F3091010A81E090E001C0880F2A95BF
:100FF000EAF7809583238093010A089580E1E89FB2
:10100000F0011124E05AF54F81818F7E818308958C
:101010000F931F93CF93DF93C82FD0E0FE01E756C5
:10102000FA4400810F3F99F0162F893208F4C5DF8A
:10103000FE01E059FA44E08180E2E89FF0011124CA
:10104000FC5F8081802351F0111106C00683DF917F
:10105000CF911F910F9108950583F9CFC95BDA44B1
:101060008881309771F08F3F61F07096E80FF11D25
:101070009FB7F8948081111107C0877F80839FBF3D
:10108000E6CFF0E0E0E0F4CF8860F8CF893208F4F2
:10109000BFCF08950F931F93CF93DF93EC01162FCB
:1010A000072F82E390E08E839F8360E0812F81DFB2
:1010B0001883098388E592E08A839B8388EE93E016
:1010C0008C839D83198E1A8E1C8681E090E0888720
:1010D00099871A861B8661E0812FD8DF1F86188AC0
:1010E000198A1A8A1B8A1C8A1D8A1E8A1F8A188ED0
:1010F000DF91CF911F910F91089561E08BE0C6DFE2
:1011000061E08AE0C3DF61E089E0C0DF61E088E0A0
:10111000BDCF61E087E0BADF61E086E0B7DF61E084
:1011200085E0B4DF61E084E0B1CFAF92BF92CF92AF
:10113000DF92EF92FF920F931F93CF93DF93EC0117
:101140006A017B01A22E8D89882339F0E881F9811B
:101150000688F789E02DCE0109950C8910E0BFB60D
:10116000F89460E070E281EA97E0A70196010E949E
:10117000F23969017A018FEFC81AD80AE80AF80A29
:10118000F694E794D794C794EC85FD8586818D7F8E
:101190008683EC85FD85868186831D8AA091231137
:1011A0000A2E000CBB0BA70196010E94463A20E0D4
:1011B00034E040E050E00E94143AEC85FD85C20E18
:1011C000D31EE41EF51EC086D186EC85FD85A78260
:1011D000EC85FD858681806C8683EC85FD85858127
:1011E000806885839091E2058B8980958923980199
:1011F000220F331F020F131FC00FD11F9889892B95
:101200008093E20562E08E85D4DE61E08F853EDF6B
:1012100061E08F85CEDEBFBEDF91CF911F910F9130
:10122000FF90EF90DF90CF90BF90AF90089561E076
:101230008AE1EEDE61E08DE1EBDE61E08CE1E8DE8B
:1012400061E08BE1E5CE0F931F93CF93082F10E061
:10125000F801E756FA44C081CF3F81F0893208F4A3
:10126000ACDEF801E059FA44E08180E2E89FF00149
:101270001124FC5F8085C82381E009F480E0CF91D0
:101280001F910F9108958FB7F894209139283091CC
:101290003A2840913B2850913C28E091AA0AF091CD
:1012A000AB0A9091A60A90FF08C02F5F3F4F4F4FA7
:1012B0005F4FE091AA0AF091AB0A8FBFA8EEB3E0AE
:1012C0000E943C3A24E0F695E7952A95E1F76E0FE7
:1012D0007F1F811D911D08952FB7F89460913928C3
:1012E00070913A2880913B2890913C282FBF089517
:1012F0000F931F938091502981117CC08091022906
:1013000090910329A0910429B09105298093F62991
:101310009093F729A093F829B093F9298091FD289B
:10132000811187C080E090E0A0EEB1E480930B28AB
:1013300090930C28A0930D28B0930E288AE097ED87
:10134000A3E2BCE380930F2890931028A093112868
:10135000B093122880E090E0AFE2B4E480931328C9
:1013600090931428A0931528B0931628AAD9B4DF17
:101370000091F9281091FA282091FB283091FC283F
:10138000AB01BC01401B510B620B730B493E534038
:101390006105710570F0D901C80188519C4FAF4FAC
:1013A000BF4F8093F9289093FA28A093FB28B0931D
:1013B000FC2892DF0091F9281091FA282091FB284F
:1013C0003091FC28601B710B820B930B0E94C63876
:1013D0002091F2293091F3294091F4295091F52977
:1013E0000E94783918167CF460E088E111DE1F91C4
:1013F0000F9108958091FE289091FF28A0910029D7
:10140000B091012983CF2091EE293091EF294091AD
:10141000F0295091F1296091F6297091F729809176
:10142000F8299091F9290E94783987FFDDCF61E092
:10143000DCCF80E090E0A0EEB1E480930B289093A5
:101440000C28A0930D28B0930E288AE097EDA3E214
:10145000BCE380930F2890931028A0931128B09399
:10146000122880E090E0AFE2B4E4809313289093D8
:101470001428A0931528B093162823D92DDF0091A6
:10148000F9281091FA282091FB283091FC28AB0113
:10149000BC01401B510B620B730B493E534061056D
:1014A000710570F0D901C80188519C4FAF4FBF4FF3
:1014B0008093F9289093FA28A093FB28B093FC28F6
:1014C0000BDF0091F9281091FA282091FB28309128
:1014D000FC28601B710B820B930B0E94C638209175
:1014E000F2293091F3294091F4295091F5290E9475
:1014F000783918162CF460E088E11F910F9188CD9F
:101500002091EE293091EF294091F0295091F12955
:101510006091F6297091F7298091F8299091F92925
:101520000E94783987FFE7CF61E0E6CF0F931F93E2
:10153000CF93DF93FC012081222309F450C0EC01FA
:10154000818592850197B9F5C7DE0B891C892D89A4
:101550003E89601B710B820B930B09811A812B81D1
:101560003C816017710782079307C8F1B5DE6B8B6A
:101570007C8B8D8B9E8B8B859C85AD85BE854D81AF
:101580005E816F817885481B590B6A0B7B0B41305C
:1015900051056105710509F418820196A11DB11D5F
:1015A0008B879C87AD87BE87E989FA89DF91CF91C8
:1015B0001F910F91099467DE0B891C892D893E8943
:1015C000601B710B820B930B09811A812B813C816B
:1015D000601771078207930710F055DEC8CFDF91BF
:1015E000CF911F910F910895CF93DF93FC01218933
:1015F0003289232BA1F0EC0181859285019791F42A
:101600006BDE6B8B7C8B8D8B9E8B81E088831B8646
:101610001C861D861E8681E090E08F87988BDF9167
:10162000CF91089530DEEDCFDC01BC01990F880B1E
:10163000990B2091172B3091182B232B21F428EE96
:1016400033E00E94363A60930F2B7093102B8093F7
:10165000112B9093122B61E085E1DADC8EE09BE2A6
:10166000C3CFCF92DF92EF92FF920F931F93CF934E
:10167000DF93EC0188818932F8F4E5DD082F10E072
:101680002BDE298D3A8D21153105C1F42A853B8544
:101690002017310741F421E030E0298F3A8F6B8F1A
:1016A0007C8F8D8F9E8FDF91CF911F910F91FF9037
:1016B000EF90DF90CF90089580E0E0CF21303105AA
:1016C00009F051C02885398520173107E9F40B8DC1
:1016D0001C8D2D8D3E8DAB01BC01401B510B620B4F
:1016E000730B8E819F81092E000CAA0BBB0B481730
:1016F00059076A077B0718F4198E1A8ED4CF82E037
:1017000090E0898F9A8FCFCF2A853B8520173107AC
:1017100051F60B8D1C8D2D8D3E8DAB01BC01401BF8
:10172000510B620B730B8C819D81092E000CAA0B4F
:10173000BB0B84179507A607B70708F0B4CF81E065
:101740008C87E989FA89309709F00995EB89FC893A
:10175000309709F00995EF89F88D309709F00995D0
:1017600086E090E0CECF2230310519F5CB8CDC8CB1
:10177000ED8CFE8C6C197D098E099F09CA80DB8077
:101780000D2C000CEE08FF08C616D706E806F90671
:1017900038F4ED85FE85309709F4AECF0995ACCFCE
:1017A0008A859B858017910709F07DCF83E090E0C3
:1017B000A8CF2330310549F4888599858017910792
:1017C00009F071CFEF85F889E6CF2630310509F0B1
:1017D0006ACF888599858017910721F41C86ED8949
:1017E000FE89D9CF81E08C87EF89F88D309709F495
:1017F0005ACFDF91CF911F910F91FF90EF90DF9023
:10180000CF9009948091A628811122C080915029FF
:10181000811116C080911C2981110BC010924328A0
:1018200081E090E08093092890930A2888EC90E06A
:10183000FBCE10921C2910929B2810929C28F6CF68
:101840008091462881111092462810925029EECF9F
:1018500008958091A62881115EC020914F29809122
:10186000092890910A28211103C08830910529F098
:10187000AC014D7F4C305105B9F501978093092893
:1018800090930A288091502981112BC080911C29A6
:101890002223D9F18230C9F510921C2980911C298C
:1018A0008530F9F420E030E040E85FE36091AC2857
:1018B0007091AD288091AE289091AF280E94783920
:1018C00087FD0FC08091A828882359F01092AC287A
:1018D0001092AD281092AE281092AF2881E080932C
:1018E000A82882E390E0A0CE8B30910511F00D97EF
:1018F00021F481E08093A928C5CF8091A92888236D
:1019000009F4C0CF1092A928BDCF8150843030F6A1
:1019100080931C29C3CF08958091A628811112C0FD
:101920008091422881110EC081E080939E28809191
:1019300034288F5F80933428893124F00E947D02FF
:101940001092342808958091A62881115AC0809160
:101950005029882309F453C08091A92881114FC0D0
:101960008091092890910A2820914628211119C0B8
:1019700001968093092890930A2820910A2922230E
:1019800039F00597F4F11092092810920A28089569
:101990000597BCF181E090E08093092890930A2894
:1019A00008958630910519F488E090E0F5CF2091F4
:1019B000B0288930910539F48BE090E02111ECCF0B
:1019C00080E190E0E9CF211106C0893091054CF00B
:1019D00080319105ACF38031910519F481E190E0FB
:1019E000DBCF8131910519F482E190E0D5CF8231CE
:1019F00091051CF085E090E0CFCF0196CDCF0C94FF
:101A00007D0208958091A628811112C080914228FC
:101A100081110EC081E080939E28809134288F5FD1
:101A200080933428893124F00E9493011092342845
:101A300008958091A628811126C08091502988237D
:101A400009F445C08091A928811141C080910928DD
:101A500090910A2820914628211116C00197809361
:101A6000092890930A2820910A29222349F097FFF8
:101A70000AC084E090E08093092890930A28089592
:101A800018161906B4F708958830910519F486E000
:101A900090E0F1CF8B30910519F489E090E0EBCF25
:101AA0008131910519F480E190E0E5CF8231910513
:101AB00019F481E190E0DFCF8031910571F3863038
:101AC00091051CF482E190E0D6CF0197D4CF0C941D
:101AD00093018091A628811125C080911C29811134
:101AE00017C080915029811113C08EE591E0809339
:101AF000A0289093A12880910A29882361F0109250
:101B0000092810920A2881E0809350298093432865
:101B100088EC90E089CD81E090E080930928909353
:101B20000A28F1CF0895DC01ED91FC910488F58934
:101B3000E02D23E030E00994EEE0FBE21082138612
:101B40001486158616861786108A60E085E160CABD
:101B500088ED9AE249DD61E085E15ACA60E085E1FD
:101B600057DA8091AA28882349F08091B72890916C
:101B7000B82801968093B7289093B8288091B92807
:101B80009091BA2801968093B9289093BA28089525
:101B900060E08AE13DDA8DEB9AE226CD61E08AE1F0
:101BA00037DA8091B1288F5F8093B12808958F92A2
:101BB0009F92AF92BF92CF92DF92EF92FF92CF931C
:101BC000DF93C0912428D09125282196C093242802
:101BD000D093252881E080930606809308068091A3
:101BE0000B0680FFFCCF6091100670911106072E46
:101BF000000C880B990B0E94C83820912028309146
:101C0000212840912228509123280E94C5376B013A
:101C10007C01C0922028D0922128E0922228F092C4
:101C200023286091002870910128C617D7070CF46B
:101C300076C0072E000C880B990B0E94C8389B01B8
:101C4000AC01C701B6010E942D3860932028709323
:101C50002128809322289093232820E030E040EA36
:101C600050E40E947C3920E030EC4FE754E40E94BD
:101C70002D3820E030E040E251E40E942D3828EB7E
:101C80003FE840E65FE30E94C5376B017C0120E03E
:101C900030E04BEE53E40E947C394B015C01A7011C
:101CA000960160E070E080EA90E40E94C4379B01F6
:101CB000AC01C501B4010E942D3820E030E048ECB1
:101CC00052E40E942D3820E030E040E85FE30E94BB
:101CD000C43728E430E54CE75BE30E942D3860937D
:101CE000FE287093FF28809300299093012926E60F
:101CF00036E646EE5FE30E947C3920E030E040E0CB
:101D000052E40E94C5376093DA287093DB288093F1
:101D1000DC289093DD28109224281092252882E355
:101D200090E08093002890930128DF91CF91FF905D
:101D3000EF90DF90CF90BF90AF909F908F900895DD
:101D4000CF93DF93C0911E28D0911F282196C09376
:101D50001E28D0931F281092060681E08093080663
:101D600080910B0680FFFCCF6091100670911106E8
:101D7000072E000C880B990B0E94C83820911A2856
:101D800030911B2840911C2850911D280E94C53776
:101D900069975CF460931A2870931B2880931C2821
:101DA00090931D28DF91CF91089520E030E048EC1A
:101DB00051E40E942D3860931A2870931B28809359
:101DC0001C2890931D2810921E2810921F28EACFDD
:101DD0003F924F925F926F927F928F929F92AF92BB
:101DE000BF92CF92DF92EF92FF920F931F93CF9308
:101DF000DF93CDB7DEB72E97CDBFDEBF8091342AFB
:101E0000882309F429C168DA6D837E838F839887DC
:101E100080911C2A90911D2AA0911E2AB0911F2A00
:101E20004D815E816F817885481B590B6A0B7B0B56
:101E30008091282A9091292AA0912A2AB0912B2AB0
:101E4000481759076A077B0708F406C1E091162A6C
:101E5000F091172A80819181A281B38189839A832D
:101E6000AB83BC83E0911A2AF0911B2A9C01AD013F
:101E700060817181828193810E94C4374B015C0132
:101E80002091242A3091252A4091262A5091272AF0
:101E900069817A818B819C810E94C4376B017C01AE
:101EA00020910A2A30910B2A40910C2A50910D2A38
:101EB000C501B4010E947C392091202A3091212A49
:101EC0004091222A5091232A0E94C5372B013C01C0
:101ED0004092202A5092212A6092222A7092232A2C
:101EE0003090352A31101AC02091062A3091072AE5
:101EF0004091082A5091092AC701B6010E947C39F5
:101F00009B01AC01C301B2010E94C4376093202A37
:101F10007093212A8093222A9093232A4090202A8A
:101F20005090212A6090222A7090232A1091302A02
:101F30009091312A9E87A091322AAD870091332A51
:101F4000212F392F4A2F502FC301B2010E94783917
:101F500018160CF096C0812F9E85AD85B02F80930A
:101F6000202A9093212AA093222AB093232A332057
:101F700009F4A0C02091062A3091072A4091082A2E
:101F80005091092AC501B4010E947C394B015C01C2
:101F900020910E2A30910F2A4091102A5091112A37
:101FA000C701B6010E947C399B01AC016091202AD7
:101FB0007091212A8091222A9091232A0E94C4376D
:101FC000A50194010E94C5376B017C019B01AC0106
:101FD000612F7E858D85902F0E94293887FD18C03E
:101FE00010912C2A90912D2A9E87A0912E2AAD87A0
:101FF00000912F2A212F392F4A2F502FB601C701C8
:102000000E94293887FD04C01C2DDE86ED860F2D29
:10201000E091182AF091192A812F9E85AD85B02F65
:1020200080839183A283B38389819A81AB81BC81B0
:102030008093242A9093252AA093262AB093272AB6
:102040008D819E81AF81B88580931C2A90931D2A33
:10205000A0931E2AB0931F2A2E96CDBFDEBFDF911C
:10206000CF911F910F91FF90EF90DF90CF90BF9095
:10207000AF909F908F907F906F905F904F903F9028
:10208000089580912C2A90912D2AA0912E2AB0910A
:102090002F2A89879A87AB87BC879C01AD01C30132
:1020A000B2010E94293887FF62CF89859A85AB8566
:1020B000BC8555CF812C912C54016ACFFC018081C5
:1020C0009181FC01FF2790FD06C080E094E1E82BA0
:1020D000F92B8081089580E093E1F9CFEF92FF9290
:1020E0000F931F93CF93DF9300D0CDB7DEB78C0152
:1020F0007B0189839A83CE010196E0DFF70180831B
:102100000F5F1F4F09831A83CE010196D7DFF701B6
:102110008183C7010F900F90DF91CF911F910F9195
:10212000FF90EF900895AF92BF92CF92DF92EF921F
:10213000FF920F931F93CF93DF9300D0CDB7DEB7FD
:102140008B016B0124E0C20ED11C7B015C01A61A3D
:10215000B70AC5018E0D9F1D89839A83CE01019612
:10216000ADDFF70181937F01EC15FD0591F7C80103
:102170000F900F90DF91CF911F910F91FF90EF90F3
:10218000DF90CF90BF90AF900895CF93DF9300D0B2
:10219000CDB7DEB789839A83CE0101968FDF0F908A
:1021A0000F90DF91CF910895FC01FF2790FD12C0A1
:1021B00080E094E1E82BF92B60838FB7F8949DE9D8
:1021C00023E094BF209300108FBF8091021081FD07
:1021D000FCCF089580E093E1EDCFE6CF1F93CF933E
:1021E000DF93EC01162F6ADF811721F0612F8881C0
:1021F0009981DADFCE01DF91CF911F910895EF929F
:10220000FF920F931F93CF93DF9300D0CDB7DEB72C
:1022100086E0E82E89E2F82E06E410E009831A83AE
:10222000F70161917F01CE010196D8DF0F5F1F4F4B
:102230000A34110599F786E099E20F900F90DF912B
:10224000CF911F910F91FF90EF900895AF92BF92A1
:10225000CF92DF92EF92FF920F931F93CF93DF9372
:1022600000D0CDB7DEB78B016B0124E0C20ED11CCC
:102270007B015C01A61AB70AC5018E0D9F1D8983DB
:102280009A83F70161917F01CE010196A7DFEC14DB
:10229000FD0491F7C8010F900F90DF91CF911F912E
:1022A0000F91FF90EF90DF90CF90BF90AF90089587
:1022B000EF92FF920F931F93CF93DF9300D0CDB790
:1022C000DEB78C017B0189839A83FB016081CE019B
:1022D000019684DF0F5F1F4F09831A83F701618125
:1022E000CE0101967BDFC7010F900F90DF91CF9158
:1022F0001F910F91FF90EF9008952F923F924F9270
:102300005F926F927F928F929F92AF92BF92CF9285
:10231000DF92EF92FF920F931F93CF93DF9300D042
:102320001F92CDB7DEB78091A628811158C01092B8
:102330009E288091502981116AC01092A028109285
:10234000A12880911C29843031F420919B28309160
:102350009C28232B51F090914F29992309F455C0C3
:10236000811153C082E080931C2980911C29853003
:102370000CF480C380910A29882301F185E08093C1
:102380001C2980910B29882309F470C310920B2912
:1023900080910B29811112C061E080911A299091DE
:1023A0001B29892B09F460E060939D2890E080E070
:1023B00014DF80911C2985300CF45CC30091B42893
:1023C0001091B528101611060CF454C388EE93E052
:1023D0002BD90F5F1F4F0093B4281093B528239675
:1023E000CDBFDEBFDF91CF911F910F91FF90EF9096
:1023F000DF90CF90BF90AF909F908F907F906F9025
:102400005F904F903F902F9008958F5FACCF0091D9
:10241000092810910A288091A928811109C1809169
:102420009D2890E080931D2990931E2920914F298B
:102430002B83822F90E080931F29909320298091F5
:10244000A42890E080932529909326298091FD2847
:1024500090E080933D2990933E2980910A2990E055
:102460008093272990932829211199C080910E29C2
:1024700090910F2980932129909322298091D4282B
:102480009091D5288093292990932A29C090FE28DD
:10249000D090FF28E0900029F0900129C701B601F3
:1024A0000E9495384B0120E030E040E251E4C70142
:1024B000B6010E947C390E9495382B01CB016AE05D
:1024C00070E00E94DF391C018B8181117EC020E009
:1024D00030E048EC52E4C701B6010E94293887FF7A
:1024E00067C080922B2990922C29409232285092DA
:1024F000332820922D2930922E2980910228909104
:10250000032880932F299093302980923329909229
:10251000342920923529309236290C30110509F0E2
:102520006DC0C0922A28D0922B28E0922C28F092DD
:102530002D2820E030E048EC52E4C701B6010E94AB
:10254000293887FF68C080923729909238292092D5
:10255000392930923A298091642890E08093232988
:10256000909324290231110521F4109244281092ED
:1025700045282B81211109C00830110531F487E06D
:1025800090E08093092890930A2881E08093A928FD
:102590008AE190E08093A0289093A128E6CE8091D4
:1025A0000C2990910D29809345299093462966CF57
:1025B00083E690E080932B2990932C2989E090E08A
:1025C00080932D2990932E2998CF4090DA2850900F
:1025D000DB286090DC287090DD28C301B2010E94E6
:1025E0009538609347297093482940922E2850923D
:1025F0002F2860923028709231287FCF0E3011053D
:1026000009F097CFC0922628D0922728E092282858
:10261000F09229288ECF83E690E08093372990931B
:10262000382989E090E08093392990933A2993CF13
:102630000131110518F5F801E05EFC4E0C94303ABA
:1026400031135E136B13171588139513AF133E13D5
:10265000BA136A1478143E1391143E13A2143E1355
:10266000A21361E080911D2990911E29892B09F404
:1026700060E060939D2890E080E0AFDD80910928C4
:1026800090910A2820914F29211103C0873091058C
:1026900061F09C012D7F2930310539F08D30910595
:1026A00021F08231910509F0D4C121E02093A928BD
:1026B00001968093092890930A286ACF61E080915F
:1026C0001F2990912029892B09F460E060934F29FC
:1026D00081E090E0D2CF80914F2981110BC06091B1
:1026E00021298091222960930E2980930F2982E06D
:1026F00090E0C3CF809145299091462980930C2981
:1027000090930D296CE079E283E090E0D1DDB6CFC3
:1027100061E08091252990912629892B09F460E0B8
:102720006093A4288FE090E058DD61E08091272934
:1027300090912829892B09F460E060930A2986E9A1
:1027400090E09BCF61E080913D2990913E29892BBB
:1027500009F460E06093FD2884E890E08ECF6091FA
:10276000292980912A296093D4288093D52885E04F
:1027700090E083CF80914F29811187C060912D29EE
:1027800070912E29072E000C880B990B0E94C838D7
:1027900020E030E040E251E40E942D386B017C01E2
:1027A00060912B2970912C29072E000C880B990B16
:1027B0000E94C8389B01AC01C701B6010E94C53711
:1027C00020E030E040E251E40E947C396B017C0162
:1027D0006091322870913328072E000C880B990BDA
:1027E0000E94C8389B01AC01C701B6010E94C437E2
:1027F00020E030E040E251E40E942D386093E4286C
:102800007093E5288093E6289093E72881E08093F1
:10281000E3281092DE288090E4289090E528A0908C
:10282000E628B090E72820E030E040E251E4C5011E
:10283000B4010E947C396B017C0120E030E0A901E9
:10284000C501B4010E94293887FF41C081E080930F
:10285000E828F7FAF094F7F8F094C0920629D0929D
:102860000729E0920829F0920929C9DC6091E8283B
:1028700087E090E0B2DC6091E32888E090E0ADDC96
:102880006091DE2889E090E0F8CE60914529709152
:102890004629072E000C880B990B0E94C8382091FE
:1028A0002E2830912F2840913028509131280E94B5
:1028B000C4376093E4287093E5288093E6289093CA
:1028C000E7281092E32881E08093DE28A4CF1092BD
:1028D000E828C3CF80912F29909130298093022836
:1028E000909303280A968093312990933229C6CE7B
:1028F000809131299091322980934B2890934C28D4
:102900008091FE289091FF28A0910029B091012983
:1029100080932A2890932B28A0932C28B0932D28BD
:10292000ADCE8091FE289091FF28A0910029B09112
:1029300001298093262890932728A0932828B093D4
:1029400029289CCE20E030E040E251E460912A2822
:1029500070912B2880912C2890912D280E947C39F1
:102960000E9495386093CC287093CD288093CE2810
:102970009093CF2820E030E040E251E46091262897
:102980007091272880912828909129280E947C39CD
:102990000E9495386093C8287093C9288093CA28EC
:1029A0009093CB286CEC78E280E590E04FDC68EC0B
:1029B00078E28AE590E04ADC20E030E040E251E451
:1029C00060914D2870914E2880914F289091502809
:1029D0000E947C390E9495386093C4287093C52862
:1029E0008093C6289093C72820E030E040E251E46D
:1029F00060914728709148288091492890914A28F1
:102A00000E947C390E9495386093C0287093C12839
:102A10008093C2289093C32864EC78E284E690E027
:102A200015DC60EC78E28EE690E010DC27CE61E009
:102A30008091232990912429892B09F460E06093E7
:102A4000642881E490E089839A83CE010196C6DBF5
:102A500015CE9C012B7F1092A9282A30310509F44C
:102A600027CE8C30910509F093CD22CE81E0809362
:102A70000B298ECC82E390E00E94140BB0CC2F92F5
:102A80003F924F925F926F927F928F929F92AF92FE
:102A9000BF92CF92DF92EF92FF920F931F93CF934B
:102AA000DF93C0911C29C23009F43CC6CCF4CC237E
:102AB00009F4BCC3C13009F4B6C5DF91CF911F91B1
:102AC0000F91FF90EF90DF90CF90BF90AF909F90CD
:102AD0008F907F906F905F904F903F902F900895D0
:102AE000C43009F426C70CF4A0C6C53031F7C09035
:102AF0001229D09013296091142970911529072E5D
:102B0000000C880B990B0E94C83820E030E040E2AE
:102B100051E40E942D384B015C01B601DD0C880B9D
:102B2000990B0E94C8389B01AC01C501B4010E94F9
:102B3000C5374B015C018092972890929828A0920B
:102B40009928B0929A28C0913C29D0913D29C093F0
:102B50009528D0939628E0901629F0901729E092B6
:102B60009328F09294280091182910911929009324
:102B70009128109392282CE32E9DC0012F9D900D3B
:102B80001124800F911F80939B2890939C2881E0B3
:102B90008093A5286C2D83E790E01FDB60911429BA
:102BA00085E790E01ADB6CE379E288E790E080DB70
:102BB0006E2D8DE790E011DB602F82E890E00DDB59
:102BC00061E087E890E009DB10914F29809190281F
:102BD00081111BC011114FC720E030E040E251E4E9
:102BE000609102297091032980910429909105290F
:102BF0000E94C5379B01AC01C501B4010E94783920
:102C000087FF03C081E080939028809190288823DB
:102C100009F44CC71092AC281092AD281092AE283F
:102C20001092AF2881E08093A8281092902811116B
:102C30005EC78091972890919828A0919928B0918B
:102C40009A288093842890938528A0938628B0930F
:102C500087288093EE299093EF29A093F029B093D1
:102C6000F12981E59AE20E94F40A81E080938328A9
:102C700061E081E20E94080801E010E08CE3282E68
:102C8000312CC5E1D0E080919B2890919C281816AA
:102C9000190614F00C94731F89E29BE20E94960AB5
:102CA00020E030E040E251E460919728709198284C
:102CB0008091992890919A280E94C53720910229E5
:102CC0003091032940910429509105290E94293807
:102CD00087FF04C080914F298823E9F060919528EF
:102CE00070919628665F7F4F072E000C880B990B1A
:102CF0000E94C8382091D0283091D1284091D22804
:102D00005091D3280E94293887FF18C780914F29F6
:102D1000882309F413C71092A0281092A12881E0FB
:102D20008093A62860E081E20E94080810921C2986
:102D300010929B2810929C2861E08DE10E94080867
:102D400060E08BE10E9408080E948D048BED9BE2FD
:102D50000E94960A80919D28882329F080910A2953
:102D600061E0811101C060E089E10E940808B09033
:102D7000A828B1100AC00E946C0960937F28709344
:102D800080288093812890938228C0907F28D090BB
:102D90008028E0908128F090822880918828909166
:102DA0008928A0918A28B0918B28C81AD90AEA0AE2
:102DB000FB0A20E2C2162FEBD20622E0E206F10463
:102DC00008F451C0B1104FC08090FE289090FF28A9
:102DD000A0900029B090012920918C2830918D2855
:102DE00040918E2850918F28C501B4010E94C437AC
:102DF0002B013C01C701B60120E63AEE40E050E06D
:102E00000E94F239CA01B9010E94C6389B01AC0187
:102E1000C301B2010E942D386093AC287093AD2895
:102E20008093AE289093AF280E946C0960937B2812
:102E300070937C2880937D2890937E280E946C0953
:102E400060937728709378288093792890937A28D4
:102E50008092732890927428A0927528B092762858
:102E600081E08093A828C090AC28D090AD28E09055
:102E7000AE28F090AF2820E030E040E85FE3C701E3
:102E8000B6010E94783987FDA0C68091A8288823C2
:102E900009F4A1C060E088E10E9408081092362A77
:102EA0001092412A1092422A1092432A1092442AE8
:102EB0001092452A1092462A0E946C096B017C01EF
:102EC000C0926F28D0927028E0927128F0927228F8
:102ED0001092AB288090FE289090FF28A0900029A7
:102EE000B090012980926B2890926C28A0926D2856
:102EF000B0926E2880917B2890917C28A0917D28AB
:102F0000B0917E2826013701481A590A6A0A7B0ABD
:102F1000D301C20180369A4EA105B10509F05BC00C
:102F2000209173283091742840917528509176280B
:102F3000C501B4010E94C4372091052830910628AC
:102F4000409107285091082850580E942938181697
:102F50000CF417C68091692890916A2818161906F2
:102F60000CF4EFC501968093692890936A288AE053
:102F700097EDA3E2BCE38093052890930628A093E5
:102F80000728B09308280E946C0960936528709305
:102F9000662880936728909368288091692890918B
:102FA0006A28029741F41092AC281092AD28109232
:102FB000AE281092AF28C0927B28D0927C28E09255
:102FC0007D28F0927E288092732890927428A09297
:102FD0007528B09276288090022990900329A090BD
:102FE0000429B0900529C0908428D0908528E090CD
:102FF0008628F090872880916428811103C681E09B
:1030000080936328A7019601C501B4010E94783915
:1030100087FD04C080914F29882399F0A70196016C
:103020006091D0287091D1288091D2289091D32896
:103030000E94783987FD52C080914F29882309F476
:103040004DC08091E12A9091E22A892B09F414C69F
:1030500080E991E0A0E0B0E08093D92A9093DA2A49
:10306000A093DB2AB093DC2A8091FC2A9091FD2A60
:10307000892B09F406C680E293E0A0E0B0E08093DB
:10308000F42A9093F52AA093F62AB093F72A809118
:10309000B2289091B328892B59F481E08093AA2813
:1030A00083EF9AE20E94F40A0093B2281093B328A7
:1030B0008091B7289091B828029781F41092F32A52
:1030C0001092FE2A1092FF2A1092002B1092012BD0
:1030D0001092022B1092032B1092AA2880919B2809
:1030E00090919C28B1010E94DF396B017C016093B3
:1030F000932870939428809361289093622820E00D
:1031000030E040E85FE360915D2870915E28809137
:103110005F28909160280E94C53760935D28709366
:103120005E2880935F28909360281092BB2820E04F
:1031300030E040E85FE36091AC287091AD28809169
:10314000AE289091AF280E94783987FDA9C51092CA
:103150009F2881E08093B6281092AA280E94170920
:1031600060E08DE00E940808C093E928D093EA2827
:1031700089E190E08093EB289093EC288AE190E03D
:103180008093ED289093EE288093EF289093F02879
:103190008EE090E08093F1289093F2288DE090E00B
:1031A0008093F3289093F42880E190E08093F528B1
:1031B0009093F6288EE190E08093F7289093F8287A
:1031C0008091E12A9091E22A892B09F45FC588EE6B
:1031D00093E0A0E0B0E08093D92A9093DA2AA093FC
:1031E000DB2AB093DC2A8091FC2A9091FD2A892B5E
:1031F00009F451C580ED97E0A0E0B0E08093F42A97
:103200009093F52AA093F62AB093F72A8091B228DA
:103210009091B328892B09F036CD83EF9AE20E9472
:10322000F40A0093B2281093B3282DCD1092BF2832
:103230001092BE281092BD281092BC281092BB2874
:103240001092B9281092BA281092B7281092B82874
:103250001092B6281092B4281092B5281092B22875
:103260001092B3281092B1281092B02810920B2916
:103270001092AC281092AD281092AE281092AF2870
:103280001092AB281092EE291092EF291092F0299B
:103290001092F1291092AA281092A92881E0809317
:1032A000A8281092F32A1092FE2A1092FF2A109258
:1032B000002B1092012B1092022B1092032B1092D4
:1032C000A72860E089E10E9408081092BD2A1092A8
:1032D000C82A1092C92A1092CA2A1092CB2A109298
:1032E000CC2A1092CD2A1092A22A1092AD2A1092C6
:1032F000AE2A1092AF2A1092B02A1092B12A1092E0
:10330000B22A60E088E10E9408081092362A1092E2
:10331000412A1092422A1092432A1092442A109273
:10332000452A1092462A0E9417098091A6288111E9
:10333000F4C08091A528882309F493C08091A42823
:10334000882309F48EC08091A2289091A328039726
:103350000CF083C0C091A028D091A128CB34D10516
:10336000E4F561E085E10E94080888E190E080933F
:10337000F1289093F2288093F3289093F428809377
:10338000F5289093F6288093F7289093F828809357
:10339000E9289093EA288093EB289093EC28809377
:1033A000ED289093EE288093EF289093F02860E02A
:1033B0008CE0DF91CF911F910F91FF90EF90DF9004
:1033C000CF90BF90AF909F908F907F906F905F90C5
:1033D0004F903F902F900C94080860E085E10E9488
:1033E00008088BE090E08093E9289093EA2821E197
:1033F00030E02093EB283093EC2887E190E0809335
:10340000ED289093EE288CE090E08093EF28909345
:10341000F0288093F1289093F22880E190E0809347
:10342000F3289093F4282093F5283093F62880937E
:10343000F7289093F828C739D1050CF4B8CF8091BC
:10344000A2289091A32801968093A2289093A32864
:103450001092A0281092A128AACF85E080931C2961
:10346000A6CF80914F2981113DC0C0900229D090F4
:103470000329E0900429F09005292DEC3CEC47EC61
:1034800052E4C701B6010E9478391816DCF420E036
:1034900030E040E251E4C701B6010E947C390E944D
:1034A00095380E944E0410929F288AE090E0809305
:1034B000EF289093F02860E070E0CB010E940F04A9
:1034C00061E076CF20E030E048EC52E4C701B6017D
:1034D0000E947C390E9495380E944E0481E08093BE
:1034E0009F28E3CF20E030E040E251E46091D02813
:1034F0007091D1288091D2289091D3280E947C3954
:103500000E9495380E944E0485E190E08093EF2858
:103510009093F02810929F28CECF60E081E20E9425
:10352000080861E08DE10E94080861E08CE10E94DA
:10353000080861E08BE10E94080860E08AE10E94CF
:10354000080860E08DE00E94080860E08CE00E94BE
:103550000808C091A028D091A128C931D1053CF517
:1035600060E085E10E94080888E190E08093E92806
:103570009093EA288093EB289093EC288093ED2891
:103580009093EE288093EF289093F0288093F12871
:103590009093F2288093F3289093F4288093F52851
:1035A0009093F6288093F7289093F82886CA61E0D4
:1035B00085E10E94080810929F288CE090E080939B
:1035C000E9289093EA288093EB289093EC2881E1F6
:1035D00090E08093ED289093EE2888E190E080932E
:1035E000EF289093F02885E190E08093F128909364
:1035F000F2288DE090E08093F3289093F42889E1FD
:1036000090E08093F5289093F6288AE190E08093EB
:10361000F7289093F828E3970CF44FCA1092A0284B
:103620001092A1284ACA1092BB2810929F2860E0ED
:103630008DE10E94080861E08CE00E9408088091FA
:10364000A0289091A12849970CF04DC080919E2808
:10365000811142C088E190E08093E9289093EA28A4
:103660008093EB289093EC288091A0289091A1283A
:10367000C39724F01092A0281092A1288AE090E02D
:103680008093EF289093F028809116299091172924
:1036900024E6289FB001299F700D112480911829DC
:1036A00090911929680F791F072E000C880B990B30
:1036B000DF91CF911F910F91FF90EF90DF90CF900E
:1036C000BF90AF909F908F907F906F905F904F9042
:1036D0003F902F900C940F0489E190E08093A028F4
:1036E0009093A128C1CFC0939F28809112299091D7
:1036F000132924E6289FB001299F700D11242091E1
:103700001429309115294AE0429FC001439F900D32
:103710001124680F791F072E000C880B990B0E944B
:103720004E04A2CF809116299091172914E6189F74
:10373000B001199F700D11248091182990911929B9
:10374000680F791F072E000C880B990B0E940F043D
:10375000C091A028D091A12880914F29811138C013
:103760008091122990911329189FB001199F700D13
:10377000112420911429309115294AE0429FC0015B
:10378000439F900D1124680F791F072E000C880BA2
:10379000990B0E944E048AE090E08093EF2890936A
:1037A000F02881E080939F28699754F480919E28A7
:1037B000811194C088E190E08093ED289093EE28E9
:1037C0008091A0289091A128C3970CF027CF75C9AC
:1037D00060E08DE10E94080880913C2990913D298C
:1037E0002AE0289FB001299F700D1124072E000C9C
:1037F000880B990B0E944E0485E190E08093EF289E
:103800009093F02810929F286997D4F680919E2873
:10381000811164C088E190E08093E9289093EA28C0
:103820008093EB289093EC28C7CF80914F2981118A
:103830003CC0809112299091132924E6289FB00161
:10384000299F700D112420911429309115294AE0E7
:10385000429FC001439F900D1124680F791F072ECE
:10386000000C880B990B0E944E048AE090E0809334
:10387000EF289093F02881E080939F288091A028E2
:103880009091A12849978CF580919E28811126C09E
:1038900088E190E08093F1289093F2288093F328B8
:1038A0009093F4281092BB288BCF80913C29909163
:1038B0003D292AE0289FB001299F700D1124072E71
:1038C000000C880B990B0E944E0485E190E08093D8
:1038D000EF289093F02810929F28D0CF89E190E0B4
:1038E0008093A0289093A1286BCF1092BB28809141
:1038F0001C29082E000C990BFC01EE0FFF1FE05F46
:10390000F64D2081318144E6429FB001439F700D06
:103910001124880F991FFC01EE5EF64D8081918184
:10392000680F791F072E000C880B990B0E940F045B
:1039300047CF1092BB2880914F2981117CC0809184
:1039400012299091132924E6289FB001299F700D18
:10395000112420911429309115294AE0429FC00179
:10396000439F900D1124680F791F072E000C880BC0
:10397000990B0E944E048AE090E08093EF28909388
:10398000F02881E080939F28809116299091172933
:1039900024E6289FB001299F700D112480911829D9
:1039A00090911929680F791F072E000C880B990B2D
:1039B0000E940F048091A0289091A128499774F447
:1039C00080919E28811150C088E190E08093F52875
:1039D0009093F6288093F7289093F8288091A02858
:1039E0009091A128C39724F01092A0281092A128AA
:1039F0001092B4281092B52880919D2890E0809371
:103A00001A2990931B2981E080930B292091162974
:103A1000309117294CE3429FC001439F900D112420
:103A20002091182930911929820F931F80939B2888
:103A300090939C2842C880913C2990913D292AE08E
:103A4000289FB001299F700D1124072E000C880BB0
:103A5000990B0E944E0485E190E08093EF289093AB
:103A6000F02810929F2890CF89E190E08093A028C1
:103A70009093A128B3CFBE01DD0F880B990B0E9454
:103A8000C8386B017C0120E030E040E751E46091F0
:103A9000D0287091D1288091D2289091D3280E946B
:103AA000C5379B01AC01C701B601A8C81092A82870
:103AB00061E088E10E9408088091FE289091FF282B
:103AC000A0910029B091012980938C2890938D2892
:103AD000A0938E28B0938F280E946C096093882849
:103AE0007093892880938A2890938B28A0C860912E
:103AF000952870919628072E000C880B990B0E9430
:103B0000C838609384287093852880938628909382
:103B1000872820E030E040E052E40E94C43726E6E7
:103B200036E646EE5FE30E942D386093EE297093EF
:103B3000EF298093F0299093F12993C81092A62839
:103B4000FBC8409165285091662860916728709164
:103B5000682826013701441A550A660A770AB30114
:103B6000A20140395F456140710530F401968093B0
:103B7000692890936A2811CA1092692810926A28BD
:103B80000CCA8091772890917828A0917928B091DB
:103B90007A2826013701481A590A6A0A7B0AD30192
:103BA000C201813A9846A640B10508F4F6C981E001
:103BB0008093902860E085E10E94080810921C29FB
:103BC00010929B2810929C28E8C920E030E040E841
:103BD0005FE3C701B6010E94293887FFFCC98091C5
:103BE000A828882309F4F7C98091AB28811107C060
:103BF00086E39AE20E94F40A81E08093AB280E9457
:103C00007809E9C980914F2981111DC0A70196014A
:103C1000C501B4010E94783987FD06C081E0809318
:103C200063288093A728EEC9A7019601C501B401B6
:103C30000E94293887FFE5C18091A7288111E2C938
:103C400010926328DFC94090D0285090D12860900E
:103C5000D2287090D328A7019601C301B2010E9417
:103C6000783987FFDBCFA7019601C301B2010E941B
:103C7000293887FDE1CFC6C980E89AE1A6E0B0E027
:103C8000EBC980E095E3ACE0B0E0F9C980E492E4F0
:103C9000AFE0B0E0A0CA80E894E8AEE1B0E0AECA20
:103CA00080910B29882309F44EC080910A2988232A
:103CB00009F449C010929F281092BC280E9417094D
:103CC00060E08CE00E9408088CE090E08093E92896
:103CD0009093EA2880E190E08093EB289093EC2881
:103CE00089E190E08093ED289093EE2881E190E0C7
:103CF0008093EF289093F02880911A2990911B29A6
:103D00001092F1281092F228892B81F4C093F328A5
:103D1000D093F428C093F528D093F62888E190E05A
:103D20008093F7289093F8280C94431684E190E050
:103D30008093F3289093F42888E190E08093F5280D
:103D40009093F628EDCF80915B2890915C289C01A0
:103D50002F5F3F4F20935B2830935C2861E0283928
:103D6000384038F0875998408839984008F055C055
:103D700060E08CE00E9408088091B628882371F0EA
:103D80001092F32A1092FE2A1092FF2A1092002B12
:103D90001092012B1092022B1092032B84E68C9D23
:103DA000B0018D9D700D11246E0D7F1D072E000C2E
:103DB000880B990B0E940F0481E59AE20E94960AF3
:103DC000809183288823F1F161E08CE10E9408084A
:103DD00060E08DE10E940808609184287091852838
:103DE000809186289091872820914F2921111AC00F
:103DF00020E030E048EC52E40E947C390E94953883
:103E00000E944E048AE090E08093EF289093F0287F
:103E100081E080939F280C94431610925B281092A7
:103E20005C28AACF20E030E040E251E40E947C39D7
:103E30000E9495380E944E04C093EF28D093F0283A
:103E40000C94431660E08CE10E94080861E08DE16B
:103E50000E94080880914F29811138C0C090022922
:103E6000D0900329E0900429F09005292DEC3CEC3A
:103E700047EC52E4C701B6010E9478391816B4F431
:103E800020E030E040E251E4C701B6010E947C39F5
:103E90000E9495380E944E0410929F288AE090E07C
:103EA0008093EF289093F0280C94431620E030E0A4
:103EB00048EC52E4C701B6010E947C390E94953853
:103EC0000E944E0481E080939F28E8CF20E030E0FC
:103ED00040E251E46091D0287091D1288091D2289D
:103EE0009091D328A3CF60E081E20E94080860E0AF
:103EF00080EA90E00E94ED100E94170982EA9AE29F
:103F00000E94F40A1092A52860E087E890E00E94E1
:103F1000ED10609157287091582880915928909100
:103F20005A282CE330E040E050E00E94F239690169
:103F3000209355283093562863E578E288E990E08D
:103F40000E946E1020915328309154282C0D3D1D55
:103F500020935328309354282F30374268F08091B3
:103F6000512890915228019680935128909352287D
:103F7000109253281092542863E578E288E990E083
:103F80000E94581161E578E28AE990E00E94581198
:103F9000109255281092562810925728109258289F
:103FA0001092592810925A281092512A10925C2A85
:103FB00010925D2A10925E2A10925F2A1092602A57
:103FC0001092612A8091B1288330B8F484EF91E097
:103FD0000E94140B1092362A1092412A1092422A03
:103FE0001092432A1092442A1092452A1092462A8F
:103FF0008BED9BE20E94960AE5CF10921C290C944F
:104000005D15A7019601C501B4010E94783987FFAB
:1040100001C004C816C8EF92FF920F931F93CF936D
:10402000DF93E82EF62ED0E0C0E0042F10E0B801B8
:104030000C2E02C0759567950A94E2F761708E2D7B
:104040000E94460861E08F2D0E94460860E08F2D97
:104050000E9446082196C830D10549F7DF91CF91DB
:104060001F910F91FF90EF9008950F931F93CF939F
:10407000DF930E947D080E9489080E94890860E001
:1040800080E20E944608C0913528D0913628809160
:10409000BF288E01000F111F882331F0E091E9281D
:1040A000F091EA282097C1F080919F28882339F069
:1040B000E091EB28F091EC28C130D10569F08091B6
:1040C000BE28882309F480C0C230D10509F07CC025
:1040D000E091ED28F091EE28EA50FB4440814160E8
:1040E0006EE18FE198DFF801EE51FB4460E08081E2
:1040F0000E94460861E080E20E9446082196C43092
:10410000D1050CF06BC0C0933528D09336280E949F
:104110007D0860E083E10E944608C0913728D09175
:1041200038288091BC288E01000F111F882331F0A0
:10413000E091F128F091F2282097C1F08091BB28FE
:10414000882339F0E091F328F091F428C130D105AB
:1041500069F08091BD28882309F445C0C230D1059B
:1041600009F041C0E091F528F091F628EA50FB44AF
:104170004081416064E182E14EDFF801E451FB449B
:1041800060E080810E94460861E083E10E94460869
:104190002196C430D1058CF5C0933728D0933828A8
:1041A00081EA9BE20E94310B82E89BE20E94310B84
:1041B00083E69BE20E94310B84E49BE2DF91CF9186
:1041C0001F910F910C94310BF801E751F74D0190BD
:1041D000F081E02DEA50FB44408182CF10923528D7
:1041E0001092362894CFF801EF50F74D0190F081EE
:1041F000E02DEA50FB444081BDCF10923728109249
:104200003828CECF1F920F920FB60F9211242F9302
:104210003F934F935F936F937F938F939F93AF934E
:10422000BF93EF93FF9381E599E20E94BE06FF9151
:10423000EF91BF91AF919F918F917F916F915F911E
:104240004F913F912F910F900FBE0F901F90189597
:104250001F920F920FB60F9211242F938F939F935B
:10426000EF93FF93E0915D29F0915E29818181FDBB
:104270001BC09081809167298F5F8F73209168297F
:10428000821741F0E0916729F0E0EF5AF64D958FE3
:1042900080936729FF91EF919F918F912F910F90BC
:1042A0000FBE0F901F9018958081F4CF1F920F9230
:1042B0000FB60F9211248F939F93AF93BF9380916A
:1042C000392890913A28A0913B28B0913C2801963A
:1042D000A11DB11D8093392890933A28A0933B28C3
:1042E000B0933C2881E08093A60ABF91AF919F9143
:1042F0008F910F900FBE0F901F9018951F920F92E5
:104300000FB60F9211242F933F934F935F936F93A8
:104310007F938F939F93AF93BF93EF93FF938EE021
:104320009BE20E94960A86E39AE20E94960A87E838
:104330009AE20E94960A8CE69AE20E94960A83EF1D
:104340009AE20E94960A88ED9AE20E94960A8DEB04
:104350009AE20E94960A82EA9AE20E94960A809164
:10436000A0289091A12801968093A0289093A1283D
:1043700080916328882381F18091182890911928D1
:1043800001968093182890931928803B9E4021F530
:104390008091572890915828A0915928B0915A2877
:1043A0000196A11DB11D8093572890935828A09382
:1043B0005928B0935A2880919B2890919C28019766
:1043C00080939B2890939C2810921828109219286B
:1043D000892B11F4109263288091A928882379F001
:1043E0008091092890910A28439749F480914428A4
:1043F000909145280196809344289093452881E028
:1044000080930B0AFF91EF91BF91AF919F918F9194
:104410007F916F915F914F913F912F910F900FBEC0
:104420000F901F9018954F925F926F927F928F928C
:104430009F92AF92BF92CF92DF92EF92FF92CF9373
:10444000DF93109253291092542988EE482E83E06E
:10445000582E612C712C4092552950925629609209
:1044600057297092582980E496EB809351299093B4
:10447000522980E498E080935D2990935E2983E23D
:1044800080935F2982E2809360291092612987E2FC
:104490008093622986E28093632980E18093642976
:1044A0001092652910926629109267291092682946
:1044B0001092692910926A2980E280936B291092E8
:1044C0006C2910926D2982E090E08093E42B909308
:1044D000E52B80E89CE0A0E0B0E08093DC2B90939B
:1044E000DD2BA093DE2BB093DF2B1092E02B1092EC
:1044F000E12B1092E22B1092E32B85E390E2809364
:10450000EC2B9093ED2B1092DB2B1092EE2B109254
:10451000EF2B1092F02B1092F12B1092E62B1092B1
:10452000E72B1092E82B1092E92B1092C92B1092D6
:10453000CA2B90E4892E92E4992E9FE0A92EB12CEB
:104540008092C12B9092C22BA092C32BB092C42B0D
:10455000C12CD12C7601C394C092C52BD092C62B0E
:10456000E092C72BF092C82B8AE791E08093D12B81
:104570009093D22B1092C02B1092D32B1092D42B4D
:104580001092D52B1092D62B1092CB2B1092CC2BB5
:104590001092CD2B1092CE2B63E270E081EA9BE269
:1045A0000E944A0865E270E082E89BE20E944A08A5
:1045B00064E270E083E69BE20E944A0862E270E0F7
:1045C00084E49BE20E944A08C1E0D0E0C093322B11
:1045D000D093332B40922A2B50922B2B60922C2B72
:1045E00070922D2B10922E2B10922F2B1092302B7D
:1045F0001092312B8DE791E080933A2B90933B2BD7
:104600001092292B10923C2B10923D2B10923E2B96
:1046100010923F2B1092342B1092352B1092362B88
:104620001092372B1092172B1092182B80EA96E8D5
:10463000A1E0B0E080930F2B9093102BA093112B4F
:10464000B093122BC092132BD092142BE092152B07
:10465000F092162B8CE99DE080931F2B9093202BDA
:1046600010920E2B1092212B1092222B1092232BA2
:104670001092242B1092192B10921A2B10921B2B94
:1046800010921C2B1092FC2A1092FD2A80E894E8CC
:10469000AEE1B0E08093F42A9093F52AA093F62A35
:1046A000B093F72A1092F82A1092F92A1092FA2A57
:1046B0001092FB2A28EA3DE02093042B3093052B2F
:1046C0001092F32A1092062B1092072B1092082BAF
:1046D0001092092B1092FE2A1092FF2A1092002BA2
:1046E0001092012B1092E12A1092E22A8092D92A8C
:1046F0009092DA2AA092DB2AB092DC2AC092DD2ABC
:10470000D092DE2AE092DF2AF092E02A2EEA3DE003
:104710002093E92A3093EA2A1092D82A1092EB2AA1
:104720001092EC2A1092ED2A1092EE2A1092E32AAF
:104730001092E42A1092E52A1092E62A1092C62AD4
:104740001092C72A40EE53E964E070E04093BE2A1D
:104750005093BF2A6093C02A7093C12A1092C22A34
:104760001092C32A1092C42A1092C52A2EEC3DE062
:104770002093CE2A3093CF2A1092BD2A1092D02AAD
:104780001092D12A1092D22A1092D32A1092C82ABB
:104790001092C92A1092CA2A1092CB2A1092AB2AE0
:1047A0001092AC2A40EC57E269E070E04093A32AF3
:1047B0005093A42A6093A52A7093A62A1092A72A40
:1047C0001092A82A1092A92A1092AA2A28EC3DE059
:1047D0002093B32A3093B42A1092A22A1092B52AB9
:1047E0001092B62A1092B72A1092B82A1092AD2AC7
:1047F0001092AE2A1092AF2A1092B02A1092902AEC
:104800001092912A48E458EE61E070E04093882AC3
:104810005093892A60938A2A70938B2A10928C2A4B
:1048200010928D2A10928E2A10928F2A27ED3DE049
:104830002093982A3093992A1092872A10929A2AC4
:1048400010929B2A10929C2A10929D2A1092922AD2
:104850001092932A1092942A1092952A1092752AF7
:104860001092762A48EB5FEF61E070E040936D2A8A
:1048700050936E2A60936F2A7093702A1092712A57
:104880001092722A1092732A1092742A20EA3EE043
:1048900020937D2A30937E2A10926C2A10927F2AD0
:1048A0001092802A1092812A1092822A1092772ADE
:1048B0001092782A1092792A10927A2A10925A2A03
:1048C00010925B2A8093522A9093532AA093542AE1
:1048D000B093552A1092562A1092572A1092582AAD
:1048E0001092592A88E891E08093622A9093632A73
:1048F0001092512A1092642A1092652A1092662A08
:104900001092672A10925C2A10925D2A10925E2AF9
:1049100010925F2A10923F2A1092402A80E89AE172
:10492000A6E0B0E08093372A9093382AA093392AE2
:10493000B0933A2A10923B2A10923C2A10923D2AB8
:1049400010923E2A88EE9EE08093472A9093482A50
:104950001092362A1092492A10924A2A10924B2A13
:1049600010924C2A1092412A1092422A1092432A05
:104970001092442AC0901328D0901428E090152853
:10498000F090162880900F2890901028A090112861
:10499000B090122840900B2850900C2860900D2861
:1049A00070900E2882EF99E28093182A9093192A2A
:1049B00086EF99E28093162A9093172A8EEE99E259
:1049C00080931A2A90931B2A1092342A10922C2A30
:1049D00010922D2A10922E2A10922F2A80E090E019
:1049E000AFE7B3E48093302A9093312AA093322A20
:1049F000B093332A84E690E0A0E0B0E08093282AC8
:104A00009093292AA0932A2AB0932B2A1092122A33
:104A10001092132A20E030E0A901C301B2010E94E4
:104A2000293887FD59C020E030E0A901C501B40153
:104A30000E94293887FD50C020E030E0A901C7015D
:104A4000B6010E94293887FD47C0C093142AD0932D
:104A5000152A81E08093352A4092FA295092FB2949
:104A60006092FC297092FD298092FE299092FF2984
:104A7000A092002AB092012AC092022AD092032A60
:104A8000E092042AF092052A4092062A5092072AC0
:104A90006092082A7092092A2DEC3CEC4CEC5DE304
:104AA000C501B4010E947C3960930A2A70930B2AD5
:104AB00080930C2A90930D2A2DEC3CEC4CEC5DE39A
:104AC000C701B6010E942D3860930E2A70930F2AF9
:104AD0008093102A9093112A0E946C09C090282A72
:104AE000D090292AE0902A2AF0902B2A6C197D096F
:104AF0008E099F0960931C2A70931D2A80931E2A99
:104B000090931F2ADF91CF91FF90EF90DF90CF908D
:104B1000BF90AF909F908F907F906F905F904F90DD
:104B20000895CF93DF93CDB7DEB72697CDBFDEBF15
:104B300088ED90E084BF90936100809102068660CA
:104B40008093020680910006816080930006809128
:104B500002068F7C8065809302061092E20582E057
:104B60008093E40581E08093030A8EEF8093270A07
:104B70008093260A80E880932D0A80932B0A8093E5
:104B8000290A80932C0A80932A0A8093280A8BE0B2
:104B90008093000A87E08093E505E0E8FAE037E0DB
:104BA0002EEF90E885E03183248795878083709687
:104BB000E03C4AE0F407B9F71092A10A8FE79EE3C0
:104BC0008093AC0A9093AD0A8091A50A816080938E
:104BD000A50A1092A00A8091A00A81608093A00A81
:104BE000789447E266E281E599E20E949B0640E8FC
:104BF00055E260E070E081E599E20E94930DF8943F
:104C000081E080930A0A1092010A8091090A8E7F3E
:104C10008093090A8AEF90E08093260A9093270AEE
:104C20008FE08093000A789461E08BE00E94D907BE
:104C300061E08AE00E94D90761E089E00E94D9071B
:104C400061E088E00E94D90761E084E00E94D90712
:104C500061E085E00E94D90761E086E00E94D90703
:104C600061E087E00E94D90761E084E10E94D907F2
:104C700061E083E10E94D90761E082E10E94D907E7
:104C800061E08EE10E94D90761E080E20E94D907CD
:104C900061E08FE10E94D90761E088E00E94460848
:104CA00061E089E00E94460861E08AE00E944608CF
:104CB00061E08BE00E94460861E087E00E944608C0
:104CC00061E086E00E94460861E085E00E944608B7
:104CD00061E084E00E94460861E08CE00E94A50744
:104CE00061E08DE00E94A50760E08CE00E9408086A
:104CF00060E08DE00E9408088BED9BE20E94F40AC0
:104D000010922C2A10922D2A10922E2A10922F2ABD
:104D1000812C912C0AE7A02E04E4B02E8092302A38
:104D20009092312AA092322AB092332A8091342A6A
:104D3000882309F457C00091182A1091192AD80124
:104D4000CD90DD90ED90FC90A5019401C701B601D6
:104D50000E947839181634F5F80180829182A28277
:104D6000B3828090202A9090212AA090222AB0908D
:104D7000232AC090302AD090312AE090322AF09035
:104D8000332AA7019601C501B4010E94783918168B
:104D9000CCF4C092202AD092212AE092222AF092CA
:104DA000232A20C020E030E0A901C701B6010E94FB
:104DB000293887FFD6CFD8011D921D921D921C92D3
:104DC0001397CFCFC0902C2AD0902D2AE0902E2A76
:104DD000F0902F2AA7019601C501B4010E9429383D
:104DE00087FDD7CF0E946C096093F9287093FA2849
:104DF0008093FB289093FC288091342A811149C02C
:104E0000E091182AF091192AC080D180E280F380C5
:104E1000C092202AD092212AE092222AF092232ABC
:104E2000E091162AF091172A80819181A281B381A5
:104E30008093242A9093252AA093262AB093272A88
:104E40008090302A9090312AA090322AB090332A54
:104E5000A5019401C701B6010E94783918164CF4D7
:104E60008092202A9092212AA092222AB092232A6C
:104E700010C080902C2A90902D2AA0902E2AB090BD
:104E80002F2AA5019401C701B6010E94293887FD88
:104E9000E7CF81E08093342A61E085E10E94A50795
:104EA00061E088E10E94A50761E089E10E94A50711
:104EB00061E081E20E94A50760E089E10E940808A4
:104EC00060E085E10E94080860E088E10E9408082F
:104ED00060E081E20E94080861E08BE10E94A50782
:104EE00061E08CE10E94A50761E08DE10E94A507C9
:104EF00061E08AE10E94A5070E94170987E89AE20B
:104F00000E94F40A8CE69AE20E94F40A90E080E0A3
:104F10000E94C510AA24A394811101C0A12CA092C3
:104F20009D2881E090E00E94C510BB24B3948111BC
:104F300001C0B12CB0924F2982E090E00E94C510D0
:104F4000C82ED12CC0920E29D0920F296CE079E2A4
:104F500083E090E00E946E1085E090E00E94C51012
:104F6000E82EF12CE092D428F092D52816E0812E7C
:104F700019E2912E06E410E009831A83CE0101960E
:104F80000E945E10F40181934F010F5F1F4F0A349E
:104F9000110591F787E090E00E94C51091E0811122
:104FA00001C090E09093E82888E090E00E94C5104E
:104FB00091E0811101C090E09093E32889E090E0B6
:104FC0000E94C51091E0811101C090E09093DE280D
:104FD0006CEC78E280E590E00E94931068EC78E257
:104FE0008AE590E00E94931064EC78E284E690E019
:104FF0000E94931060EC78E28EE690E00E9493109D
:1050000081E490E089839A83CE0101960E945E102C
:105010008093642863E578E288E990E00E946E104E
:1050200061E578E28AE990E00E946E108FE090E0FE
:105030000E94C51001E0811101C000E00093A42886
:1050400086E990E00E94C51011E0811101C010E0D6
:1050500010930A2984E890E00E94C51091E0811124
:1050600001C090E09093FD282A2D30E020931D2967
:1050700030931E292B2D30E020931F2930932029B7
:10508000C0922129D092222920910C2930910D29FA
:105090002093452930934629E0922929F0922A2924
:1050A0002091642830E02093232930932429202F55
:1050B00030E02093252930932629892F90E0809392
:1050C0003D2990933E29812F90E08093272990934A
:1050D00028296CE379E288E790E00E946E1083E76C
:1050E00090E00E94C51090E08093122990931329BC
:1050F00085E790E00E94C51090E08093142990937A
:1051000015298DE790E00E94C51090E08093162944
:105110009093172982E890E00E94C51090E0809358
:1051200018299093192987E890E00E94C51091E012
:10513000811101C090E09093A52889E29BE20E9432
:10514000F40A62E083E20E94A50762E085E20E9421
:10515000A50762E084E20E94A50762E082E20E9465
:10516000A5078DE791E18093AE2B9093AF2B89E655
:105170009DE08093B42B9093B52B89E19DE08093C3
:105180008F2B9093902B82E09DE08093992B9093AE
:105190009A2B83E096E08093972B9093982B83EA49
:1051A0009CE08093702B9093712B8CE89CE0809313
:1051B0007A2B90937B2B88EF95E08093782B9093BC
:1051C000792B89E29CE08093512B9093522B82E0C3
:1051D0009CE08093572B9093582B80EC9BE20E948D
:1051E000F40AEAE0EE2EF12C08E110E0FEE14F2E89
:1051F000512CA9E16A2E712CB8E12B2E312C89E2B9
:105200009BE20E94960A8BED9BE20E94960A0E9406
:105210008D04809104288823A1F180EC9BE20E94F8
:10522000960A89E190E00E94140B82E290E080935C
:10523000E9289093EA280093EB281093EC28009338
:10524000ED281093EE280093EF281093F028009398
:10525000F1281093F22884E090E08093F328909353
:10526000F4281092F5281092F62882E090E08093BE
:10527000F7289093F82881E08093BB280E94730759
:10528000BECF1092C02B1092CB2B1092CC2B109231
:10529000CD2B1092CE2B1092CF2B1092D02B20E042
:1052A00030E040EF52E46091FE287091FF28809139
:1052B0000029909101290E94783987FD57C060E04C
:1052C00088E10E9408081092BF281092BE28109210
:1052D0009F281092BD281092BC281092BB281092D3
:1052E000A9281092EE291092EF291092F02910921D
:1052F000F1291092502910921C2960E08CE00E9444
:10530000080860E08DE00E94080880913D2888230D
:1053100011F40C94B33761E085E10E9408088BE03A
:1053200090E08093E9289093EA2881E190E08093CF
:10533000EB289093EC2827E130E02093ED28309380
:10534000EE284EE050E04093EF285093F0284FE0D5
:1053500050E04093F1285093F2288093F3289093E3
:10536000F4282093F5283093F62843C685E20E945E
:105370002309D0904228811143C084E20E9423096E
:1053800081113EC0D1103CC00E946C0960933E2840
:1053900070933F28809340289093412881E0809328
:1053A000422880915029882311F40C94AF3760E093
:1053B0008CE00E940808E0910928F0910A28809169
:1053C000A928882309F477C7E431F10508F056CFFE
:1053D000E451F64D0C94303A542AAD2AEB2A562B60
:1053E000BA2B082C5F2CA02CCD2C1A2D692DAE2D9C
:1053F000EB2D642E962E0E2F132F682F952FC82F6E
:1054000085E20E942309882361F0DD2009F4C9CFD9
:1054100085E20E942309813009F03FC010924228A2
:10542000C0CFC090502984E20E9423098111EDCFA2
:10543000DD2009F4B6CF0E946C0980903E28909040
:105440003F28A0904028B0904128681979098A091E
:105450009B09683B7B408105910508F4A2CF84EF4E
:1054600091E00E94140B80911C2981119ACFC110E8
:105470009ECF8EE591E08093A0289093A12881E0B3
:1054800080935029809343288093462885E090E0BC
:105490008093092890930A2884CF84E20E942309EC
:1054A000813009F07ECFBACF1092BB2810929F288E
:1054B0001092BC280E9417098CE090E08093E928A4
:1054C0009093EA2880E190E08093EB289093EC2879
:1054D0006092ED287092EE2881E190E08093EF28B1
:1054E0009093F0288091A0289091A128893191056E
:1054F0004CF40093F1281093F2280093F3281093B2
:10550000F4285CC720911D2930911E291092F128A2
:105510001092F228232BB1F425E130E02093F328F8
:105520003093F4282093F5283093F6280093F72839
:105530001093F828C3970CF4A1CE1092A0281092D3
:10554000A1289CCE24E130E02093F3283093F42866
:105550000093F5281093F628E9CF0E9417091092BE
:10556000BB2810929F288CE190E08093E9289093CB
:10557000EA2884E190E08093EB289093EC286092F5
:10558000ED287092EE2880E190E08093EF289093D0
:10559000F0288091A0289091A128893191050CF4E0
:1055A000A8CF20911F2930912029232B59F42DE1D8
:1055B00030E02093F1283093F228E092F328F09223
:1055C000F428C6CF2DE130E02093F1283093F22863
:1055D00025E130E0B9CF0E9417091092BB288CE07A
:1055E00090E08093E9289093EA288DE090E0809302
:1055F000EB289093EC2885E190E08093ED28909340
:10560000EE288FE090E08093EF289093F02880912F
:105610004F292091A0283091A12829313105D4F4B7
:1056200090919E28911111C00093F1281093F228B7
:105630000093F3281093F4280093F5281093F6288C
:105640008823F1F085E190E07DC06092A0287092FF
:10565000A128F6CF811119C080912129909122298A
:105660002AE0289FB001299F700D1124072E000CFD
:10567000880B990B0E940F040093F1281093F228D5
:10568000E092F728F092F82804C180914529909182
:1056900046292AE0289FB001299F700D1124072E6A
:1056A000000C880B990B0E940F04CCCF1092BC28E1
:1056B0001092BB2810929F280E94170980E190E069
:1056C0008093E9289093EA286092EB287092EC2866
:1056D00022E130E02093ED283093EE282FE030E0F7
:1056E0002093EF283093F0282091A0283091A12812
:1056F000293131058CF480919E288111D3C3009308
:10570000F1281093F2280093F3281093F4280093C3
:10571000F5281093F628B9C0209123293091242927
:10572000232BA9F48093F1289093F22827E130E00D
:105730002093F3283093F4288093F5289093F6284B
:105740008FE190E08093F7289093F828A2C08CE036
:1057500090E08093F1289093F22887E190E0809385
:10576000F3289093F4288DE090E08093F5289093AF
:10577000F62886CF0E9417098BE090E08093E928F5
:105780009093EA2881E190E08093EB289093EC28B5
:1057900087E190E08093ED289093EE288CE090E0F4
:1057A0008093EF289093F0282091A0283091A12891
:1057B000293131050CF49FCF2091252930912629DC
:1057C000232B89F420E230E02093F1283093F22853
:1057D0006092F3287092F4288093F5289093F6282D
:1057E0008EE090E0AFCF8FE090E08093F12890932F
:1057F000F22884E190E08093F3289093F4288EE0DF
:1058000090E08093F5289093F6288AE190E09ACF73
:105810001092BB2810929F280E9417098BE090E0FD
:105820008093E9289093EA2881E190E08093EB2827
:105830009093EC2880E290E08093ED289093EE28FE
:1058400080E190E08093EF289093F0288091A02849
:105850009091A12849970CF44ECF809127299091DF
:105860002829892BD9F084E290E08093F128909345
:10587000F2288AE190E08093F3289093F4288CE05A
:1058800090E08093F5289093F6280093F7281093E2
:10589000F8288091A0289091A1284CCE84E290E035
:1058A0008093F1289093F2288AE190E08093F32886
:1058B0009093F428E092F528F092F628E6CF109223
:1058C000BB280E941709E092E928F092EA282DE00F
:1058D00030E02093EB283093EC288AE190E080932D
:1058E000ED289093EE284EE050E04093EF2850933F
:1058F000F0284091A0285091A128493151050CF47D
:10590000F8CD6091292970912A29E092F128F0922E
:10591000F2282093F3283093F4288093F52890936D
:10592000F62882E090E0672B11F481E090E080930C
:10593000F7289093F828433351050CF0FECD9ECC08
:105940001092BC280E941709E092E928F092EA28F8
:105950008DE090E08093EB289093EC288AE190E032
:105960008093ED289093EE2881E090E08093EF28DB
:105970009093F0288091A0289091A128499704F550
:1059800080919E288111CDC10093F1281093F228B7
:105990000093F3281093F42873CE8091A02890915F
:1059A000A12820914F29211128C049974CF48091BA
:1059B0009E288111B6C10093F5281093F62860CE79
:1059C00080912B2990912C2924E6289FB001299FB2
:1059D000700D112420912D2930912E294AE0429FEB
:1059E000C001439F900D1124680F791F072E000CF2
:1059F000880B990B0E940F0443CE4997B4F4809111
:105A00009E2881110DC00093F1281093F228009375
:105A1000F3281093F4280093F5281093F62812CE5B
:105A20006092A0287092A1280DCE80914729909174
:105A300048292FCEDD24D394D092BC281092BB28C5
:105A40000E941709D092B028E092E928F092EA2843
:105A50008DE090E08093EB289093EC288AE190E031
:105A60008093ED289093EE2882E090E08093EF28D9
:105A70009093F0288091A0289091A1284997C4F490
:105A800080919E2881110FC00093F3281093F42871
:105A90000093F5281093F6288AE190E08093F1288E
:105AA0009093F228EDCD6092A0287092A128F4CFB7
:105AB00080912F29909130292AE0289FB001299FB9
:105AC000700D1124072E000C880B990B0E940F04F7
:105AD000E3CF0E941709E092E928F092EA288DE0CE
:105AE00090E08093EB289093EC288AE190E08093FB
:105AF000ED289093EE2882E090E08093EF28909339
:105B0000F0288091A0289091A1284997B4F4809121
:105B10009E2881110DC00093F3281093F428009360
:105B2000F5281093F6284092F1285092F228A8CD3B
:105B30006092A0287092A128F6CF8091312990918F
:105B400032292AE0289FB001299F700D1124072EC9
:105B5000000C880B990B0E940F04E5CF0E941709D7
:105B600081E08093BB286091022870910328072E62
:105B7000000C880B990B0E944E048AE190E0809300
:105B8000E9289093EA2887E190E08093EB289093AE
:105B9000EC288091A0289091A12849976CF48091DD
:105BA0009E2881117FC10093F1281093F228009361
:105BB000F3281093F4286DCE8091332990913429E5
:105BC00024E6289FB001299F700D112420913529CA
:105BD0003091362903CF0E941709609102287091F5
:105BE0000328072E000C880B990B0E944E048AE1B3
:105BF00090E08093E9289093EA2887E190E08093F1
:105C0000EB289093EC28C0903329D0903429A090B1
:105C10003529B09036298091A0289091A1284997E4
:105C2000F4F580919E28811135C00093F5281093DA
:105C3000F628E092F728F092F8288091A028909119
:105C4000A128C39724F01092A0281092A128B50192
:105C5000BB0C880B990B0E94C83820E030E040E272
:105C600051E40E942D384B015C01B601DD0C880B1C
:105C7000990B0E94C8389B01AC01C501B4010E9478
:105C8000C53760934D2870934E2880934F2890938A
:105C90005028F4CA6092A0287092A128CACF84E646
:105CA0008C9DB0018D9D700D11242AE02A9DC001AC
:105CB0002B9D900D1124680F791F072E000C880B67
:105CC000990B0E940F04B5CF0E94170960914B28D1
:105CD00070914C28072E000C880B990B0E944E04E3
