:1002000050C0000076C0000074C0000072C0000042
:1002100070C000006EC000006CC000000C94412350
:1002200068C0000066C0000064C0000062C000003A
:1002300060C000005EC000005CC000005AC000004A
:1002400058C0000056C0000054C0000052C000005A
:1002500050C000004EC000004CC000004AC000006A
:1002600048C000000C94192344C0000042C00000A4
:1002700040C000003EC000003CC000000C94EB22D7
:100280000C94C52236C0000034C0000032C000000B
:1002900030C000002EC000002CC000002AC00000AA
:1002A000D62311241FBECFEFCDBFDFE3DEBF18E2A0
:1002B000A0E0B8E2EDEFF9E702C005900D92A83199
:1002C000B107D9F72BE2A8E1B8E201C01D92AA3F1D
:1002D000B207E1F711E0C1E5D1E004C02197FE01CA
:1002E0000E94F83BC035D107C9F70E9454270C94EF
:1002F000373C86CF109204280895809141288111BF
:1003000004C081E080934128089510924128089507
:1003100080918728882319F010928728089581E01A
:1003200080938728089580915429882309F45EC01A
:100330008091092890910A288230910571F42091CA
:100340005329222351F02091492930914A292F5FC6
:100350003F4F2093492930934A29209149293091D0
:100360004A29253D3105A4F024ED30E020934929A8
:1003700030934A2920914B2930914C29253D310554
:10038000CCF084ED90E080934B2990934C29089514
:100390008830910579F720915329222359F3209130
:1003A0004B2930914C292F5F3F4F20934B2930939D
:1003B0004C29E0CF880F991FFC01EF5DF64D20819D
:1003C00031812F5F3F4F20833183DC01AE55B6442E
:1003D0004D915C91421753070CF08EC0845896449F
:1003E000DC018D919C9180839183089580912029D7
:1003F0008130B1F48091162990911729019680934C
:100400001629909317292091122930911329281722
:1004100039070CF071C0109216291092172908950F
:10042000823039F5809118299091192901968A30E6
:100430009105E4F48093182990931929809140291B
:1004400090914129019680934029909341292091D0
:10045000102930911129281739070CF04DC080E27E
:1004600090E08093402990934129089589E090E09D
:10047000E1CF833091F480911A2990911B29019644
:10048000843691052CF480931A2990931B290895A2
:1004900010921A2910921B290895843091F48091AA
:1004A0001C2990911D2901968C3391052CF4809381
:1004B0001C2990931D29089510921C2910921D2922
:1004C00008958530C9F480910F298823A9F080917F
:1004D0000E29882389F080911E2990911F29019669
:1004E000823091052CF480931E2990931F29089542
:1004F00010921E2910921F29089580915429882353
:1005000009F457C08091092890910A2882309105FA
:1005100071F420915329222351F0209149293091DF
:100520004A29215031092093492930934A292091A1
:10053000492930914A2920323105A4F420E230E0E3
:100540002093492930934A2920914B2930914C29F5
:1005500020323105CCF480E290E080934B299093D7
:100560004C2908958830910579F720915329222349
:1005700059F320914B2930914C2921503109209376
:100580004B2930934C29E0CF880F991FFC01EF5D78
:10059000F64D20813181215031092083318337FF8D
:1005A0008CC08E5A9644DC018D919C9180839183FE
:1005B0000895809120298130A1F48091162990918D
:1005C00017290197809316299093172997FF75C0D3
:1005D00080911229909113298093162990931729BD
:1005E0000895823099F580915329811109C0809135
:1005F0001829909119290197809318299093192906
:10060000809118299091192997FF16C089E090E0F0
:10061000809318299093192980914029909141291C
:1006200080970CF04AC080911029909111298093F5
:100630004029909341290895809140299091412922
:1006400001978093402990934129E6CF833079F434
:1006500080911A2990911B29019797FD05C08093DD
:100660001A2990931B29089583E690E0F8CF8430EF
:1006700079F480911C2990911D29019797FD05C05F
:1006800080931C2990931D2908958BE390E0F8CF67
:10069000853099F480910F29882379F080910E2973
:1006A000882359F080911E2990911F29019797FD69
:1006B00005C080931E2990931F29089581E090E042
:1006C000F8CF4F925F926F927F928F929F92AF92EC
:1006D000BF92CF92DF92EF92FF92CF93DF9300D041
:1006E00000D0CDB7DEB76B017C0149015A0120E093
:1006F00030E0A9010E94ED3987FDA1C020E030E083
:10070000A901C501B4010E94ED3987FD98C081E0BF
:100710002091182A3091192A2130310509F080E002
:100720008093392AC092FE29D092FF29E092002AB4
:10073000F092012A8AE097EDA3E2BCE38093022ABB
:100740009093032AA093042AB093052A8092062A44
:100750009092072AA092082AB092092A60912C2A26
:1007600070912D2A80912E2A90912F2A0E948A3AE8
:1007700020E030E04AE754E40E94F1392B013C01CB
:10078000C0920A2AD0920B2AE0920C2AF0920D2AEB
:100790002AE037ED43E25CE30E94403B69837A83C1
:1007A0008B839C8360930E2A70930F2A8093102A68
:1007B0009093112AA3019201C501B4010E94F1395D
:1007C0004B015C018092122A9092132AA092142A63
:1007D000B092152A8091162A9091172A019779F5DF
:1007E000A701960160E070E0CB010E948839609318
:1007F0000A2A70930B2A80930C2A90930D2A298140
:100800003A814B815C8160E070E0CB010E948839C5
:1008100060930E2A70930F2A8093102A9093112AC6
:10082000A501940160E070E0CB010E9488396093DB
:10083000122A7093132A8093142A9093152A2496CF
:10084000CDBFDEBFDF91CF91FF90EF90DF90CF90D3
:10085000BF90AF909F908F907F906F905F904F90E0
:100860000895CF92DF92EF92FF926B0128EE33E072
:1008700040E050E00E94DC3BE5EFF8E2208331836A
:1008800068EE73E0629FC001639F900D729F900DB0
:100890001124C81AD90AC60164E670E00E94A73B79
:1008A000628373832CE92603C001279F900D1124D6
:1008B000C80ED91EC6016AE070E00E94A73B64839F
:1008C000758326EF2603C001279F900D1124C80EC3
:1008D000D91EC682D782FF90EF90DF90CF90089507
:1008E000CF92DF92EF92FF926B0128EE33E040E06F
:1008F00050E00E94DC3BEDEEF8E22083318368EEAD
:1009000073E0629FC001639F900D729F900D112450
:10091000C81AD90AC60164E670E00E94A73B628348
:1009200073832CE92603C001279F900D1124C80E64
:10093000D91EC6016AE070E00E94A73B64837583FC
:1009400026EF2603C001279F900D1124C80ED91E43
:10095000C682D782FF90EF90DF90CF9008954F929C
:100960005F926F927F928F929F92AF92BF92CF923F
:10097000DF92EF92FF9220E030E040E251E460919C
:100980000A2970910B2980910C2990910D290E94C0
:10099000F1392091EC28211190586093E828709348
:1009A000E9288093EA289093EB28F090E728FF202D
:1009B00009F455C02091E8283091E9284091EA28AF
:1009C0005091EB28609102297091032980910429AC
:1009D000909105290E9489396093E3287093E42857
:1009E0008093E5289093E6288091D8289091D92883
:1009F000892B09F07EC0FF2009F450C06091E328E4
:100A00007091E4288091E5289091E628609306296A
:100A100070930729809308299093092926E636E6E2
:100A200046EE5FE30E94403B20E030E040E052E4CD
:100A30000E9489396093D4287093D5288093D62852
:100A40009093D728FF90EF90DF90CF90BF90AF901A
:100A50009F908F907F906F905F904F9008958091BE
:100A6000E228882309F22091E8283091E928409172
:100A7000EA285091EB286091DE287091DF28809160
:100A8000E0289091E1280E9489396093DA287093D8
:100A9000DB288093DC289093DD28A6CF8091E22884
:100AA000882381F2C090DA28D090DB28E090DC28FF
:100AB000F090DD2820E030E040E052E4C701B601CC
:100AC0000E94883926E636E646EE5FE30E94F13959
:100AD0006093062970930729809308299093092928
:100AE000C092D428D092D528E092D628F092D72868
:100AF000A9CF6091D0287091D1288091D22890916F
:100B0000D3280E948C3A20E030E040E251E40E9479
:100B1000F1394B015C016091C8287091C92880911E
:100B2000CA289091CB280E948C3A20E030E040E225
:100B300051E40E94F1396B017C016091C4287091ED
:100B4000C5288091C6289091C7280E948C3A20E041
:100B500030E040E251E40E94F139A70196010E9481
:100B600088392B013C01A501940160910229709103
:100B7000032980910429909105290E9488399B01BD
:100B8000AC01C301B2010E94403B2B013C016091CA
:100B9000CC287091CD288091CE289091CF280E94AA
:100BA0008C3A20E030E040E251E40E94F139A501A6
:100BB00094010E9488399B01AC01C301B2010E94DB
:100BC000F139A70196010E9489396B017C01C0921D
:100BD0000629D0920729E0920829F092092926E6F1
:100BE00036E646EE5FE30E94403B20E030E040E026
:100BF00052E40E9489396093D4287093D528809359
:100C0000D6289093D72820E030E048EC52E4C70182
:100C1000B6010E943C3B87FD15CF8DEC9CECA7EC08
:100C2000B2E48093062990930729A0930829B093F2
:100C3000092908CF8091AA28811106C01092A42802
:100C40001092A5281092A2280895F4CFAF92BF92D7
:100C5000CF92DF92EF92FF920F931F93CF93DF9388
:100C60006C017B018B01040F151FEB015E01AE18B7
:100C7000BF08C017D10759F06991D601ED91FC91D9
:100C80000190F081E02DC6010995892B79F7C50106
:100C9000DF91CF911F910F91FF90EF90DF90CF9058
:100CA000BF90AF900895FC01508D418D252F30E00D
:100CB000842F90E0821B930B541710F0CF96089569
:100CC00001970895FC0196898789981761F0A78993
:100CD000AE0FBF2FB11D5D968C9197899F5F9F735B
:100CE000978B90E008958FEF9FEF0895FC01968910
:100CF0008789981731F08789E80FF11D858D90E07D
:100D000008958FEF9FEF0895FC0196892789892F19
:100D100090E0805C9F4F821B91098F739927089503
:100D200085E599E2F1DF21E0892B09F420E0822FAB
:100D30000895CF93DF93EC01E881F9810680F78174
:100D4000E02D0995EC85FD8586818F738683EC8582
:100D5000FD8585818F7585838F898E8B1D8ADF91B7
:100D6000CF910895FC01613019F4648B81E00895FE
:100D7000148A6623D9F380E00895DC0154961C920E
:100D8000549754968C9154978230A0F4282F30E0D9
:100D9000F901EE0FFF1FE20FF31FEA0FFB1F97850C
:100DA000961303C09685941749F08F5F54968C93E1
:100DB0005497E7CF54961C9280E0089581E00895FF
:100DC000CF93DF93FC01908D818DC485D5859813D9
:100DD00006C08D818F7D8D83DF91CF910895A18D88
:100DE000AE0FBF2FB11DA35ABF4F2C91818D90E044
:100DF00001968F739927818F80E48C83A485B585B4
:100E000012962C93908D818D9813E6CFA485B5858D
:100E100015968C9115978F7D15968C93838D8823CD
:100E2000D9F2848D80931301138ED6CFDC011C96EA
:100E3000ED91FC910FB607FE03C0258125FD03C08F
:100E4000248125FDBDCF0895EF92FF920F931F934C
:100E5000CF93DF93EC0181E08D8B988D898D981372
:100E60001CC0AC85BD8514968C91149785FF15C068
:100E700012966C93AC85BD8580E414968C93EC85BA
:100E8000FD8585818F7D858381E090E0DF91CF9125
:100E90001F910F91FF90EF9008958091110180FFB5
:100EA00008C0809113018C8F8A8D8093130181E09B
:100EB0008B8FF62E088D10E00F5F1F4F0F731127D9
:100EC000E02E898D8E1103C0CE01B0DFFACFE88D00
:100ED000EC0FFD2FF11DE35AFF4FF082088FEC85D8
:100EE000FD8585818062CFCFCF93DF93FC0125897B
:100EF0002223C1F0EC018091110180FF08C0809194
:100F00001301848F828D8093130181E0838FEC85A0
:100F1000FD85858185FD03C0848186FD03C0CE01EA
:100F200085DFF5CFDF91CF91089580E090E0892BA8
:100F300049F080E090E0892B29F00E9400008111A7
:100F40000E94000080E090E0892B49F080E090E072
:100F5000892B29F00E94000081110E94000080E08E
:100F600090E0892B21F0DCDE81110E94000080E0FE
:100F700090E0892B49F080E090E0892B29F00E94D5
:100F8000000081110C940000089581E00895CF9332
:100F9000DF9390E0FC01E75DF64420812F3F69F08C
:100FA000FC01E050F744A08130E2A39FD00111245E
:100FB000BC5F613029F411962C93DF91CF91089595
:100FC00089529744EC01E881EF3F81F0CD014096D2
:100FD000E80FF92FF11D9FB7F89412962C9380819A
:100FE000623039F4886080839FBFE7CFF0E0E0E0B3
:100FF000F2CF877FF8CF893208F4C9CF089590E007
:10100000FC01E255F744E081EE2319F1E13021F0D3
:1010100000F1E630A8F0089589529744FC01208140
:10102000233008F02F5F3091010A81E090E001C089
:10103000880F2A95EAF7809583238093010A089503
:1010400080E1E89FF0011124E05AF54F81818F7E05
:10105000818308950F931F93CF93DF93C82FD0E020
:10106000FE01E75DF64400810F3F99F0162F8932AB
:1010700008F4C5DFFE01E050F744E08180E2E89F1C
:10108000F0011124FC5F8081802351F0111106C012
:101090000683DF91CF911F910F9108950583F9CFBA
:1010A000C952D7448881309771F08F3F61F07096B4
:1010B000E80FF11D9FB7F8948081111107C0877F59
:1010C00080839FBFE6CFF0E0E0E0F4CF8860F8CF08
:1010D000893208F4BFCF08950F931F93CF93DF9306
:1010E000EC01162F072F82E390E08E839F8360E050
:1010F000812F81DF1883098388E592E08A839B83AF
:1011000088EE93E08C839D83198E1A8E1C8681E075
:1011100090E0888799871A861B8661E0812FD8DF47
:101120001F86188A198A1A8A1B8A1C8A1D8A1E8A97
:101130001F8A188EDF91CF911F910F91089561E062
:101140008BE0C6DF61E08AE0C3DF61E089E0C0DFF9
:1011500061E088E0BDCF61E087E0BADF61E086E072
:10116000B7DF61E085E0B4DF61E084E0B1CFAF924A
:10117000BF92CF92DF92EF92FF920F931F93CF9384
:10118000DF93EC016A017B01A22E8D89882339F05F
:10119000E881F9810688F789E02DCE0109950C894F
:1011A00010E0BFB6F89460E070E281EA97E0A70132
:1011B00096010E94BA3B69017A018FEFC81AD80ADA
:1011C000E80AF80AF694E794D794C794EC85FD856D
:1011D00086818D7F8683EC85FD85868186831D8A49
:1011E000A09123110A2E000CBB0BA70196010E94AF
:1011F0000E3C20E034E040E050E00E94DC3BEC8517
:10120000FD85C20ED31EE41EF51EC086D186EC8578
:10121000FD85A782EC85FD858681806C8683EC85C3
:10122000FD858581806885839091E2058B89809515
:1012300089239801220F331F020F131FC00FD11FE4
:101240009889892B8093E20562E08E85D4DE61E087
:101250008F853EDF61E08F85CEDEBFBEDF91CF910F
:101260001F910F91FF90EF90DF90CF90BF90AF90C4
:10127000089561E08AE1EEDE61E08DE1EBDE61E0A0
:101280008CE1E8DE61E08BE1E5CE0F931F93CF9315
:10129000082F10E0F801E75DF644C081CF3F81F0F0
:1012A000893208F4ACDEF801E050F744E08180E2D6
:1012B000E89FF0011124FC5F8085C82381E009F4D8
:1012C00080E0CF911F910F9108958FB7F8942091EE
:1012D0003D2830913E2840913F2850914028E09190
:1012E000AA0AF091AB0A9091A60A90FF08C02F5F5E
:1012F0003F4F4F4F5F4FE091AA0AF091AB0A8FBF6B
:10130000A8EEB3E00E94043C24E0F695E7952A9508
:10131000E1F76E0F7F1F811D911D08952FB7F8947F
:1013200060913D2870913E2880913F2890914028FF
:101330002FBF08950F931F9380915429811182C06C
:101340008091062990910729A0910829B091092937
:101350008093FA299093FB29A093FC29B093FD294F
:101360008091012981118DC080E090E0A8ECB1E46A
:1013700080930B2890930C28A0930D28B0930E28EF
:101380008AE097EDA3E2BCE380930F2890931028A6
:10139000A0931128B093122880E090E8A4E5B4E46B
:1013A0008093132890931428A0931528B09316289F
:1013B0009C01AD0160E070E088EC91E482D9AEDF81
:1013C0000091FD281091FE282091FF2830910029DE
:1013D000AB01BC01401B510B620B730B4D345440ED
:1013E0006105710570F0D901C801845B9B4FAF4F57
:1013F000BF4F8093FD289093FE28A093FF28B093C1
:1014000000298CDF0091FD281091FE282091FF28F3
:1014100030910029601B710B820B930B0E948A3A5A
:101420002091F6293091F7294091F8295091F92916
:101430000E943C3B18167CF460E088E10BDE1F91B3
:101440000F9108958091022990910329A091042978
:10145000B09105297DCF2091F2293091F329409157
:10146000F4295091F5296091FA297091FB29809116
:10147000FC299091FD290E943C3B87FFDDCF61E074
:10148000DCCF80E090E0A0EFB1E480930B28909354
:101490000C28A0930D28B0930E288AE097EDA3E2C4
:1014A000BCE380930F2890931028A0931128B09349
:1014B000122880E090E0AAEFB3E480931328909381
:1014C0001428A0931528B09316289C01AD0160E064
:1014D00070E080EF91E4F5D821DF0091FD281091B4
:1014E000FE282091FF2830910029AB01BC01401B50
:1014F000510B620B730B4D3454406105710570F054
:10150000D901C801845B9B4FAF4FBF4F8093FD282B
:101510009093FE28A093FF28B0930029FFDE00914E
:10152000FD281091FE282091FF2830910029601B92
:10153000710B820B930B0E948A3A2091F62930910D
:10154000F7294091F8295091F9290E943C3B18163F
:101550002CF460E088E11F910F917CCD2091F2295D
:101560003091F3294091F4295091F5296091FA299D
:101570007091FB298091FC299091FD290E943C3BB0
:1015800087FFE7CF61E0E6CF0F931F93CF93DF9301
:10159000FC012081222309F450C0EC018185928551
:1015A0000197B9F5BBDE0B891C892D893E89601B2B
:1015B000710B820B930B09811A812B813C8160177F
:1015C000710782079307C8F1A9DE6B8B7C8B8D8B2B
:1015D0009E8B8B859C85AD85BE854D815E816F819F
:1015E0007885481B590B6A0B7B0B4130510561050F
:1015F000710509F418820196A11DB11D8B879C8786
:10160000AD87BE87E989FA89DF91CF911F910F914C
:1016100009945BDE0B891C892D893E89601B710B47
:10162000820B930B09811A812B813C816017710712
:101630008207930710F049DEC8CFDF91CF911F9149
:101640000F910895CF93DF93FC0121893289232BD9
:10165000A1F0EC0181859285019791F45FDE6B8B9F
:101660007C8B8D8B9E8B81E088831B861C861D86E0
:101670001E8681E090E08F87988BDF91CF9108954F
:1016800024DEEDCFDC01BC01990F880B990B209172
:101690001B2B30911C2B232B21F428EE33E00E94CE
:1016A000FE3B6093132B7093142B8093152B909318
:1016B000162B61E085E1CEDC82E19BE2C3CFCF92C5
:1016C000DF92EF92FF920F931F93CF93DF93EC0182
:1016D00088818932F8F4D9DD082F10E01FDE298DCA
:1016E0003A8D21153105C1F42A853B852017310734
:1016F00041F421E030E0298F3A8F6B8F7C8F8D8F02
:101700009E8FDF91CF911F910F91FF90EF90DF900F
:10171000CF90089580E0E0CF2130310509F051C02D
:101720002885398520173107E9F40B8D1C8D2D8D07
:101730003E8DAB01BC01401B510B620B730B8E81C4
:101740009F81092E000CAA0BBB0B481759076A078B
:101750007B0718F4198E1A8ED4CF82E090E0898F1F
:101760009A8FCFCF2A853B852017310751F60B8DF5
:101770001C8D2D8D3E8DAB01BC01401B510B620BAE
:10178000730B8C819D81092E000CAA0BBB0B841757
:101790009507A607B70708F0B4CF81E08C87E989E1
:1017A000FA89309709F00995EB89FC89309709F09F
:1017B0000995EF89F88D309709F0099586E090E05A
:1017C000CECF2230310519F5CB8CDC8CED8CFE8C24
:1017D0006C197D098E099F09CA80DB800D2C000CD5
:1017E000EE08FF08C616D706E806F90638F4ED85B8
:1017F000FE85309709F4AECF0995ACCF8A859B85DD
:101800008017910709F07DCF83E090E0A8CF2330C7
:10181000310549F4888599858017910709F071CFC2
:10182000EF85F889E6CF2630310509F06ACF888543
:1018300099858017910721F41C86ED89FE89D9CFFF
:1018400081E08C87EF89F88D309709F45ACFDF91CA
:10185000CF911F910F91FF90EF90DF90CF9009945F
:101860008091AA28811122C080915429811116C02B
:101870008091202981110BC01092472881E090E0CF
:101880008093092890930A2888EC90E0FBCE109270
:10189000202910929F281092A028F6CF80914A28E4
:1018A000811110924A2810925429EECF0895809108
:1018B000AA2881115EC02091532980910928909116
:1018C0000A28211103C08830910529F0AC014D7F11
:1018D0004C305105B9F501978093092890930A2857
:1018E0008091542981112BC0809120292223D9F184
:1018F0008230C9F510922029809120298530F9F491
:1019000020E030E040E85FE36091B0287091B128BA
:101910008091B2289091B3280E943C3B87FD0FC074
:101920008091AC28882359F01092B0281092B128E9
:101930001092B2281092B32881E08093AC2882E301
:1019400090E0A0CE8B30910511F00D9721F481E04D
:101950008093AD28C5CF8091AD28882309F4C0CFEE
:101960001092AD28BDCF8150843030F6809320296D
:10197000C3CF08958091AA28811112C08091462872
:1019800081110EC081E08093A228809138288F5F5A
:1019900080933828893124F00E947D0210923828E3
:1019A00008958091AA2881115AC0809154298823D2
:1019B00009F453C08091AD2881114FC0809109284E
:1019C00090910A2820914A28211119C001968093EC
:1019D000092890930A2820910E29222339F005978F
:1019E000F4F11092092810920A2808950597BCF185
:1019F00081E090E08093092890930A28089586302A
:101A0000910519F488E090E0F5CF2091B428893051
:101A1000910539F48BE090E02111ECCF80E190E06A
:101A2000E9CF211106C0893091054CF08031910534
:101A3000ACF38031910519F481E190E0DBCF813185
:101A4000910519F482E190E0D5CF823191051CF027
:101A500085E090E0CFCF0196CDCF0C947D02089524
:101A60008091AA28811112C08091462881110EC050
:101A700081E08093A228809138288F5F8093382856
:101A8000893124F00E9493011092382808958091A2
:101A9000AA28811126C080915429882309F445C0C1
:101AA0008091AD28811141C08091092890910A2828
:101AB00020914A28211116C00197809309289093FC
:101AC0000A2820910E29222349F097FF0AC084E0BA
:101AD00090E08093092890930A2808951816190613
:101AE000B4F708958830910519F486E090E0F1CFBD
:101AF0008B30910519F489E090E0EBCF81319105AD
:101B000019F480E190E0E5CF8231910519F481E18B
:101B100090E0DFCF8031910571F3863091051CF4A0
:101B200082E190E0D6CF0197D4CF0C9493018091BD
:101B3000AA28811125C080912029811117C0809188
:101B40005429811113C08EE591E08093A4289093CD
:101B5000A52880910E29882361F0109209281092FF
:101B60000A2881E0809354298093472888EC90E0EC
:101B700089CD81E090E08093092890930A28F1CFE5
:101B80000895DC01ED91FC910488F589E02D23E0B6
:101B900030E00994E2E1FBE2108213861486158698
:101BA00016861786108A60E085E154CA8CED9AE2A9
:101BB00049DD61E085E14ECA60E085E14BDA809164
:101BC000AE28882349F08091BB289091BC280196CB
:101BD0008093BB289093BC288091BD289091BE280B
:101BE00001968093BD289093BE28089560E08AE115
:101BF00031DA81EC9AE226CD61E08AE12BDA80913C
:101C0000B5288F5F8093B52808958F929F92AF92E9
:101C1000BF92CF92DF92EF92FF92CF93DF93C0916A
:101C20001E28D0911F282196C0931E28D0931F28CC
:101C30001092060681E08093080680910B0680FFD3
:101C4000FCCF6091100670911106072E000C880BD6
:101C5000990B0E948C3A20911A2830911B284091B0
:101C60001C2850911D280E94893969979CF4609323
:101C70001A2870931B2880931C2890931D28DF91AD
:101C8000CF91FF90EF90DF90CF90BF90AF909F905B
:101C90008F90089520E030E048EC51E40E94F13943
:101CA00060931A2870931B2880931C2890931D28FA
:101CB00020E030E040EA50E40E94403B20E030EC7D
:101CC0004FE754E40E94F13920E030E040E251E473
:101CD0000E94F13925E535E545ED5DE30E9489393E
:101CE0006B017C0120E030EE42E955E40E94403B6C
:101CF0004B015C01A701960160E070E080EA90E48E
:101D00000E9488399B01AC01C501B4010E94F139E0
:101D100020E030E048EC52E40E94F13920E030E06D
:101D200040E85FE30E94883928E430E54CE75BE354
:101D30000E94F139609320287093212880932228F3
:101D40009093232810921E2810921F2898CF3F921C
:101D50004F925F926F927F928F929F92AF92BF92BB
:101D6000CF92DF92EF92FF920F931F93CF93DF9367
:101D7000CDB7DEB72E97CDBFDEBF8091382A88233E
:101D800009F429C1CBDA6D837E838F839887809194
:101D9000202A9091212AA091222AB091232A4D81B4
:101DA0005E816F817885481B590B6A0B7B0B809194
:101DB0002C2A90912D2AA0912E2AB0912F2A4817D3
:101DC00059076A077B0708F406C1E0911A2AF091C7
:101DD0001B2A80819181A281B38189839A83AB83FD
:101DE000BC83E0911E2AF0911F2A9C01AD01608105
:101DF0007181828193810E9488394B015C0120911D
:101E0000282A3091292A40912A2A50912B2A698127
:101E10007A818B819C810E9488396B017C012091A1
:101E20000E2A30910F2A4091102A5091112AC50193
:101E3000B4010E94403B2091242A3091252A4091F0
:101E4000262A5091272A0E9489392B013C01409271
:101E5000242A5092252A6092262A7092272A3090AE
:101E6000392A31101AC020910A2A30910B2A409148
:101E70000C2A50910D2AC701B6010E94403B9B01DC
:101E8000AC01C301B2010E9488396093242A709387
:101E9000252A8093262A9093272A4090242A50901E
:101EA000252A6090262A7090272A1091342A909132
:101EB000352A9E87A091362AAD870091372A212F97
:101EC000392F4A2F502FC301B2010E943C3B1816F4
:101ED0000CF096C0812F9E85AD85B02F8093242A6B
:101EE0009093252AA093262AB093272A332009F419
:101EF000A0C020910A2A30910B2A40910C2A5091BF
:101F00000D2AC501B4010E94403B4B015C012091A8
:101F1000122A3091132A4091142A5091152AC70190
:101F2000B6010E94403B9B01AC016091242A709154
:101F3000252A8091262A9091272A0E948839A50176
:101F400094010E9489396B017C019B01AC01612FD6
:101F50007E858D85902F0E94ED3987FD18C01091E8
:101F6000302A9091312A9E87A091322AAD87009124
:101F7000332A212F392F4A2F502FB601C7010E9433
:101F8000ED3987FD04C01C2DDE86ED860F2DE09116
:101F90001C2AF0911D2A812F9E85AD85B02F80834C
:101FA0009183A283B38389819A81AB81BC81809321
:101FB000282A9093292AA0932A2AB0932B2A8D812C
:101FC0009E81AF81B8858093202A9093212AA09387
:101FD000222AB093232A2E96CDBFDEBFDF91CF9168
:101FE0001F910F91FF90EF90DF90CF90BF90AF9037
:101FF0009F908F907F906F905F904F903F9008954B
:102000008091302A9091312AA091322AB091332ABE
:1020100089879A87AB87BC879C01AD01C301B20158
:102020000E94ED3987FF62CF89859A85AB85BC8593
:1020300055CF812C912C54016ACFFC018081918174
:10204000FC01FF2790FD06C080E094E1E82BF92B0E
:102050008081089580E093E1F9CFEF92FF920F9392
:102060001F93CF93DF9300D0CDB7DEB78C017B01F8
:1020700089839A83CE010196E0DFF70180830F5FA9
:102080001F4F09831A83CE010196D7DFF7018183A1
:10209000C7010F900F90DF91CF911F910F91FF908B
:1020A000EF900895AF92BF92CF92DF92EF92FF929E
:1020B0000F931F93CF93DF9300D0CDB7DEB78B0183
:1020C0006B0124E0C20ED11C7B015C01A61AB70A89
:1020D000C5018E0D9F1D89839A83CE010196ADDFC8
:1020E000F70181937F01EC15FD0591F7C8010F9071
:1020F0000F90DF91CF911F910F91FF90EF90DF90A4
:10210000CF90BF90AF900895CF93DF9300D0CDB71D
:10211000DEB789839A83CE0101968FDF0F900F90EF
:10212000DF91CF910895FC01FF2790FD12C080E060
:1021300094E1E82BF92B60838FB7F8949DE923E0B5
:1021400094BF209300108FBF8091021081FDFCCFBF
:10215000089580E093E1EDCFE6CF1F93CF93DF9317
:10216000EC01162F6ADF811721F0612F8881998198
:10217000DADFCE01DF91CF911F910895EF92FF92A8
:102180000F931F93CF93DF9300D0CDB7DEB78AE0D4
:10219000E82E89E2F82E06E410E009831A83F7019D
:1021A00061917F01CE010196D8DF0F5F1F4F0A3486
:1021B000110599F78AE099E20F900F90DF91CF9186
:1021C0001F910F91FF90EF900895AF92BF92CF9221
:1021D000DF92EF92FF920F931F93CF93DF9300D084
:1021E000CDB7DEB78B016B0124E0C20ED11C7B01A1
:1021F0005C01A61AB70AC5018E0D9F1D89839A83BB
:10220000F70161917F01CE010196A7DFEC14FD0477
:1022100091F7C8010F900F90DF91CF911F910F910F
:10222000FF90EF90DF90CF90BF90AF900895EF9226
:10223000FF920F931F93CF93DF9300D0CDB7DEB7FC
:102240008C017B0189839A83FB016081CE01019619
:1022500084DF0F5F1F4F09831A83F7016181CE016D
:1022600001967BDFC7010F900F90DF91CF911F91F7
:102270000F91FF90EF9008952F923F924F925F92AF
:102280006F927F928F929F92AF92BF92CF92DF9286
:10229000EF92FF920F931F93CF93DF9300D01F9283
:1022A000CDB7DEB78091AA28811158C01092A2281C
:1022B0008091542981116AC01092A4281092A528F7
:1022C00080912029843031F420919F283091A028DA
:1022D000232B51F090915329992309F455C0811172
:1022E00053C082E0809320298091202985300CF40E
:1022F00080C380910E29882301F185E080932029F5
:1023000080910F29882309F470C310920F298091BE
:102310000F29811112C061E080911E2990911F291F
:10232000892B09F460E06093A12890E080E014DF3D
:102330008091202985300CF45CC30091B82810915D
:10234000B928101611060CF454C388EE93E09AD9FC
:102350000F5F1F4F0093B8281093B9282396CDBF65
:10236000DEBFDF91CF911F910F91FF90EF90DF9033
:10237000CF90BF90AF909F908F907F906F905F9025
:102380004F903F902F9008958F5FACCF0091092818
:1023900010910A288091AD28811109C18091A1284E
:1023A00090E08093212990932229209153292B8317
:1023B000822F90E080932329909324298091A8284C
:1023C00090E08093292990932A298091012990E017
:1023D000809341299093422980910E2990E0809327
:1023E0002B2990932C29211199C080911229909129
:1023F000132980932529909326298091D82890919C
:10240000D92880932D2990932E29C0900229D0900D
:102410000329E0900429F0900529C701B6010E9424
:10242000593A4B0120E030E040E251E4C701B601E7
:102430000E94403B0E94593A2B01CB016AE070E0B8
:102440000E94A73B1C018B8181117EC020E030E0FF
:1024500048EC52E4C701B6010E94ED3987FF67C01E
:1024600080922F2990923029409236285092372816
:1024700020923129309232298091022890910328AC
:102480008093332990933429809237299092382968
:102490002092392930923A290C30110509F06DC08B
:1024A000C0922E28D0922F28E0923028F092312826
:1024B00020E030E048EC52E4C701B6010E94ED395B
:1024C00087FF68C080923B2990923C2920923D2949
:1024D00030923E298091682890E08093272990933C
:1024E00028290231110521F4109248281092492818
:1024F0002B81211109C00830110531F487E090E0EB
:102500008093092890930A2881E08093AD288AE17E
:1025100090E08093A4289093A528E6CE809110297E
:10252000909111298093492990934A2966CF83E697
:1025300090E080932F299093302989E090E0809358
:1025400031299093322998CF4090DE285090DF288F
:102550006090E0287090E128C301B2010E94593ACE
:1025600060934B2970934C29409232285092332823
:1025700060923428709235287FCF0E30110509F013
:1025800097CFC0922A28D0922B28E0922C28F09244
:102590002D288ECF83E690E080933B2990933C29B1
:1025A00089E090E080933D2990933E2993CF0131BB
:1025B000110518F5F801E152FD4E0C94F83BF012AC
:1025C0001D132A13D614471354136E13FD127913D7
:1025D00029143714FD125014FD126114FD126113F9
:1025E00061E08091212990912229892B09F460E0F2
:1025F0006093A12890E080E0AFDD80910928909160
:102600000A2820915329211103C08730910561F0D8
:102610009C012D7F2930310539F08D30910521F055
:102620008231910509F0D4C121E02093AD280196B3
:102630008093092890930A286ACF61E0809123292A
:1026400090912429892B09F460E06093532981E05B
:1026500090E0D2CF8091532981110BC06091252940
:1026600080912629609312298093132982E090E0BB
:10267000C3CF8091492990914A2980931029909342
:10268000112960E179E283E090E0D1DDB6CF61E02D
:102690008091292990912A29892B09F460E060937F
:1026A000A8288FE090E058DD61E080912B2990917F
:1026B0002C29892B09F460E060930E2986E990E0CB
:1026C0009BCF61E08091412990914229892B09F4A7
:1026D00060E06093012984E890E08ECF60912D291D
:1026E00080912E296093D8288093D92885E090E0A6
:1026F00083CF80915329811187C0609131297091D6
:102700003229072E000C880B990B0E948C3A20E08E
:1027100030E040E251E40E94F1396B017C016091AC
:102720002F2970913029072E000C880B990B0E94DD
:102730008C3A9B01AC01C701B6010E94893920E0A7
:1027400030E040E251E40E94403B6B017C0160912B
:10275000362870913728072E000C880B990B0E94A1
:102760008C3A9B01AC01C701B6010E94883920E078
:1027700030E040E251E40E94F1396093E828709320
:10278000E9288093EA289093EB2881E08093E7285A
:102790001092E2288090E8289090E928A090EA28FA
:1027A000B090EB2820E030E040E251E4C501B401F4
:1027B0000E94403B6B017C0120E030E0A901C50193
:1027C000B4010E94ED3987FF41C081E08093EC287D
:1027D000F7FAF094F7F8F094C0920A29D0920B29F6
:1027E000E0920C29F0920D29C9DC6091EC2887E079
:1027F00090E0B2DC6091E72888E090E0ADDC609189
:10280000E22889E090E0F8CE6091492970914A2948
:10281000072E000C880B990B0E948C3A20913228CD
:102820003091332840913428509135280E948839BE
:102830006093E8287093E9288093EA289093EB2826
:102840001092E72881E08093E228A4CF1092EC2830
:10285000C3CF80913329909134298093022890939B
:1028600003280A968093352990933629C6CE809105
:1028700035299091362980934F2890935028809144
:10288000022990910329A0910429B09105298093F0
:102890002E2890932F28A0933028B0933128ADCEC6
:1028A0008091022990910329A0910429B0910529D2
:1028B00080932A2890932B28A0932C28B0932D281E
:1028C0009CCE20E030E040E251E460912E287091EF
:1028D0002F2880913028909131280E94403B0E94FF
:1028E000593A6093D0287093D1288093D22890933E
:1028F000D32820E030E040E251E460912A28709132
:102900002B2880912C2890912D280E94403B0E94DA
:10291000593A6093CC287093CD288093CE28909319
:10292000CF2860ED78E280E590E04FDC6CEC78E257
:102930008AE590E04ADC20E030E040E251E460913A
:1029400051287091522880915328909154280E94C8
:10295000403B0E94593A6093C8287093C9288093DD
:10296000CA289093CB2820E030E040E251E4609107
:102970004B2870914C2880914D2890914E280E94B0
:10298000403B0E94593A6093C4287093C5288093B5
:10299000C6289093C72868EC78E284E690E015DCBE
:1029A00064EC78E28EE690E010DC27CE61E0809166
:1029B000272990912829892B09F460E060936828E1
:1029C00081E490E089839A83CE010196C6DB15CE1F
:1029D0009C012B7F1092AD282A30310509F427CEB7
:1029E0008C30910509F093CD22CE81E080930F29A0
:1029F0008ECC82E390E00E94420BB0CC2F923F92AB
:102A00004F925F926F927F928F929F92AF92BF92FE
:102A1000CF92DF92EF92FF920F931F93CF93DF93AA
:102A2000C0912029C23009F43CC6CCF4CC2309F46F
:102A3000BCC3C13009F4B6C5DF91CF911F910F918E
:102A4000FF90EF90DF90CF90BF90AF909F908F90CE
:102A50007F906F905F904F903F902F900895C4307B
:102A600009F426C70CF4A0C6C53031F7C09016296A
:102A7000D09017296091182970911929072E000C00
:102A8000880B990B0E948C3A20E030E040E251E440
:102A90000E94F1394B015C01B601DD0C880B990BEA
:102AA0000E948C3A9B01AC01C501B4010E94893996
:102AB0004B015C0180929B2890929C28A0929D28BB
:102AC000B0929E28C0914029D0914129C093992865
:102AD000D0939A28E0901A29F0901B29E092972829
:102AE000F092982800911C2910911D290093952897
:102AF000109396282CE32E9DC0012F9D900D11243C
:102B0000800F911F80939F289093A02881E080934D
:102B1000A9286C2D83E790E01FDB6091182985E7D9
:102B200090E01ADB60E479E288E790E080DB6E2DCC
:102B30008DE790E011DB602F82E890E00DDB61E033
:102B400087E890E009DB1091532980919428811146
:102B50001BC011114FC720E030E040E251E460910A
:102B600006297091072980910829909109290E94CE
:102B700089399B01AC01C501B4010E943C3B87FF30
:102B800003C081E08093942880919428882309F4DD
:102B90004CC71092B0281092B1281092B22810920F
:102BA000B32881E08093AC281092942811115EC75D
:102BB00080919B2890919C28A0919D28B0919E285F
:102BC0008093882890938928A0938A28B0938B2893
:102BD0008093F2299093F329A093F429B093F529D7
:102BE00085E59AE20E94220B81E08093872861E0CC
:102BF00081E20E942A0801E010E08CE3282E312CAB
:102C0000C5E1D0E080919F289091A0281816190660
:102C100014F00C94321F8DE29BE20E94C40A20E063
:102C200030E040E251E460919B2870919C288091B3
:102C30009D2890919E280E948939209106293091E3
:102C4000072940910829509109290E94ED3987FFF1
:102C500004C0809153298823E9F0609199287091EC
:102C60009A28665F7F4F072E000C880B990B0E94F5
:102C70008C3A2091D4283091D5284091D628509173
:102C8000D7280E94ED3987FF18C7809153298823E0
:102C900009F413C71092A4281092A52881E080930C
:102CA000AA2860E081E20E942A081092202910924E
:102CB0009F281092A02861E08DE10E942A0860E020
:102CC0008BE10E942A080E94AF048FED9BE20E94D4
:102CD000C40A8091A128882329F080910E2961E0FF
:102CE000811101C060E089E10E942A08B090AC28FF
:102CF000B1100AC00E948E096093832870938428C3
:102D00008093852890938628C0908328D09084282B
:102D1000E0908528F090862880918C2890918D28CD
:102D2000A0918E28B0918F28C81AD90AEA0AFB0A06
:102D300020E2C2162FEBD20622E0E206F10408F4EC
:102D400051C0B1104FC08090022990900329A090EB
:102D50000429B09005292091902830919128409124
:102D6000922850919328C501B4010E9488392B0103
:102D70003C01C701B60120E63AEE40E050E00E9477
:102D8000BA3BCA01B9010E948A3A9B01AC01C30156
:102D9000B2010E94F1396093B0287093B1288093FA
:102DA000B2289093B3280E948E0960937F28709375
:102DB000802880938128909382280E948E096093B6
:102DC0007B2870937C2880937D2890937E28809226
:102DD000772890927828A0927928B0927A2881E07A
:102DE0008093AC28C090B028D090B128E090B22851
:102DF000F090B32820E030E040E85FE3C701B6017F
:102E00000E943C3B87FDA0C68091AC28882309F432
:102E1000A1C060E088E10E942A0810923A2A10922C
:102E2000452A1092462A1092472A1092482A109258
:102E3000492A10924A2A0E948E096B017C01C09295
:102E40007328D0927428E0927528F0927628109218
:102E5000AF288090022990900329A0900429B09077
:102E6000052980926F2890927028A0927128B092C4
:102E7000722880917F2890918028A0918128B0911C
:102E8000822826013701481A590A6A0A7B0AD301A7
:102E9000C20180369A4EA105B10509F05BC02091B0
:102EA0007728309178284091792850917A28C50167
:102EB000B4010E948839209105283091062840915C
:102EC00007285091082850580E94ED3918160CF424
:102ED00017C680916D2890916E28181619060CF46B
:102EE000EFC5019680936D2890936E288AE097ED48
:102EF000A3E2BCE38093052890930628A0930728BB
:102F0000B09308280E948E096093692870936A28FC
:102F100080936B2890936C2880916D2890916E28F7
:102F2000029741F41092B0281092B1281092B22862
:102F30001092B328C0927F28D0928028E0928128F6
:102F4000F09282288092772890927828A09279280F
:102F5000B0927A288090062990900729A09008299D
:102F6000B0900929C0908828D0908928E0908A28BC
:102F7000F0908B2880916828811103C681E08093AE
:102F80006728A7019601C501B4010E943C3B87FD5B
:102F900004C080915329882399F0A701960160917C
:102FA000D4287091D5288091D6289091D7280E9456
:102FB0003C3B87FD52C080915329882309F44DC0C2
:102FC0008091E52A9091E62A892B09F414C680E9BC
:102FD00091E0A0E0B0E08093DD2A9093DE2AA093F8
:102FE000DF2AB093E02A8091002B9091012B892B4E
:102FF00009F406C680E293E0A0E0B0E08093F82AEE
:103000009093F92AA093FA2AB093FB2A8091B628CC
:103010009091B728892B59F481E08093AE2887EFEF
:103020009AE20E94220B0093B6281093B728809151
:10303000BB289091BC28029781F41092F72A109235
:10304000022B1092032B1092042B1092052B10923E
:10305000062B1092072B1092AE2880919F289091FA
:10306000A028B1010E94A73B6B017C0160939728C7
:1030700070939828809365289093662820E030E02C
:1030800040E85FE360916128709162288091632835
:10309000909164280E948939609361287093622816
:1030A00080936328909364281092BF2820E030E03A
:1030B00040E85FE36091B0287091B1288091B22818
:1030C0009091B3280E943C3B87FDA9C51092A3288C
:1030D00081E08093BA281092AE280E94390960E0FE
:1030E0008DE00E942A08C093ED28D093EE2889E154
:1030F00090E08093EF289093F0288AE190E080930D
:10310000F1289093F2288093F3289093F4288EE08E
:1031100090E08093F5289093F6288DE090E08093DE
:10312000F7289093F82880E190E08093F928909315
:10313000FA288EE190E08093FB289093FC28809100
:10314000E52A9091E62A892B09F45FC588EE93E081
:10315000A0E0B0E08093DD2A9093DE2AA093DF2ADE
:10316000B093E02A8091002B9091012B892B09F4D8
:1031700051C580ED97E0A0E0B0E08093F82A9093ED
:10318000F92AA093FA2AB093FB2A8091B62890914D
:10319000B728892B09F036CD87EF9AE20E94220BDF
:1031A0000093B6281093B7282DCD1092C328109203
:1031B000C2281092C1281092C0281092BF281092E5
:1031C000BD281092BE281092BB281092BC281092E5
:1031D000BA281092B8281092B9281092B6281092E6
:1031E000B7281092B5281092B42810920F29109287
:1031F000B0281092B1281092B2281092B3281092E1
:10320000AF281092F2291092F3291092F42910920B
:10321000F5291092AE281092AD2881E08093AC2859
:103220001092F72A1092022B1092032B1092042B6B
:103230001092052B1092062B1092072B1092AB28A0
:1032400060E089E10E942A081092C12A1092CC2ADB
:103250001092CD2A1092CE2A1092CF2A1092D02A04
:103260001092D12A1092A62A1092B12A1092B22A54
:103270001092B32A1092B42A1092B52A1092B62A4C
:1032800060E088E10E942A0810923A2A1092452AAA
:103290001092462A1092472A1092482A1092492AE0
:1032A00010924A2A0E9439098091AA288111F4C0FB
:1032B0008091A928882309F493C08091A8288823A5
:1032C00009F48EC08091A6289091A72803970CF04E
:1032D00083C0C091A428D091A528CB34D105E4F5B2
:1032E00061E085E10E942A0888E190E08093F5285A
:1032F0009093F6288093F7289093F8288093F928E4
:103300009093FA288093FB289093FC288093ED28D3
:103310009093EE288093EF289093F0288093F128E3
:103320009093F2288093F3289093F42860E08CE047
:10333000DF91CF911F910F91FF90EF90DF90CF9091
:10334000BF90AF909F908F907F906F905F904F90C5
:103350003F902F900C942A0860E085E10E942A0893
:103360008BE090E08093ED289093EE2821E130E00F
:103370002093EF283093F02887E190E08093F128A4
:103380009093F2288CE090E08093F3289093F428B7
:103390008093F5289093F62880E190E08093F728B9
:1033A0009093F8282093F9283093FA288093FB28EB
:1033B0009093FC28C739D1050CF4B8CF8091A6288A
:1033C0009091A72801968093A6289093A728109201
:1033D000A4281092A528AACF85E080932029A6CF03
:1033E0008091532981113DC0C0900629D0900729B2
:1033F000E0900829F09009292DEC3CEC47EC52E4D0
:10340000C701B6010E943C3B1816DCF420E030E016
:1034100040E251E4C701B6010E94403B0E94593A84
:103420000E9470041092A3288AE090E08093F32811
:103430009093F42860E070E0CB010E94310461E0D9
:1034400076CF20E030E048EC52E4C701B6010E949C
:10345000403B0E94593A0E94700481E08093A32867
:10346000E3CF20E030E040E251E46091D428709155
:10347000D5288091D6289091D7280E94403B0E9461
:10348000593A0E94700485E190E08093F32890936C
:10349000F4281092A328CECF60E081E20E942A088F
:1034A00061E08DE10E942A0861E08CE10E942A0817
:1034B00061E08BE10E942A0860E08AE10E942A080C
:1034C00060E08DE00E942A0860E08CE00E942A08FB
:1034D000C091A428D091A528C931D1053CF560E060
:1034E00085E10E942A0888E190E08093ED2890937E
:1034F000EE288093EF289093F0288093F128909302
:10350000F2288093F3289093F4288093F5289093E1
:10351000F6288093F7289093F8288093F9289093C1
:10352000FA288093FB289093FC2886CA61E085E105
:103530000E942A081092A3288CE090E08093ED2846
:103540009093EE288093EF289093F02881E190E00B
:103550008093F1289093F22888E190E08093F328FB
:103560009093F42885E190E08093F5289093F628D5
:103570008DE090E08093F7289093F82889E190E01F
:103580008093F9289093FA288AE190E08093FB28B1
:103590009093FC28E3970CF44FCA1092A428109241
:1035A000A5284ACA1092BF281092A32860E08DE196
:1035B0000E942A0861E08CE00E942A088091A428D9
:1035C0009091A52849970CF04DC08091A2288111B7
:1035D00042C088E190E08093ED289093EE2880939C
:1035E000EF289093F0288091A4289091A528C39764
:1035F00024F01092A4281092A5288AE090E08093ED
:10360000F3289093F42880911A2990911B2924E69D
:10361000289FB001299F700D112480911C29909141
:103620001D29680F791F072E000C880B990BDF915D
:10363000CF911F910F91FF90EF90DF90CF90BF90AF
:10364000AF909F908F907F906F905F904F903F9042
:103650002F900C94310489E190E08093A4289093FA
:10366000A528C1CFC093A32880911629909117292E
:1036700024E6289FB001299F700D1124209118295C
:10368000309119294AE0429FC001439F900D1124B7
:10369000680F791F072E000C880B990B0E9470048D
:1036A000A2CF80911A2990911B2914E6189FB0018E
:1036B000199F700D112480911C2990911D29680F6C
:1036C000791F072E000C880B990B0E943104C091C2
:1036D000A428D091A52880915329811138C08091C8
:1036E000162990911729189FB001199F700D112468
:1036F00020911829309119294AE0429FC001439F27
:10370000900D1124680F791F072E000C880B990B60
:103710000E9470048AE090E08093F3289093F4284C
:1037200081E08093A328699754F48091A2288111A5
:1037300094C088E190E08093F1289093F2288091E2
:10374000A4289091A528C3970CF027CF75C960E0F5
:103750008DE10E942A0880914029909141292AE018
:10376000289FB001299F700D1124072E000C880B93
:10377000990B0E94700485E190E08093F328909368
:10378000F4281092A3286997D4F68091A228811179
:1037900064C088E190E08093ED289093EE288093B8
:1037A000EF289093F028C7CF8091532981113CC016
:1037B000809116299091172924E6289FB001299F0E
:1037C000700D112420911829309119294AE0429F47
:1037D000C001439F900D1124680F791F072E000C24
:1037E000880B990B0E9470048AE090E08093F32884
:1037F0009093F42881E08093A3288091A42890914D
:10380000A52849978CF58091A228811126C088E1CE
:1038100090E08093F5289093F6288093F728909372
:10382000F8281092BF288BCF809140299091412990
:103830002AE0289FB001299F700D1124072E000C4B
:10384000880B990B0E94700485E190E08093F32827
:103850009093F4281092A328D0CF89E190E0809330
:10386000A4289093A5286BCF1092BF28809120297F
:10387000082E000C990BFC01EE0FFF1FEC5EF64DBD
:103880002081318144E6429FB001439F700D112495
:10389000880F991FFC01EA5EF64D80819181680FC7
:1038A000791F072E000C880B990B0E94310447CF1B
:1038B0001092BF288091532981117CC080911629D4
:1038C0009091172924E6289FB001299F700D11249B
:1038D00020911829309119294AE0429FC001439F45
:1038E000900D1124680F791F072E000C880B990B7F
:1038F0000E9470048AE090E08093F3289093F4286B
:1039000081E08093A32880911A2990911B2924E6B5
:10391000289FB001299F700D112480911C2990913E
:103920001D29680F791F072E000C880B990B0E9428
:1039300031048091A4289091A528499774F480912E
:10394000A228811150C088E190E08093F9289093DB
:10395000FA288093FB289093FC288091A4289091CA
:10396000A528C39724F01092A4281092A52810929D
:10397000B8281092B9288091A12890E080931E2940
:1039800090931F2981E080930F2920911A2930916B
:103990001B294CE3429FC001439F900D11242091AD
:1039A0001C2930911D29820F931F80939F2890938B
:1039B000A02842C880914029909141292AE0289F5F
:1039C000B001299F700D1124072E000C880B990B54
:1039D0000E94700485E190E08093F3289093F4288E
:1039E0001092A32890CF89E190E08093A42890932F
:1039F000A528B3CFBE01DD0F880B990B0E948C3A2E
:103A00006B017C0120E030E040E751E46091D42874
:103A10007091D5288091D6289091D7280E94893915
:103A20009B01AC01C701B601A8C81092AC2861E0A7
:103A300088E10E942A088091022990910329A0918F
:103A40000429B09105298093902890939128A09300
:103A50009228B09393280E948E0960938C287093CB
:103A60008D2880938E2890938F28A0C860919928E4
:103A700070919A28072E000C880B990B0E948C3AA3
:103A8000609388287093892880938A2890938B2844
:103A900020E030E040E052E40E94883926E636E635
:103AA00046EE5FE30E94F1396093F2297093F329A7
:103AB0008093F4299093F52993C81092AA28FBC803
:103AC0004091692850916A2860916B2870916C2808
:103AD00026013701441A550A660A770AB301A20182
:103AE00040395F456140710530F4019680936D283F
:103AF00090936E2811CA10926D2810926E280CCAED
:103B000080917B2890917C28A0917D28B0917E287F
:103B100026013701481A590A6A0A7B0AD301C201F1
:103B2000813A9846A640B10508F4F6C981E0809331
:103B3000942860E085E10E942A08109220291092C2
:103B40009F281092A028E8C920E030E040E85FE319
:103B5000C701B6010E94ED3987FFFCC98091AC28EE
:103B6000882309F4F7C98091AF28811107C08AE33F
:103B70009AE20E94220B81E08093AF280E949A096A
:103B8000E9C98091532981111DC0A7019601C50182
:103B9000B4010E943C3B87FD06C081E0809367280A
:103BA0008093AB28EEC9A7019601C501B4010E941C
:103BB000ED3987FFE5C18091AB288111E2C91092F0
:103BC0006728DFC94090D4285090D5286090D62827
:103BD0007090D728A7019601C301B2010E943C3B17
:103BE00087FFDBCFA7019601C301B2010E94ED3927
:103BF00087FDE1CFC6C980E89AE1A6E0B0E0EBC955
:103C000080E095E3ACE0B0E0F9C980E492E4AFE095
:103C1000B0E0A0CA80E894E8AEE1B0E0AECA80911E
:103C20000F29882309F44EC080910E29882309F4B6
:103C300049C01092A3281092C0280E94390960E060
:103C40008CE00E942A088CE090E08093ED2890930D
:103C5000EE2880E190E08093EF289093F02889E1AE
:103C600090E08093F1289093F22881E190E0809396
:103C7000F3289093F42880911E2990911F29109287
:103C8000F5281092F628892B81F4C093F728D09359
:103C9000F828C093F928D093FA2888E190E080931F
:103CA000FB289093FC280C94021684E190E080930A
:103CB000F7289093F82888E190E08093F928909372
:103CC000FA28EDCF80915F28909160289C012F5FAA
:103CD0003F4F20935F283093602861E028393840B7
:103CE00038F0875998408839984008F055C060E00E
:103CF0008CE00E942A088091BA28882371F01092E3
:103D0000F72A1092022B1092032B1092042B109280
:103D1000052B1092062B1092072B84E68C9DB00188
:103D20008D9D700D11246E0D7F1D072E000C880BCC
:103D3000990B0E94310485E59AE20E94C40A8091A1
:103D400087288823F1F161E08CE10E942A0860E075
:103D50008DE10E942A0860918828709189288091BD
:103D60008A2890918B282091532921111AC020E094
:103D700030E048EC52E40E94403B0E94593A0E94D5
:103D800070048AE090E08093F3289093F42881E017
:103D90008093A3280C94021610925F28109260283A
:103DA000AACF20E030E040E251E40E94403B0E9474
:103DB000593A0E947004C093F328D093F4280C94CD
:103DC000021660E08CE10E942A0861E08DE10E9409
:103DD0002A0880915329811138C0C0900629D090BB
:103DE0000729E0900829F09009292DEC3CEC47ECDC
:103DF00052E4C701B6010E943C3B1816B4F420E01F
:103E000030E040E251E4C701B6010E94403B0E940D
:103E1000593A0E9470041092A3288AE090E080939F
:103E2000F3289093F4280C94021620E030E048EC3C
:103E300052E4C701B6010E94403B0E94593A0E94D9
:103E4000700481E08093A328E8CF20E030E040E2D6
:103E500051E46091D4287091D5288091D628909112
:103E6000D728A3CF60E081E20E942A0860E080EAC0
:103E700090E00E94AC100E94390986EA9AE20E9402
:103E8000220B1092A92860E087E890E00E94AC1015
:103E900060915B2870915C2880915D2890915E28EC
:103EA0002CE330E040E050E00E94BA3B69012093EF
:103EB000592830935A2867E578E288E990E00E9413
:103EC0002D1020915728309158282C0D3D1D2093FE
:103ED0005728309358282F30374268F08091552862
:103EE00090915628019680935528909356281092C9
:103EF00057281092582867E578E288E990E00E94F8
:103F0000171165E578E28AE990E00E941711109296
:103F1000592810925A2810925B2810925C2810920F
:103F20005D2810925E281092552A1092602A1092F5
:103F3000612A1092622A1092632A1092642A1092C7
:103F4000652A8091B5288330B8F484EF91E00E940F
:103F5000420B10923A2A1092452A1092462A109249
:103F6000472A1092482A1092492A10924A2A8FED25
:103F70009BE20E94C40AE5CF109220290C941C15E4
:103F8000A7019601C501B4010E943C3B87FF01C017
:103F900004C816C8EF92FF920F931F93CF93DF933D
:103FA000E82EF62ED0E0C0E0042F10E0B8010C2E71
:103FB00002C0759567950A94E2F761708E2D0E9494
:103FC000680861E08F2D0E94680860E08F2D0E94D4
:103FD00068082196C830D10549F7DF91CF911F912C
:103FE0000F91FF90EF9008950F931F93CF93DF935E
:103FF0000E949F080E94AB080E94AB0860E080E22C
:104000000E946808C0913928D0913A288091C3282D
:104010008E01000F111F882331F0E091ED28F091FF
:10402000EE282097C1F08091A328882339F0E091F1
:10403000EF28F091F028C130D10569F08091C228B5
:10404000882309F480C0C230D10509F07CC0E0911A
:10405000F128F091F228EA57F744408141606EE17F
:104060008FE198DFF801EE58F74460E080810E940C
:10407000680861E080E20E9468082196C430D1059A
:104080000CF06BC0C0933928D0933A280E949F0847
:1040900060E083E10E946808C0913B28D0913C28F1
:1040A0008091C0288E01000F111F882331F0E0910C
:1040B000F528F091F6282097C1F08091BF28882339
:1040C00039F0E091F728F091F828C130D10569F076
:1040D0008091C128882309F445C0C230D10509F078
:1040E00041C0E091F928F091FA28EA57F74440815D
:1040F000416064E182E14EDFF801E458F74460E09A
:1041000080810E94680861E083E10E94680821962E
:10411000C430D1058CF5C0933B28D0933C2885EA68
:104120009BE20E945F0B86E89BE20E945F0B87E6A2
:104130009BE20E945F0B88E49BE2DF91CF911F918D
:104140000F910C945F0BF801E351F74D0190F08152
:10415000E02DEA57F744408182CF1092392810921F
:104160003A2894CFF801EB50F74D0190F081E02D03
:10417000EA57F7444081BDCF10923B2810923C286B
:10418000CECFFC0101900020E9F73197AF01481B29
:10419000590BBC0185E599E20C9426068F929F92FB
:1041A000AF92BF920F931F93CF93DF93CDB7DEB73C
:1041B000A197CDBFDEBF19A2423008F44AE08E01BC
:1041C0000F5D1F4F842E912CB12CA12CA5019401C1
:1041D0000E94BA3BE62FB901CA01EA30D4F4E05D8F
:1041E000D801EE938D01232B242B252B79F790E01A
:1041F00080E0109711F0CD01C4DFA196CDBFDEBFE6
:10420000DF91CF911F910F91BF90AF909F908F90B2
:104210000895E95CE5CF4F925F926F927F928F9203
:104220009F92AF92BF92CF92DF92EF92FF920F9345
:104230001F93CF936B017C01742EAC019B010E94F4
:10424000A33B882391F08AEE99EBCF911F910F91B8
:10425000FF90EF90DF90CF90BF90AF909F908F90A6
:104260007F906F905F904F908CCF46015701E894FC
:10427000B7F82FEF3FEF4FE75FE7C501B4010E94AA
:10428000A33B81110DC02FEF3FEF4FE75FE7C50163
:10429000B4010E94ED3918161CF48EEE99EBD5CFBF
:1042A0002FEF3FEF4FE75FE4C701B6010E943C3BB1
:1042B00018161CF482EF99EBC8CF2FEF3FEF4FE7B2
:1042C0005FECC701B6010E94ED3987FDF3CF20E016
:1042D00030E0A901C701B6010E94ED3910E000E00D
:1042E00087FF0AC06DE285E599E20E9424078C01F0
:1042F000F7FAF094F7F8F094C0E060E070E080E046
:104300009FE37C1641F020E030E040E251E40E945F
:10431000F139CF5FF6CFA70196010E9489392B01B1
:104320003C010E945E3A4B015C014AE037DF7C01B0
:10433000E00EF11ECC23A9F1C501B4010E948A3A16
:104340009B01AC01C301B2010E9488394B015C01A1
:1043500086EF99EB16DFE80EF91EC15010F120E050
:1043600030E040E251E4C501B4010E94403B2B0122
:104370003C010E945E3A4B01B12CA12C4AE0C501E0
:10438000B4010CDFE80EF91EC501B4010E948A3A9F
:104390009B01AC01C301B2010E9488394B015C0151
:1043A000DCCFC701CF911F910F91FF90EF90DF906D
:1043B000CF90BF90AF909F908F907F906F905F90C5
:1043C0004F9008958F929F92AF92BF92CF92DF92BB
:1043D000EF92FF92CF93DF93C0912828D0912928A4
:1043E0002196C0932828D093292881E0809306063F
:1043F0008093080680910B0680FFFCCF6091100629
:1044000070911106072E000C880B990B0E948C3AB4
:104410002091242830912528409126285091272842
:104420000E9489396B017C01C0922428D0922528F2
:10443000E0922628F09227286091002870910128A8
:10444000C617D7070CF490C0072E000C880B990BE9
:104450000E948C3A9B01AC01C701B6010E94F13960
:1044600060932428709325288093262890932728EA
:1044700020E030E040EA50E40E94403B20E030EC95
:104480004FE754E40E94F13920E030E040E251E48B
:104490000E94F13928EB3FE840E65FE30E9489394A
:1044A0006B017C0120E030E04BEE53E40E94403B86
:1044B0004B015C01A701960160E070E080EA90E4A6
:1044C0000E9488399B01AC01C501B4010E94F139F9
:1044D00020E030E048EC52E40E94F13920E030E086
:1044E00040E85FE30E94883928E430E54CE75BE36D
:1044F0000E94F13960930229709303298093042963
:104500009093052942E087DE88EF99EB3ADE6091CF
:10451000202870912128809122289091232842E020
:104520007ADE8AEF99EB2DDE26E636E646EE5FE38D
:1045300060910229709103298091042990910529A5
:104540000E94403B20E030E040E052E40E94893984
:104550006093DE287093DF288093E0289093E12811
:10456000109228281092292882E390E08093002856
:1045700090930128DF91CF91FF90EF90DF90CF9043
:10458000BF90AF909F908F9008951F920F920FB69B
:104590000F9211242F933F934F935F936F937F93C9
:1045A0008F939F93AF93BF93EF93FF9385E599E22A
:1045B0000E94E006FF91EF91BF91AF919F918F9183
:1045C0007F916F915F914F913F912F910F900FBE0F
:1045D0000F901F9018951F920F920FB60F921124F3
:1045E0002F938F939F93EF93FF93E0916129F09125
:1045F0006229818181FD1BC0908180916B298F5F31
:104600008F7320916C29821741F0E0916B29F0E0C3
:10461000EB5AF64D958F80936B29FF91EF919F9107
:104620008F912F910F900FBE0F901F901895808142
:10463000F4CF1F920F920FB60F9211248F939F9376
:10464000AF93BF9380913D2890913E28A0913F2841
:10465000B09140280196A11DB11D80933D289093F3
:104660003E28A0933F28B093402881E08093A60A7B
:10467000BF91AF919F918F910F900FBE0F901F90A0
:1046800018951F920F920FB60F9211242F933F93FC
:104690004F935F936F937F938F939F93AF93BF934A
:1046A000EF93FF9382E19BE20E94C40A8AE39AE2BD
:1046B0000E94C40A8BE89AE20E94C40A80E79AE248
:1046C0000E94C40A87EF9AE20E94C40A8CED9AE223
:1046D0000E94C40A81EC9AE20E94C40A86EA9AE225
:1046E0000E94C40A8091A4289091A52801968093E5
:1046F000A4289093A52880916728882381F1809130
:1047000018289091192801968093182890931928B9
:10471000803B9E4021F580915B2890915C28A09180
:104720005D28B0915E280196A11DB11D80935B2884
:1047300090935C28A0935D28B0935E2880919F2879
:104740009091A028019780939F289093A028109281
:10475000182810921928892B11F41092672880913B
:10476000AD28882379F08091092890910A284397F1
:1047700049F48091482890914928019680934828CF
:104780009093492881E080930B0AFF91EF91BF91AC
:10479000AF919F918F917F916F915F914F913F91D9
:1047A0002F910F900FBE0F901F9018954F925F9210
:1047B0006F927F928F929F92AF92BF92CF92DF9231
:1047C000EF92FF92CF93DF931092572910925829BE
:1047D00088EE482E83E0582E612C712C4092592986
:1047E00050925A2960925B2970925C2980ED99EB76
:1047F000809355299093562980E498E0809361290D
:104800009093622983E28093632982E280936429F2
:104810001092652987E28093662986E28093672952
:1048200080E1809368291092692910926A29109278
:104830006B2910926C2910926D2910926E2980E2DA
:1048400080936F29109270291092712982E090E074
:104850008093E82B9093E92B80E89CE0A0E0B0E007
:104860008093E02B9093E12BA093E22BB093E32B6A
:104870001092E42B1092E52B1092E62B1092E72B6E
:1048800084EF9FE18093F02B9093F12B1092DF2B1C
:104890001092F22B1092F32B1092F42B1092F52B16
:1048A0001092EA2B1092EB2B1092EC2B1092ED2B26
:1048B0001092CD2B1092CE2B90E4892E92E4992E5B
:1048C0009FE0A92EB12C8092C52B9092C62BA0926E
:1048D000C72BB092C82BC12CD12C7601C394C092A7
:1048E000C92BD092CA2BE092CB2BF092CC2B8AE72B
:1048F00091E08093D52B9093D62B1092C42B1092DD
:10490000D72B1092D82B1092D92B1092DA2B109211
:10491000CF2B1092D02B1092D12B1092D22B63E27E
:1049200070E085EA9BE20E946C0865E270E086E830
:104930009BE20E946C0864E270E087E69BE20E94C2
:104940006C0862E270E088E49BE20E946C08C1E0BF
:10495000D0E0C093362BD093372B40922E2B509221
:104960002F2B6092302B7092312B1092322B1092A1
:10497000332B1092342B1092352B8DE791E08093DE
:104980003E2B90933F2B10922D2B1092402B109288
:10499000412B1092422B1092432B1092382B1092E5
:1049A000392B10923A2B10923B2B10921B2B10920A
:1049B0001C2B80EA96E8A1E0B0E08093132B909343
:1049C000142BA093152BB093162BC092172BD092BB
:1049D000182BE092192BF0921A2B8AEC9DE0809311
:1049E000232B9093242B1092122B1092252B109294
:1049F000262B1092272B1092282B10921D2B1092F1
:104A00001E2B10921F2B1092202B1092002B109215
:104A1000012B80E894E8AEE1B0E08093F82A90930F
:104A2000F92AA093FA2AB093FB2A1092FC2A10923A
:104A3000FD2A1092FE2A1092FF2A26ED3DE02093D7
:104A4000082B3093092B1092F72A10920A2B109200
:104A50000B2B10920C2B10920D2B1092022B1092FC
:104A6000032B1092042B1092052B1092E52A109222
:104A7000E62A8092DD2A9092DE2AA092DF2AB09266
:104A8000E02AC092E12AD092E22AE092E32AF09250
:104A9000E42A2CED3DE02093ED2A3093EE2A10928B
:104AA000DC2A1092EF2A1092F02A1092F12A10922A
:104AB000F22A1092E72A1092E82A1092E92A10921C
:104AC000EA2A1092CA2A1092CB2A40EE53E964E0F7
:104AD00070E04093C22A5093C32A6093C42A709313
:104AE000C52A1092C62A1092C72A1092C82A10927C
:104AF000C92A2CEF3DE02093D22A3093D32A10927A
:104B0000C12A1092D42A1092D52A1092D62A109235
:104B1000D72A1092CC2A1092CD2A1092CE2A109227
:104B2000CF2A1092AF2A1092B02A40EC57E269E0E7
:104B300070E04093A72A5093A82A6093A92A709303
:104B4000AA2A1092AB2A1092AC2A1092AD2A109287
:104B5000AE2A26EF3DE02093B72A3093B82A109270
:104B6000A62A1092B92A1092BA2A1092BB2A109241
:104B7000BC2A1092B12A1092B22A1092B32A109233
:104B8000B42A1092942A1092952A48E458EE61E0D3
:104B900070E040938C2A50938D2A60938E2A7093F4
:104BA0008F2A1092902A1092912A1092922A109293
:104BB000932A22EE31E220939C2A30939D2A109270
:104BC0008B2A10929E2A10929F2A1092A02A10924D
:104BD000A12A1092962A1092972A1092982A10923F
:104BE000992A1092792A10927A2A48EB5FEF61E0B5
:104BF00070E04093712A5093722A6093732A7093E5
:104C0000742A1092752A1092762A1092772A10929E
:104C1000782A25E03EE02093812A3093822A109260
:104C2000702A1092832A1092842A1092852A109258
:104C3000862A10927B2A10927C2A10927D2A10924A
:104C40007E2A10925E2A10925F2A8093562A9093B1
:104C5000572AA093582AB093592A10925A2A109290
:104C60005B2A10925C2A10925D2A88E891E080937A
:104C7000662A9093672A1092552A1092682A1092F9
:104C8000692A10926A2A10926B2A1092602A109256
:104C9000612A1092622A1092632A1092432A10927B
:104CA000442A80E89AE1A6E0B0E080933B2A909302
:104CB0003C2AA0933D2AB0933E2A10923F2A10929C
:104CC000402A1092412A1092422A87EA9EE080935D
:104CD0004B2A90934C2A10923A2A10924D2A109205
:104CE0004E2A10924F2A1092502A1092452A109262
:104CF000462A1092472A1092482AC0901328D09032
:104D00001428E0901528F090162880900F28909095
:104D10001028A0901128B090122840900B28509095
:104D20000C2860900D2870900E2886EF99E28093F1
:104D30001C2A90931D2A8AEF99E280931A2A909355
:104D40001B2A82EF99E280931E2A90931F2A1092C9
:104D5000382A1092302A1092312A1092322A109258
:104D6000332A80E090E0AFE7B3E48093342A909355
:104D7000352AA093362AB093372A84E690E0A0E043
:104D8000B0E080932C2A90932D2AA0932E2AB093E2
:104D90002F2A1092162A1092172A20E030E0A9013B
:104DA000C301B2010E94ED3987FD59C020E030E017
:104DB000A901C501B4010E94ED3987FD50C020E072
:104DC00030E0A901C701B6010E94ED3987FD47C057
:104DD000C093182AD093192A81E08093392A4092EF
:104DE000FE295092FF296092002A7092012A809237
:104DF000022A9092032AA092042AB092052AC09215
:104E0000062AD092072AE092082AF092092A4092B4
:104E10000A2A50920B2A60920C2A70920D2A2DECCD
:104E20003CEC4CEC5DE3C501B4010E94403B609357
:104E30000E2A70930F2A8093102A9093112A2DEC3A
:104E40003CEC4CEC5DE3C701B6010E94F139609384
:104E5000122A7093132A8093142A9093152A0E9481
:104E60008E09C0902C2AD0902D2AE0902E2AF09006
:104E70002F2A6C197D098E099F096093202A70934F
:104E8000212A8093222A9093232ADF91CF91FF90A9
:104E9000EF90DF90CF90BF90AF909F908F907F90DA
:104EA0006F905F904F900895CF93DF93CDB7DEB7AB
:104EB0002697CDBFDEBF88ED90E084BF9093610060
:104EC00080910206866080930206809100068160D0
:104ED00080930006809102068F7C80658093020695
:104EE0001092E20582E08093E40581E08093030A5A
:104EF0008EEF8093270A8093260A80E880932D0AFC
:104F000080932B0A8093290A80932C0A80932A0A83
:104F10008093280A8BE08093000A87E08093E50560
:104F2000E0E8FAE037E02EEF90E885E0318324876F
:104F3000958780837096E03C4AE0F407B9F71092B9
:104F4000A10A8FE79EE38093AC0A9093AD0A80910B
:104F5000A50A81608093A50A1092A00A8091A00AF8
:104F600081608093A00A789447E266E285E599E241
:104F70000E94BD0640E855E260E070E085E599E2F8
:104F80000E94C10DF89481E080930A0A1092010AF0
:104F90008091090A8E7F8093090A8AEF90E08093BE
:104FA000260A9093270A8FE08093000A789461E0A4
:104FB0008BE00E94FB0761E08AE00E94FB0761E052
:104FC00089E00E94FB0761E088E00E94FB0761E046
:104FD00084E00E94FB0761E085E00E94FB0761E03E
:104FE00086E00E94FB0761E087E00E94FB0761E02A
:104FF00084E10E94FB0761E083E10E94FB0761E01E
:1050000082E10E94FB0761E08EE10E94FB0761E004
:1050100080E20E94FB0761E08FE10E94FB0761E0F4
:1050200088E00E94680861E089E00E94680861E009
:105030008AE00E94680861E08BE00E94680861E0F5
:1050400087E00E94680861E086E00E94680861E0ED
:1050500085E00E94680861E084E00E94680861E0E1
:105060008CE00E94C70761E08DE00E94C70760E006
:105070008CE00E942A0860E08DE00E942A088FEDF3
:105080009BE20E94220B1092302A1092312A109239
:10509000322A1092332A812C00E8902E09E8A02EA3
:1050A00004E4B02E8092342A9092352AA092362AB7
:1050B000B092372A8091382A882309F457C000918A
:1050C0001C2A10911D2AD801CD90DD90ED90FC9006
:1050D000A5019401C701B6010E943C3B181634F5A6
:1050E000F80180829182A282B3828090242A9090DB
:1050F000252AA090262AB090272AC090342AD09042
:10510000352AE090362AF090372AA7019601C5018A
:10511000B4010E943C3B1816CCF4C092242AD092D1
:10512000252AE092262AF092272A20C020E030E0AB
:10513000A901C701B6010E94ED3987FFD6CFD8017A
:105140001D921D921D921C921397CFCFC090302AB2
:10515000D090312AE090322AF090332AA7019601AC
:10516000C501B4010E94ED3987FDD7CF0E948E0999
:105170006093FD287093FE288093FF289093002968
:105180008091382A811149C0E0911C2AF0911D2A92
:10519000C080D180E280F380C092242AD092252A58
:1051A000E092262AF092272AE0911A2AF0911B2AEF
:1051B00080819181A281B3818093282A9093292AAA
:1051C000A0932A2AB0932B2A8090342A9090352AD3
:1051D000A090362AB090372AA5019401C701B601E4
:1051E0000E943C3B18164CF48092242A9092252A67
:1051F000A092262AB092272A10C08090302A909040
:10520000312AA090322AB090332AA5019401C70117
:10521000B6010E94ED3987FDE7CF81E08093382AFF
:1052200061E085E10E94C70761E088E10E94C7074D
:1052300061E089E10E94C70761E081E20E94C7073F
:1052400060E089E10E942A0860E085E10E942A0866
:1052500060E088E10E942A0860E081E20E942A085A
:1052600061E08BE10E94C70761E08CE10E94C70703
:1052700061E08DE10E94C70761E08AE10E94C707F3
:105280000E9439098BE89AE20E94220B80E79AE299
:105290000E94220B90E080E00E948410AA24A39434
:1052A000811101C0A12CA092A12881E090E00E9470
:1052B0008410BB24B394811101C0B12CB092532946
:1052C00082E090E00E948410C82ED12CC092122956
:1052D000D092132960E179E283E090E00E942D10E2
:1052E00085E090E00E948410E82EF12CE092D8280E
:1052F000F092D9281AE0812E19E2912E06E410E0EE
:1053000009831A83CE0101960E941D10F401819336
:105310004F010F5F1F4F0A34110591F787E090E0AE
:105320000E94841091E0811101C090E09093EC28DC
:1053300088E090E00E94841091E0811101C090E02B
:105340009093E72889E090E00E94841091E0811119
:1053500001C090E09093E22860ED78E280E590E073
:105360000E9452106CEC78E28AE590E00E945210A4
:1053700068EC78E284E690E00E94521064EC78E2F7
:105380008EE690E00E94521081E490E089839A8337
:10539000CE0101960E941D108093682867E578E28F
:1053A00088E990E00E942D1065E578E28AE990E0B6
:1053B0000E942D108FE090E00E94841001E0811186
:1053C00001C000E00093A82886E990E00E948410C4
:1053D00011E0811101C010E010930E2984E890E0E3
:1053E0000E94841091E0811101C090E09093012906
:1053F0002A2D30E020932129309322292B2D30E0D3
:105400002093232930932429C0922529D09226293C
:1054100020911029309111292093492930934A294C
:10542000E0922D29F0922E292091682830E02093D7
:10543000272930932829202F30E0209329293093E1
:105440002A29892F90E08093412990934229812F26
:1054500090E080932B2990932C2960E479E288E7EF
:1054600090E00E942D1083E790E00E94841090E06D
:10547000809316299093172985E790E00E94841065
:1054800090E080931829909319298DE790E00E946D
:10549000841090E080931A2990931B2982E890E071
:1054A0000E94841090E080931C2990931D2987E826
:1054B00090E00E94841091E0811101C090E09093EF
:1054C000A9288DE29BE20E94220B62E083E20E9407
:1054D000C70762E085E20E94C70762E084E20E949B
:1054E000C70762E082E20E94C7078CE391E18093E4
:1054F000B22B9093B32B87E99DE08093B82B9093C8
:10550000B92B87E49DE08093932B9093942B80E3B9
:105510009DE080939D2B90939E2B85E296E0809357
:105520009B2B90939C2B81ED9CE08093742B90930C
:10553000752B8AEB9CE080937E2B90937F2B8AE1E6
:1055400096E080937C2B90937D2B87E59CE0809365
:10555000552B9093562B80E39CE080935B2B90938C
:105560005C2B84EC9BE20E94220BEAE0EE2EF12CF5
:1055700008E110E0FEE14F2E512CA9E16A2E712CBA
:10558000B8E12B2E312C8DE29BE20E94C40A8FEDF4
:105590009BE20E94C40A0E94AF04809104288823E1
:1055A000A1F184EC9BE20E94C40A89E190E00E9490
:1055B000420B82E290E08093ED289093EE280093D6
:1055C000EF281093F0280093F1281093F22800930D
:1055D000F3281093F4280093F5281093F62884E01C
:1055E00090E08093F7289093F8281092F928109271
:1055F000FA2882E090E08093FB289093FC2881E0D9
:105600008093BF280E949507BECF1092C42B1092A2
:10561000CF2B1092D02B1092D12B1092D22B109214
:10562000D32B1092D42B20E030E040EF52E4609175
:1056300002297091032980910429909105290E94E3
:105640003C3B87FD57C060E088E10E942A08109229
:10565000C3281092C2281092A3281092C128109239
:10566000C0281092BF281092AD281092F2291092F3
:10567000F3291092F4291092F529109254291092CE
:10568000202960E08CE00E942A0860E08DE00E9402
:105690002A0880914128882311F40C94773961E01D
:1056A00085E10E942A088BE090E08093ED2890939A
:1056B000EE2881E190E08093EF289093F02827E195
:1056C00030E02093F1283093F2284EE050E04093F0
:1056D000F3285093F4284FE050E04093F52850937E
:1056E000F6288093F7289093F8282093F928309390
:1056F000FA2843C685E20E944509D09046288111C8
:1057000043C084E20E94450981113EC0D1103CC0D3
:105710000E948E0960934228709343288093442806
:105720009093452881E080934628809154298823CE
:1057300011F40C94733960E08CE00E942A08E09127
:105740000928F0910A288091AD28882309F477C7A9
:10575000E431F10508F056CFE055F44D0C94F83BD8
:10576000182C712CAF2C1A2D7E2DCC2D232E642EAF
:10577000912EDE2E2D2F722FAF2F28305A30D2309F
:10578000D7302C3159318C3185E20E94450988236C
:1057900061F0DD2009F4C9CF85E20E94450981301E
:1057A00009F03FC010924628C0CFC090542984E22F
:1057B0000E9445098111EDCFDD2009F4B6CF0E948A
:1057C0008E098090422890904328A0904428B09061
:1057D0004528681979098A099B09683B7B4081053E
:1057E000910508F4A2CF84EF91E00E94420B8091D2
:1057F000202981119ACFC1109ECF8EE591E0809330
:10580000A4289093A52881E0809354298093472869
:1058100080934A2885E090E08093092890930A2895
:1058200084CF84E20E944509813009F07ECFBACF4F
:105830001092BF281092A3281092C0280E94390904
:105840008CE090E08093ED289093EE2880E190E04A
:105850008093EF289093F0286092F1287092F228BC
:1058600081E190E08093F3289093F4288091A4281C
:105870009091A528893191054CF40093F528109357
:10588000F6280093F7281093F8285CC72091212967
:10589000309122291092F5281092F628232BB1F48A
:1058A00025E130E02093F7283093F8282093F92859
:1058B0003093FA280093FB281093FC28C3970CF42C
:1058C000A1CE1092A4281092A5289CCE24E130E00D
:1058D0002093F7283093F8280093F9281093FA289A
:1058E000E9CF0E9439091092BF281092A3288CE1B9
:1058F00090E08093ED289093EE2884E190E08093EF
:10590000EF289093F0286092F1287092F22880E1BD
:1059100090E08093F3289093F4288091A4289091AC
:10592000A528893191050CF4A8CF20912329309125
:105930002429232B59F42DE130E02093F5283093CE
:10594000F628E092F728F092F828C6CF2DE130E053
:105950002093F5283093F62825E130E0B9CF0E9456
:1059600039091092BF288CE090E08093ED28909345
:10597000EE288DE090E08093EF289093F02885E169
:1059800090E08093F1289093F2288FE090E080934C
:10599000F3289093F428809153292091A4283091E2
:1059A000A52829313105D4F49091A228911111C074
:1059B0000093F5281093F6280093F7281093F82801
:1059C0000093F9281093FA288823F1F085E190E0FC
:1059D0007DC06092A4287092A528F6CF811119C0CD
:1059E00080912529909126292AE0289FB001299F9E
:1059F000700D1124072E000C880B990B0E943104A6
:105A00000093F5281093F628E092FB28F092FC28EA
:105A100004C18091492990914A292AE0289FB00128
:105A2000299F700D1124072E000C880B990B0E94E2
:105A30003104CCCF1092C0281092BF281092A32816
:105A40000E94390980E190E08093ED289093EE2840
:105A50006092EF287092F02822E130E02093F12844
:105A60003093F2282FE030E02093F3283093F4288D
:105A70002091A4283091A528293131058CF48091FA
:105A8000A2288111D3C30093F5281093F628009320
:105A9000F7281093F8280093F9281093FA28B9C032
:105AA0002091272930912829232BA9F48093F528C8
:105AB0009093F62827E130E02093F7283093F828D8
:105AC0008093F9289093FA288FE190E08093FB2847
:105AD0009093FC28A2C08CE090E08093F5289093EE
:105AE000F62887E190E08093F7289093F8288DE0DE
:105AF00090E08093F9289093FA2886CF0E94390984
:105B00008BE090E08093ED289093EE2881E190E087
:105B10008093EF289093F02887E190E08093F1281C
:105B20009093F2288CE090E08093F3289093F428EF
:105B30002091A4283091A528293131050CF49FCF5C
:105B40002091292930912A29232B89F420E230E061
:105B50002093F5283093F6286092F7287092F82861
:105B60008093F9289093FA288EE090E0AFCF8FE0F1
:105B700090E08093F5289093F62884E190E080935C
:105B8000F7289093F8288EE090E08093F92890937E
:105B9000FA288AE190E09ACF1092BF281092A328A9
:105BA0000E9439098BE090E08093ED289093EE28D5
:105BB00081E190E08093EF289093F02880E290E0DC
:105BC0008093F1289093F22880E190E08093F3286D
:105BD0009093F4288091A4289091A52849970CF4DB
:105BE0004ECF80912B2990912C29892BD9F084E2DA
:105BF00090E08093F5289093F6288AE190E08093D6
:105C0000F7289093F8288CE090E08093F9289093FF
:105C1000FA280093FB281093FC288091A4289091E7
:105C2000A5284CCE84E290E08093F5289093F62846
:105C30008AE190E08093F7289093F828E092F92881
:105C4000F092FA28E6CF1092BF280E943909E0921C
:105C5000ED28F092EE282DE030E02093EF283093ED
:105C6000F0288AE190E08093F1289093F2284EE0AA
:105C700050E04093F3285093F4284091A428509189
:105C8000A528493151050CF4F8CD60912D2970916A
:105C90002E29E092F528F092F6282093F7283093E9
:105CA000F8288093F9289093FA2882E090E0672BF7
:105CB00011F481E090E08093FB289093FC2843331B
:105CC00051050CF0FECD9ECC1092C0280E943909DF
:105CD000E092ED28F092EE288DE090E08093EF289E
