:1002000050C0000076C0000074C0000072C0000042
:1002100070C000006EC000006CC000000C94DB20B9
:1002200068C0000066C0000064C0000062C000003A
:1002300060C000005EC000005CC000005AC000004A
:1002400058C0000056C0000054C0000052C000005A
:1002500050C000004EC000004CC000004AC000006A
:1002600048C000000C94B32044C0000042C000000D
:1002700040C000003EC000003CC000000C9485203F
:100280000C945F2036C0000034C0000032C0000073
:1002900030C000002EC000002CC000002AC00000AA
:1002A000702111241FBECFEFCDBFDFE3DEBF18E208
:1002B000A0E0B8E2ECEAF3E702C005900D92A831A5
:1002C000B107D9F72BE2A8E1B8E201C01D92A83D21
:1002D000B207E1F711E0C1E5D1E004C02197FE01CA
:1002E0000E94D938C035D107C9F70E94BB240C94AD
:1002F000183986CF80918228882319F0109282289D
:10030000089581E08093822808951092042808952A
:1003100080914D29882309F45EC08091092890912D
:100320000A288230910571F420914C29222351F042
:1003300020914029309141292F5F3F4F2093402940
:10034000309341292091402930914129253D3105A3
:10035000A4F024ED30E020934029309341292091EE
:10036000422930914329253D3105CCF084ED90E0C0
:10037000809342299093432908958830910579F715
:1003800020914C29222359F320914229309143296D
:100390002F5F3F4F2093422930934329E0CF880FAE
:1003A000991FFC01E65EF64D208131812F5F3F4FA2
:1003B00020833183DC01AC59BC444D915C914217E0
:1003C00053070CF08EC0825C9C44DC018D919C91A3
:1003D000808391830895809119298130B1F48091AF
:1003E0000F2990911029019680930F29909310293D
:1003F00020910B2930910C29281739070CF071C076
:1004000010920F29109210290895823039F58091A9
:1004100011299091122901968A309105E4F4809374
:100420001129909312298091392990913A290196A6
:100430008093392990933A292091092930910A29EA
:10044000281739070CF04DC080E290E080933929DD
:1004500090933A29089589E090E0E1CF833091F4B8
:1004600080911329909114290196843691052CF4DA
:1004700080931329909314290895109213291092B0
:1004800014290895843091F48091152990911629AA
:1004900001968C3391052CF480931529909316299D
:1004A0000895109215291092162908958530C9F4DF
:1004B000809108298823A9F080910729882389F051
:1004C00080911729909118290196823091052CF47A
:1004D0008093172990931829089510921729109244
:1004E0001829089580914D29882309F457C08091D7
:1004F000092890910A288230910571F420914C29A5
:10050000222351F020914029309141292150310975
:10051000209340293093412920914029309141294D
:1005200020323105A4F420E230E0209340293093BA
:100530004129209142293091432920323105CCF4C0
:1005400080E290E080934229909343290895883077
:10055000910579F720914C29222359F320914229C2
:100560003091432921503109209342293093432966
:10057000E0CF880F991FFC01E65EF64D20813181A6
:10058000215031092083318337FF8CC08C5E9C441D
:10059000DC018D919C91808391830895809119292C
:1005A0008130A1F480910F299091102901978093B7
:1005B0000F299093102997FF75C080910B29909176
:1005C0000C2980930F29909310290895823099F572
:1005D00080914C29811109C0809111299091122993
:1005E000019780931129909312298091112990915C
:1005F000122997FF16C089E090E08093112990930B
:1006000012298091392990913A2980970CF04AC09B
:100610008091092990910A298093392990933A2948
:1006200008958091392990913A2901978093392929
:1006300090933A29E6CF833079F4809113299091F1
:100640001429019797FD05C08093132990931429CD
:10065000089583E690E0F8CF843079F480911529ED
:1006600090911629019797FD05C0809315299093C5
:10067000162908958BE390E0F8CF853099F48091A6
:100680000829882379F080910729882359F08091DF
:10069000172990911829019797FD05C08093172974
:1006A00090931829089581E090E0F8CFCF92DF92DF
:1006B000EF92FF926B0128EE33E040E050E00E94A1
:1006C000BD38EFEEF8E22083318368EE73E0629F7D
:1006D000C001639F900D729F900D1124C81AD90A12
:1006E000C60164E670E00E948838628373832CE957
:1006F0002603C001279F900D1124C80ED91EC601E4
:100700006AE070E00E9488386483758326EF2603D0
:10071000C001279F900D1124C80ED91EC682D78212
:10072000FF90EF90DF90CF900895CF92DF92EF92FD
:10073000FF926B0128EE33E040E050E00E94BD38AC
:10074000E7EEF8E22083318368EE73E0629FC00138
:10075000639F900D729F900D1124C81AD90AC6018B
:1007600064E670E00E948838628373832CE9260374
:10077000C001279F900D1124C80ED91EC6016AE042
:1007800070E00E9488386483758326EF2603C001D9
:10079000279F900D1124C80ED91EC682D782FF90C4
:1007A000EF90DF90CF9008954F925F926F927F927B
:1007B0008F929F92AF92BF92CF92DF92EF92FF9271
:1007C00020E030E040E251E4609103297091042977
:1007D00080910529909106290E94D6362091E6281D
:1007E000211190586093E2287093E3288093E428C5
:1007F0009093E528F090E128FF2009F455C020915E
:10080000E2283091E3284091E4285091E528609156
:10081000FB287091FC288091FD289091FE280E9471
:100820006E366093DD287093DE288093DF289093E6
:10083000E0288091D2289091D328892B09F07EC09E
:10084000FF2009F450C06091DD287091DE2880916E
:10085000DF289091E0286093FF287093002980930F
:1008600001299093022926E636E646EE5FE30E94D0
:10087000253820E030E040E052E40E946E3660937C
:10088000CE287093CF288093D0289093D128FF90C2
:10089000EF90DF90CF90BF90AF909F908F907F9020
:1008A0006F905F904F9008958091DC28882309F223
:1008B0002091E2283091E3284091E4285091E528E6
:1008C0006091D8287091D9288091DA289091DB28FE
:1008D0000E946E366093D4287093D5288093D628D2
:1008E0009093D728A6CF8091DC28882381F2C090EE
:1008F000D428D090D528E090D628F090D72820E0B2
:1009000030E040E052E4C701B6010E946D3626E6B1
:1009100036E646EE5FE30E94D6366093FF2870937A
:1009200000298093012990930229C092CE28D09269
:10093000CF28E092D028F092D128A9CF6091CA2880
:100940007091CB288091CC289091CD280E9471374E
:1009500020E030E040E251E40E94D6364B015C01D9
:100960006091C2287091C3288091C4289091C528B5
:100970000E94713720E030E040E251E40E94D63618
:100980006B017C016091BE287091BF288091C028C6
:100990009091C1280E94713720E030E040E251E49C
:1009A0000E94D636A70196010E946D362B013C01AC
:1009B000A50194016091FB287091FC288091FD288D
:1009C0009091FE280E946D369B01AC01C301B201DB
:1009D0000E9425382B013C016091C6287091C728E0
:1009E0008091C8289091C9280E94713720E030E09A
:1009F00040E251E40E94D636A50194010E946D3672
:100A00009B01AC01C301B2010E94D636A701960139
:100A10000E946E366B017C01C092FF28D0920029A3
:100A2000E0920129F092022926E636E646EE5FE3DF
:100A30000E94253820E030E040E052E40E946E360B
:100A40006093CE287093CF288093D0289093D1289C
:100A500020E030E048EC52E4C701B6010E942138A2
:100A600087FD15CF8DEC9CECA7ECB2E48093FF28BA
:100A700090930029A0930129B093022908CF809177
:100A8000A528811106C010929F281092A0281092CC
:100A90009D280895F4CFAF92BF92CF92DF92EF924C
:100AA000FF920F931F93CF93DF936C017B018B0118
:100AB000040F151FEB015E01AE18BF08C017D10768
:100AC00059F06991D601ED91FC910190F081E02DF2
:100AD000C6010995892B79F7C501DF91CF911F9147
:100AE0000F91FF90EF90DF90CF90BF90AF9008955F
:100AF000FC01508D418D252F30E0842F90E0821B2A
:100B0000930B541710F0CF96089501970895FC01A8
:100B100096898789981761F0A789AE0FBF2FB11DFD
:100B20005D968C9197899F5F9F73978B90E0089556
:100B30008FEF9FEF0895FC0196898789981731F010
:100B40008789E80FF11D858D90E008958FEF9FEF65
:100B50000895FC0196892789892F90E0805C9F4F3A
:100B6000821B91098F73992708958EE499E2F1DF32
:100B700021E0892B09F420E0822F0895CF93DF93A1
:100B8000EC01E881F9810680F781E02D0995EC857B
:100B9000FD8586818F738683EC85FD8585818F75C4
:100BA00085838F898E8B1D8ADF91CF910895FC01FB
:100BB000613019F4648B81E00895148A6623D9F3B7
:100BC00080E00895DC0154961C92549754968C91C1
:100BD00054978230A0F4282F30E0F901EE0FFF1F68
:100BE000E20FF31FEA0FFB1F9785961303C096854C
:100BF000941749F08F5F54968C935497E7CF54968F
:100C00001C9280E0089581E00895CF93DF93FC016A
:100C1000908D818DC485D585981306C08D818F7D7B
:100C20008D83DF91CF910895A18DAE0FBF2FB11DA0
:100C3000A35ABF4F2C91818D90E001968F73992715
:100C4000818F80E48C83A485B58512962C93908D3A
:100C5000818D9813E6CFA485B58515968C9115974F
:100C60008F7D15968C93838D8823D9F2848D809304
:100C70001301138ED6CFDC011C96ED91FC910FB6BB
:100C800007FE03C0258125FD03C0248125FDBDCFBE
:100C90000895EF92FF920F931F93CF93DF93EC0190
:100CA00081E08D8B988D898D98131CC0AC85BD8596
:100CB00014968C91149785FF15C012966C93AC8591
:100CC000BD8580E414968C93EC85FD8585818F7DB0
:100CD000858381E090E0DF91CF911F910F91FF908C
:100CE000EF9008958091110180FF08C08091130159
:100CF0008C8F8A8D8093130181E08B8FF62E088D67
:100D000010E00F5F1F4F0F731127E02E898D8E119A
:100D100003C0CE01B0DFFACFE88DEC0FFD2FF11D3F
:100D2000E35AFF4FF082088FEC85FD858581806254
:100D3000CFCFCF93DF93FC0125892223C1F0EC01B3
:100D40008091110180FF08C080911301848F828DF2
:100D50008093130181E0838FEC85FD85858185FD7E
:100D600003C0848186FD03C0CE0185DFF5CFDF910E
:100D7000CF91089580E090E0892B49F080E090E0E9
:100D8000892B29F00E94000081110E94000080E060
:100D900090E0892B49F080E090E0892B29F00E94B7
:100DA000000081110E94000080E090E0892B21F07A
:100DB000DCDE81110E94000080E090E0892B49F088
:100DC00080E090E0892B29F00E94000081110C94B2
:100DD0000000089581E00895CF93DF9390E0FC0137
:100DE000E551FD4420812F3F69F0FC01EE53FD44A5
:100DF000A08130E2A39FD0011124BC5F613029F4AF
:100E000011962C93DF91CF91089587569D44EC0164
:100E1000E881EF3F81F0CD014096E80FF92FF11DF9
:100E20009FB7F89412962C938081623039F48860D1
:100E300080839FBFE7CFF0E0E0E0F2CF877FF8CF7D
:100E4000893208F4C9CF089590E0FC01E059FD44CF
:100E5000E081EE2319F1E13021F000F1E630A8F055
:100E6000089587569D44FC012081233008F02F5FB0
:100E70003091010A81E090E001C0880F2A95EAF7DD
:100E8000809583238093010A089580E1E89FF00113
:100E90001124E05AF54F81818F7E818308950F934D
:100EA0001F93CF93DF93C82FD0E0FE01E551FD449F
:100EB00000810F3F99F0162F893208F4C5DFFE013B
:100EC000EE53FD44E08180E2E89FF0011124FC5FD5
:100ED0008081802351F0111106C00683DF91CF91EC
:100EE0001F910F9108950583F9CFC756DD4488817E
:100EF000309771F08F3F61F07096E80FF11D9FB74A
:100F0000F8948081111107C0877F80839FBFE6CF4F
:100F1000F0E0E0E0F4CF8860F8CF893208F4BFCF8A
:100F200008950F931F93CF93DF93EC01162F072F94
:100F300082E390E08E839F8360E0812F81DF1883BE
:100F4000098388E592E08A839B8388EE93E08C8313
:100F50009D83198E1A8E1C8681E090E08887998780
:100F60001A861B8661E0812FD8DF1F86188A198AAE
:100F70001A8A1B8A1C8A1D8A1E8A1F8A188EDF9174
:100F8000CF911F910F91089561E08BE0C6DF61E082
:100F90008AE0C3DF61E089E0C0DF61E088E0BDCFC7
:100FA00061E087E0BADF61E086E0B7DF61E085E01D
:100FB000B4DF61E084E0B1CFAF92BF92CF92DF9215
:100FC000EF92FF920F931F93CF93DF93EC016A018F
:100FD0007B01A22E8D89882339F0E881F98106886A
:100FE000F789E02DCE0109950C8910E0BFB6F89481
:100FF00060E070E281EA97E0A70196010E949B38C9
:1010000069017A018FEFC81AD80AE80AF80AF6943B
:10101000E794D794C794EC85FD8586818D7F868380
:10102000EC85FD85868186831D8AA09123110A2E79
:10103000000CBB0BA70196010E94EF3820E034E0C2
:1010400040E050E00E94BD38EC85FD85C20ED31E05
:10105000E41EF51EC086D186EC85FD85A782EC8551
:10106000FD858681806C8683EC85FD858581806821
:1010700085839091E2058B89809589239801220FC1
:10108000331F020F131FC00FD11F9889892B809324
:10109000E20562E08E85D4DE61E08F853EDF61E0AF
:1010A0008F85CEDEBFBEDF91CF911F910F91FF9054
:1010B000EF90DF90CF90BF90AF90089561E08AE10C
:1010C000EEDE61E08DE1EBDE61E08CE1E8DE61E027
:1010D0008BE1E5CE0F931F93CF93082F10E0F8011B
:1010E000E551FD44C081CF3F81F0893208F4ACDE88
:1010F000F801EE53FD44E08180E2E89FF001112405
:10110000FC5F8085C82381E009F480E0CF911F91C6
:101110000F9108958FB7F8942091392830913A288B
:1011200040913B2850913C28E091AA0AF091AB0AEB
:101130009091A60A90FF08C02F5F3F4F4F4F5F4F1F
:10114000E091AA0AF091AB0A8FBFA8EEB3E00E942B
:10115000E53824E0F695E7952A95E1F76E0F7F1FB5
:10116000811D911D08952FB7F894609139287091D1
:101170003A2880913B2890913C282FBF08954F92A8
:101180005F926F927F928F929F92AF92BF92CF9217
:10119000DF92EF92FF921F93CF93DF9380914D29BF
:1011A000811101C18091FF2890910029A09101290E
:1011B000B091022980936F2A9093702AA093712A8C
:1011C000B093722A11E080918D2A90918E2A019716
:1011D00009F010E06091A12A7091A22A8091A32ABF
:1011E0009091A42A0E946F3720E030E04AE754E44F
:1011F0000E94D6364B015C012AE037ED43E25CE306
:101200000E9425386B017C01C0918B2AD0918C2AD9
:1012100020E030E04CE452E46091672A7091682A43
:101220008091692A90916A2A0E94D23687FFC4C0B1
:1012300080E090E0A8ECB1E480930B2890930C2818
:10124000A0930D28B0930E283AE0432E37ED532E8D
:1012500033E2632E3CE3732E40920F285092102805
:10126000609211287092122840E050E06FE274E41E
:1012700040931328509314286093152870931628D0
:101280001093AE2A8093732A9093742AA093752AA0
:10129000B093762A4092772A5092782A6092792ADF
:1012A00070927A2A40937B2A50937C2A60937D2AFD
:1012B00070937E2A80937F2A9093802AA093812A1C
:1012C000B093822AC092832AD092842AE092852AFF
:1012D000F092862AA501940160E070E08FE294E428
:1012E0000E94D6364B015C018092872A9092882A10
:1012F000A092892AB0928A2A80E090E0A8ECB1EC12
:10130000219709F4C4C02FDFC090F728D090F828A7
:10131000E090F928F090FA28AB01BC014C195D0966
:101320006E097F09493E53406105710570F0D70190
:10133000C60188519C4FAF4FBF4F8093F7289093C1
:10134000F828A093F928B093FA280DDFC090F72869
:10135000D090F828E090F928F090FA286C197D09CF
:101360008E099F090E946F3720916B2A30916C2A59
:1013700040916D2A50916E2A0E94213818160CF067
:10138000ADC060E088E1DF91CF911F91FF90EF90B9
:10139000DF90CF90BF90AF909F908F907F906F9095
:1013A0005F904F907CCD8091FB289091FC28A0917C
:1013B000FD28B091FE28FECE80E090E0A0EEB1E4E2
:1013C00080930B2890930C28A0930D28B0930E289F
:1013D0002AE0422E27ED522E23E2622E2CE3722EBB
:1013E00040920F2850921028609211287092122873
:1013F00040E050E862E274E44093132850931428CC
:1014000060931528709316281093AE2A8093732A40
:101410009093742AA093752AB093762A4092772AE3
:101420005092782A6092792A70927A2A40937B2A85
:1014300050937C2A60937D2A70937E2A80937F2A22
:101440009093802AA093812AB093822AC092832A03
:10145000D092842AE092852AF092862AA5019401EE
:1014600060E070E882E294E40E94D6364B015C01B1
:101470008092872A9092882AA092892AB0928A2AFA
:10148000219709F040CF80E090E0A0EEB1EC80938E
:101490007F2A9093802AA093812AB093822AA70161
:1014A000960160E070E0CB010E946D366093832A64
:1014B0007093842A8093852A9093862AA5019401AB
:1014C00060E070E0CB010E946D366093872A7093D4
:1014D000882A8093892A90938A2A15CF2091672A97
:1014E0003091682A4091692A50916A2A60916F2A46
:1014F0007091702A8091712A9091722A0E942138ED
:1015000087FF3FCF61E03ECF0F931F93CF93DF93D1
:10151000FC012081222309F450C0EC0181859285D1
:101520000197B9F520DE0B891C892D893E89601B46
:10153000710B820B930B09811A812B813C816017FF
:10154000710782079307C8F10EDE6B8B7C8B8D8B46
:101550009E8B8B859C85AD85BE854D815E816F811F
:101560007885481B590B6A0B7B0B4130510561058F
:10157000710509F418820196A11DB11D8B879C8706
:10158000AD87BE87E989FA89DF91CF911F910F91CD
:101590000994C0DD0B891C892D893E89601B710B64
:1015A000820B930B09811A812B813C816017710793
:1015B0008207930710F0AEDDC8CFDF91CF911F9166
:1015C0000F910895CF93DF93FC0121893289232B5A
:1015D000A1F0EC0181859285019791F4C4DD6B8BBC
:1015E0007C8B8D8B9E8B81E088831B861C861D8661
:1015F0001E8681E090E08F87988BDF91CF910895D0
:1016000089DDEDCFDC01BC01990F880B990B20918E
:10161000902B3091912B232B21F428EE33E00E9464
:10162000DF386093882B7093892B80938A2B90935B
:101630008B2B61E085E133DC87E89BE2C3CFCF925F
:10164000DF92EF92FF920F931F93CF93DF93EC0102
:1016500088818932F8F43EDD082F10E084DD298D81
:101660003A8D21153105C1F42A853B8520173107B4
:1016700041F421E030E0298F3A8F6B8F7C8F8D8F82
:101680009E8FDF91CF911F910F91FF90EF90DF9090
:10169000CF90089580E0E0CF2130310509F051C0AE
:1016A0002885398520173107E9F40B8D1C8D2D8D88
:1016B0003E8DAB01BC01401B510B620B730B8E8145
:1016C0009F81092E000CAA0BBB0B481759076A070C
:1016D0007B0718F4198E1A8ED4CF82E090E0898FA0
:1016E0009A8FCFCF2A853B852017310751F60B8D76
:1016F0001C8D2D8D3E8DAB01BC01401B510B620B2F
:10170000730B8C819D81092E000CAA0BBB0B8417D7
:101710009507A607B70708F0B4CF81E08C87E98961
:10172000FA89309709F00995EB89FC89309709F01F
:101730000995EF89F88D309709F0099586E090E0DA
:10174000CECF2230310519F5CB8CDC8CED8CFE8CA4
:101750006C197D098E099F09CA80DB800D2C000C55
:10176000EE08FF08C616D706E806F90638F4ED8538
:10177000FE85309709F4AECF0995ACCF8A859B855D
:101780008017910709F07DCF83E090E0A8CF233048
:10179000310549F4888599858017910709F071CF43
:1017A000EF85F889E6CF2630310509F06ACF8885C4
:1017B00099858017910721F41C86ED89FE89D9CF80
:1017C00081E08C87EF89F88D309709F45ACFDF914B
:1017D000CF911F910F91FF90EF90DF90CF900994E0
:1017E0008091A528811122C080914D29811116C0B8
:1017F0008091192981110BC010924A2881E090E054
:101800008093092890930A2888EC90E0FBCE1092F0
:10181000192910929A2810929B28F6CF8091492876
:1018200081111092492810924D29EECF0895809190
:10183000A52881115EC020914C29809109289091A2
:101840000A28211103C08830910529F0AC014D7F91
:101850004C305105B9F501978093092890930A28D7
:1018600080914D2981112BC0809119292223D9F112
:101870008230C9F510921929809119298530F9F41F
:1018800020E030E040E85FE36091AA287091AB2847
:101890008091AC289091AD280E94213887FD0FC01F
:1018A0008091A628882359F01092AA281092AB287C
:1018B0001092AC281092AD2881E08093A62882E394
:1018C00090E0A0CE8B30910511F00D9721F481E0CE
:1018D0008093A728C5CF8091A728882309F4C0CF7B
:1018E0001092A728BDCF8150843030F680931929FB
:1018F000C3CF08958091A528811112C080914F28EF
:1019000081110EC081E080939D28809134288F5FE3
:1019100080933428893124F00E9472021092342876
:1019200008958091A528811154C080914D29882364
:1019300009F44DC08091A728811149C080910928E0
:1019400090910A2820914928211119C0019680936D
:10195000092890930A2820910729222339F0059716
:10196000C4F11092092810920A28089505978CF165
:1019700081E090E08093092890930A2808958630AA
:10198000910519F488E090E0F5CF2091AE288930D8
:10199000910539F48BE090E02111ECCF80E190E0EB
:1019A000E9CF211106C0893091054CF080319105B5
:1019B000ACF38031910519F481E190E0DBCF813106
:1019C00091051CF085E090E0D5CF0196D3CF0C9423
:1019D000720208958091A528811112C080914F282C
:1019E00081110EC081E080939D28809134288F5F03
:1019F00080933428893124F00E9488011092342881
:101A000008958091A528811126C080914D298823B1
:101A100009F43FC08091A72881113BC0809109281B
:101A200090910A2820914928211116C0019780938E
:101A3000092890930A2820910729222349F097FF2B
:101A40000AC084E090E08093092890930A280895C2
:101A500018161906B4F708958830910519F486E030
:101A600090E0F1CF8B30910519F489E090E0EBCF55
:101A70008131910519F480E190E0E5CF8031910545
:101A8000A1F3863091051CF481E190E0DCCF019751
:101A9000DACF0C9488018091A528811125C080910E
:101AA0001929811117C080914D29811113C08EE52C
:101AB00091E080939F289093A02880910729882304
:101AC00061F01092092810920A2881E080934D2934
:101AD00080934A2888EC90E095CD81E090E0809357
:101AE000092890930A28F1CF0895DC01ED91FC912B
:101AF0000488F589E02D23E030E00994E7E8FBE273
:101B0000108213861486158616861786108A60E062
:101B100085E1C5C981E59BE255DD61E085E1BFC98D
:101B200060E085E1BCD98091A828882349F08091A4
:101B3000B5289091B62801968093B5289093B62841
:101B40008091B7289091B82801968093B7289093F8
:101B5000B828089560E08AE1A2D986E39BE232CDFD
:101B600061E08AE19CD98091AF288F5F8093AF2894
:101B700008958F929F92AF92BF92CF92DF92EF9291
:101B8000FF92CF93DF93C0912428D09125282196EE
:101B9000C0932428D093252881E080930606809363
:101BA000080680910B0680FFFCCF609110067091B3
:101BB0001106072E000C880B990B0E94713720919B
:101BC00020283091212840912228509123280E94DA
:101BD0006E366B017C01C0922028D0922128E092C1
:101BE0002228F09223286091002870910128C617BE
:101BF000D7070CF476C0072E000C880B990B0E94B7
:101C000071379B01AC01C701B6010E94D6366093C3
:101C1000202870932128809322289093232820E065
:101C200030E040EA50E40E94253820E030EC4FE7F5
:101C300054E40E94D63620E030E040E251E40E94B5
:101C4000D63628EB3FE840E65FE30E946E366B0134
:101C50007C0120E030E04BEE53E40E9425384B013C
:101C60005C01A701960160E070E080EA90E40E94C8
:101C70006D369B01AC01C501B4010E94D63620E04F
:101C800030E048EC52E40E94D63620E030E040E8F4
:101C90005FE30E946D3628E430E54CE75BE30E9489
:101CA000D6366093FB287093FC288093FD28909390
:101CB000FE2826E636E646EE5FE30E94253820E061
:101CC00030E040E052E40E946E366093D828709372
:101CD000D9288093DA289093DB2810922428109238
:101CE000252882E390E08093002890930128DF91DB
:101CF000CF91FF90EF90DF90CF90BF90AF909F90EB
:101D00008F900895CF93DF93C0911E28D0911F2804
:101D10002196C0931E28D0931F281092060681E0BA
:101D20008093080680910B0680FFFCCF609110061F
:101D300070911106072E000C880B990B0E947137C9
:101D400020911A2830911B2840911C2850911D2861
:101D50000E946E3669975CF460931A2870931B2872
:101D600080931C2890931D28DF91CF91089520E047
:101D700030E048EC51E40E94D63660931A28709304
:101D80001B2880931C2890931D2810921E281092C7
:101D90001F28EACF3F924F925F926F927F928F926D
:101DA0009F92AF92BF92CF92DF92EF92FF920F93EA
:101DB0001F93CF93DF93CDB7DEB72E97CDBFDEBF96
:101DC0008091AD2A882309F429C1CDD96D837E8302
:101DD0008F8398878091952A9091962AA091972A2F
:101DE000B091982A4D815E816F817885481B590B8F
:101DF0006A0B7B0B8091A12A9091A22AA091A32A21
:101E0000B091A42A481759076A077B0708F406C14E
:101E1000E0918F2AF091902A80819181A281B381F3
:101E200089839A83AB83BC83E091932AF091942AAF
:101E30009C01AD0160817181828193810E946D3628
:101E40004B015C0120919D2A30919E2A40919F2A4E
:101E50005091A02A69817A818B819C810E946D3684
:101E60006B017C012091832A3091842A4091852A3C
:101E70005091862AC501B4010E9425382091992AE3
:101E800030919A2A40919B2A50919C2A0E946E364A
:101E90002B013C014092992A50929A2A60929B2AE7
:101EA00070929C2A3090AE2A31101AC020917F2A5D
:101EB0003091802A4091812A5091822AC701B6012F
:101EC0000E9425389B01AC01C301B2010E946D360E
:101ED0006093992A70939A2A80939B2A90939C2AC4
:101EE0004090992A50909A2A60909B2A70909C2A40
:101EF0001091A92A9091AA2A9E87A091AB2AAD871A
:101F00000091AC2A212F392F4A2F502FC301B20143
:101F10000E94213818160CF096C0812F9E85AD8541
:101F2000B02F8093992A90939A2AA0939B2AB093DA
:101F30009C2A332009F4A0C020917F2A3091802A66
:101F40004091812A5091822AC501B4010E9425380E
:101F50004B015C012091872A3091882A4091892A7F
:101F600050918A2AC701B6010E9425389B01AC0115
:101F70006091992A70919A2A80919B2A90919C2A2B
:101F80000E946D36A50194010E946E366B017C01A2
:101F90009B01AC01612F7E858D85902F0E94D236EA
:101FA00087FD18C01091A52A9091A62A9E87A0911E
:101FB000A72AAD870091A82A212F392F4A2F502F09
:101FC000B601C7010E94D23687FD04C01C2DDE86F3
:101FD000ED860F2DE091912AF091922A812F9E8516
:101FE000AD85B02F80839183A283B38389819A8149
:101FF000AB81BC8180939D2A90939E2AA0939F2AB7
:10200000B093A02A8D819E81AF81B8858093952A57
:102010009093962AA093972AB093982A2E96CDBF94
:10202000DEBFDF91CF911F910F91FF90EF90DF9076
:10203000CF90BF90AF909F908F907F906F905F9068
:102040004F903F9008958091A52A9091A62AA09143
:10205000A72AB091A82A89879A87AB87BC879C0159
:10206000AD01C301B2010E94D23687FF62CF8985DC
:102070009A85AB85BC8555CF812C912C54016ACFB4
:10208000FC0180819181FC01FF2790FD06C080E06A
:1020900094E1E82BF92B8081089580E093E1F9CF5A
:1020A000EF92FF920F931F93CF93DF9300D0CDB7A2
:1020B000DEB78C017B0189839A83CE010196E0DF34
:1020C000F70180830F5F1F4F09831A83CE010196AA
:1020D000D7DFF7018183C7010F900F90DF91CF9178
:1020E0001F910F91FF90EF900895AF92BF92CF9202
:1020F000DF92EF92FF920F931F93CF93DF9300D065
:10210000CDB7DEB78B016B0124E0C20ED11C7B0181
:102110005C01A61AB70AC5018E0D9F1D89839A839B
:10212000CE010196ADDFF70181937F01EC15FD052E
:1021300091F7C8010F900F90DF91CF911F910F91F0
:10214000FF90EF90DF90CF90BF90AF900895CF9326
:10215000DF9300D0CDB7DEB789839A83CE01019695
:102160008FDF0F900F90DF91CF910895FC01FF2733
:1021700090FD12C080E094E1E82BF92B60838FB7CB
:10218000F8949DE923E094BF209300108FBF8091C5
:10219000021081FDFCCF089580E093E1EDCFE6CF02
:1021A0001F93CF93DF93EC01162F6ADF811721F085
:1021B000612F88819981DADFCE01DF91CF911F9164
:1021C0000895EF92FF920F931F93CF93DF9300D068
:1021D000CDB7DEB783E0E82E89E2F82E06E410E002
:1021E00009831A83F70161917F01CE010196D8DF3F
:1021F0000F5F1F4F0A34110599F783E099E20F90A2
:102200000F90DF91CF911F910F91FF90EF90089564
:10221000AF92BF92CF92DF92EF92FF920F931F93F4
:10222000CF93DF9300D0CDB7DEB78B016B0124E0F5
:10223000C20ED11C7B015C01A61AB70AC5018E0D26
:102240009F1D89839A83F70161917F01CE010196D9
:10225000A7DFEC14FD0491F7C8010F900F90DF91F8
:10226000CF911F910F91FF90EF90DF90CF90BF9093
:10227000AF900895EF92FF920F931F93CF93DF9348
:1022800000D0CDB7DEB78C017B0189839A83FB0137
:102290006081CE01019684DF0F5F1F4F09831A838F
:1022A000F7016181CE0101967BDFC7010F900F908E
:1022B000DF91CF911F910F91FF90EF9008952F9292
:1022C0003F924F925F926F927F928F929F92AF92C6
:1022D000BF92CF92DF92EF92FF920F931F93CF9313
:1022E000DF9300D01F92CDB7DEB78091A528811172
:1022F00058C010929D2880914D2981116AC010927A
:102300009F281092A02880911929843031F42091BF
:102310009A2830919B28232B51F090914C29992396
:1023200009F455C0811153C082E08093192980912E
:10233000192985300CF46AC380910729882301F19B
:1023400085E08093192980910829882309F45AC3CC
:102350001092082980910829811112C061E08091B2
:10236000172990911829892B09F460E060939C2823
:1023700090E080E014DF8091192985300CF446C389
:102380000091B2281091B328101611060CF43EC328
:1023900088EE93E037D90F5F1F4F0093B228109358
:1023A000B3282396CDBFDEBFDF91CF911F910F9150
:1023B000FF90EF90DF90CF90BF90AF909F908F9065
:1023C0007F906F905F904F903F902F9008958F5F18
:1023D000ACCF0091092810910A288091A72881117B
:1023E00002C180919C2890E080931A2990931B2928
:1023F00020914C292B83822F90E080931C2990936D
:102400001D298091A32890E080932229909323296D
:102410008091072990E08093242990932529211108
:1024200099C080910B2990910C2980931E2990933B
:102430001F298091D2289091D328809326299093A8
:102440002729C090FB28D090FC28E090FD28F09030
:10245000FE28C701B6010E943E374B0120E030E064
:1024600040E251E4C701B6010E9425380E943E3780
:102470002B01CB016AE070E00E9488381C018B813F
:1024800081117EC020E030E048EC52E4C701B60183
:102490000E94D23687FF67C080922829909229290E
:1024A000409232285092332820922A2930922B29A8
:1024B000809102289091032880932C2990932D29B4
:1024C00080923029909231292092322930923329FA
:1024D0000C30110509F06DC0C0922A28D0922B282B
:1024E000E0922C28F0922D2820E030E048EC52E4D5
:1024F000C701B6010E94D23687FF68C08092342996
:10250000909235292092362930923729809163287C
:1025100090E080932029909321290131110521F425
:1025200010923D2810923E282B81211109C00830BD
:10253000110531F487E090E08093092890930A28F0
:1025400081E08093A7288AE190E080939F28909370
:10255000A028EDCE8091092990910A2980934029E5
:102560009093412966CF83E690E080932829909349
:10257000292989E090E080932A2990932B2998CFEC
:102580004090D8285090D9286090DA287090DB28A5
:10259000C301B2010E943E376093422970934329E0
:1025A00040922E2850922F28609230287092312825
:1025B0007FCF0E30110509F097CFC0922628D09218
:1025C0002728E0922828F09229288ECF83E690E0F1
:1025D000809334299093352989E090E080933629BF
:1025E0009093372993CF0F30110508F5F801E55086
:1025F000FD4E0C94D9380A1337134413E3146113B6
:102600006E137B13171386133614441417135D14BB
:1026100017136E1461E080911A2990911B29892B60
:1026200009F460E060939C2890E080E0B8DD809140
:10263000092890910A2820914C29211103C0873044
:10264000910561F09C012D7F2930310539F08D30E5
:10265000910521F08131910509F0C7C121E0209356
:10266000A72801968093092890930A286CCF61E0EF
:1026700080911C2990911D29892B09F460E06093B9
:102680004C2981E090E0D2CF80914C2981110BC080
:1026900060911E2980911F2960930B2980930C293A
:1026A00082E090E0C3CF80914029909141298093AE
:1026B000092990930A2969E079E283E090E0DADD64
:1026C000B6CF61E08091222990912329892B09F4CA
:1026D00060E06093A3288FE090E061DD61E080918D
:1026E000242990912529892B09F460E0609307291A
:1026F00086E990E09BCF60912629809127296093FD
:10270000D2288093D32885E090E090CF80914C2907
:10271000811187C060912A2970912B29072E000C06
:10272000880B990B0E94713720E030E040E251E4C1
:102730000E94D6366B017C0160912829709129296D
:10274000072E000C880B990B0E9471379B01AC017E
:10275000C701B6010E946E3620E030E040E251E44D
:102760000E9425386B017C016091322870913328DA
:10277000072E000C880B990B0E9471379B01AC014E
:10278000C701B6010E946D3620E030E040E251E41E
:102790000E94D6366093E2287093E3288093E42861
:1027A0009093E52881E08093E1281092DC288090C6
:1027B000E2289090E328A090E428B090E52820E05B
:1027C00030E040E251E4C501B4010E9425386B01BC
:1027D0007C0120E030E0A901C501B4010E94D2369D
:1027E00087FF41C081E08093E628F7FAF094F7F87C
:1027F000F094C0920329D0920429E0920529F09226
:102800000629DFDC6091E62887E090E0C8DC609173
:10281000E12888E090E0C3DC6091DC2889E090E06A
:1028200005CF6091422970914329072E000C880B37
:10283000990B0E94713720912E2830912F284091BA
:102840003028509131280E946D366093E2287093B1
:10285000E3288093E4289093E5281092E12881E012
:102860008093DC28A4CF1092E628C3CF80912C2936
:1028700090912D2980930228909303280A968093A3
:102880002E2990932F29D3CE80912E2990912F29F4
:1028900080934328909344288091FB289091FC28B2
:1028A000A091FD28B091FE2880932A2890932B2890
:1028B000A0932C28B0932D28BACE8091FB2890911C
:1028C000FC28A091FD28B091FE28809326289093A3
:1028D0002728A0932828B0932928A9CE20E030E00B
:1028E00040E251E460912A2870912B2880912C2895
:1028F00090912D280E9425380E943E376093CA2867
:102900007093CB288093CC289093CD2820E030E0A2
:1029100040E251E460912628709127288091282870
:10292000909129280E9425380E943E376093C6283E
:102930007093C7288093C8289093C9286AEC78E2DE
:1029400080E590E065DC66EC78E28AE590E060DCAA
:1029500020E030E040E251E4609145287091462843
:1029600080914728909148280E9425380E943E3740
:102970006093C2287093C3288093C4289093C5287D
:1029800020E030E040E251E460913F28709140281F
:1029900080914128909142280E9425380E943E371C
:1029A0006093BE287093BF288093C0289093C1285D
:1029B00062EC78E284E690E02BDC6EEB78E28EE667
:1029C00090E026DC34CE61E080912029909121298D
:1029D000892B09F460E06093632881E490E08983A7
:1029E0009A83CE010196DCDB22CE9C012B7F1092D4
:1029F000A7282A30310509F434CE8C30910509F02E
:102A0000A2CD2FCE81E080930829A4CC82E390E070
:102A10000E94020BC6CC2F923F924F925F926F9210
:102A20007F928F929F92AF92BF92CF92DF92EF925E
:102A3000FF920F931F93CF93DF93C0911929C23058
:102A400009F4FEC5CCF4CC2309F480C3C13009F4E9
:102A500078C5DF91CF911F910F91FF90EF90DF909C
:102A6000CF90BF90AF909F908F907F906F905F902E
:102A70004F903F902F900895C43009F4E4C60CF4B1
:102A80005EC6C53031F7C0900F29D09010296091F3
:102A9000112970911229072E000C880B990B0E94A6
:102AA000713720E030E040E251E40E94D6364B011D
:102AB0005C01B601DD0C880B990B0E9471379B01FC
:102AC000AC01C501B4010E946E364B015C018092DD
:102AD000962890929728A0929828B0929928C09111
:102AE0003929D0913A29C0939428D0939528E09021
:102AF0001329F0901429E0929228F09293280091E3
:102B000015291091162900939028109391282CE3F1
:102B10002E9DC0012F9D900D1124800F911F809339
:102B20009A2890939B2881E08093A4286C2D83E7BA
:102B300090E035DB6091112985E790E030DB69E3B7
:102B400079E288E790E096DB6E2D8DE790E027DB59
:102B5000602F82E890E023DB61E087E890E01FDBF4
:102B600010914C2980918F2881111BC011110DC724
:102B700020E030E040E251E46091FF2870910029AC
:102B800080910129909102290E946E369B01AC012F
:102B9000C501B4010E94213887FF03C081E0809302
:102BA0008F2880918F28882309F40AC71092AA28B9
:102BB0001092AB281092AC281092AD2881E080933F
:102BC000A62810928F2811111CC7809196289091E9
:102BD0009728A0919828B091992880938328909362
:102BE0008428A0938528B09386288093672A9093A1
:102BF000682AA093692AB0936A2A8AEC9AE20E9412
:102C0000E20A81E08093822861E081E20E944F071E
:102C100001E010E08CE3282E312CC5E1D0E080915A
:102C20009A2890919B281816190614F00C94DA1E15
:102C300020E030E040E251E46091962870919728BE
:102C400080919828909199280E946E362091FF28B3
:102C50003091002940910129509102290E94D236D9
:102C600087FFF6C610929F281092A02881E08093DB
:102C7000A52860E081E20E944F0710921929109266
:102C80009A2810929B2861E08DE10E944F0760E036
:102C90008BE10E944F070E94D4038DEB9BE20E94C0
:102CA000840A80919C28882329F08091072961E07B
:102CB000811101C060E089E10E944F07B090A62811
:102CC000B1100AC00E94B30860937E2870937F28D9
:102CD0008093802890938128C0907E28D0907F2870
:102CE000E0908028F0908128809187289091882812
:102CF000A0918928B0918A28C81AD90AEA0AFB0A41
:102D000020E2C2162FEBD20622E0E206F10408F41C
:102D100051C0B1104FC08090FB289090FC28A0902B
:102D2000FD28B090FE2820918B2830918C2840916E
:102D30008D2850918E28C501B4010E946D362B015B
:102D40003C01C701B60120E63AEE40E050E00E94A7
:102D50009B38CA01B9010E946F379B01AC01C301C6
:102D6000B2010E94D6366093AA287093AB28809354
:102D7000AC289093AD280E94B30860937A28709392
:102D80007B2880937C2890937D280E94B3086093D1
:102D9000762870937728809378289093792880926A
:102DA000722890927328A0927428B092752881E0BE
:102DB0008093A628C090AA28D090AB28E090AC2899
:102DC000F090AD2820E030E040E85FE3C701B601B5
:102DD0000E94213887FD83C68091A628882309F4A4
:102DE000A1C060E088E10E944F071092AF2A1092C4
:102DF000BA2A1092BB2A1092BC2A1092BD2A1092B5
:102E0000BE2A1092BF2A0E94B3086B017C01C092B7
:102E10006E28D0926F28E0927028F092712810925C
:102E2000A9288090FB289090FC28A090FD28B090C5
:102E3000FE2880926A2890926B28A0926C28B0920B
:102E40006D2880917A2890917B28A0917C28B09160
:102E50007D2826013701481A590A6A0A7B0AD301DC
:102E6000C20180369A4EA105B10509F05BC02091E0
:102E70007228309173284091742850917528C501AB
:102E8000B4010E946D3620910528309106284091AA
:102E900007285091082850580E94D23618160CF472
:102EA000FAC58091682890916928181619060CF4C3
:102EB000D2C5019680936828909369288AE097ED9F
:102EC000A3E2BCE38093052890930628A0930728EB
:102ED000B09308280E94B308609364287093652813
:102EE000809366289093672880916828909169283C
:102EF000029741F41092AA281092AB281092AC28A5
:102F00001092AD28C0927A28D0927B28E0927C283B
:102F1000F0927D288092722890927328A092742853
:102F2000B09275288090FF2890900029A0900129E8
:102F3000B0900229C0908328D0908428E090852802
:102F4000F0908628809163288111E6C581E0809306
:102F50006228A7019601C501B4010E94213887FDAE
:102F60004DC080915A2B90915B2B892B09F4ECC5B5
:102F700080E991E0A0E0B0E08093522B9093532B36
:102F8000A093542BB093552B8091752B9091762B59
:102F9000892B09F4DEC580E293E0A0E0B0E08093E5
:102FA0006D2B90936E2BA0936F2BB093702B809111
:102FB000B0289091B128892B59F481E08093A828FA
:102FC0008CE69BE20E94E20A0093B0281093B1289D
:102FD0008091B5289091B628029781F410926C2BBD
:102FE0001092772B1092782B1092792B10927A2BCB
:102FF00010927B2B10927C2B1092A82880919A28FB
:1030000090919B28B1010E9488386B017C016093EC
:10301000922870939328809360289093612820E0F1
:1030200030E040E85FE360915C2870915D2880911A
:103030005E2890915F280E946E3660935C287093A2
:103040005D2880935E2890935F281092B92820E035
:1030500030E040E85FE36091AA287091AB2880914E
:10306000AC289091AD280E94213887FD81C510922F
:103070009E2881E08093B4281092A8280E945E08C0
:1030800060E08DE00E944F07C093E728D093E828C6
:1030900089E190E08093E9289093EA288AE190E022
:1030A0008093EB289093EC288093ED289093EE2862
:1030B0008EE090E08093EF289093F0288DE090E0F0
:1030C0008093F1289093F22880E190E08093F32898
:1030D0009093F4288EE190E08093F5289093F62861
:1030E00080915A2B90915B2B892B09F437C588EE80
:1030F00093E0A0E0B0E08093522B9093532BA093E9
:10310000542BB093552B8091752B9091762B892B56
:1031100009F429C580ED97E0A0E0B0E080936D2B25
:1031200090936E2BA0936F2BB093702B8091B0284F
:103130009091B128892B09F072CD8CE69BE20E9418
:10314000E20A0093B0281093B12869CD1092BD28EF
:103150001092BC281092BB281092BA281092B9285D
:103160001092B7281092B8281092B5281092B6285D
:103170001092B4281092B2281092B3281092B0285E
:103180001092B1281092AF281092AE281092082900
:103190001092AA281092AB281092AC281092AD2859
:1031A0001092A9281092672A1092682A1092692A10
:1031B00010926A2A1092A8281092A72881E0809382
:1031C000A62810926C2B1092772B1092782B1092CD
:1031D000792B10927A2B10927B2B10927C2B60E033
:1031E00089E10E944F071092362B1092412B1092CA
:1031F000422B1092432B1092442B1092452B10928D
:10320000462B10921B2B1092262B1092272B1092DC
:10321000282B1092292B10922A2B10922B2B60E036
:1032200088E10E944F071092AF2A1092BA2A10929A
:10323000BB2A1092BC2A1092BD2A1092BE2A10926C
:10324000BF2A0E945E088091A5288111F4C0809158
:10325000A428882309F493C08091A328882309F423
:103260008EC08091A1289091A22803970CF083C072
:10327000C0919F28D091A028CB34D105E4F561E01E
:1032800085E10E944F0788E190E08093EF289093BA
:10329000F0288093F1289093F2288093F32890935C
:1032A000F4288093F5289093F6288093E72890934C
:1032B000E8288093E9289093EA288093EB2890935C
:1032C000EC288093ED289093EE2860E08CE0DF916D
:1032D000CF911F910F91FF90EF90DF90CF90BF9013
:1032E000AF909F908F907F906F905F904F903F90A6
:1032F0002F900C944F0760E085E10E944F078BE010
:1033000090E08093E7289093E82821E130E0209333
:10331000E9283093EA2887E190E08093EB289093A6
:10332000EC288CE090E08093ED289093EE28809339
:10333000EF289093F02880E190E08093F12890931B
:10334000F2282093F3283093F4288093F528909363
:10335000F628C739D1050CF4B8CF8091A1289091F7
:10336000A22801968093A1289093A22810929F28CA
:103370001092A028AACF85E080931929A6CF80912A
:103380004C2981113DC0C090FF28D0900029E090C9
:103390000129F09002292DEC3CEC47EC52E4C701E6
:1033A000B6010E9421381816DCF420E030E040E23B
:1033B00051E4C701B6010E9425380E943E370E94A1
:1033C000950310929E288AE090E08093ED289093D8
:1033D000EE2860E070E0CB010E94560361E076CFFA
:1033E00020E030E048EC52E4C701B6010E942538E5
:1033F0000E943E370E94950381E080939E28E3CF90
:1034000020E030E040E251E46091CE287091CF2876
:103410008091D0289091D1280E9425380E943E3773
:103420000E94950385E190E08093ED289093EE282B
:1034300010929E28CECF60E081E20E944F0761E0AB
:103440008DE10E944F0761E08CE10E944F0761E02F
:103450008BE10E944F0760E08AE10E944F0760E025
:103460008DE00E944F0760E08CE00E944F07C09102
:103470009F28D091A028C931D1053CF560E085E1B5
:103480000E944F0788E190E08093E7289093E82816
:103490008093E9289093EA288093EB289093EC2876
:1034A0008093ED289093EE288093EF289093F02856
:1034B0008093F1289093F2288093F3289093F42836
:1034C0008093F5289093F628C4CA61E085E10E94B4
:1034D0004F0710929E288CE090E08093E72890930D
:1034E000E8288093E9289093EA2881E190E080938E
:1034F000EB289093EC2888E190E08093ED2890935E
:10350000EE2885E190E08093EF289093F0288DE0FD
:1035100090E08093F1289093F22889E190E08093E5
:10352000F3289093F4288AE190E08093F528909313
:10353000F628E3970CF48DCA10929F281092A028C9
:1035400088CA1092B92810929E2860E08DE10E94EE
:103550004F0761E08CE00E944F0780919F28909177
:10356000A02849970CF04DC080919D28811142C040
:1035700088E190E08093E7289093E8288093E928F9
:103580009093EA2880919F289091A028C39724F0D7
:1035900010929F281092A0288AE090E08093ED2856
:1035A0009093EE28809113299091142924E6289F66
:1035B000B001299F700D1124809115299091162931
:1035C000680F791F072E000C880B990BDF91CF91A4
:1035D0001F910F91FF90EF90DF90CF90BF90AF9031
:1035E0009F908F907F906F905F904F903F902F9023
:1035F0000C94560389E190E080939F289093A02833
:10360000C1CFC0939E2880910F299091102924E664
:10361000289FB001299F700D11242091112930910C
:1036200012294AE0429FC001439F900D1124680F68
:10363000791F072E000C880B990B0E949503A2CFCF
:10364000809113299091142914E6189FB001199FB5
:10365000700D11248091152990911629680F791FFA
:10366000072E000C880B990B0E945603C0919F28CF
:10367000D091A02880914C29811138C080910F29C8
:1036800090911029189FB001199F700D112420915D
:103690001129309112294AE0429FC001439F900DA9
:1036A0001124680F791F072E000C880B990B0E94BC
:1036B00095038AE090E08093ED289093EE2881E0D6
:1036C00080939E28699754F480919D28811190C021
:1036D00088E190E08093EB289093EC2880919F28DC
:1036E0009091A028C3970CF027CFB3C980913929B6
:1036F00090913A292AE0289FB001299F700D11244A
:10370000072E000C880B990B0E94950385E190E031
:103710008093ED289093EE2810929E286997F4F6F6
:1037200080919D28811164C088E190E08093E72812
:103730009093E8288093E9289093EA28CBCF809152
:103740004C2981113CC080910F299091102924E6C9
:10375000289FB001299F700D1124209111293091CB
:1037600012294AE0429FC001439F900D1124680F27
:10377000791F072E000C880B990B0E9495038AE095
:1037800090E08093ED289093EE2881E080939E282E
:1037900080919F289091A02849978CF580919D2831
:1037A000811126C088E190E08093EF289093F02863
:1037B0008093F1289093F2281092B9288FCF8091AE
:1037C000392990913A292AE0289FB001299F700D4C
:1037D0001124072E000C880B990B0E94950385E19C
:1037E00090E08093ED289093EE2810929E28D0CF01
:1037F00089E190E080939F289093A0286FCF10924A
:10380000B92880911929082E000C990BFC01EE0FA4
:10381000FF1FE35FF64D2081318144E6429FB001F6
:10382000439F700D1124880F991FFC01E15FF64D35
:1038300080819181680F791F072E000C880B990BEE
:103840000E9456034BCF1092B92880914C298111C8
:103850007CC080910F299091102924E6289FB00107
:10386000299F700D112420911129309112294AE0CD
:10387000429FC001439F900D1124680F791F072EAE
:10388000000C880B990B0E9495038AE090E08093CE
:10389000ED289093EE2881E080939E288091132953
:1038A0009091142924E6289FB001299F700D1124BE
:1038B0008091152990911629680F791F072E000C09
:1038C000880B990B0E94560380919F289091A02805
:1038D000499774F480919D28811150C088E190E04F
:1038E0008093F3289093F4288093F5289093F628FA
:1038F00080919F289091A028C39724F010929F2830
:103900001092A0281092B2281092B32880919C287F
:1039100090E0809317299093182981E080930829DB
:1039200020911329309114294CE3429FC001439FF9
:10393000900D11242091152930911629820F931F83
:1039400080939A2890939B2884C8809139299091DC
:103950003A292AE0289FB001299F700D1124072ED3
:10396000000C880B990B0E94950385E190E08093F1
:10397000ED289093EE2810929E2890CF89E190E058
:1039800080939F289093A028B3CFBE01DD0F880BB2
:10399000990B0E9471376B017C0120E030E040E719
:1039A00051E46091CE287091CF288091D0289091D9
:1039B000D1280E946E369B01AC01C701B601EAC84E
:1039C0001092A62861E088E10E944F078091FB28B1
:1039D0009091FC28A091FD28B091FE2880938B281F
:1039E00090938C28A0938D28B0938E280E94B308C2
:1039F00060938728709388288093892890938A28D9
:103A0000E2C86091942870919528072E000C880BCD
:103A1000990B0E9471376093832870938428809358
:103A200085289093862820E030E040E052E40E9410
:103A30006D3626E636E646EE5FE30E94D6366093A4
:103A4000672A7093682A8093692A90936A2AD5C856
:103A50001092A52818C9409164285091652860915A
:103A600066287091672826013701441A550A660AAC
:103A7000770AB301A20140395F456140710530F416
:103A8000019680936828909369282ECA109268281E
:103A90001092692829CA8091762890917728A09160
:103AA0007828B091792826013701481A590A6A0AFC
:103AB0007B0AD301C201813A9846A640B10508F4B9
:103AC00013CA81E080938F2860E085E10E944F0750
:103AD0001092192910929A2810929B2805CA20E06A
:103AE00030E040E85FE3C701B6010E94D23687FFAD
:103AF00019CA8091A628882309F414CA8091A9289C
:103B0000811107C08FEA9AE20E94E20A81E0809365
:103B1000A9280E94BF0806CA80914C29A7019601D6
:103B2000811109C0C501B4010E94213887FF0ECA66
:103B3000109262280ECA6091CE287091CF28809191
:103B4000D0289091D128F0CF80E89AE1A6E0B0E0AB
:103B500013CA80E095E3ACE0B0E021CA80E492E4CF
:103B6000AFE0B0E0C8CA80E894E8AEE1B0E0D6CA01
:103B700080910829882309F44DC080910729882362
:103B800009F448C010929E281092BA280E945E083C
:103B900060E08CE00E944F078CE090E08093E72883
:103BA0009093E82880E190E08093E9289093EA28B8
:103BB00089E190E08093EB289093EC2881E190E0FC
:103BC0008093ED289093EE288091172990911829E1
:103BD0001092EF281092F028892B79F4C093F128E5
:103BE000D093F228C093F328D093F42888E190E092
:103BF0008093F5289093F62812C884E190E0809392
:103C0000F1289093F22888E190E08093F328909334
:103C1000F428EECF80915A2890915B289C012F5F69
:103C20003F4F20935A2830935B2861E02839384071
:103C300038F0875998408839984008F055C060E0BE
:103C40008CE00E944F078091B428882371F0109275
:103C50006C2B1092772B1092782B1092792B10925C
:103C60007A2B10927B2B10927C2B84E68C9DB001DA
:103C70008D9D700D11246E0D7F1D072E000C880B7D
:103C8000990B0E9456038AEC9AE20E94840A809162
:103C900082288823F1F161E08CE10E944F0760E007
:103CA0008DE10E944F076091832870918428809154
:103CB00085289091862820914C2921111AC020E056
:103CC00030E048EC52E40E9425380E943E370E94C2
:103CD00095038AE090E08093ED289093EE2881E0B0
:103CE00080939E280C940F1610925A2810925B28ED
:103CF000AACF20E030E040E251E40E9425380E9443
:103D00003E370E949503C093ED28D093EE280C9483
:103D10000F1660E08CE10E944F0761E08DE10E9488
:103D20004F0780914C29811138C0C090FF28D09056
:103D30000029E0900129F09002292DEC3CEC47ECA1
:103D400052E4C701B6010E9421381816B4F420E0ED
:103D500030E040E251E4C701B6010E9425380E94DC
:103D60003E370E94950310929E288AE090E080934F
:103D7000ED289093EE280C940F1620E030E048ECEC
:103D800052E4C701B6010E9425380E943E370E94C6
:103D9000950381E080939E28E8CF20E030E040E268
:103DA00051E46091CE287091CF288091D0289091D5
:103DB000D128A3CF60E081E20E944F0760E080EA53
:103DC00090E00E94CF100E945E088BE19BE20E946F
:103DD000E20A1092A42860E087E890E00E94CF10E9
:103DE00060915628709157288091582890915928B1
:103DF0002CE330E040E050E00E949B3869012093C2
:103E000054283093552862E578E288E990E00E94D2
:103E1000501020915228309153282C0D3D1D209395
:103E20005228309353282F30374268F08091502821
:103E30009091512801968093502890935128109288
:103E400052281092532862E578E288E990E00E94B7
:103E50003A1160E578E28AE990E00E943A11109206
:103E600054281092552810925628109257281092D4
:103E70005828109259281092CA2A1092D52A1092C6
:103E8000D62A1092D72A1092D82A1092D92A1092A4
:103E9000DA2A8091AF288330B8F484EF91E00E9451
:103EA000020B1092AF2A1092BA2A1092BB2A1092DB
:103EB000BC2A1092BD2A1092BE2A1092BF2A8DEB06
:103EC0009BE20E94840AE5CF109219290C942915CF
:103ED000EF92FF920F931F93CF93DF93E82EF62E6E
:103EE000D0E0C0E0042F10E0B8010C2E02C07595A0
:103EF00067950A94E2F761708E2D0E948D0761E04C
:103F00008F2D0E948D0760E08F2D0E948D072196D6
:103F1000C830D10549F7DF91CF911F910F91FF90E4
:103F2000EF9008950F931F93CF93DF930E94C407E0
:103F30000E94D0070E94D00760E080E20E948D07B7
:103F4000C0913528D09136288091BD288E01000F70
:103F5000111F882331F0E091E728F091E82820979D
:103F6000C1F080919E28882339F0E091E928F091F2
:103F7000EA28C130D10569F08091BC28882309F472
:103F800080C0C230D10509F07CC0E091EB28F091EF
:103F9000EC28E85BFD44408141606EE18FE198DFF1
:103FA000F801EC5CFD4460E080810E948D0761E0D7
:103FB00080E20E948D072196C430D1050CF06BC0C1
:103FC000C0933528D09336280E94C40760E083E16F
:103FD0000E948D07C0913728D09138288091BA2847
:103FE0008E01000F111F882331F0E091EF28F0912E
:103FF000F0282097C1F08091B928882339F0E0910A
:10400000F128F091F228C130D10569F08091BB28E8
:10401000882309F445C0C230D10509F041C0E091C0
:10402000F328F091F428E85BFD444081416064E1AD
:1040300082E14EDFF801E25CFD4460E080810E9495
:104040008D0761E083E10E948D072196C430D10580
:104050008CF5C0933728D093382888E49AE20E94E0
:104060001F0B89E29AE20E941F0B8AE09AE20E94EB
:104070001F0B8BEE99E2DF91CF911F910F910C9462
:104080001F0BF801E951F74D0190F081E02DE85B3D
:10409000FD44408182CF109235281092362894CF6B
:1040A000F801E151F74D0190F081E02DE85BFD440E
:1040B0004081BDCF1092372810923828CECF1F9262
:1040C0000F920FB60F9211242F933F934F935F934C
:1040D0006F937F938F939F93AF93BF93EF93FF93D0
:1040E0008EE499E20E940506FF91EF91BF91AF9196
:1040F0009F918F917F916F915F914F913F912F9100
:104100000F900FBE0F901F9018951F920F920FB631
:104110000F9211242F938F939F93EF93FF93E0912E
:104120005A29F0915B29818181FD1BC0908180918A
:1041300064298F5F8F7320916529821741F0E09188
:104140006429F0E0E25BF64D958F80936429FF913E
:10415000EF919F918F912F910F900FBE0F901F9015
:1041600018958081F4CF1F920F920FB60F921124F1
:104170008F939F93AF93BF938091392890913A2862
:10418000A0913B28B0913C280196A11DB11D8093C0
:10419000392890933A28A0933B28B0933C2881E09B
:1041A0008093A60ABF91AF919F918F910F900FBE00
:1041B0000F901F9018951F920F920FB60F92112417
:1041C0002F933F934F935F936F937F938F939F931F
:1041D000AF93BF93EF93FF9387E89BE20E94840A1B
:1041E0008FEA9AE20E94840A80E09BE20E94840A9D
:1041F00085EE9AE20E94840A8CE69BE20E94840A81
:1042000081E59BE20E94840A86E39BE20E94840A85
:104210008BE19BE20E94840A80919F289091A028C4
:10422000019680939F289093A028809162288823EC
:1042300081F180911828909119280196809318286F
:1042400090931928803B9E4021F5809156289091AB
:104250005728A0915828B09159280196A11DB11D49
:104260008093562890935728A0935828B0935928A4
:1042700080919A2890919B28019780939A289093F7
:104280009B281092182810921928892B11F410924B
:1042900062288091A728882379F08091092890913D
:1042A0000A28429749F480913D2890913E28019632
:1042B00080933D2890933E2881E080930B0AFF91E4
:1042C000EF91BF91AF919F918F917F916F915F918E
:1042D0004F913F912F910F900FBE0F901F90189507
:1042E0004F925F926F927F928F929F92AF92BF9206
:1042F000CF92DF92EF92FF921092502910925129A3
:1043000088EE93E0A0E0B0E0809352299093532987
:10431000A0935429B093552982E993EB80934E29B9
:1043200090934F2980E498E080935A2990935B29D9
:1043300083E280935C2982E280935D2910925E295A
:1043400087E280935F2986E28093602980E18093F1
:1043500061291092622910926329109264291092A7
:104360006529109266291092672980E28093682956
:104370001092692910926A2982E090E08093C62BFE
:104380009093C72B80E89CE0A0E0B0E08093BE2B28
:104390009093BF2BA093C02BB093C12B1092C22B34
:1043A0001092C32B1092C42B1092C52B82E99FE16F
:1043B0008093CE2B9093CF2B1092BD2B1092D02BAD
:1043C0001092D12B1092D22B1092D32B1092C82B7B
:1043D0001092C92B1092CA2B1092CB2B1092AB2BA0
:1043E0001092AC2B80E4882E82E4982E8FE0A82EC9
:1043F000B12C8092A32B9092A42BA092A52BB092CB
:10440000A62BC12CD12C7601C394C092A72BD0929D
:10441000A82BE092A92BF092AA2B85E891E080933B
:10442000B32B9093B42B1092A22B1092B52B109219
:10443000B62B1092B72B1092B82B1092AD2B109276
:10444000AE2B1092AF2B1092B02B63E270E088E499
:104450009AE20E94910765E270E089E29AE20E9486
:10446000910764E270E08AE09AE20E94910762E2BA
:1044700070E08BEE99E20E9491071092902B1092BF
:10448000912B80EA96E8A1E0B0E08093882B90938E
:10449000892BA0938A2BB0938B2BC0928C2BD0921C
:1044A0008D2BE0928E2BF0928F2B8EE79DE08093E8
:1044B000982B9093992B1092872B10929A2B1092F5
:1044C0009B2B10929C2B10929D2B1092922B109252
:1044D000932B1092942B1092952B1092752B109277
:1044E000762B80E894E8AEE1B0E080936D2B90935A
:1044F0006E2BA0936F2BB093702B1092712B109298
:10450000722B1092732B1092742B2AE83DE02093AB
:104510007D2B30937E2B10926C2B10927F2B109260
:10452000802B1092812B1092822B1092772B10925D
:10453000782B1092792B10927A2B10925A2B109282
:104540005B2B8092522B9092532BA092542BB092C3
:10455000552BC092562BD092572BE092582BF092AD
:10456000592B20E93DE02093622B3093632B10926E
:10457000512B1092642B1092652B1092662B109287
:10458000672B10925C2B10925D2B10925E2B109279
:104590005F2B10923F2B1092402B40EE53E964E0CA
:1045A00070E04093372B5093382B6093392B7093E6
:1045B0003A2B10923B2B10923C2B10923D2B1092D9
:1045C0003E2B20EB3DE02093472B3093482B10925D
:1045D000362B1092492B10924A2B10924B2B109293
:1045E0004C2B1092412B1092422B1092432B109285
:1045F000442B1092242B1092252B40EC57E269E0BB
:1046000070E040931C2B50931D2B60931E2B7093D6
:104610001F2B1092202B1092212B1092222B1092E4
:10462000232B2AEA3DE020932C2B30932D2B109244
:104630001B2B10922E2B10922F2B1092302B10929E
:10464000312B1092262B1092272B1092282B109290
:10465000292B1092092B10920A2B48E458EE61E0A6
:1046600070E04093012B5093022B6093032B7093C7
:10467000042B1092052B1092062B1092072B1092F0
:10468000082B29EB3DE02093112B3093122B109235
:10469000002B1092132B1092142B1092152B1092AA
:1046A000162B10920B2B10920C2B10920D2B10929C
:1046B0000E2B1092EE2A1092EF2A48EB5FEF61E08A
:1046C00070E04093E62A5093E72A6093E82A7093BB
:1046D000E92A1092EA2A1092EB2A1092EC2A109200
:1046E000ED2A22E83EE02093F62A3093F72A109232
:1046F000E52A1092F82A1092F92A1092FA2A1092BA
:10470000FB2A1092F02A1092F12A1092F22A1092AB
:10471000F32A1092D32A1092D42A8093CB2A909312
:10472000CC2AA093CD2AB093CE2A1092CF2A1092F1
:10473000D02A1092D12A1092D22A8AE791E080934F
:10474000DB2A9093DC2A1092CA2A1092DD2A10925A
:10475000DE2A1092DF2A1092E02A1092D52A1092B7
:10476000D62A1092D72A1092D82A1092B82A1092DC
:10477000B92A80E89AE1A6E0B0E08093B02A90934D
:10478000B12AA093B22AB093B32A1092B42A1092FD
:10479000B52A1092B62A1092B72A8AEC9EE080932E
:1047A000C02A9093C12A1092AF2A1092C22A109266
:1047B000C32A1092C42A1092C52A1092BA2A1092C3
:1047C000BB2A1092BC2A1092BD2AC0901328D09008
:1047D0001428E0901528F090162880900F289090CB
:1047E0001028A0901128B090122840900B285090CB
:1047F0000C2860900D2870900E288BE69AE280932A
:10480000912A9093922A8FE69AE280938F2A90932E
:10481000902A87E69AE28093932A9093942A1092A2
:10482000AD2A1092A52A1092A62A1092A72A1092B9
:10483000A82A80E090E0AFE7B3E48093A92A9093A0
:10484000AA2AA093AB2AB093AC2A84E690E0A0E019
:10485000B0E08093A12A9093A22AA093A32AB093B8
:10486000A42A10928B2A10928C2A20E030E0A90111
:10487000C301B2010E94D23687FD5AC020E030E069
:10488000A901C501B4010E94D23687FD51C020E0C4
:1048900030E0A901C701B6010E94D23687FD48C0A9
:1048A00081E090E080938D2A90938E2A8093AE2AA7
:1048B0004092732A5092742A6092752A7092762AD6
:1048C0008092772A9092782AA092792AB0927A2AB6
:1048D000C0927B2AD0927C2AE0927D2AF0927E2A96
:1048E00040927F2A5092802A6092812A7092822A76
:1048F0002DEC3CEC4CEC5DE3C501B4010E94253885
:104900006093832A7093842A8093852A9093862AC1
:104910002DEC3CEC4CEC5DE3C701B6010E94D636B1
:104920006093872A7093882A8093892A90938A2A91
:104930000E94B308C090A12AD090A22AE090A32A96
:10494000F090A42A6C197D098E099F096093952A1D
:104950007093962A8093972A9093982AFF90EF90CD
:10496000DF90CF90BF90AF909F908F907F906F908F
:104970005F904F900895CF93DF93CDB7DEB7269722
:10498000CDBFDEBF88ED90E084BF90936100809141
:104990000206866080930206809100068160809303
:1049A0000006809102068F7C80658093020610923B
:1049B000E20582E08093E40581E08093030A8EEFB4
:1049C0008093270A8093260A80E880932D0A80939B
:1049D0002B0A8093290A80932C0A80932A0A8093B9
:1049E000280A8BE08093000A87E08093E505E0E8E1
:1049F000FAE037E02EEF90E885E031832487958751
:104A000080837096E03C4AE0F407B9F71092A10A5F
:104A10008FE79EE38093AC0A9093AD0A8091A50A3C
:104A200081608093A50A1092A00A8091A00A8160FB
:104A30008093A00A789447E266E28EE499E20E94AD
:104A4000E20540E855E260E070E08EE499E20E9401
:104A5000750DF89481E080930A0A1092010A809102
:104A6000090A8E7F8093090A8AEF90E08093260AD4
:104A70009093270A8FE08093000A789461E08BE09E
:104A80000E94200761E08AE00E94200761E089E03F
:104A90000E94200761E088E00E94200761E084E036
:104AA0000E94200761E085E00E94200761E086E027
:104AB0000E94200761E087E00E94200761E084E116
:104AC0000E94200761E083E10E94200761E082E10B
:104AD0000E94200761E08EE10E94200761E080E2F1
:104AE0000E94200761E08FE10E94200761E088E0DA
:104AF0000E948D0761E089E00E948D0761E08AE0F5
:104B00000E948D0761E08BE00E948D0761E087E0E5
:104B10000E948D0761E086E00E948D0761E085E0DC
:104B20000E948D0761E084E00E948D0761E08CE0C7
:104B30000E94EC0661E08DE00E94EC0660E08CE0F3
:104B40000E944F0760E08DE00E944F078DEB9BE2D3
:104B50000E94E20A1092A52A1092A62A1092A72A71
:104B60001092A82A812C912C9AE7A92E94E4B92EB0
:104B70008092A92A9092AA2AA092AB2AB092AC2A3B
:104B80008091AD2A882309F457C00091912A109191
:104B9000922AD801CD90DD90ED90FC90A501940172
:104BA000C701B6010E942138181634F5F801808239
:104BB0009182A282B3828090992A90909A2AA090A2
:104BC0009B2AB0909C2AC090A92AD090AA2AE09053
:104BD000AB2AF090AC2AA7019601C501B4010E944E
:104BE00021381816CCF4C092992AD0929A2AE092D1
:104BF0009B2AF0929C2A20C020E030E0A901C70146
:104C0000B6010E94D23687FFD6CFD8011D921D92E1
:104C10001D921C921397CFCFC090A52AD090A62AA0
:104C2000E090A72AF090A82AA7019601C501B40137
:104C30000E94D23687FDD7CF0E94B3086093F72831
:104C40007093F8288093F9289093FA288091AD2AE0
:104C5000811149C0E091912AF091922AC080D180BF
:104C6000E280F380C092992AD0929A2AE0929B2AFD
:104C7000F0929C2AE0918F2AF091902A8081918174
:104C8000A281B38180939D2A90939E2AA0939F2A0C
:104C9000B093A02A8090A92A9090AA2AA090AB2A2B
:104CA000B090AC2AA5019401C701B6010E94213839
:104CB00018164CF48092992A90929A2AA0929B2AD4
:104CC000B0929C2A10C08090A52A9090A62AA0900D
:104CD000A72AB090A82AA5019401C701B6010E9495
:104CE000D23687FDE7CF81E08093AD2A61E085E190
:104CF0000E94EC0661E088E10E94EC0661E089E137
:104D00000E94EC0661E081E20E94EC0660E089E12D
:104D10000E944F0760E085E10E944F0760E088E154
:104D20000E944F0760E081E20E944F0761E08BE143
:104D30000E94EC0661E08CE10E94EC0661E08DE1EE
:104D40000E94EC0661E08AE10E94EC060E945E0887
:104D500080E09BE20E94E20A85EE9AE20E94E20A6B
:104D600090E080E00E94A710BB24B394811101C0A1
:104D7000B12CB0929C2881E090E00E94A71001E045
:104D8000811101C000E000934C2982E090E00E9474
:104D9000A710C82ED12CC0920B29D0920C2969E003
:104DA00079E283E090E00E94501085E090E00E945C
:104DB000A710E82EF12CE092D228F092D32813E02D
:104DC000612E19E2712E86E4882E912C89829A82B6
:104DD000CE0101960E944010F30181933F01FFEF45
:104DE0008F1A9F0A2AE48216910481F787E090E0E7
:104DF0000E94A71091E0811101C090E09093E628F5
:104E000088E090E00E94A71091E0811101C090E03D
:104E10009093E12889E090E00E94A71091E0811131
:104E200001C090E09093DC286AEC78E280E590E0A5
:104E30000E94751066EC78E28AE590E00E94751099
:104E400062EC78E284E690E00E9475106EEB78E206
:104E50008EE690E00E94751081E490E089839A8349
:104E6000CE0101960E9440108093632862E578E2AB
:104E700088E990E00E94501060E578E28AE990E0CD
:104E80000E9450108FE090E00E94A71011E0811165
:104E900001C010E01093A32886E990E00E94A710BB
:104EA00091E0811101C090E0909307292B2D30E013
:104EB00020931A2930931B29202F30E020931C299E
:104EC00030931D29C0921E29D0921F2920910929B3
:104ED00030910A292093402930934129E0922629D4
:104EE000F09227292091632830E0209320293093E5
:104EF0002129212F30E02093222930932329892F43
:104F000090E0809324299093252969E379E288E74A
:104F100090E00E94501083E790E00E94A71090E07C
:104F200080930F299093102985E790E00E94A710A5
:104F300090E080931129909312298DE790E00E94D0
:104F4000A71090E0809313299093142982E890E0B1
:104F50000E94A71090E0809315299093162987E866
:104F600090E00E94A71091E0811101C090E0909321
:104F7000A42862E083E20E94EC0662E085E20E94DF
:104F8000EC0662E084E20E94EC0662E082E20E94AB
:104F9000EC068FE591E18093552A9093562A8BE495
:104FA0009DE080935B2A90935C2A81E09DE0809352
:104FB000362A9093372A8AEE9CE08093402A909379
:104FC000412A8AE495E080933E2A90933F2A81E922
:104FD0009CE08093172A9093182A8AE79CE080939C
:104FE000212A9093222A8FE395E080931F2A9093A1
:104FF000202A87E19CE08093F8299093F92980EF9B
:105000009BE08093FE299093FF2982EA9BE20E9415
:10501000E20AEAE0EE2EF12C08E110E0FEE14F2E6C
:10502000512CA9E16A2E712CB8E12B2E312C8DEB7D
:105030009BE20E94840A0E94D40380910428882362
:1050400099F182EA9BE20E94840A89E190E00E9441
:10505000020B82E290E08093E7289093E828009387
:10506000E9281093EA280093EB281093EC2800938A
:10507000ED281093EE280093EF281093F02884E099
:1050800090E08093F1289093F2281092F3281092E8
:10509000F42881E090E08093F5289093F62880939F
:1050A000B9280E94BA06C3CF1092A22B1092AD2B42
:1050B0001092AE2B1092AF2B1092B02B1092B12BFE
:1050C0001092B22B20E030E040EF52E46091FB28D8
:1050D0007091FC288091FD289091FE280E94213833
:1050E00087FD8CC01092BD281092BC2810929E287B
:1050F0001092BB281092BA281092B9281092A728B3
:105100001092672A1092682A1092692A10926A2ACD
:1051100010924D291092192960E08CE00E944F07EF
:1051200060E08DE00E944F078BE090E08093E728DD
:105130009093E82881E190E08093E9289093EA2811
:1051400027E130E02093EB283093EC284EE050E04C
:105150004093ED285093EE284FE050E04093EF2825
:105160005093F0288093F1289093F2282093F3280D
:105170003093F4288093F5289093F62880915A2B49
:1051800090915B2B892B81F188EE93E0A0E0B0E059
:105190008093522B9093532BA093542BB093552B69
:1051A0008091752B9091762B892B19F180ED97E0EA
:1051B000A0E0B0E080936D2B90936E2BA0936F2BAB
:1051C000B093702B8091B0289091B128892B09F071
:1051D00068CF8CE69BE20E94E20A81E090E0809337
:1051E000B0289093B1285DCF80E492E4AFE0B0E0C6
:1051F000CFCF80E894E8AEE1B0E0DCCF85E20E945A
:105200006A08D0904F28811142C084E20E946A0847
:1052100081113DC0D1103BC00E94B30860934B2860
:1052200070934C2880934D2890934E2881E0809372
:105230004F2880914D29882311F40C94693660E041
:105240008CE00E944F07E0910928F0910A28809194
:10525000A728882309F41FC7E331F10508F021CFFF
:10526000EC5CF64D0C94D9389B29F429322A9D2AFE
:10527000092B572BA62BE72B142C612CB02CF52CCB
:10528000372DB02DE22D5A2E5F2E8C2EBF2E85E2AB
:105290000E946A08882361F0DD2009F4CACF85E204
:1052A0000E946A08813009F03FC010924F28C1CF98
:1052B000C0904D2984E20E946A088111EDCFDD2063
:1052C00009F4B7CF0E94B30880904B2890904C28E7
:1052D000A0904D28B0904E28681979098A099B0939
:1052E000683B7B408105910508F4A3CF84EF91E0F2
:1052F0000E94020B8091192981119BCFC1109FCF71
:105300008EE591E080939F289093A02881E0809380
:105310004D2980934A288093492885E090E0809326
:10532000092890930A2885CF84E20E946A08813078
:1053300009F07FCFBACF1092B92810929E28109210
:10534000BA280E945E088CE090E08093E728909352
:10535000E82880E190E08093E9289093EA28609221
:10536000EB287092EC2881E190E08093ED289093F7
:10537000EE2880919F289091A028893191054CF4C6
:105380000093EF281093F0280093F1281093F2284F
:1053900003C720911A2930911B291092EF281092EF
:1053A000F028232BB1F425E130E02093F12830934D
:1053B000F2282093F3283093F4280093F5281093D3
:1053C000F628C3970CF46DCE10929F281092A02857
:1053D00068CE24E130E02093F1283093F228009346
:1053E000F3281093F428E9CF0E945E081092B928A0
:1053F00010929E288CE190E08093E7289093E82813
:1054000084E190E08093E9289093EA286092EB2869
:105410007092EC2880E190E08093ED289093EE2844
:1054200080919F289091A028893191050CF4A8CFF4
:1054300020911C2930911D29232B59F42DE130E0B6
:105440002093EF283093F028E092F128F092F22890
:10545000C6CF2DE130E02093EF283093F02825E1EE
:1054600030E0B9CF0E945E081092B9288CE090E03D
:105470008093E7289093E8288DE090E08093E928D6
:105480009093EA2885E190E08093EB289093EC28B4
:105490008FE090E08093ED289093EE2880914C2946
:1054A00020919F283091A02829313105D4F4909182
:1054B0009D28911111C00093EF281093F0280093BC
:1054C000F1281093F2280093F3281093F4288823EE
:1054D000F1F085E190E081C060929F287092A02851
:1054E000F6CF811119C080911E2990911F292AE0C1
:1054F000289FB001299F700D1124072E000C880BE6
:10550000990B0E9456030093EF281093F028E09225
:10551000F528F092F62865C08091402990914129A4
:105520002AE0289FB001299F700D1124072E000C3E
:10553000880B990B0E945603CCCF1092BA28109278
:10554000B92810929E280E945E0880E190E0809326
:10555000E7289093E8286092E9287092EA2822E1EF
:1055600030E02093EB283093EC282FE030E02093BC
:10557000ED283093EE2820919F283091A0282931E2
:105580003105ACF480919D2881115DC20093EF2814
:105590001093F0280093F1281093F2280093F32839
:1055A0001093F4280093F5281093F6281AC0209140
:1055B000202930912129232BC9F48093EF2890933F
:1055C000F02827E130E02093F1283093F2288093EF
:1055D000F3289093F4288FE190E08093F52890933E
:1055E000F62880919F289091A028EBCE8CE090E047
:1055F0008093EF289093F02887E190E08093F12842
:105600009093F2288DE090E08093F3289093F42813
:105610007ECF0E945E088BE090E08093E728909315
:10562000E82881E190E08093E9289093EA2887E1D7
:1056300090E08093EB289093EC288CE090E08093AE
:10564000ED289093EE2820919F283091A0282931B1
:1056500031050CF497CF2091222930912329232B57
:1056600089F420E230E02093EF283093F028609214
:10567000F1287092F2288093F3289093F4288EE01A
:1056800090E0ABCF8FE090E08093EF289093F028EC
:1056900084E190E08093F1289093F2288EE090E0EE
:1056A0008093F3289093F4288AE190E096CF1092AB
:1056B000B92810929E280E945E088BE090E08093AB
:1056C000E7289093E82881E190E08093E92890937F
:1056D000EA2880E290E08093EB289093EC2880E128
:1056E00090E08093ED289093EE2880919F289091F0
:1056F000A02849970CF446CF809124299091252920
:10570000892B99F084E290E08093EF289093F02821
:105710008AE190E08093F1289093F2288CE090E069
:105720008093F3289093F4283DCF84E290E0809317
:10573000EF289093F0288AE190E08093F1289093ED
:10574000F228E092F328F092F4282CCF1092B92896
:105750000E945E08E092E728F092E8282DE030E011
:105760002093E9283093EA288AE190E08093EB289F
:105770009093EC284EE050E04093ED285093EE28B3
:1057800040919F285091A028493151050CF4F8CD43
:105790006091262970912729E092EF28F092F02855
:1057A0002093F1283093F2288093F3289093F428E3
:1057B00082E090E0672B11F481E090E08093F5287F
:1057C0009093F628433351050CF0FECD6ACC10922D
:1057D000BA280E945E08E092E728F092E8288DE05F
:1057E00090E08093E9289093EA288AE190E0809302
:1057F000EB289093EC2881E090E08093ED28909343
:10580000EE2880919F289091A028499704F58091D7
:105810009D288111D2C10093EF281093F0280093A6
:10582000F1281093F22873CE80919F289091A028A0
:1058300020914C29211128C049974CF480919D2832
:105840008111BBC10093F3281093F42860CE80919E
:1058500028299091292924E6289FB001299F700DBD
:10586000112420912A2930912B294AE0429FC0011E
:10587000439F900D1124680F791F072E000C880B91
:10588000990B0E94560343CE4997B4F480919D280A
:1058900081110DC00093EF281093F0280093F12898
:1058A0001093F2280093F3281093F42812CE6092FC
:1058B0009F287092A0280DCE809142299091432973
:1058C0002FCEDD24D394D092BA281092B9280E940A
:1058D0005E08D092AE28E092E728F092E8288DE0AA
:1058E00090E08093E9289093EA288AE190E0809301
:1058F000EB289093EC2882E090E08093ED28909341
:10590000EE2880919F289091A0284997C4F4809117
:105910009D2881110FC00093F1281093F228009365
:10592000F3281093F4288AE190E08093EF28909375
:10593000F028EDCD60929F287092A028F4CF80913E
:105940002C2990912D292AE0289FB001299F700DC4
:105950001124072E000C880B990B0E945603E3CFED
:105960000E945E08E092E728F092E8288DE090E03F
:105970008093E9289093EA288AE190E08093EB28CD
:105980009093EC2882E090E08093ED289093EE28AD
:1059900080919F289091A0284997B4F480919D28E8
:1059A00081110DC00093F1281093F2280093F32881
:1059B0001093F4284092EF285092F028A8CD6092DE
:1059C0009F287092A028F6CF80912E2990912F29A0
:1059D0002AE0289FB001299F700D1124072E000C8A
:1059E000880B990B0E945603E5CF0E945E0881E068
:1059F0008093B9286091022870910328072E000C2B
:105A0000880B990B0E9495038AE190E08093E72828
:105A10009093E82887E190E08093E9289093EA2822
:105A200080919F289091A028499794F480919D2877
:105A3000811109C00093EF281093F0280093F128FA
:105A40001093F228CECD60929F287092A028C9CDE5
:105A5000809130299091312924E6289FB001299F17
:105A6000700D11242091322930913329FECE0E94ED
:105A70005E086091022870910328072E000C880BA5
:105A8000990B0E9495038AE190E08093E728909318
:105A9000E82887E190E08093E9289093EA28C09075
:105AA0003029D0903129A0903229B09033298091AB
:105AB0009F289091A0284997F4F580919D28811105
:105AC00035C00093F3281093F428E092F528F09263
:105AD000F62880919F289091A028C39724F01092D7
:105AE0009F281092A028B501BB0C880B990B0E942F
:105AF000713720E030E040E251E40E94D6364B019D
:105B00005C01B601DD0C880B990B0E9471379B017B
:105B1000AC01C501B4010E946E36609345287093B4
:105B200046288093472890934828BBCA60929F28B4
:105B30007092A028CACF84E68C9DB0018D9D700D17
:105B400011242AE02A9DC0012B9D900D1124680F7D
:105B5000791F072E000C880B990B0E945603B5CFB6
:105B60000E945E086091432870914428072E000C23
:105B7000880B990B0E9495034092E7285092E828E1
:105B80006092E9287092EA2881E08093B928809198
:105B90009F289091A02849970CF439CE8091342900
:105BA0009091352924E6289FB001299F700D11247A
:105BB000209136293091372958CE60929F287092D3
:105BC000A028A5CC0E945E086091432870914428CB
:105BD000072E000C880B990B0E9495034092E72832
:105BE0005092E8286092E9287092EA2881E0809338
:105BF000B928C0903429D0903529A0903629B0908A
:105C0000372980919F289091A0284997F4F5809199
:105C10009D28811135C00093F3281093F428E09259
:105C2000F528F092F62880919F289091A028C3979C
:105C300024F010929F281092A028B501BB0C880B6D
:105C4000990B0E94713720E030E040E251E40E945D
:105C5000D6364B015C01B601DD0C880B990B0E9416
:105C600071379B01AC01C501B4010E946E3660938F
:105C70003F2870934028809341289093422811CA6E
:105C800060929F287092A028CACF84E68C9DB001B4
:105C90008D9D700D11242AE02A9DC0012B9D900D31
:105CA0001124680F791F072E000C880B990B0E9496
:105CB0005603B5CF1092492810924D29F2C910927F
:105CC000BA281092B92810929E280E945E088091EE
:105CD0005228909153282AE0289FB001299F700DE7
